{"abi":[{"type":"constructor","inputs":[{"name":"priceFeed","type":"address","internalType":"address"}],"stateMutability":"nonpayable"},{"type":"fallback","stateMutability":"payable"},{"type":"receive","stateMutability":"payable"},{"type":"function","name":"addressToAmountFunded","inputs":[{"name":"","type":"address","internalType":"address"}],"outputs":[{"name":"","type":"uint256","internalType":"uint256"}],"stateMutability":"view"},{"type":"function","name":"balance","inputs":[],"outputs":[{"name":"","type":"uint256","internalType":"uint256"}],"stateMutability":"view"},{"type":"function","name":"contributions","inputs":[{"name":"","type":"address","internalType":"address"}],"outputs":[{"name":"","type":"uint256","internalType":"uint256"}],"stateMutability":"view"},{"type":"function","name":"deadline","inputs":[],"outputs":[{"name":"","type":"uint256","internalType":"uint256"}],"stateMutability":"view"},{"type":"function","name":"fund","inputs":[],"outputs":[],"stateMutability":"payable"},{"type":"function","name":"funders","inputs":[{"name":"","type":"uint256","internalType":"uint256"}],"outputs":[{"name":"","type":"address","internalType":"address"}],"stateMutability":"view"},{"type":"function","name":"getVersion","inputs":[],"outputs":[{"name":"","type":"uint256","internalType":"uint256"}],"stateMutability":"view"},{"type":"function","name":"goal","inputs":[],"outputs":[{"name":"","type":"uint256","internalType":"uint256"}],"stateMutability":"view"},{"type":"function","name":"i_owner","inputs":[],"outputs":[{"name":"","type":"address","internalType":"address"}],"stateMutability":"view"},{"type":"function","name":"owner","inputs":[],"outputs":[{"name":"","type":"address","internalType":"address"}],"stateMutability":"view"},{"type":"function","name":"withdraw","inputs":[],"outputs":[],"stateMutability":"nonpayable"},{"type":"error","name":"NotOwner","inputs":[]}],"bytecode":{"object":"0x60a0604052348015600f57600080fd5b50604051610854380380610854833981016040819052602c916054565b33608052600780546001600160a01b0319166001600160a01b03929092169190911790556082565b600060208284031215606557600080fd5b81516001600160a01b0381168114607b57600080fd5b9392505050565b6080516107b06100a4600039600081816101da015261037601526107b06000f3fe6080604052600436106100a05760003560e01c806342e94c901161006457806342e94c901461014d5780638da5cb5b1461017a578063b60d4288146100af578063b69ef8a8146101b2578063dba6335f146101c8578063dc0d3dff146101fc576100af565b80630d8e6e2c146100b757806329dcb0cf146100df5780633ccfd60b146100f55780633e47d6f31461010a5780634019388314610137576100af565b366100af576100ad61021c565b005b6100ad61021c565b3480156100c357600080fd5b506100cc6102f8565b6040519081526020015b60405180910390f35b3480156100eb57600080fd5b506100cc60025481565b34801561010157600080fd5b506100ad61036b565b34801561011657600080fd5b506100cc610125366004610608565b60056020526000908152604090205481565b34801561014357600080fd5b506100cc60015481565b34801561015957600080fd5b506100cc610168366004610608565b60046020526000908152604090205481565b34801561018657600080fd5b5060005461019a906001600160a01b031681565b6040516001600160a01b0390911681526020016100d6565b3480156101be57600080fd5b506100cc60035481565b3480156101d457600080fd5b5061019a7f000000000000000000000000000000000000000000000000000000000000000081565b34801561020857600080fd5b5061019a610217366004610631565b6104a9565b600754674563918244f400009061023d9034906001600160a01b03166104d3565b10156102905760405162461bcd60e51b815260206004820152601b60248201527f596f75206e65656420746f207370656e64206d6f72652045544821000000000060448201526064015b60405180910390fd5b33600090815260056020526040812080543492906102af908490610660565b9091555050600680546001810182556000919091527ff652222313e28459528d920b65115c16c04f3efc82aaedc97be59f3f377c0d3f0180546001600160a01b03191633179055565b6007546040805163054fd4d560e41b815290516000926001600160a01b0316916354fd4d509160048083019260209291908290030181865afa158015610342573d6000803e3d6000fd5b505050506040513d601f19601f820116820180604052508101906103669190610673565b905090565b336001600160a01b037f000000000000000000000000000000000000000000000000000000000000000016146103b4576040516330cd747160e01b815260040160405180910390fd5b60005b600654811015610401576000600682815481106103d6576103d661068c565b60009182526020808320909101546001600160a01b03168252600590526040812055506001016103b7565b50604080516000815260208101918290525161041f9160069161058e565b50604051600090339047908381818185875af1925050503d8060008114610462576040519150601f19603f3d011682016040523d82523d6000602084013e610467565b606091505b50509050806104a65760405162461bcd60e51b815260206004820152600b60248201526a10d85b1b0819985a5b195960aa1b6044820152606401610287565b50565b600681815481106104b957600080fd5b6000918252602090912001546001600160a01b0316905081565b6000806104df8361050b565b90506000670de0b6b3a76400006104f686846106a2565b61050091906106b9565b925050505b92915050565b600080826001600160a01b031663feaf968c6040518163ffffffff1660e01b815260040160a060405180830381865afa15801561054c573d6000803e3d6000fd5b505050506040513d601f19601f8201168201806040525081019061057091906106fa565b505050915050806402540be400610587919061074a565b9392505050565b8280548282559060005260206000209081019282156105e3579160200282015b828111156105e357825182546001600160a01b0319166001600160a01b039091161782556020909201916001909101906105ae565b506105ef9291506105f3565b5090565b5b808211156105ef57600081556001016105f4565b60006020828403121561061a57600080fd5b81356001600160a01b038116811461058757600080fd5b60006020828403121561064357600080fd5b5035919050565b634e487b7160e01b600052601160045260246000fd5b808201808211156105055761050561064a565b60006020828403121561068557600080fd5b5051919050565b634e487b7160e01b600052603260045260246000fd5b80820281158282048414176105055761050561064a565b6000826106d657634e487b7160e01b600052601260045260246000fd5b500490565b805169ffffffffffffffffffff811681146106f557600080fd5b919050565b600080600080600060a0868803121561071257600080fd5b61071b866106db565b945060208601519350604086015192506060860151915061073e608087016106db565b90509295509295909350565b80820260008212600160ff1b841416156107665761076661064a565b81810583148215176105055761050561064a56fea264697066735822122033929a5ea73e850141671c0210d917b2dda2188faf3472db639bdb494ad8d66164736f6c63430008190033","linkReferences":{}},"methodIdentifiers":{"addressToAmountFunded(address)":"3e47d6f3","balance()":"b69ef8a8","contributions(address)":"42e94c90","deadline()":"29dcb0cf","fund()":"b60d4288","funders(uint256)":"dc0d3dff","getVersion()":"0d8e6e2c","goal()":"40193883","i_owner()":"dba6335f","owner()":"8da5cb5b","withdraw()":"3ccfd60b"},"id":29}