{
  "abi": [
    {
      "type": "constructor",
      "inputs": [
        {
          "name": "priceFeed",
          "type": "address",
          "internalType": "address"
        }
      ],
      "stateMutability": "nonpayable"
    },
    {
      "type": "fallback",
      "stateMutability": "payable"
    },
    {
      "type": "receive",
      "stateMutability": "payable"
    },
    {
      "type": "function",
      "name": "addressToAmountFunded",
      "inputs": [
        {
          "name": "",
          "type": "address",
          "internalType": "address"
        }
      ],
      "outputs": [
        {
          "name": "",
          "type": "uint256",
          "internalType": "uint256"
        }
      ],
      "stateMutability": "view"
    },
    {
      "type": "function",
      "name": "contributions",
      "inputs": [
        {
          "name": "",
          "type": "address",
          "internalType": "address"
        }
      ],
      "outputs": [
        {
          "name": "",
          "type": "uint256",
          "internalType": "uint256"
        }
      ],
      "stateMutability": "view"
    },
    {
      "type": "function",
      "name": "fund",
      "inputs": [],
      "outputs": [],
      "stateMutability": "payable"
    },
    {
      "type": "function",
      "name": "funders",
      "inputs": [
        {
          "name": "",
          "type": "uint256",
          "internalType": "uint256"
        }
      ],
      "outputs": [
        {
          "name": "",
          "type": "address",
          "internalType": "address"
        }
      ],
      "stateMutability": "view"
    },
    {
      "type": "function",
      "name": "getOwner",
      "inputs": [],
      "outputs": [
        {
          "name": "",
          "type": "address",
          "internalType": "address"
        }
      ],
      "stateMutability": "view"
    },
    {
      "type": "function",
      "name": "getProjectName",
      "inputs": [],
      "outputs": [
        {
          "name": "",
          "type": "string",
          "internalType": "string"
        }
      ],
      "stateMutability": "view"
    },
    {
      "type": "function",
      "name": "getVersion",
      "inputs": [],
      "outputs": [
        {
          "name": "",
          "type": "uint256",
          "internalType": "uint256"
        }
      ],
      "stateMutability": "view"
    },
    {
      "type": "function",
      "name": "i_owner",
      "inputs": [],
      "outputs": [
        {
          "name": "",
          "type": "address",
          "internalType": "address"
        }
      ],
      "stateMutability": "view"
    },
    {
      "type": "function",
      "name": "projectName",
      "inputs": [],
      "outputs": [
        {
          "name": "",
          "type": "string",
          "internalType": "string"
        }
      ],
      "stateMutability": "view"
    },
    {
      "type": "function",
      "name": "withdraw",
      "inputs": [],
      "outputs": [],
      "stateMutability": "nonpayable"
    },
    {
      "type": "error",
      "name": "NotOwner",
      "inputs": []
    }
  ],
  "bytecode": {
    "object": "0x60a0604052348015600f57600080fd5b50604051610a03380380610a03833981016040819052602c916054565b33608052600480546001600160a01b0319166001600160a01b03929092169190911790556082565b600060208284031215606557600080fd5b81516001600160a01b0381168114607b57600080fd5b9392505050565b6080516109586100ab60003960008181610152015281816101d3015261037501526109586000f3fe6080604052600436106100955760003560e01c80639a33e300116100595780639a33e3001461018a5780639faf6215146101ac578063b60d4288146100a4578063dba6335f146101c1578063dc0d3dff146101f5576100a4565b80630d8e6e2c146100ac5780633ccfd60b146100d45780633e47d6f3146100e957806342e94c9014610116578063893d20e814610143576100a4565b366100a4576100a2610215565b005b6100a2610215565b3480156100b857600080fd5b506100c16102ec565b6040519081526020015b60405180910390f35b3480156100e057600080fd5b506100a261036a565b3480156100f557600080fd5b506100c1610104366004610727565b60026020526000908152604090205481565b34801561012257600080fd5b506100c1610131366004610727565b60016020526000908152604090205481565b34801561014f57600080fd5b507f00000000000000000000000000000000000000000000000000000000000000005b6040516001600160a01b0390911681526020016100cb565b34801561019657600080fd5b5061019f6104a8565b6040516100cb9190610750565b3480156101b857600080fd5b5061019f610536565b3480156101cd57600080fd5b506101727f000000000000000000000000000000000000000000000000000000000000000081565b34801561020157600080fd5b5061017261021036600461079f565b6105c8565b600454624c4b40906102319034906001600160a01b03166105f2565b10156102845760405162461bcd60e51b815260206004820152601b60248201527f596f75206e65656420746f207370656e64206d6f72652045544821000000000060448201526064015b60405180910390fd5b33600090815260026020526040812080543492906102a39084906107ce565b9091555050600380546001810182556000919091527fc2575a0e9e593c00f959f8c92f12db2869c3395a3b0502d05e2516446f71f85b0180546001600160a01b03191633179055565b6000600460009054906101000a90046001600160a01b03166001600160a01b03166354fd4d506040518163ffffffff1660e01b8152600401602060405180830381865afa158015610341573d6000803e3d6000fd5b505050506040513d601f19601f8201168201806040525081019061036591906107e1565b905090565b336001600160a01b037f000000000000000000000000000000000000000000000000000000000000000016146103b3576040516330cd747160e01b815260040160405180910390fd5b60005b600354811015610400576000600382815481106103d5576103d56107fa565b60009182526020808320909101546001600160a01b03168252600290526040812055506001016103b6565b50604080516000815260208101918290525161041e916003916106ad565b50604051600090339047908381818185875af1925050503d8060008114610461576040519150601f19603f3d011682016040523d82523d6000602084013e610466565b606091505b50509050806104a55760405162461bcd60e51b815260206004820152600b60248201526a10d85b1b0819985a5b195960aa1b604482015260640161027b565b50565b600080546104b590610810565b80601f01602080910402602001604051908101604052809291908181526020018280546104e190610810565b801561052e5780601f106105035761010080835404028352916020019161052e565b820191906000526020600020905b81548152906001019060200180831161051157829003601f168201915b505050505081565b60606000805461054590610810565b80601f016020809104026020016040519081016040528092919081815260200182805461057190610810565b80156105be5780601f10610593576101008083540402835291602001916105be565b820191906000526020600020905b8154815290600101906020018083116105a157829003601f168201915b5050505050905090565b600381815481106105d857600080fd5b6000918252602090912001546001600160a01b0316905081565b6000806105fe8361062a565b90506000670de0b6b3a7640000610615868461084a565b61061f9190610861565b925050505b92915050565b600080826001600160a01b031663feaf968c6040518163ffffffff1660e01b815260040160a060405180830381865afa15801561066b573d6000803e3d6000fd5b505050506040513d601f19601f8201168201806040525081019061068f91906108a2565b505050915050806402540be4006106a691906108f2565b9392505050565b828054828255906000526020600020908101928215610702579160200282015b8281111561070257825182546001600160a01b0319166001600160a01b039091161782556020909201916001909101906106cd565b5061070e929150610712565b5090565b5b8082111561070e5760008155600101610713565b60006020828403121561073957600080fd5b81356001600160a01b03811681146106a657600080fd5b60006020808352835180602085015260005b8181101561077e57858101830151858201604001528201610762565b506000604082860101526040601f19601f8301168501019250505092915050565b6000602082840312156107b157600080fd5b5035919050565b634e487b7160e01b600052601160045260246000fd5b80820180821115610624576106246107b8565b6000602082840312156107f357600080fd5b5051919050565b634e487b7160e01b600052603260045260246000fd5b600181811c9082168061082457607f821691505b60208210810361084457634e487b7160e01b600052602260045260246000fd5b50919050565b8082028115828204841417610624576106246107b8565b60008261087e57634e487b7160e01b600052601260045260246000fd5b500490565b805169ffffffffffffffffffff8116811461089d57600080fd5b919050565b600080600080600060a086880312156108ba57600080fd5b6108c386610883565b94506020860151935060408601519250606086015191506108e660808701610883565b90509295509295909350565b80820260008212600160ff1b8414161561090e5761090e6107b8565b8181058314821517610624576106246107b856fea2646970667358221220fc37fff8bad0b0aa64ad890669eea8c6ac471f92dacd2724a63c9a4e258fad6964736f6c63430008190033",
    "linkReferences": {}
  },
  "methodIdentifiers": {
    "addressToAmountFunded(address)": "3e47d6f3",
    "contributions(address)": "42e94c90",
    "fund()": "b60d4288",
    "funders(uint256)": "dc0d3dff",
    "getOwner()": "893d20e8",
    "getProjectName()": "9faf6215",
    "getVersion()": "0d8e6e2c",
    "i_owner()": "dba6335f",
    "projectName()": "9a33e300",
    "withdraw()": "3ccfd60b"
  },
  "id": 32
}