{"abi":[{"type":"function","name":"balanceOf","inputs":[{"name":"_token","type":"address","internalType":"address"},{"name":"_owner","type":"address","internalType":"address"}],"outputs":[{"name":"","type":"uint256","internalType":"uint256"}],"stateMutability":"view"}],"bytecode":{"object":"0x6080604052348015600f57600080fd5b506101688061001f6000396000f3fe608060405234801561001057600080fd5b506004361061002b5760003560e01c8063f7888aec14610030575b600080fd5b61004361003e3660046100e6565b610055565b60405190815260200160405180910390f35b6040516370a0823160e01b81526001600160a01b038281166004830152600091908416906370a0823190602401602060405180830381865afa15801561009f573d6000803e3d6000fd5b505050506040513d601f19601f820116820180604052508101906100c39190610119565b9392505050565b80356001600160a01b03811681146100e157600080fd5b919050565b600080604083850312156100f957600080fd5b610102836100ca565b9150610110602084016100ca565b90509250929050565b60006020828403121561012b57600080fd5b505191905056fea26469706673582212201cb60b9b450ebaff50797a4d48d2785997de32e592ef2ff6af88288b8769be9064736f6c63430008190033","linkReferences":{}},"methodIdentifiers":{"balanceOf(address,address)":"f7888aec"},"id":4}