{"abi":[{"type":"constructor","inputs":[{"name":"_usdcTokenAddress","type":"address","internalType":"address"},{"name":"_owner","type":"address","internalType":"address"}],"stateMutability":"nonpayable"},{"type":"function","name":"SetNameAndGoal","inputs":[{"name":"_projectName","type":"string","internalType":"string"},{"name":"_goalInUsd","type":"uint256","internalType":"uint256"}],"outputs":[],"stateMutability":"nonpayable"},{"type":"function","name":"fund","inputs":[{"name":"_amount","type":"uint256","internalType":"uint256"}],"outputs":[],"stateMutability":"nonpayable"},{"type":"function","name":"fundFromContract","inputs":[{"name":"_from","type":"address","internalType":"address"},{"name":"_amount","type":"uint256","internalType":"uint256"}],"outputs":[],"stateMutability":"nonpayable"},{"type":"function","name":"funders","inputs":[{"name":"","type":"uint256","internalType":"uint256"}],"outputs":[{"name":"","type":"address","internalType":"address"}],"stateMutability":"view"},{"type":"function","name":"getFunder","inputs":[{"name":"i","type":"uint256","internalType":"uint256"}],"outputs":[{"name":"","type":"address","internalType":"address"}],"stateMutability":"view"},{"type":"function","name":"getOwner","inputs":[],"outputs":[{"name":"","type":"address","internalType":"address"}],"stateMutability":"view"},{"type":"function","name":"getSignerUSDCAllowance","inputs":[],"outputs":[{"name":"","type":"uint256","internalType":"uint256"}],"stateMutability":"view"},{"type":"function","name":"getSignerUSDCBalance","inputs":[],"outputs":[{"name":"","type":"uint256","internalType":"uint256"}],"stateMutability":"view"},{"type":"function","name":"getTotalBalance","inputs":[],"outputs":[{"name":"","type":"uint256","internalType":"uint256"}],"stateMutability":"view"},{"type":"function","name":"getUsdAddress","inputs":[],"outputs":[{"name":"","type":"address","internalType":"address"}],"stateMutability":"view"},{"type":"function","name":"goalInUsd","inputs":[],"outputs":[{"name":"","type":"uint256","internalType":"uint256"}],"stateMutability":"view"},{"type":"function","name":"i_owner","inputs":[],"outputs":[{"name":"","type":"address","internalType":"address"}],"stateMutability":"view"},{"type":"function","name":"m_donations","inputs":[{"name":"","type":"address","internalType":"address"}],"outputs":[{"name":"","type":"uint256","internalType":"uint256"}],"stateMutability":"view"},{"type":"function","name":"projectName","inputs":[],"outputs":[{"name":"","type":"string","internalType":"string"}],"stateMutability":"view"},{"type":"function","name":"totalBalance","inputs":[],"outputs":[{"name":"","type":"uint256","internalType":"uint256"}],"stateMutability":"view"},{"type":"function","name":"usdc","inputs":[],"outputs":[{"name":"","type":"address","internalType":"contract IERC20"}],"stateMutability":"view"},{"type":"function","name":"usdcTokenAddress","inputs":[],"outputs":[{"name":"","type":"address","internalType":"address"}],"stateMutability":"view"},{"type":"function","name":"withdraw","inputs":[],"outputs":[],"stateMutability":"nonpayable"},{"type":"event","name":"FundReceived","inputs":[{"name":"funder","type":"address","indexed":true,"internalType":"address"},{"name":"amount","type":"uint256","indexed":false,"internalType":"uint256"}],"anonymous":false},{"type":"event","name":"FundsWithdrawn","inputs":[{"name":"owner","type":"address","indexed":true,"internalType":"address"},{"name":"amount","type":"uint256","indexed":false,"internalType":"uint256"}],"anonymous":false},{"type":"error","name":"NotEnoughFunds","inputs":[]},{"type":"error","name":"NotOwner","inputs":[]}],"bytecode":{"object":"0x60a06040526005805461ffff60a01b1916905534801561001e57600080fd5b50604051610f0f380380610f0f83398101604081905261003d9161008f565b6001600160a01b0390811660805260008054929091166001600160a01b03199283168117909155600580549092161790556100c2565b80516001600160a01b038116811461008a57600080fd5b919050565b600080604083850312156100a257600080fd5b6100ab83610073565b91506100b960208401610073565b90509250929050565b608051610e0f610100600039600081816101c5015281816102580152818161031101528181610422015281816104c7015261074f0152610e0f6000f3fe608060405234801561001057600080fd5b50600436106101155760003560e01c8063893d20e8116100a2578063ad7a672f11610071578063ad7a672f14610224578063ca1d209d1461022d578063d7b4750c14610240578063dba6335f14610253578063dc0d3dff1461027a57600080fd5b8063893d20e8146101c35780639a33e300146101e9578063aaa2ea0c146101fe578063ab7cc84d1461021157600080fd5b80633ccfd60b116100e95780633ccfd60b1461016b5780633e413bee146101755780635c6b932b1461018857806377b53ece146101a857806381158fe3146101bb57600080fd5b806213c58a1461011a578063064343221461013657806312b583491461015b57806329f5633f14610163575b600080fd5b61012360025481565b6040519081526020015b60405180910390f35b6005546001600160a01b03165b6040516001600160a01b03909116815260200161012d565b600354610123565b61012361028d565b610173610306565b005b600054610143906001600160a01b031681565b610123610196366004610a78565b60066020526000908152604090205481565b600554610143906001600160a01b031681565b610123610522565b7f0000000000000000000000000000000000000000000000000000000000000000610143565b6101f1610553565b60405161012d9190610a9a565b61017361020c366004610ae9565b6105e1565b61017361021f366004610b29565b610744565b61012360035481565b61017361023b366004610bde565b610826565b61014361024e366004610bde565b610a02565b6101437f000000000000000000000000000000000000000000000000000000000000000081565b610143610288366004610bde565b610a32565b60008054604051636eb1769f60e11b81523360048201523060248201526001600160a01b039091169063dd62ed3e906044015b602060405180830381865afa1580156102dd573d6000803e3d6000fd5b505050506040513d601f19601f820116820180604052508101906103019190610bf7565b905090565b336001600160a01b037f0000000000000000000000000000000000000000000000000000000000000000161461034f576040516330cd747160e01b815260040160405180910390fd5b600254600354101561039b5760405162461bcd60e51b815260206004820152601060248201526f11dbd85b081b9bdd081c995858da195960821b60448201526064015b60405180910390fd5b600080546040516370a0823160e01b81523060048201526001600160a01b03909116906370a0823190602401602060405180830381865afa1580156103e4573d6000803e3d6000fd5b505050506040513d601f19601f820116820180604052508101906104089190610bf7565b60005460405163a9059cbb60e01b81526001600160a01b037f0000000000000000000000000000000000000000000000000000000000000000811660048301526024820184905292935091169063a9059cbb906044016020604051808303816000875af115801561047d573d6000803e3d6000fd5b505050506040513d601f19601f820116820180604052508101906104a19190610c10565b5060006003556005805460ff60a81b1916600160a81b1790556040516001600160a01b037f000000000000000000000000000000000000000000000000000000000000000016907feaff4b37086828766ad3268786972c0cd24259d4c87a80f9d3963a3c3d999b0d906105179084815260200190565b60405180910390a250565b600080546040516370a0823160e01b81523360048201526001600160a01b03909116906370a08231906024016102c0565b6001805461056090610c32565b80601f016020809104026020016040519081016040528092919081815260200182805461058c90610c32565b80156105d95780601f106105ae576101008083540402835291602001916105d9565b820191906000526020600020905b8154815290600101906020018083116105bc57829003601f168201915b505050505081565b60006105f0620f424083610c82565b6000546040516323b872dd60e01b81526001600160a01b038681166004830152306024830152604482018490529293509116906323b872dd906064016020604051808303816000875af115801561064b573d6000803e3d6000fd5b505050506040513d601f19601f8201168201806040525081019061066f9190610c10565b61067857600080fd5b6001600160a01b038316600090815260066020526040812080548392906106a0908490610c9f565b9250508190555080600360008282546106b99190610c9f565b9091555050600480546001810182556000919091527f8a35acfbc15ff81a39ae7d344fd709f28e8600b4aa8c65c6b64bfe7fe36bd19b0180546001600160a01b0319166001600160a01b0385169081179091556040518281527f54a5b8782470a0d2c022b3b9e5e729503ac5dbdfe053afeb4559f9297f7565a69060200160405180910390a2505050565b336001600160a01b037f0000000000000000000000000000000000000000000000000000000000000000161461078d576040516330cd747160e01b815260040160405180910390fd5b600554600160a01b900460ff16156107f25760405162461bcd60e51b815260206004820152602260248201527f4e616d6520616e6420676f616c2068617320616c7265616479206265656e2073604482015261195d60f21b6064820152608401610392565b60016107fe8382610d03565b5061080c620f424082610c82565b60025550506005805460ff60a01b1916600160a01b179055565b600554600160a81b900460ff16156108805760405162461bcd60e51b815260206004820152601b60248201527f50726f6a65637420697320616c726561647920636f6d706c65746500000000006044820152606401610392565b600061088f620f424083610c82565b6000546040516323b872dd60e01b8152336004820152306024820152604481018390529192506001600160a01b0316906323b872dd906064016020604051808303816000875af11580156108e7573d6000803e3d6000fd5b505050506040513d601f19601f8201168201806040525081019061090b9190610c10565b6109495760405162461bcd60e51b815260206004820152600f60248201526e151c985b9cd9995c8819985a5b1959608a1b6044820152606401610392565b3360009081526006602052604081208054839290610968908490610c9f565b9250508190555080600360008282546109819190610c9f565b9091555050600480546001810182556000919091527f8a35acfbc15ff81a39ae7d344fd709f28e8600b4aa8c65c6b64bfe7fe36bd19b0180546001600160a01b031916339081179091556040518281527f54a5b8782470a0d2c022b3b9e5e729503ac5dbdfe053afeb4559f9297f7565a69060200160405180910390a25050565b600060048281548110610a1757610a17610dc3565b6000918252602090912001546001600160a01b031692915050565b60048181548110610a4257600080fd5b6000918252602090912001546001600160a01b0316905081565b80356001600160a01b0381168114610a7357600080fd5b919050565b600060208284031215610a8a57600080fd5b610a9382610a5c565b9392505050565b60006020808352835180602085015260005b81811015610ac857858101830151858201604001528201610aac565b506000604082860101526040601f19601f8301168501019250505092915050565b60008060408385031215610afc57600080fd5b610b0583610a5c565b946020939093013593505050565b634e487b7160e01b600052604160045260246000fd5b60008060408385031215610b3c57600080fd5b823567ffffffffffffffff80821115610b5457600080fd5b818501915085601f830112610b6857600080fd5b813581811115610b7a57610b7a610b13565b604051601f8201601f19908116603f01168101908382118183101715610ba257610ba2610b13565b81604052828152886020848701011115610bbb57600080fd5b826020860160208301376000602093820184015298969091013596505050505050565b600060208284031215610bf057600080fd5b5035919050565b600060208284031215610c0957600080fd5b5051919050565b600060208284031215610c2257600080fd5b81518015158114610a9357600080fd5b600181811c90821680610c4657607f821691505b602082108103610c6657634e487b7160e01b600052602260045260246000fd5b50919050565b634e487b7160e01b600052601160045260246000fd5b8082028115828204841417610c9957610c99610c6c565b92915050565b80820180821115610c9957610c99610c6c565b601f821115610cfe576000816000526020600020601f850160051c81016020861015610cdb5750805b601f850160051c820191505b81811015610cfa57828155600101610ce7565b5050505b505050565b815167ffffffffffffffff811115610d1d57610d1d610b13565b610d3181610d2b8454610c32565b84610cb2565b602080601f831160018114610d665760008415610d4e5750858301515b600019600386901b1c1916600185901b178555610cfa565b600085815260208120601f198616915b82811015610d9557888601518255948401946001909101908401610d76565b5085821015610db35787850151600019600388901b60f8161c191681555b5050505050600190811b01905550565b634e487b7160e01b600052603260045260246000fdfea2646970667358221220bf24f6c410c181469ebe16af589c2bb10e4549685d6035e054b9b1cb1ca95e3a64736f6c63430008190033","linkReferences":{}},"methodIdentifiers":{"SetNameAndGoal(string,uint256)":"ab7cc84d","fund(uint256)":"ca1d209d","fundFromContract(address,uint256)":"aaa2ea0c","funders(uint256)":"dc0d3dff","getFunder(uint256)":"d7b4750c","getOwner()":"893d20e8","getSignerUSDCAllowance()":"29f5633f","getSignerUSDCBalance()":"81158fe3","getTotalBalance()":"12b58349","getUsdAddress()":"06434322","goalInUsd()":"0013c58a","i_owner()":"dba6335f","m_donations(address)":"5c6b932b","projectName()":"9a33e300","totalBalance()":"ad7a672f","usdc()":"3e413bee","usdcTokenAddress()":"77b53ece","withdraw()":"3ccfd60b"},"id":23}