{"abi":[{"type":"constructor","inputs":[{"name":"_usdcTokenAddress","type":"address","internalType":"address"},{"name":"_owner","type":"address","internalType":"address"}],"stateMutability":"nonpayable"},{"type":"function","name":"SetNameAndGoal","inputs":[{"name":"_projectName","type":"string","internalType":"string"},{"name":"_goalInUsd","type":"uint256","internalType":"uint256"}],"outputs":[],"stateMutability":"nonpayable"},{"type":"function","name":"fund","inputs":[{"name":"_amount","type":"uint256","internalType":"uint256"}],"outputs":[],"stateMutability":"nonpayable"},{"type":"function","name":"funders","inputs":[{"name":"","type":"uint256","internalType":"uint256"}],"outputs":[{"name":"","type":"address","internalType":"address"}],"stateMutability":"view"},{"type":"function","name":"getFunder","inputs":[{"name":"i","type":"uint256","internalType":"uint256"}],"outputs":[{"name":"","type":"address","internalType":"address"}],"stateMutability":"view"},{"type":"function","name":"getOwner","inputs":[],"outputs":[{"name":"","type":"address","internalType":"address"}],"stateMutability":"view"},{"type":"function","name":"getSignerUSDCAllowance","inputs":[],"outputs":[{"name":"","type":"uint256","internalType":"uint256"}],"stateMutability":"view"},{"type":"function","name":"getSignerUSDCBalance","inputs":[],"outputs":[{"name":"","type":"uint256","internalType":"uint256"}],"stateMutability":"view"},{"type":"function","name":"getTotalBalance","inputs":[],"outputs":[{"name":"","type":"uint256","internalType":"uint256"}],"stateMutability":"view"},{"type":"function","name":"getUsdAddress","inputs":[],"outputs":[{"name":"","type":"address","internalType":"address"}],"stateMutability":"view"},{"type":"function","name":"goalInUsd","inputs":[],"outputs":[{"name":"","type":"uint256","internalType":"uint256"}],"stateMutability":"view"},{"type":"function","name":"hasBeenSet","inputs":[],"outputs":[{"name":"","type":"bool","internalType":"bool"}],"stateMutability":"view"},{"type":"function","name":"i_owner","inputs":[],"outputs":[{"name":"","type":"address","internalType":"address"}],"stateMutability":"view"},{"type":"function","name":"m_donations","inputs":[{"name":"","type":"address","internalType":"address"}],"outputs":[{"name":"","type":"uint256","internalType":"uint256"}],"stateMutability":"view"},{"type":"function","name":"projectName","inputs":[],"outputs":[{"name":"","type":"string","internalType":"string"}],"stateMutability":"view"},{"type":"function","name":"totalBalance","inputs":[],"outputs":[{"name":"","type":"uint256","internalType":"uint256"}],"stateMutability":"view"},{"type":"function","name":"usdc","inputs":[],"outputs":[{"name":"","type":"address","internalType":"contract IERC20"}],"stateMutability":"view"},{"type":"function","name":"usdcTokenAddress","inputs":[],"outputs":[{"name":"","type":"address","internalType":"address"}],"stateMutability":"view"},{"type":"function","name":"withdraw","inputs":[],"outputs":[],"stateMutability":"nonpayable"},{"type":"event","name":"FundReceived","inputs":[{"name":"funder","type":"address","indexed":true,"internalType":"address"},{"name":"amount","type":"uint256","indexed":false,"internalType":"uint256"}],"anonymous":false},{"type":"event","name":"FundsWithdrawn","inputs":[{"name":"owner","type":"address","indexed":true,"internalType":"address"},{"name":"amount","type":"uint256","indexed":false,"internalType":"uint256"}],"anonymous":false},{"type":"error","name":"NotEnoughFunds","inputs":[]},{"type":"error","name":"NotOwner","inputs":[]}],"bytecode":{"object":"0x60a0604052348015600f57600080fd5b50604051610d00380380610d00833981016040819052602c916083565b6001600160a01b03908116608052600080546001600160a01b031916929091169182179055600580546001600160a81b031916909117905560b1565b80516001600160a01b0381168114607e57600080fd5b919050565b60008060408385031215609557600080fd5b609c836068565b915060a8602084016068565b90509250929050565b608051610c116100ef600039600081816101c5015281816102690152818161032201528181610433015281816104c001526105e30152610c116000f3fe608060405234801561001057600080fd5b50600436106101155760003560e01c8063893d20e8116100a2578063b789b1f711610071578063b789b1f71461021a578063ca1d209d1461023e578063d7b4750c14610251578063dba6335f14610264578063dc0d3dff1461028b57600080fd5b8063893d20e8146101c35780639a33e300146101e9578063ab7cc84d146101fe578063ad7a672f1461021157600080fd5b80633ccfd60b116100e95780633ccfd60b1461016b5780633e413bee146101755780635c6b932b1461018857806377b53ece146101a857806381158fe3146101bb57600080fd5b806213c58a1461011a578063064343221461013657806312b583491461015b57806329f5633f14610163575b600080fd5b61012360025481565b6040519081526020015b60405180910390f35b6005546001600160a01b03165b6040516001600160a01b03909116815260200161012d565b600354610123565b61012361029e565b610173610317565b005b600054610143906001600160a01b031681565b610123610196366004610896565b60066020526000908152604090205481565b600554610143906001600160a01b031681565b610123610519565b7f0000000000000000000000000000000000000000000000000000000000000000610143565b6101f161054a565b60405161012d91906108c6565b61017361020c36600461092b565b6105d8565b61012360035481565b60055461022e90600160a01b900460ff1681565b604051901515815260200161012d565b61017361024c3660046109e0565b6106ba565b61014361025f3660046109e0565b61083c565b6101437f000000000000000000000000000000000000000000000000000000000000000081565b6101436102993660046109e0565b61086c565b60008054604051636eb1769f60e11b81523360048201523060248201526001600160a01b039091169063dd62ed3e906044015b602060405180830381865afa1580156102ee573d6000803e3d6000fd5b505050506040513d601f19601f8201168201806040525081019061031291906109f9565b905090565b336001600160a01b037f00000000000000000000000000000000000000000000000000000000000000001614610360576040516330cd747160e01b815260040160405180910390fd5b60025460035410156103ac5760405162461bcd60e51b815260206004820152601060248201526f11dbd85b081b9bdd081c995858da195960821b60448201526064015b60405180910390fd5b600080546040516370a0823160e01b81523060048201526001600160a01b03909116906370a0823190602401602060405180830381865afa1580156103f5573d6000803e3d6000fd5b505050506040513d601f19601f8201168201806040525081019061041991906109f9565b60005460405163a9059cbb60e01b81526001600160a01b037f0000000000000000000000000000000000000000000000000000000000000000811660048301526024820184905292935091169063a9059cbb906044016020604051808303816000875af115801561048e573d6000803e3d6000fd5b505050506040513d601f19601f820116820180604052508101906104b29190610a12565b5060006003556040518181527f00000000000000000000000000000000000000000000000000000000000000006001600160a01b0316907feaff4b37086828766ad3268786972c0cd24259d4c87a80f9d3963a3c3d999b0d9060200160405180910390a250565b600080546040516370a0823160e01b81523360048201526001600160a01b03909116906370a08231906024016102d1565b6001805461055790610a34565b80601f016020809104026020016040519081016040528092919081815260200182805461058390610a34565b80156105d05780601f106105a5576101008083540402835291602001916105d0565b820191906000526020600020905b8154815290600101906020018083116105b357829003601f168201915b505050505081565b336001600160a01b037f00000000000000000000000000000000000000000000000000000000000000001614610621576040516330cd747160e01b815260040160405180910390fd5b600554600160a01b900460ff16156106865760405162461bcd60e51b815260206004820152602260248201527f4e616d6520616e6420676f616c2068617320616c7265616479206265656e2073604482015261195d60f21b60648201526084016103a3565b60016106928382610abf565b506106a0620f424082610b95565b60025550506005805460ff60a01b1916600160a01b179055565b60006106c9620f424083610b95565b6000546040516323b872dd60e01b8152336004820152306024820152604481018390529192506001600160a01b0316906323b872dd906064016020604051808303816000875af1158015610721573d6000803e3d6000fd5b505050506040513d601f19601f820116820180604052508101906107459190610a12565b6107835760405162461bcd60e51b815260206004820152600f60248201526e151c985b9cd9995c8819985a5b1959608a1b60448201526064016103a3565b33600090815260066020526040812080548392906107a2908490610bb2565b9250508190555080600360008282546107bb9190610bb2565b9091555050600480546001810182556000919091527f8a35acfbc15ff81a39ae7d344fd709f28e8600b4aa8c65c6b64bfe7fe36bd19b0180546001600160a01b031916339081179091556040518281527f54a5b8782470a0d2c022b3b9e5e729503ac5dbdfe053afeb4559f9297f7565a69060200160405180910390a25050565b60006004828154811061085157610851610bc5565b6000918252602090912001546001600160a01b031692915050565b6004818154811061087c57600080fd5b6000918252602090912001546001600160a01b0316905081565b6000602082840312156108a857600080fd5b81356001600160a01b03811681146108bf57600080fd5b9392505050565b60006020808352835180602085015260005b818110156108f4578581018301518582016040015282016108d8565b506000604082860101526040601f19601f8301168501019250505092915050565b634e487b7160e01b600052604160045260246000fd5b6000806040838503121561093e57600080fd5b823567ffffffffffffffff8082111561095657600080fd5b818501915085601f83011261096a57600080fd5b81358181111561097c5761097c610915565b604051601f8201601f19908116603f011681019083821181831017156109a4576109a4610915565b816040528281528860208487010111156109bd57600080fd5b826020860160208301376000602093820184015298969091013596505050505050565b6000602082840312156109f257600080fd5b5035919050565b600060208284031215610a0b57600080fd5b5051919050565b600060208284031215610a2457600080fd5b815180151581146108bf57600080fd5b600181811c90821680610a4857607f821691505b602082108103610a6857634e487b7160e01b600052602260045260246000fd5b50919050565b601f821115610aba576000816000526020600020601f850160051c81016020861015610a975750805b601f850160051c820191505b81811015610ab657828155600101610aa3565b5050505b505050565b815167ffffffffffffffff811115610ad957610ad9610915565b610aed81610ae78454610a34565b84610a6e565b602080601f831160018114610b225760008415610b0a5750858301515b600019600386901b1c1916600185901b178555610ab6565b600085815260208120601f198616915b82811015610b5157888601518255948401946001909101908401610b32565b5085821015610b6f5787850151600019600388901b60f8161c191681555b5050505050600190811b01905550565b634e487b7160e01b600052601160045260246000fd5b8082028115828204841417610bac57610bac610b7f565b92915050565b80820180821115610bac57610bac610b7f565b634e487b7160e01b600052603260045260246000fdfea26469706673582212205536f65ce0f59ba693a3ec125af41c35bbab932c6d4dc13588b5323f1cde8bfa64736f6c63430008190033","linkReferences":{}},"methodIdentifiers":{"SetNameAndGoal(string,uint256)":"ab7cc84d","fund(uint256)":"ca1d209d","funders(uint256)":"dc0d3dff","getFunder(uint256)":"d7b4750c","getOwner()":"893d20e8","getSignerUSDCAllowance()":"29f5633f","getSignerUSDCBalance()":"81158fe3","getTotalBalance()":"12b58349","getUsdAddress()":"06434322","goalInUsd()":"0013c58a","hasBeenSet()":"b789b1f7","i_owner()":"dba6335f","m_donations(address)":"5c6b932b","projectName()":"9a33e300","totalBalance()":"ad7a672f","usdc()":"3e413bee","usdcTokenAddress()":"77b53ece","withdraw()":"3ccfd60b"},"id":28}