{
  "abi": [
    {
      "type": "constructor",
      "inputs": [
        {
          "name": "_usdcTokenAddress",
          "type": "address",
          "internalType": "address"
        },
        {
          "name": "_owner",
          "type": "address",
          "internalType": "address"
        }
      ],
      "stateMutability": "nonpayable"
    },
    {
      "type": "function",
      "name": "SetNameAndGoal",
      "inputs": [
        {
          "name": "_projectName",
          "type": "string",
          "internalType": "string"
        },
        {
          "name": "_goalInUsd",
          "type": "uint256",
          "internalType": "uint256"
        }
      ],
      "outputs": [],
      "stateMutability": "nonpayable"
    },
    {
      "type": "function",
      "name": "fund",
      "inputs": [
        {
          "name": "_amount",
          "type": "uint256",
          "internalType": "uint256"
        }
      ],
      "outputs": [],
      "stateMutability": "nonpayable"
    },
    {
      "type": "function",
      "name": "funders",
      "inputs": [
        {
          "name": "",
          "type": "uint256",
          "internalType": "uint256"
        }
      ],
      "outputs": [
        {
          "name": "",
          "type": "address",
          "internalType": "address"
        }
      ],
      "stateMutability": "view"
    },
    {
      "type": "function",
      "name": "getFunder",
      "inputs": [
        {
          "name": "i",
          "type": "uint256",
          "internalType": "uint256"
        }
      ],
      "outputs": [
        {
          "name": "",
          "type": "address",
          "internalType": "address"
        }
      ],
      "stateMutability": "view"
    },
    {
      "type": "function",
      "name": "getOwner",
      "inputs": [],
      "outputs": [
        {
          "name": "",
          "type": "address",
          "internalType": "address"
        }
      ],
      "stateMutability": "view"
    },
    {
      "type": "function",
      "name": "getSignerUSDCAllowance",
      "inputs": [],
      "outputs": [
        {
          "name": "",
          "type": "uint256",
          "internalType": "uint256"
        }
      ],
      "stateMutability": "view"
    },
    {
      "type": "function",
      "name": "getSignerUSDCBalance",
      "inputs": [],
      "outputs": [
        {
          "name": "",
          "type": "uint256",
          "internalType": "uint256"
        }
      ],
      "stateMutability": "view"
    },
    {
      "type": "function",
      "name": "getTotalBalance",
      "inputs": [],
      "outputs": [
        {
          "name": "",
          "type": "uint256",
          "internalType": "uint256"
        }
      ],
      "stateMutability": "view"
    },
    {
      "type": "function",
      "name": "getUsdAddress",
      "inputs": [],
      "outputs": [
        {
          "name": "",
          "type": "address",
          "internalType": "address"
        }
      ],
      "stateMutability": "view"
    },
    {
      "type": "function",
      "name": "goalInUsd",
      "inputs": [],
      "outputs": [
        {
          "name": "",
          "type": "uint256",
          "internalType": "uint256"
        }
      ],
      "stateMutability": "view"
    },
    {
      "type": "function",
      "name": "i_owner",
      "inputs": [],
      "outputs": [
        {
          "name": "",
          "type": "address",
          "internalType": "address"
        }
      ],
      "stateMutability": "view"
    },
    {
      "type": "function",
      "name": "m_donations",
      "inputs": [
        {
          "name": "",
          "type": "address",
          "internalType": "address"
        }
      ],
      "outputs": [
        {
          "name": "",
          "type": "uint256",
          "internalType": "uint256"
        }
      ],
      "stateMutability": "view"
    },
    {
      "type": "function",
      "name": "projectName",
      "inputs": [],
      "outputs": [
        {
          "name": "",
          "type": "string",
          "internalType": "string"
        }
      ],
      "stateMutability": "view"
    },
    {
      "type": "function",
      "name": "totalBalance",
      "inputs": [],
      "outputs": [
        {
          "name": "",
          "type": "uint256",
          "internalType": "uint256"
        }
      ],
      "stateMutability": "view"
    },
    {
      "type": "function",
      "name": "usdc",
      "inputs": [],
      "outputs": [
        {
          "name": "",
          "type": "address",
          "internalType": "contract IERC20"
        }
      ],
      "stateMutability": "view"
    },
    {
      "type": "function",
      "name": "usdcTokenAddress",
      "inputs": [],
      "outputs": [
        {
          "name": "",
          "type": "address",
          "internalType": "address"
        }
      ],
      "stateMutability": "view"
    },
    {
      "type": "function",
      "name": "withdraw",
      "inputs": [],
      "outputs": [],
      "stateMutability": "nonpayable"
    },
    {
      "type": "event",
      "name": "FundReceived",
      "inputs": [
        {
          "name": "funder",
          "type": "address",
          "indexed": true,
          "internalType": "address"
        },
        {
          "name": "amount",
          "type": "uint256",
          "indexed": false,
          "internalType": "uint256"
        }
      ],
      "anonymous": false
    },
    {
      "type": "event",
      "name": "FundsWithdrawn",
      "inputs": [
        {
          "name": "owner",
          "type": "address",
          "indexed": true,
          "internalType": "address"
        },
        {
          "name": "amount",
          "type": "uint256",
          "indexed": false,
          "internalType": "uint256"
        }
      ],
      "anonymous": false
    },
    {
      "type": "error",
      "name": "NotEnoughFunds",
      "inputs": []
    },
    {
      "type": "error",
      "name": "NotOwner",
      "inputs": []
    }
  ],
  "bytecode": {
    "object": "0x60a0604052348015600f57600080fd5b50604051610c52380380610c52833981016040819052602c91607c565b6001600160a01b0390811660805260008054929091166001600160a01b031992831681179091556005805490921617905560aa565b80516001600160a01b0381168114607757600080fd5b919050565b60008060408385031215608e57600080fd5b6095836061565b915060a1602084016061565b90509250929050565b608051610b6a6100e8600039600081816101ba0152818161023a015281816102f3015281816104040152818161049101526105b40152610b6a6000f3fe608060405234801561001057600080fd5b506004361061010a5760003560e01c806381158fe3116100a2578063ad7a672f11610071578063ad7a672f14610206578063ca1d209d1461020f578063d7b4750c14610222578063dba6335f14610235578063dc0d3dff1461025c57600080fd5b806381158fe3146101b0578063893d20e8146101b85780639a33e300146101de578063ab7cc84d146101f357600080fd5b80633ccfd60b116100de5780633ccfd60b146101605780633e413bee1461016a5780635c6b932b1461017d57806377b53ece1461019d57600080fd5b806213c58a1461010f578063064343221461012b57806312b583491461015057806329f5633f14610158575b600080fd5b61011860025481565b6040519081526020015b60405180910390f35b6005546001600160a01b03165b6040516001600160a01b039091168152602001610122565b600354610118565b61011861026f565b6101686102e8565b005b600054610138906001600160a01b031681565b61011861018b3660046107ef565b60066020526000908152604090205481565b600554610138906001600160a01b031681565b6101186104ea565b7f0000000000000000000000000000000000000000000000000000000000000000610138565b6101e661051b565b604051610122919061081f565b610168610201366004610884565b6105a9565b61011860035481565b61016861021d366004610939565b610613565b610138610230366004610939565b610795565b6101387f000000000000000000000000000000000000000000000000000000000000000081565b61013861026a366004610939565b6107c5565b60008054604051636eb1769f60e11b81523360048201523060248201526001600160a01b039091169063dd62ed3e906044015b602060405180830381865afa1580156102bf573d6000803e3d6000fd5b505050506040513d601f19601f820116820180604052508101906102e39190610952565b905090565b336001600160a01b037f00000000000000000000000000000000000000000000000000000000000000001614610331576040516330cd747160e01b815260040160405180910390fd5b600254600354101561037d5760405162461bcd60e51b815260206004820152601060248201526f11dbd85b081b9bdd081c995858da195960821b60448201526064015b60405180910390fd5b600080546040516370a0823160e01b81523060048201526001600160a01b03909116906370a0823190602401602060405180830381865afa1580156103c6573d6000803e3d6000fd5b505050506040513d601f19601f820116820180604052508101906103ea9190610952565b60005460405163a9059cbb60e01b81526001600160a01b037f0000000000000000000000000000000000000000000000000000000000000000811660048301526024820184905292935091169063a9059cbb906044016020604051808303816000875af115801561045f573d6000803e3d6000fd5b505050506040513d601f19601f82011682018060405250810190610483919061096b565b5060006003556040518181527f00000000000000000000000000000000000000000000000000000000000000006001600160a01b0316907feaff4b37086828766ad3268786972c0cd24259d4c87a80f9d3963a3c3d999b0d9060200160405180910390a250565b600080546040516370a0823160e01b81523360048201526001600160a01b03909116906370a08231906024016102a2565b600180546105289061098d565b80601f01602080910402602001604051908101604052809291908181526020018280546105549061098d565b80156105a15780601f10610576576101008083540402835291602001916105a1565b820191906000526020600020905b81548152906001019060200180831161058457829003601f168201915b505050505081565b336001600160a01b037f000000000000000000000000000000000000000000000000000000000000000016146105f2576040516330cd747160e01b815260040160405180910390fd5b60016105fe8382610a18565b5061060c620f424082610aee565b6002555050565b6000610622620f424083610aee565b6000546040516323b872dd60e01b8152336004820152306024820152604481018390529192506001600160a01b0316906323b872dd906064016020604051808303816000875af115801561067a573d6000803e3d6000fd5b505050506040513d601f19601f8201168201806040525081019061069e919061096b565b6106dc5760405162461bcd60e51b815260206004820152600f60248201526e151c985b9cd9995c8819985a5b1959608a1b6044820152606401610374565b33600090815260066020526040812080548392906106fb908490610b0b565b9250508190555080600360008282546107149190610b0b565b9091555050600480546001810182556000919091527f8a35acfbc15ff81a39ae7d344fd709f28e8600b4aa8c65c6b64bfe7fe36bd19b0180546001600160a01b031916339081179091556040518281527f54a5b8782470a0d2c022b3b9e5e729503ac5dbdfe053afeb4559f9297f7565a69060200160405180910390a25050565b6000600482815481106107aa576107aa610b1e565b6000918252602090912001546001600160a01b031692915050565b600481815481106107d557600080fd5b6000918252602090912001546001600160a01b0316905081565b60006020828403121561080157600080fd5b81356001600160a01b038116811461081857600080fd5b9392505050565b60006020808352835180602085015260005b8181101561084d57858101830151858201604001528201610831565b506000604082860101526040601f19601f8301168501019250505092915050565b634e487b7160e01b600052604160045260246000fd5b6000806040838503121561089757600080fd5b823567ffffffffffffffff808211156108af57600080fd5b818501915085601f8301126108c357600080fd5b8135818111156108d5576108d561086e565b604051601f8201601f19908116603f011681019083821181831017156108fd576108fd61086e565b8160405282815288602084870101111561091657600080fd5b826020860160208301376000602093820184015298969091013596505050505050565b60006020828403121561094b57600080fd5b5035919050565b60006020828403121561096457600080fd5b5051919050565b60006020828403121561097d57600080fd5b8151801515811461081857600080fd5b600181811c908216806109a157607f821691505b6020821081036109c157634e487b7160e01b600052602260045260246000fd5b50919050565b601f821115610a13576000816000526020600020601f850160051c810160208610156109f05750805b601f850160051c820191505b81811015610a0f578281556001016109fc565b5050505b505050565b815167ffffffffffffffff811115610a3257610a3261086e565b610a4681610a40845461098d565b846109c7565b602080601f831160018114610a7b5760008415610a635750858301515b600019600386901b1c1916600185901b178555610a0f565b600085815260208120601f198616915b82811015610aaa57888601518255948401946001909101908401610a8b565b5085821015610ac85787850151600019600388901b60f8161c191681555b5050505050600190811b01905550565b634e487b7160e01b600052601160045260246000fd5b8082028115828204841417610b0557610b05610ad8565b92915050565b80820180821115610b0557610b05610ad8565b634e487b7160e01b600052603260045260246000fdfea2646970667358221220087c465ec32ec329d978f976237c3345779bb2e698587ecf7c9d74fad32c8a3664736f6c63430008190033",
    "linkReferences": {}
  },
  "methodIdentifiers": {
    "SetNameAndGoal(string,uint256)": "ab7cc84d",
    "fund(uint256)": "ca1d209d",
    "funders(uint256)": "dc0d3dff",
    "getFunder(uint256)": "d7b4750c",
    "getOwner()": "893d20e8",
    "getSignerUSDCAllowance()": "29f5633f",
    "getSignerUSDCBalance()": "81158fe3",
    "getTotalBalance()": "12b58349",
    "getUsdAddress()": "06434322",
    "goalInUsd()": "0013c58a",
    "i_owner()": "dba6335f",
    "m_donations(address)": "5c6b932b",
    "projectName()": "9a33e300",
    "totalBalance()": "ad7a672f",
    "usdc()": "3e413bee",
    "usdcTokenAddress()": "77b53ece",
    "withdraw()": "3ccfd60b"
  },
  "id": 33
}