{"abi":[{"type":"constructor","inputs":[{"name":"s_projectName","type":"string","internalType":"string"},{"name":"_goalInUsd","type":"uint256","internalType":"uint256"},{"name":"_usdcTokenAddress","type":"address","internalType":"address"}],"stateMutability":"nonpayable"},{"type":"function","name":"fund","inputs":[{"name":"_amount","type":"uint256","internalType":"uint256"}],"outputs":[],"stateMutability":"payable"},{"type":"function","name":"funders","inputs":[{"name":"","type":"uint256","internalType":"uint256"}],"outputs":[{"name":"","type":"address","internalType":"address"}],"stateMutability":"view"},{"type":"function","name":"getOwner","inputs":[],"outputs":[{"name":"","type":"address","internalType":"address"}],"stateMutability":"view"},{"type":"function","name":"getProjectName","inputs":[],"outputs":[{"name":"","type":"string","internalType":"string"}],"stateMutability":"view"},{"type":"function","name":"goalInUsd","inputs":[],"outputs":[{"name":"","type":"uint256","internalType":"uint256"}],"stateMutability":"view"},{"type":"function","name":"i_owner","inputs":[],"outputs":[{"name":"","type":"address","internalType":"address"}],"stateMutability":"view"},{"type":"function","name":"m_donations","inputs":[{"name":"","type":"address","internalType":"address"}],"outputs":[{"name":"","type":"uint256","internalType":"uint256"}],"stateMutability":"view"},{"type":"function","name":"projectName","inputs":[],"outputs":[{"name":"","type":"string","internalType":"string"}],"stateMutability":"view"},{"type":"function","name":"totalBalance","inputs":[],"outputs":[{"name":"","type":"uint256","internalType":"uint256"}],"stateMutability":"view"},{"type":"function","name":"usdc","inputs":[],"outputs":[{"name":"","type":"address","internalType":"contract IERC20"}],"stateMutability":"view"},{"type":"function","name":"usdcTokenAddress","inputs":[],"outputs":[{"name":"","type":"address","internalType":"address"}],"stateMutability":"view"},{"type":"function","name":"withdraw","inputs":[],"outputs":[],"stateMutability":"nonpayable"},{"type":"event","name":"FundReceived","inputs":[{"name":"funder","type":"address","indexed":true,"internalType":"address"},{"name":"amount","type":"uint256","indexed":false,"internalType":"uint256"}],"anonymous":false},{"type":"event","name":"FundsWithdrawn","inputs":[{"name":"owner","type":"address","indexed":true,"internalType":"address"},{"name":"amount","type":"uint256","indexed":false,"internalType":"uint256"}],"anonymous":false},{"type":"error","name":"NotOwner","inputs":[]}],"bytecode":{"object":"0x60a060405234801561001057600080fd5b50604051610bc5380380610bc583398101604081905261002f9161009f565b3360805260028290556001610044848261020d565b50600080546001600160a01b0319166001600160a01b0392909216919091179055506102cc9050565b634e487b7160e01b600052604160045260246000fd5b80516001600160a01b038116811461009a57600080fd5b919050565b6000806000606084860312156100b457600080fd5b83516001600160401b03808211156100cb57600080fd5b818601915086601f8301126100df57600080fd5b8151818111156100f1576100f161006d565b604051601f8201601f19908116603f011681019083821181831017156101195761011961006d565b8160405282815260209350898484870101111561013557600080fd5b600091505b82821015610157578482018401518183018501529083019061013a565b6000848483010152809750505050808601519350505061017960408501610083565b90509250925092565b600181811c9082168061019657607f821691505b6020821081036101b657634e487b7160e01b600052602260045260246000fd5b50919050565b601f821115610208576000816000526020600020601f850160051c810160208610156101e55750805b601f850160051c820191505b81811015610204578281556001016101f1565b5050505b505050565b81516001600160401b038111156102265761022661006d565b61023a816102348454610182565b846101bc565b602080601f83116001811461026f57600084156102575750858301515b600019600386901b1c1916600185901b178555610204565b600085815260208120601f198616915b8281101561029e5788860151825594840194600190910190840161027f565b50858210156102bc5787850151600019600388901b60f8161c191681555b5050505050600190811b01905550565b6080516108d06102f56000396000818161017f01528181610215015261026201526108d06000f3fe6080604052600436106100a65760003560e01c80639a33e300116100645780639a33e300146101a35780639faf6215146101c5578063ad7a672f146101da578063ca1d209d146101f0578063dba6335f14610203578063dc0d3dff1461023757600080fd5b806213c58a146100ab5780633ccfd60b146100d45780633e413bee146100eb5780635c6b932b1461012357806377b53ece14610150578063893d20e814610170575b600080fd5b3480156100b757600080fd5b506100c160025481565b6040519081526020015b60405180910390f35b3480156100e057600080fd5b506100e9610257565b005b3480156100f757600080fd5b5060005461010b906001600160a01b031681565b6040516001600160a01b0390911681526020016100cb565b34801561012f57600080fd5b506100c161013e366004610769565b60066020526000908152604090205481565b34801561015c57600080fd5b5060055461010b906001600160a01b031681565b34801561017c57600080fd5b507f000000000000000000000000000000000000000000000000000000000000000061010b565b3480156101af57600080fd5b506101b86103e1565b6040516100cb9190610799565b3480156101d157600080fd5b506101b861046f565b3480156101e657600080fd5b506100c160035481565b6100e96101fe3660046107e8565b610501565b34801561020f57600080fd5b5061010b7f000000000000000000000000000000000000000000000000000000000000000081565b34801561024357600080fd5b5061010b6102523660046107e8565b6106c5565b336001600160a01b037f000000000000000000000000000000000000000000000000000000000000000016146102a0576040516330cd747160e01b815260040160405180910390fd5b60025460035410156102ec5760405162461bcd60e51b815260206004820152601060248201526f11dbd85b081b9bdd081c995858da195960821b60448201526064015b60405180910390fd5b60005b6004548110156103395760006004828154811061030e5761030e610801565b60009182526020808320909101546001600160a01b03168252600690526040812055506001016102ef565b506040805160008152602081019182905251610357916004916106ef565b50604051600090339047908381818185875af1925050503d806000811461039a576040519150601f19603f3d011682016040523d82523d6000602084013e61039f565b606091505b50509050806103de5760405162461bcd60e51b815260206004820152600b60248201526a10d85b1b0819985a5b195960aa1b60448201526064016102e3565b50565b600180546103ee90610817565b80601f016020809104026020016040519081016040528092919081815260200182805461041a90610817565b80156104675780601f1061043c57610100808354040283529160200191610467565b820191906000526020600020905b81548152906001019060200180831161044a57829003601f168201915b505050505081565b60606001805461047e90610817565b80601f01602080910402602001604051908101604052809291908181526020018280546104aa90610817565b80156104f75780601f106104cc576101008083540402835291602001916104f7565b820191906000526020600020905b8154815290600101906020018083116104da57829003601f168201915b5050505050905090565b624c4b408110156105545760405162461bcd60e51b815260206004820181905260248201527f796f75206e65656420746f2073656e64206d6f7265207468616e20352055534460448201526064016102e3565b6000546040516323b872dd60e01b8152336004820152306024820152604481018390526001600160a01b03909116906323b872dd906064016020604051808303816000875af11580156105ab573d6000803e3d6000fd5b505050506040513d601f19601f820116820180604052508101906105cf9190610851565b61060d5760405162461bcd60e51b815260206004820152600f60248201526e111bdb985d1a5bdb8819985a5b1959608a1b60448201526064016102e3565b336000908152600660205260408120805483929061062c908490610873565b9250508190555080600360008282546106459190610873565b9091555050600480546001810182556000919091527f8a35acfbc15ff81a39ae7d344fd709f28e8600b4aa8c65c6b64bfe7fe36bd19b0180546001600160a01b031916339081179091556040518281527f54a5b8782470a0d2c022b3b9e5e729503ac5dbdfe053afeb4559f9297f7565a69060200160405180910390a250565b600481815481106106d557600080fd5b6000918252602090912001546001600160a01b0316905081565b828054828255906000526020600020908101928215610744579160200282015b8281111561074457825182546001600160a01b0319166001600160a01b0390911617825560209092019160019091019061070f565b50610750929150610754565b5090565b5b808211156107505760008155600101610755565b60006020828403121561077b57600080fd5b81356001600160a01b038116811461079257600080fd5b9392505050565b60006020808352835180602085015260005b818110156107c7578581018301518582016040015282016107ab565b506000604082860101526040601f19601f8301168501019250505092915050565b6000602082840312156107fa57600080fd5b5035919050565b634e487b7160e01b600052603260045260246000fd5b600181811c9082168061082b57607f821691505b60208210810361084b57634e487b7160e01b600052602260045260246000fd5b50919050565b60006020828403121561086357600080fd5b8151801515811461079257600080fd5b8082018082111561089457634e487b7160e01b600052601160045260246000fd5b9291505056fea26469706673582212206507745c3dd2e1cbfd67338748ca6682cffccc3a556dbbc34d8c0b357bb0940b64736f6c63430008190033","linkReferences":{}},"methodIdentifiers":{"fund(uint256)":"ca1d209d","funders(uint256)":"dc0d3dff","getOwner()":"893d20e8","getProjectName()":"9faf6215","goalInUsd()":"0013c58a","i_owner()":"dba6335f","m_donations(address)":"5c6b932b","projectName()":"9a33e300","totalBalance()":"ad7a672f","usdc()":"3e413bee","usdcTokenAddress()":"77b53ece","withdraw()":"3ccfd60b"},"id":30}