{"abi":[{"type":"constructor","inputs":[{"name":"_usdcTokenAddress","type":"address","internalType":"address"},{"name":"_owner","type":"address","internalType":"address"}],"stateMutability":"nonpayable"},{"type":"function","name":"SetNameAndGoal","inputs":[{"name":"_projectName","type":"string","internalType":"string"},{"name":"_goalInUsd","type":"uint256","internalType":"uint256"}],"outputs":[],"stateMutability":"nonpayable"},{"type":"function","name":"fund","inputs":[{"name":"_amount","type":"uint256","internalType":"uint256"}],"outputs":[],"stateMutability":"nonpayable"},{"type":"function","name":"funders","inputs":[{"name":"","type":"uint256","internalType":"uint256"}],"outputs":[{"name":"","type":"address","internalType":"address"}],"stateMutability":"view"},{"type":"function","name":"getContractUSDCBalance","inputs":[],"outputs":[{"name":"","type":"uint256","internalType":"uint256"}],"stateMutability":"view"},{"type":"function","name":"getFunder","inputs":[{"name":"i","type":"uint256","internalType":"uint256"}],"outputs":[{"name":"","type":"address","internalType":"address"}],"stateMutability":"view"},{"type":"function","name":"getOwner","inputs":[],"outputs":[{"name":"","type":"address","internalType":"address"}],"stateMutability":"view"},{"type":"function","name":"getSignerUSDCAllowance","inputs":[],"outputs":[{"name":"","type":"uint256","internalType":"uint256"}],"stateMutability":"view"},{"type":"function","name":"getSignerUSDCBalance","inputs":[],"outputs":[{"name":"","type":"uint256","internalType":"uint256"}],"stateMutability":"view"},{"type":"function","name":"getTotalBalance","inputs":[],"outputs":[{"name":"","type":"uint256","internalType":"uint256"}],"stateMutability":"view"},{"type":"function","name":"getUsdAddress","inputs":[],"outputs":[{"name":"","type":"address","internalType":"address"}],"stateMutability":"view"},{"type":"function","name":"goalInUsd","inputs":[],"outputs":[{"name":"","type":"uint256","internalType":"uint256"}],"stateMutability":"view"},{"type":"function","name":"i_owner","inputs":[],"outputs":[{"name":"","type":"address","internalType":"address"}],"stateMutability":"view"},{"type":"function","name":"m_donations","inputs":[{"name":"","type":"address","internalType":"address"}],"outputs":[{"name":"","type":"uint256","internalType":"uint256"}],"stateMutability":"view"},{"type":"function","name":"projectName","inputs":[],"outputs":[{"name":"","type":"string","internalType":"string"}],"stateMutability":"view"},{"type":"function","name":"totalBalance","inputs":[],"outputs":[{"name":"","type":"uint256","internalType":"uint256"}],"stateMutability":"view"},{"type":"function","name":"usdc","inputs":[],"outputs":[{"name":"","type":"address","internalType":"contract ERC20"}],"stateMutability":"view"},{"type":"function","name":"usdcTokenAddress","inputs":[],"outputs":[{"name":"","type":"address","internalType":"address"}],"stateMutability":"view"},{"type":"function","name":"withdraw","inputs":[],"outputs":[],"stateMutability":"nonpayable"},{"type":"function","name":"withdrawIftotalBalanceIsZero","inputs":[],"outputs":[],"stateMutability":"nonpayable"},{"type":"event","name":"FundReceived","inputs":[{"name":"funder","type":"address","indexed":true,"internalType":"address"},{"name":"amount","type":"uint256","indexed":false,"internalType":"uint256"}],"anonymous":false},{"type":"event","name":"FundsWithdrawn","inputs":[{"name":"owner","type":"address","indexed":true,"internalType":"address"},{"name":"amount","type":"uint256","indexed":false,"internalType":"uint256"}],"anonymous":false},{"type":"error","name":"InvalidUsdcsToken","inputs":[]},{"type":"error","name":"NotEnoughFunds","inputs":[]},{"type":"error","name":"NotOwner","inputs":[]}],"bytecode":{"object":"0x60a06040526005805461ffff60a01b1916905534801561001e57600080fd5b5060405161133f38038061133f83398101604081905261003d916100b5565b6001600160a01b0380821660805282166100695760405162b30c8d60e31b815260040160405180910390fd5b50600080546001600160a01b039092166001600160a01b03199283168117909155600580549092161790556100e8565b80516001600160a01b03811681146100b057600080fd5b919050565b600080604083850312156100c857600080fd5b6100d183610099565b91506100df60208401610099565b90509250929050565b60805161120461013b600039600081816101d70152818161025f01528181610349015281816104550152818161049f015281816105c4015281816106a6015281816107b801526107df01526112046000f3fe608060405234801561001057600080fd5b506004361061011f5760003560e01c806381158fe3116100ad578063c83bb1a611610071578063c83bb1a61461022c578063ca1d209d14610234578063d7b4750c14610247578063dba6335f1461025a578063dc0d3dff1461028157600080fd5b806381158fe3146101cd578063893d20e8146101d55780639a33e300146101fb578063ab7cc84d14610210578063ad7a672f1461022357600080fd5b806329f5633f116100f457806329f5633f146101755780633ccfd60b1461017d5780633e413bee146101875780635c6b932b1461019a57806377b53ece146101ba57600080fd5b806213c58a146101245780622772c214610140578063064343221461014857806312b583491461016d575b600080fd5b61012d60025481565b6040519081526020015b60405180910390f35b61012d610294565b6005546001600160a01b03165b6040516001600160a01b039091168152602001610137565b60035461012d565b61012d610307565b61018561033e565b005b600054610155906001600160a01b031681565b61012d6101a8366004610e66565b60066020526000908152604090205481565b600554610155906001600160a01b031681565b61012d6104fa565b7f0000000000000000000000000000000000000000000000000000000000000000610155565b61020361052b565b6040516101379190610eba565b61018561021e366004610f03565b6105b9565b61012d60035481565b61018561069b565b610185610242366004610fb8565b610838565b610155610255366004610fb8565b610a2d565b6101557f000000000000000000000000000000000000000000000000000000000000000081565b61015561028f366004610fb8565b610a5d565b600080546040516370a0823160e01b81523060048201526001600160a01b03909116906370a08231906024015b602060405180830381865afa1580156102de573d6000803e3d6000fd5b505050506040513d601f19601f820116820180604052508101906103029190610fd1565b905090565b60008054604051636eb1769f60e11b81523360048201523060248201526001600160a01b039091169063dd62ed3e906044016102c1565b336001600160a01b037f00000000000000000000000000000000000000000000000000000000000000001614610387576040516330cd747160e01b815260040160405180910390fd5b60025460035410156103d35760405162461bcd60e51b815260206004820152601060248201526f11dbd85b081b9bdd081c995858da195960821b60448201526064015b60405180910390fd5b600080546040516370a0823160e01b81523060048201526001600160a01b03909116906370a0823190602401602060405180830381865afa15801561041c573d6000803e3d6000fd5b505050506040513d601f19601f820116820180604052508101906104409190610fd1565b60005490915061047a906001600160a01b03167f000000000000000000000000000000000000000000000000000000000000000083610a87565b60006003556005805460ff60a81b1916600160a81b1790556040516001600160a01b037f000000000000000000000000000000000000000000000000000000000000000016907feaff4b37086828766ad3268786972c0cd24259d4c87a80f9d3963a3c3d999b0d906104ef9084815260200190565b60405180910390a250565b600080546040516370a0823160e01b81523360048201526001600160a01b03909116906370a08231906024016102c1565b6001805461053890610fea565b80601f016020809104026020016040519081016040528092919081815260200182805461056490610fea565b80156105b15780601f10610586576101008083540402835291602001916105b1565b820191906000526020600020905b81548152906001019060200180831161059457829003601f168201915b505050505081565b336001600160a01b037f00000000000000000000000000000000000000000000000000000000000000001614610602576040516330cd747160e01b815260040160405180910390fd5b600554600160a01b900460ff16156106675760405162461bcd60e51b815260206004820152602260248201527f4e616d6520616e6420676f616c2068617320616c7265616479206265656e2073604482015261195d60f21b60648201526084016103ca565b60016106738382611074565b50610681620f42408261114a565b60025550506005805460ff60a01b1916600160a01b179055565b336001600160a01b037f000000000000000000000000000000000000000000000000000000000000000016146106e4576040516330cd747160e01b815260040160405180910390fd5b6001600354106107365760405162461bcd60e51b815260206004820152601960248201527f546f74616c2062616c616e6365206973206e6f74207a65726f0000000000000060448201526064016103ca565b600080546040516370a0823160e01b81523060048201526001600160a01b03909116906370a0823190602401602060405180830381865afa15801561077f573d6000803e3d6000fd5b505050506040513d601f19601f820116820180604052508101906107a39190610fd1565b6000549091506107dd906001600160a01b03167f000000000000000000000000000000000000000000000000000000000000000083610a87565b7f00000000000000000000000000000000000000000000000000000000000000006001600160a01b03167feaff4b37086828766ad3268786972c0cd24259d4c87a80f9d3963a3c3d999b0d826040516104ef91815260200190565b600554600160a81b900460ff16156108925760405162461bcd60e51b815260206004820152601b60248201527f50726f6a65637420697320616c726561647920636f6d706c657465000000000060448201526064016103ca565b60006108a1620f42408361114a565b6000549091506108bb906001600160a01b03163083610aef565b6000546040516323b872dd60e01b8152336004820152306024820152604481018390526001600160a01b03909116906323b872dd906064016020604051808303816000875af1158015610912573d6000803e3d6000fd5b505050506040513d601f19601f820116820180604052508101906109369190611167565b6109745760405162461bcd60e51b815260206004820152600f60248201526e151c985b9cd9995c8819985a5b1959608a1b60448201526064016103ca565b3360009081526006602052604081208054839290610993908490611189565b9250508190555080600360008282546109ac9190611189565b9091555050600480546001810182556000919091527f8a35acfbc15ff81a39ae7d344fd709f28e8600b4aa8c65c6b64bfe7fe36bd19b0180546001600160a01b031916339081179091556040518281527f54a5b8782470a0d2c022b3b9e5e729503ac5dbdfe053afeb4559f9297f7565a69060200160405180910390a25050565b600060048281548110610a4257610a4261119c565b6000918252602090912001546001600160a01b031692915050565b60048181548110610a6d57600080fd5b6000918252602090912001546001600160a01b0316905081565b6040516001600160a01b038316602482015260448101829052610aea90849063a9059cbb60e01b906064015b60408051601f198184030181529190526020810180516001600160e01b03166001600160e01b031990931692909217909152610c04565b505050565b801580610b695750604051636eb1769f60e11b81523060048201526001600160a01b03838116602483015284169063dd62ed3e90604401602060405180830381865afa158015610b43573d6000803e3d6000fd5b505050506040513d601f19601f82011682018060405250810190610b679190610fd1565b155b610bd45760405162461bcd60e51b815260206004820152603660248201527f5361666545524332303a20617070726f76652066726f6d206e6f6e2d7a65726f60448201527520746f206e6f6e2d7a65726f20616c6c6f77616e636560501b60648201526084016103ca565b6040516001600160a01b038316602482015260448101829052610aea90849063095ea7b360e01b90606401610ab3565b6000610c59826040518060400160405280602081526020017f5361666545524332303a206c6f772d6c6576656c2063616c6c206661696c6564815250856001600160a01b0316610cd69092919063ffffffff16565b805190915015610aea5780806020019051810190610c779190611167565b610aea5760405162461bcd60e51b815260206004820152602a60248201527f5361666545524332303a204552433230206f7065726174696f6e20646964206e6044820152691bdd081cdd58d8d9595960b21b60648201526084016103ca565b6060610ce58484600085610ced565b949350505050565b606082471015610d4e5760405162461bcd60e51b815260206004820152602660248201527f416464726573733a20696e73756666696369656e742062616c616e636520666f6044820152651c8818d85b1b60d21b60648201526084016103ca565b600080866001600160a01b03168587604051610d6a91906111b2565b60006040518083038185875af1925050503d8060008114610da7576040519150601f19603f3d011682016040523d82523d6000602084013e610dac565b606091505b5091509150610dbd87838387610dc8565b979650505050505050565b60608315610e37578251600003610e30576001600160a01b0385163b610e305760405162461bcd60e51b815260206004820152601d60248201527f416464726573733a2063616c6c20746f206e6f6e2d636f6e747261637400000060448201526064016103ca565b5081610ce5565b610ce58383815115610e4c5781518083602001fd5b8060405162461bcd60e51b81526004016103ca9190610eba565b600060208284031215610e7857600080fd5b81356001600160a01b0381168114610e8f57600080fd5b9392505050565b60005b83811015610eb1578181015183820152602001610e99565b50506000910152565b6020815260008251806020840152610ed9816040850160208701610e96565b601f01601f19169190910160400192915050565b634e487b7160e01b600052604160045260246000fd5b60008060408385031215610f1657600080fd5b823567ffffffffffffffff80821115610f2e57600080fd5b818501915085601f830112610f4257600080fd5b813581811115610f5457610f54610eed565b604051601f8201601f19908116603f01168101908382118183101715610f7c57610f7c610eed565b81604052828152886020848701011115610f9557600080fd5b826020860160208301376000602093820184015298969091013596505050505050565b600060208284031215610fca57600080fd5b5035919050565b600060208284031215610fe357600080fd5b5051919050565b600181811c90821680610ffe57607f821691505b60208210810361101e57634e487b7160e01b600052602260045260246000fd5b50919050565b601f821115610aea576000816000526020600020601f850160051c8101602086101561104d5750805b601f850160051c820191505b8181101561106c57828155600101611059565b505050505050565b815167ffffffffffffffff81111561108e5761108e610eed565b6110a28161109c8454610fea565b84611024565b602080601f8311600181146110d757600084156110bf5750858301515b600019600386901b1c1916600185901b17855561106c565b600085815260208120601f198616915b82811015611106578886015182559484019460019091019084016110e7565b50858210156111245787850151600019600388901b60f8161c191681555b5050505050600190811b01905550565b634e487b7160e01b600052601160045260246000fd5b808202811582820484141761116157611161611134565b92915050565b60006020828403121561117957600080fd5b81518015158114610e8f57600080fd5b8082018082111561116157611161611134565b634e487b7160e01b600052603260045260246000fd5b600082516111c4818460208701610e96565b919091019291505056fea26469706673582212208515c84dd7dfdd1901e106542d387246bcc7593a1524db8e33c50583b16f8cc564736f6c63430008190033","linkReferences":{}},"methodIdentifiers":{"SetNameAndGoal(string,uint256)":"ab7cc84d","fund(uint256)":"ca1d209d","funders(uint256)":"dc0d3dff","getContractUSDCBalance()":"002772c2","getFunder(uint256)":"d7b4750c","getOwner()":"893d20e8","getSignerUSDCAllowance()":"29f5633f","getSignerUSDCBalance()":"81158fe3","getTotalBalance()":"12b58349","getUsdAddress()":"06434322","goalInUsd()":"0013c58a","i_owner()":"dba6335f","m_donations(address)":"5c6b932b","projectName()":"9a33e300","totalBalance()":"ad7a672f","usdc()":"3e413bee","usdcTokenAddress()":"77b53ece","withdraw()":"3ccfd60b","withdrawIftotalBalanceIsZero()":"c83bb1a6"},"id":53}