{"abi":[{"type":"constructor","inputs":[{"name":"_usdcTokenAddress","type":"address","internalType":"address"},{"name":"_owner","type":"address","internalType":"address"}],"stateMutability":"nonpayable"},{"type":"function","name":"SetNameAndGoal","inputs":[{"name":"_projectName","type":"string","internalType":"string"},{"name":"_goalInUsd","type":"uint256","internalType":"uint256"}],"outputs":[],"stateMutability":"nonpayable"},{"type":"function","name":"fund","inputs":[{"name":"_amount","type":"uint256","internalType":"uint256"}],"outputs":[],"stateMutability":"nonpayable"},{"type":"function","name":"fundFromContract","inputs":[{"name":"_amount","type":"uint256","internalType":"uint256"}],"outputs":[],"stateMutability":"nonpayable"},{"type":"function","name":"funders","inputs":[{"name":"","type":"uint256","internalType":"uint256"}],"outputs":[{"name":"","type":"address","internalType":"address"}],"stateMutability":"view"},{"type":"function","name":"getFunder","inputs":[{"name":"i","type":"uint256","internalType":"uint256"}],"outputs":[{"name":"","type":"address","internalType":"address"}],"stateMutability":"view"},{"type":"function","name":"getOwner","inputs":[],"outputs":[{"name":"","type":"address","internalType":"address"}],"stateMutability":"view"},{"type":"function","name":"getSignerUSDCAllowance","inputs":[],"outputs":[{"name":"","type":"uint256","internalType":"uint256"}],"stateMutability":"view"},{"type":"function","name":"getSignerUSDCBalance","inputs":[],"outputs":[{"name":"","type":"uint256","internalType":"uint256"}],"stateMutability":"view"},{"type":"function","name":"getTotalBalance","inputs":[],"outputs":[{"name":"","type":"uint256","internalType":"uint256"}],"stateMutability":"view"},{"type":"function","name":"getUsdAddress","inputs":[],"outputs":[{"name":"","type":"address","internalType":"address"}],"stateMutability":"view"},{"type":"function","name":"goalInUsd","inputs":[],"outputs":[{"name":"","type":"uint256","internalType":"uint256"}],"stateMutability":"view"},{"type":"function","name":"i_owner","inputs":[],"outputs":[{"name":"","type":"address","internalType":"address"}],"stateMutability":"view"},{"type":"function","name":"m_donations","inputs":[{"name":"","type":"address","internalType":"address"}],"outputs":[{"name":"","type":"uint256","internalType":"uint256"}],"stateMutability":"view"},{"type":"function","name":"projectName","inputs":[],"outputs":[{"name":"","type":"string","internalType":"string"}],"stateMutability":"view"},{"type":"function","name":"totalBalance","inputs":[],"outputs":[{"name":"","type":"uint256","internalType":"uint256"}],"stateMutability":"view"},{"type":"function","name":"usdc","inputs":[],"outputs":[{"name":"","type":"address","internalType":"contract ERC20"}],"stateMutability":"view"},{"type":"function","name":"usdcTokenAddress","inputs":[],"outputs":[{"name":"","type":"address","internalType":"address"}],"stateMutability":"view"},{"type":"function","name":"withdraw","inputs":[],"outputs":[],"stateMutability":"nonpayable"},{"type":"event","name":"FundReceived","inputs":[{"name":"funder","type":"address","indexed":true,"internalType":"address"},{"name":"amount","type":"uint256","indexed":false,"internalType":"uint256"}],"anonymous":false},{"type":"event","name":"FundsWithdrawn","inputs":[{"name":"owner","type":"address","indexed":true,"internalType":"address"},{"name":"amount","type":"uint256","indexed":false,"internalType":"uint256"}],"anonymous":false},{"type":"error","name":"InvalidUsdcsToken","inputs":[]},{"type":"error","name":"NotEnoughFunds","inputs":[]},{"type":"error","name":"NotOwner","inputs":[]}],"bytecode":{"object":"0x60a06040526005805461ffff60a01b1916905534801561001e57600080fd5b506040516110ae3803806110ae83398101604081905261003d916100b5565b6001600160a01b0380821660805282166100695760405162b30c8d60e31b815260040160405180910390fd5b50600080546001600160a01b039092166001600160a01b03199283168117909155600580549092161790556100e8565b80516001600160a01b03811681146100b057600080fd5b919050565b600080604083850312156100c857600080fd5b6100d183610099565b91506100df60208401610099565b90509250929050565b608051610f88610126600039600081816101d8015281816102580152818161031101528181610422015281816104c701526106cf0152610f886000f3fe608060405234801561001057600080fd5b50600436106101155760003560e01c806381158fe3116100a2578063ad7a672f11610071578063ad7a672f14610224578063ca1d209d1461022d578063d7b4750c14610240578063dba6335f14610253578063dc0d3dff1461027a57600080fd5b806381158fe3146101ce578063893d20e8146101d65780639a33e300146101fc578063ab7cc84d1461021157600080fd5b80633ccfd60b116100e95780633ccfd60b1461016b5780633e413bee146101755780635c6b932b146101885780637392a573146101a857806377b53ece146101bb57600080fd5b806213c58a1461011a578063064343221461013657806312b583491461015b57806329f5633f14610163575b600080fd5b61012360025481565b6040519081526020015b60405180910390f35b6005546001600160a01b03165b6040516001600160a01b03909116815260200161012d565b600354610123565b61012361028d565b610173610306565b005b600054610143906001600160a01b031681565b610123610196366004610bea565b60066020526000908152604090205481565b6101736101b6366004610c1a565b610522565b600554610143906001600160a01b031681565b610123610605565b7f0000000000000000000000000000000000000000000000000000000000000000610143565b610204610636565b60405161012d9190610c57565b61017361021f366004610ca0565b6106c4565b61012360035481565b61017361023b366004610c1a565b6107a6565b61014361024e366004610c1a565b6108c9565b6101437f000000000000000000000000000000000000000000000000000000000000000081565b610143610288366004610c1a565b6108f9565b60008054604051636eb1769f60e11b81523360048201523060248201526001600160a01b039091169063dd62ed3e906044015b602060405180830381865afa1580156102dd573d6000803e3d6000fd5b505050506040513d601f19601f820116820180604052508101906103019190610d55565b905090565b336001600160a01b037f0000000000000000000000000000000000000000000000000000000000000000161461034f576040516330cd747160e01b815260040160405180910390fd5b600254600354101561039b5760405162461bcd60e51b815260206004820152601060248201526f11dbd85b081b9bdd081c995858da195960821b60448201526064015b60405180910390fd5b600080546040516370a0823160e01b81523060048201526001600160a01b03909116906370a0823190602401602060405180830381865afa1580156103e4573d6000803e3d6000fd5b505050506040513d601f19601f820116820180604052508101906104089190610d55565b60005460405163a9059cbb60e01b81526001600160a01b037f0000000000000000000000000000000000000000000000000000000000000000811660048301526024820184905292935091169063a9059cbb906044016020604051808303816000875af115801561047d573d6000803e3d6000fd5b505050506040513d601f19601f820116820180604052508101906104a19190610d6e565b5060006003556005805460ff60a81b1916600160a81b1790556040516001600160a01b037f000000000000000000000000000000000000000000000000000000000000000016907feaff4b37086828766ad3268786972c0cd24259d4c87a80f9d3963a3c3d999b0d906105179084815260200190565b60405180910390a250565b6000610531620f424083610da6565b60005490915061054c906001600160a01b0316333084610923565b336000908152600660205260408120805483929061056b908490610dc3565b9250508190555080600360008282546105849190610dc3565b9091555050600480546001810182556000919091527f8a35acfbc15ff81a39ae7d344fd709f28e8600b4aa8c65c6b64bfe7fe36bd19b0180546001600160a01b031916339081179091556040518281527f54a5b8782470a0d2c022b3b9e5e729503ac5dbdfe053afeb4559f9297f7565a69060200160405180910390a25050565b600080546040516370a0823160e01b81523360048201526001600160a01b03909116906370a08231906024016102c0565b6001805461064390610dd6565b80601f016020809104026020016040519081016040528092919081815260200182805461066f90610dd6565b80156106bc5780601f10610691576101008083540402835291602001916106bc565b820191906000526020600020905b81548152906001019060200180831161069f57829003601f168201915b505050505081565b336001600160a01b037f0000000000000000000000000000000000000000000000000000000000000000161461070d576040516330cd747160e01b815260040160405180910390fd5b600554600160a01b900460ff16156107725760405162461bcd60e51b815260206004820152602260248201527f4e616d6520616e6420676f616c2068617320616c7265616479206265656e2073604482015261195d60f21b6064820152608401610392565b600161077e8382610e60565b5061078c620f424082610da6565b60025550506005805460ff60a01b1916600160a01b179055565b600554600160a81b900460ff16156108005760405162461bcd60e51b815260206004820152601b60248201527f50726f6a65637420697320616c726561647920636f6d706c65746500000000006044820152606401610392565b600061080f620f424083610da6565b6000546040516323b872dd60e01b8152336004820152306024820152604481018390529192506001600160a01b0316906323b872dd906064016020604051808303816000875af1158015610867573d6000803e3d6000fd5b505050506040513d601f19601f8201168201806040525081019061088b9190610d6e565b61054c5760405162461bcd60e51b815260206004820152600f60248201526e151c985b9cd9995c8819985a5b1959608a1b6044820152606401610392565b6000600482815481106108de576108de610f20565b6000918252602090912001546001600160a01b031692915050565b6004818154811061090957600080fd5b6000918252602090912001546001600160a01b0316905081565b604080516001600160a01b0385811660248301528416604482015260648082018490528251808303909101815260849091019091526020810180516001600160e01b03166323b872dd60e01b17905261097d908590610983565b50505050565b60006109d8826040518060400160405280602081526020017f5361666545524332303a206c6f772d6c6576656c2063616c6c206661696c6564815250856001600160a01b0316610a5a9092919063ffffffff16565b805190915015610a5557808060200190518101906109f69190610d6e565b610a555760405162461bcd60e51b815260206004820152602a60248201527f5361666545524332303a204552433230206f7065726174696f6e20646964206e6044820152691bdd081cdd58d8d9595960b21b6064820152608401610392565b505050565b6060610a698484600085610a71565b949350505050565b606082471015610ad25760405162461bcd60e51b815260206004820152602660248201527f416464726573733a20696e73756666696369656e742062616c616e636520666f6044820152651c8818d85b1b60d21b6064820152608401610392565b600080866001600160a01b03168587604051610aee9190610f36565b60006040518083038185875af1925050503d8060008114610b2b576040519150601f19603f3d011682016040523d82523d6000602084013e610b30565b606091505b5091509150610b4187838387610b4c565b979650505050505050565b60608315610bbb578251600003610bb4576001600160a01b0385163b610bb45760405162461bcd60e51b815260206004820152601d60248201527f416464726573733a2063616c6c20746f206e6f6e2d636f6e74726163740000006044820152606401610392565b5081610a69565b610a698383815115610bd05781518083602001fd5b8060405162461bcd60e51b81526004016103929190610c57565b600060208284031215610bfc57600080fd5b81356001600160a01b0381168114610c1357600080fd5b9392505050565b600060208284031215610c2c57600080fd5b5035919050565b60005b83811015610c4e578181015183820152602001610c36565b50506000910152565b6020815260008251806020840152610c76816040850160208701610c33565b601f01601f19169190910160400192915050565b634e487b7160e01b600052604160045260246000fd5b60008060408385031215610cb357600080fd5b823567ffffffffffffffff80821115610ccb57600080fd5b818501915085601f830112610cdf57600080fd5b813581811115610cf157610cf1610c8a565b604051601f8201601f19908116603f01168101908382118183101715610d1957610d19610c8a565b81604052828152886020848701011115610d3257600080fd5b826020860160208301376000602093820184015298969091013596505050505050565b600060208284031215610d6757600080fd5b5051919050565b600060208284031215610d8057600080fd5b81518015158114610c1357600080fd5b634e487b7160e01b600052601160045260246000fd5b8082028115828204841417610dbd57610dbd610d90565b92915050565b80820180821115610dbd57610dbd610d90565b600181811c90821680610dea57607f821691505b602082108103610e0a57634e487b7160e01b600052602260045260246000fd5b50919050565b601f821115610a55576000816000526020600020601f850160051c81016020861015610e395750805b601f850160051c820191505b81811015610e5857828155600101610e45565b505050505050565b815167ffffffffffffffff811115610e7a57610e7a610c8a565b610e8e81610e888454610dd6565b84610e10565b602080601f831160018114610ec35760008415610eab5750858301515b600019600386901b1c1916600185901b178555610e58565b600085815260208120601f198616915b82811015610ef257888601518255948401946001909101908401610ed3565b5085821015610f105787850151600019600388901b60f8161c191681555b5050505050600190811b01905550565b634e487b7160e01b600052603260045260246000fd5b60008251610f48818460208701610c33565b919091019291505056fea2646970667358221220aac2847d64cddd6b2f4355c64dadaf5a2f91431602de67d356977ab5aaec344864736f6c63430008190033","linkReferences":{}},"methodIdentifiers":{"SetNameAndGoal(string,uint256)":"ab7cc84d","fund(uint256)":"ca1d209d","fundFromContract(uint256)":"7392a573","funders(uint256)":"dc0d3dff","getFunder(uint256)":"d7b4750c","getOwner()":"893d20e8","getSignerUSDCAllowance()":"29f5633f","getSignerUSDCBalance()":"81158fe3","getTotalBalance()":"12b58349","getUsdAddress()":"06434322","goalInUsd()":"0013c58a","i_owner()":"dba6335f","m_donations(address)":"5c6b932b","projectName()":"9a33e300","totalBalance()":"ad7a672f","usdc()":"3e413bee","usdcTokenAddress()":"77b53ece","withdraw()":"3ccfd60b"},"id":35}