{"abi":[{"type":"constructor","inputs":[{"name":"s_projectName","type":"string","internalType":"string"},{"name":"_goalInUsd","type":"uint256","internalType":"uint256"},{"name":"_usdcTokenAddress","type":"address","internalType":"address"}],"stateMutability":"nonpayable"},{"type":"function","name":"fund","inputs":[{"name":"_amount","type":"uint256","internalType":"uint256"}],"outputs":[],"stateMutability":"payable"},{"type":"function","name":"funders","inputs":[{"name":"","type":"uint256","internalType":"uint256"}],"outputs":[{"name":"","type":"address","internalType":"address"}],"stateMutability":"view"},{"type":"function","name":"getOwner","inputs":[],"outputs":[{"name":"","type":"address","internalType":"address"}],"stateMutability":"view"},{"type":"function","name":"getProjectName","inputs":[],"outputs":[{"name":"","type":"string","internalType":"string"}],"stateMutability":"view"},{"type":"function","name":"goalInUsd","inputs":[],"outputs":[{"name":"","type":"uint256","internalType":"uint256"}],"stateMutability":"view"},{"type":"function","name":"i_owner","inputs":[],"outputs":[{"name":"","type":"address","internalType":"address"}],"stateMutability":"view"},{"type":"function","name":"m_donations","inputs":[{"name":"","type":"address","internalType":"address"}],"outputs":[{"name":"","type":"uint256","internalType":"uint256"}],"stateMutability":"view"},{"type":"function","name":"projectName","inputs":[],"outputs":[{"name":"","type":"string","internalType":"string"}],"stateMutability":"view"},{"type":"function","name":"totalBalance","inputs":[],"outputs":[{"name":"","type":"uint256","internalType":"uint256"}],"stateMutability":"view"},{"type":"function","name":"usdcTokenAddress","inputs":[],"outputs":[{"name":"","type":"address","internalType":"address"}],"stateMutability":"view"},{"type":"function","name":"withdraw","inputs":[],"outputs":[],"stateMutability":"nonpayable"},{"type":"event","name":"FundReceived","inputs":[{"name":"funder","type":"address","indexed":true,"internalType":"address"},{"name":"amount","type":"uint256","indexed":false,"internalType":"uint256"}],"anonymous":false},{"type":"event","name":"FundsWithdrawn","inputs":[{"name":"owner","type":"address","indexed":true,"internalType":"address"},{"name":"amount","type":"uint256","indexed":false,"internalType":"uint256"}],"anonymous":false},{"type":"error","name":"NotOwner","inputs":[]}],"bytecode":{"object":"0x60a060405234801561001057600080fd5b50604051610b69380380610b6983398101604081905261002f9161009f565b3360805260018290556000610044848261020d565b50600480546001600160a01b0319166001600160a01b0392909216919091179055506102cc9050565b634e487b7160e01b600052604160045260246000fd5b80516001600160a01b038116811461009a57600080fd5b919050565b6000806000606084860312156100b457600080fd5b83516001600160401b03808211156100cb57600080fd5b818601915086601f8301126100df57600080fd5b8151818111156100f1576100f161006d565b604051601f8201601f19908116603f011681019083821181831017156101195761011961006d565b8160405282815260209350898484870101111561013557600080fd5b600091505b82821015610157578482018401518183018501529083019061013a565b6000848483010152809750505050808601519350505061017960408501610083565b90509250925092565b600181811c9082168061019657607f821691505b6020821081036101b657634e487b7160e01b600052602260045260246000fd5b50919050565b601f821115610208576000816000526020600020601f850160051c810160208610156101e55750805b601f850160051c820191505b81811015610204578281556001016101f1565b5050505b505050565b81516001600160401b038111156102265761022661006d565b61023a816102348454610182565b846101bc565b602080601f83116001811461026f57600084156102575750858301515b600019600386901b1c1916600185901b178555610204565b600085815260208120601f198616915b8281101561029e5788860151825594840194600190910190840161027f565b50858210156102bc5787850151600019600388901b60f8161c191681555b5050505050600190811b01905550565b6080516108746102f560003960008181610154015281816101ea015261023701526108746000f3fe60806040526004361061009b5760003560e01c80639a33e300116100645780639a33e300146101785780639faf62151461019a578063ad7a672f146101af578063ca1d209d146101c5578063dba6335f146101d8578063dc0d3dff1461020c57600080fd5b806213c58a146100a05780633ccfd60b146100c95780635c6b932b146100e057806377b53ece1461010d578063893d20e814610145575b600080fd5b3480156100ac57600080fd5b506100b660015481565b6040519081526020015b60405180910390f35b3480156100d557600080fd5b506100de61022c565b005b3480156100ec57600080fd5b506100b66100fb36600461070d565b60056020526000908152604090205481565b34801561011957600080fd5b5060045461012d906001600160a01b031681565b6040516001600160a01b0390911681526020016100c0565b34801561015157600080fd5b507f000000000000000000000000000000000000000000000000000000000000000061012d565b34801561018457600080fd5b5061018d6103b6565b6040516100c0919061073d565b3480156101a657600080fd5b5061018d610444565b3480156101bb57600080fd5b506100b660025481565b6100de6101d336600461078c565b6104d6565b3480156101e457600080fd5b5061012d7f000000000000000000000000000000000000000000000000000000000000000081565b34801561021857600080fd5b5061012d61022736600461078c565b610669565b336001600160a01b037f00000000000000000000000000000000000000000000000000000000000000001614610275576040516330cd747160e01b815260040160405180910390fd5b60015460025410156102c15760405162461bcd60e51b815260206004820152601060248201526f11dbd85b081b9bdd081c995858da195960821b60448201526064015b60405180910390fd5b60005b60035481101561030e576000600382815481106102e3576102e36107a5565b60009182526020808320909101546001600160a01b03168252600590526040812055506001016102c4565b50604080516000815260208101918290525161032c91600391610693565b50604051600090339047908381818185875af1925050503d806000811461036f576040519150601f19603f3d011682016040523d82523d6000602084013e610374565b606091505b50509050806103b35760405162461bcd60e51b815260206004820152600b60248201526a10d85b1b0819985a5b195960aa1b60448201526064016102b8565b50565b600080546103c3906107bb565b80601f01602080910402602001604051908101604052809291908181526020018280546103ef906107bb565b801561043c5780601f106104115761010080835404028352916020019161043c565b820191906000526020600020905b81548152906001019060200180831161041f57829003601f168201915b505050505081565b606060008054610453906107bb565b80601f016020809104026020016040519081016040528092919081815260200182805461047f906107bb565b80156104cc5780601f106104a1576101008083540402835291602001916104cc565b820191906000526020600020905b8154815290600101906020018083116104af57829003601f168201915b5050505050905090565b624c4b408110156105295760405162461bcd60e51b815260206004820181905260248201527f796f75206e65656420746f2073656e64206d6f7265207468616e20352055534460448201526064016102b8565b600480546040516323b872dd60e01b81523392810192909252306024830152604482018390526001600160a01b03169081906323b872dd906064016020604051808303816000875af1158015610583573d6000803e3d6000fd5b505050506040513d601f19601f820116820180604052508101906105a791906107f5565b6105b057600080fd5b33600090815260056020526040812080548492906105cf908490610817565b9250508190555081600260008282546105e89190610817565b9091555050600380546001810182556000919091527fc2575a0e9e593c00f959f8c92f12db2869c3395a3b0502d05e2516446f71f85b0180546001600160a01b031916339081179091556040518381527f54a5b8782470a0d2c022b3b9e5e729503ac5dbdfe053afeb4559f9297f7565a69060200160405180910390a25050565b6003818154811061067957600080fd5b6000918252602090912001546001600160a01b0316905081565b8280548282559060005260206000209081019282156106e8579160200282015b828111156106e857825182546001600160a01b0319166001600160a01b039091161782556020909201916001909101906106b3565b506106f49291506106f8565b5090565b5b808211156106f457600081556001016106f9565b60006020828403121561071f57600080fd5b81356001600160a01b038116811461073657600080fd5b9392505050565b60006020808352835180602085015260005b8181101561076b5785810183015185820160400152820161074f565b506000604082860101526040601f19601f8301168501019250505092915050565b60006020828403121561079e57600080fd5b5035919050565b634e487b7160e01b600052603260045260246000fd5b600181811c908216806107cf57607f821691505b6020821081036107ef57634e487b7160e01b600052602260045260246000fd5b50919050565b60006020828403121561080757600080fd5b8151801515811461073657600080fd5b8082018082111561083857634e487b7160e01b600052601160045260246000fd5b9291505056fea26469706673582212204b06fb9480a0b9e940473efb68e54909be6af427c9b2667a28f77bdf1c4dfc4864736f6c63430008190033","linkReferences":{}},"methodIdentifiers":{"fund(uint256)":"ca1d209d","funders(uint256)":"dc0d3dff","getOwner()":"893d20e8","getProjectName()":"9faf6215","goalInUsd()":"0013c58a","i_owner()":"dba6335f","m_donations(address)":"5c6b932b","projectName()":"9a33e300","totalBalance()":"ad7a672f","usdcTokenAddress()":"77b53ece","withdraw()":"3ccfd60b"},"id":29}