{"abi":[{"type":"function","name":"DOMAIN_SEPARATOR","inputs":[],"outputs":[{"name":"","type":"bytes32","internalType":"bytes32"}],"stateMutability":"view"},{"type":"function","name":"_mint","inputs":[{"name":"to","type":"address","internalType":"address"},{"name":"amount","type":"uint256","internalType":"uint256"}],"outputs":[],"stateMutability":"nonpayable"},{"type":"function","name":"allowance","inputs":[{"name":"owner","type":"address","internalType":"address"},{"name":"spender","type":"address","internalType":"address"}],"outputs":[{"name":"","type":"uint256","internalType":"uint256"}],"stateMutability":"view"},{"type":"function","name":"approve","inputs":[{"name":"spender","type":"address","internalType":"address"},{"name":"amount","type":"uint256","internalType":"uint256"}],"outputs":[{"name":"","type":"bool","internalType":"bool"}],"stateMutability":"nonpayable"},{"type":"function","name":"balanceOf","inputs":[{"name":"owner","type":"address","internalType":"address"}],"outputs":[{"name":"","type":"uint256","internalType":"uint256"}],"stateMutability":"view"},{"type":"function","name":"decimals","inputs":[],"outputs":[{"name":"","type":"uint8","internalType":"uint8"}],"stateMutability":"view"},{"type":"function","name":"initialize","inputs":[{"name":"name_","type":"string","internalType":"string"},{"name":"symbol_","type":"string","internalType":"string"},{"name":"decimals_","type":"uint8","internalType":"uint8"}],"outputs":[],"stateMutability":"nonpayable"},{"type":"function","name":"name","inputs":[],"outputs":[{"name":"","type":"string","internalType":"string"}],"stateMutability":"view"},{"type":"function","name":"nonces","inputs":[{"name":"","type":"address","internalType":"address"}],"outputs":[{"name":"","type":"uint256","internalType":"uint256"}],"stateMutability":"view"},{"type":"function","name":"permit","inputs":[{"name":"owner","type":"address","internalType":"address"},{"name":"spender","type":"address","internalType":"address"},{"name":"value","type":"uint256","internalType":"uint256"},{"name":"deadline","type":"uint256","internalType":"uint256"},{"name":"v","type":"uint8","internalType":"uint8"},{"name":"r","type":"bytes32","internalType":"bytes32"},{"name":"s","type":"bytes32","internalType":"bytes32"}],"outputs":[],"stateMutability":"nonpayable"},{"type":"function","name":"symbol","inputs":[],"outputs":[{"name":"","type":"string","internalType":"string"}],"stateMutability":"view"},{"type":"function","name":"totalSupply","inputs":[],"outputs":[{"name":"","type":"uint256","internalType":"uint256"}],"stateMutability":"view"},{"type":"function","name":"transfer","inputs":[{"name":"to","type":"address","internalType":"address"},{"name":"amount","type":"uint256","internalType":"uint256"}],"outputs":[{"name":"","type":"bool","internalType":"bool"}],"stateMutability":"nonpayable"},{"type":"function","name":"transferFrom","inputs":[{"name":"from","type":"address","internalType":"address"},{"name":"to","type":"address","internalType":"address"},{"name":"amount","type":"uint256","internalType":"uint256"}],"outputs":[{"name":"","type":"bool","internalType":"bool"}],"stateMutability":"nonpayable"},{"type":"event","name":"Approval","inputs":[{"name":"owner","type":"address","indexed":true,"internalType":"address"},{"name":"spender","type":"address","indexed":true,"internalType":"address"},{"name":"value","type":"uint256","indexed":false,"internalType":"uint256"}],"anonymous":false},{"type":"event","name":"Transfer","inputs":[{"name":"from","type":"address","indexed":true,"internalType":"address"},{"name":"to","type":"address","indexed":true,"internalType":"address"},{"name":"value","type":"uint256","indexed":false,"internalType":"uint256"}],"anonymous":false}],"bytecode":{"object":"0x6080604052348015600f57600080fd5b50610f358061001f6000396000f3fe608060405234801561001057600080fd5b50600436106100ea5760003560e01c80634e6ec2471161008c57806395d89b411161006657806395d89b41146101e3578063a9059cbb146101eb578063d505accf146101fe578063dd62ed3e1461021157600080fd5b80634e6ec2471461018757806370a082311461019a5780637ecebe00146101c357600080fd5b806318160ddd116100c857806318160ddd1461014557806323b872dd14610157578063313ce5671461016a5780633644e5151461017f57600080fd5b806306fdde03146100ef578063095ea7b31461010d5780631624f6c614610130575b600080fd5b6100f761024a565b6040516101049190610a38565b60405180910390f35b61012061011b366004610aa3565b6102dc565b6040519015158152602001610104565b61014361013e366004610b81565b610349565b005b6003545b604051908152602001610104565b610120610165366004610bf5565b6103e8565b60025460405160ff9091168152602001610104565b6101496104fd565b610143610195366004610aa3565b610523565b6101496101a8366004610c31565b6001600160a01b031660009081526004602052604090205490565b6101496101d1366004610c31565b60086020526000908152604090205481565b6100f76105b2565b6101206101f9366004610aa3565b6105c1565b61014361020c366004610c4c565b610658565b61014961021f366004610cb6565b6001600160a01b03918216600090815260056020908152604080832093909416825291909152205490565b60606000805461025990610ce9565b80601f016020809104026020016040519081016040528092919081815260200182805461028590610ce9565b80156102d25780601f106102a7576101008083540402835291602001916102d2565b820191906000526020600020905b8154815290600101906020018083116102b557829003601f168201915b5050505050905090565b3360008181526005602090815260408083206001600160a01b038716808552925280832085905551919290917f8c5be1e5ebec7d5bd14f71427d1e84f3dd0314c0f7b2291e5b200ac8c7c3b925906103379086815260200190565b60405180910390a35060015b92915050565b60095460ff16156103975760405162461bcd60e51b81526020600482015260136024820152721053149150511657d253925512505312569151606a1b60448201526064015b60405180910390fd5b60006103a38482610d74565b5060016103b08382610d74565b506002805460ff191660ff83161790556103c86108b6565b6006556103d36108cf565b60075550506009805460ff1916600117905550565b6001600160a01b038316600090815260056020908152604080832033845290915281205460001981146104445761041f8184610972565b6001600160a01b03861660009081526005602090815260408083203384529091529020555b6001600160a01b0385166000908152600460205260409020546104679084610972565b6001600160a01b03808716600090815260046020526040808220939093559086168152205461049690846109d5565b6001600160a01b0380861660008181526004602052604090819020939093559151908716907fddf252ad1be2c89b69c2b068fc378daa952ba7f163c4a11628f55a4df523b3ef906104ea9087815260200190565b60405180910390a3506001949350505050565b600060065461050a6108b6565b1461051c576105176108cf565b905090565b5060075490565b61052f600354826109d5565b6003556001600160a01b03821660009081526004602052604090205461055590826109d5565b6001600160a01b0383166000818152600460205260408082209390935591519091907fddf252ad1be2c89b69c2b068fc378daa952ba7f163c4a11628f55a4df523b3ef906105a69085815260200190565b60405180910390a35050565b60606001805461025990610ce9565b336000908152600460205260408120546105db9083610972565b33600090815260046020526040808220929092556001600160a01b0385168152205461060790836109d5565b6001600160a01b0384166000818152600460205260409081902092909255905133907fddf252ad1be2c89b69c2b068fc378daa952ba7f163c4a11628f55a4df523b3ef906103379086815260200190565b428410156106a85760405162461bcd60e51b815260206004820152601760248201527f5045524d49545f444541444c494e455f45585049524544000000000000000000604482015260640161038e565b600060016106b46104fd565b6001600160a01b038a16600090815260086020526040812080547f6e71edae12b1b97f4d1f60370fef10105fa2faae0126114a169c64845d6126c9928d928d928d9290919061070283610e4a565b909155506040805160208101969096526001600160a01b0394851690860152929091166060840152608083015260a082015260c0810188905260e0016040516020818303038152906040528051906020012060405160200161077b92919061190160f01b81526002810192909252602282015260420190565b60408051601f198184030181528282528051602091820120600084529083018083525260ff871690820152606081018590526080810184905260a0016020604051602081039080840390855afa1580156107d9573d6000803e3d6000fd5b5050604051601f1901519150506001600160a01b0381161580159061080f5750876001600160a01b0316816001600160a01b0316145b61084c5760405162461bcd60e51b815260206004820152600e60248201526d24a72b20a624a22fa9a4a3a722a960911b604482015260640161038e565b6001600160a01b0381811660009081526005602090815260408083208b8516808552908352928190208a90555189815291928b16917f8c5be1e5ebec7d5bd14f71427d1e84f3dd0314c0f7b2291e5b200ac8c7c3b925910160405180910390a35050505050505050565b6000610a34806108c863ffffffff8216565b9250505090565b60007f8b73c3c69bb8fe3d512ecc4cf759cc79239f7b179b0ffacaa9a75d522b39400f60006040516109019190610e63565b60405180910390207fc89efdaa54c0f20c7adf612882df0950f5a951637e0307cdcb4c672f298b8bc66109326108b6565b604080516020810195909552840192909252606083015260808201523060a082015260c00160405160208183030381529060405280519060200120905090565b6000818310156109c45760405162461bcd60e51b815260206004820152601c60248201527f45524332303a207375627472616374696f6e20756e646572666c6f7700000000604482015260640161038e565b6109ce8284610ed9565b9392505050565b6000806109e28385610eec565b9050838110156109ce5760405162461bcd60e51b815260206004820152601860248201527f45524332303a206164646974696f6e206f766572666c6f770000000000000000604482015260640161038e565b4690565b60006020808352835180602085015260005b81811015610a6657858101830151858201604001528201610a4a565b506000604082860101526040601f19601f8301168501019250505092915050565b80356001600160a01b0381168114610a9e57600080fd5b919050565b60008060408385031215610ab657600080fd5b610abf83610a87565b946020939093013593505050565b634e487b7160e01b600052604160045260246000fd5b600082601f830112610af457600080fd5b813567ffffffffffffffff80821115610b0f57610b0f610acd565b604051601f8301601f19908116603f01168101908282118183101715610b3757610b37610acd565b81604052838152866020858801011115610b5057600080fd5b836020870160208301376000602085830101528094505050505092915050565b803560ff81168114610a9e57600080fd5b600080600060608486031215610b9657600080fd5b833567ffffffffffffffff80821115610bae57600080fd5b610bba87838801610ae3565b94506020860135915080821115610bd057600080fd5b50610bdd86828701610ae3565b925050610bec60408501610b70565b90509250925092565b600080600060608486031215610c0a57600080fd5b610c1384610a87565b9250610c2160208501610a87565b9150604084013590509250925092565b600060208284031215610c4357600080fd5b6109ce82610a87565b600080600080600080600060e0888a031215610c6757600080fd5b610c7088610a87565b9650610c7e60208901610a87565b95506040880135945060608801359350610c9a60808901610b70565b925060a0880135915060c0880135905092959891949750929550565b60008060408385031215610cc957600080fd5b610cd283610a87565b9150610ce060208401610a87565b90509250929050565b600181811c90821680610cfd57607f821691505b602082108103610d1d57634e487b7160e01b600052602260045260246000fd5b50919050565b601f821115610d6f576000816000526020600020601f850160051c81016020861015610d4c5750805b601f850160051c820191505b81811015610d6b57828155600101610d58565b5050505b505050565b815167ffffffffffffffff811115610d8e57610d8e610acd565b610da281610d9c8454610ce9565b84610d23565b602080601f831160018114610dd75760008415610dbf5750858301515b600019600386901b1c1916600185901b178555610d6b565b600085815260208120601f198616915b82811015610e0657888601518255948401946001909101908401610de7565b5085821015610e245787850151600019600388901b60f8161c191681555b5050505050600190811b01905550565b634e487b7160e01b600052601160045260246000fd5b600060018201610e5c57610e5c610e34565b5060010190565b6000808354610e7181610ce9565b60018281168015610e895760018114610e9e57610ecd565b60ff1984168752821515830287019450610ecd565b8760005260208060002060005b85811015610ec45781548a820152908401908201610eab565b50505082870194505b50929695505050505050565b8181038181111561034357610343610e34565b8082018082111561034357610343610e3456fea264697066735822122015f9113a3eb17e9583f2a9d6e071cc6a8ab9bfb1d207d58b948ca8120133ff6a64736f6c63430008190033","linkReferences":{}},"methodIdentifiers":{"DOMAIN_SEPARATOR()":"3644e515","_mint(address,uint256)":"4e6ec247","allowance(address,address)":"dd62ed3e","approve(address,uint256)":"095ea7b3","balanceOf(address)":"70a08231","decimals()":"313ce567","initialize(string,string,uint8)":"1624f6c6","name()":"06fdde03","nonces(address)":"7ecebe00","permit(address,address,uint256,uint256,uint8,bytes32,bytes32)":"d505accf","symbol()":"95d89b41","totalSupply()":"18160ddd","transfer(address,uint256)":"a9059cbb","transferFrom(address,address,uint256)":"23b872dd"},"id":37}