{"abi":[{"type":"constructor","inputs":[{"name":"_router","type":"address","internalType":"address"},{"name":"_link","type":"address","internalType":"address"},{"name":"_usdcToken","type":"address","internalType":"address"}],"stateMutability":"nonpayable"},{"type":"function","name":"acceptOwnership","inputs":[],"outputs":[],"stateMutability":"nonpayable"},{"type":"function","name":"deleteReceiverForDestinationChain","inputs":[{"name":"_destinationChainSelector","type":"uint64","internalType":"uint64"}],"outputs":[],"stateMutability":"nonpayable"},{"type":"function","name":"owner","inputs":[],"outputs":[{"name":"","type":"address","internalType":"address"}],"stateMutability":"view"},{"type":"function","name":"s_gasLimits","inputs":[{"name":"","type":"uint64","internalType":"uint64"}],"outputs":[{"name":"","type":"uint256","internalType":"uint256"}],"stateMutability":"view"},{"type":"function","name":"s_receivers","inputs":[{"name":"","type":"uint64","internalType":"uint64"}],"outputs":[{"name":"","type":"address","internalType":"address"}],"stateMutability":"view"},{"type":"function","name":"sendMessagePayLINK","inputs":[{"name":"_destinationChainSelector","type":"uint64","internalType":"uint64"},{"name":"_index","type":"uint8","internalType":"uint8"},{"name":"_amount","type":"uint64","internalType":"uint64"}],"outputs":[{"name":"messageId","type":"bytes32","internalType":"bytes32"}],"stateMutability":"nonpayable"},{"type":"function","name":"setGasLimitAndRecieverForDestinationChain","inputs":[{"name":"_destinationChainSelector","type":"uint64","internalType":"uint64"},{"name":"_gasLimit","type":"uint256","internalType":"uint256"},{"name":"_receiver","type":"address","internalType":"address"}],"outputs":[],"stateMutability":"nonpayable"},{"type":"function","name":"transferOwnership","inputs":[{"name":"to","type":"address","internalType":"address"}],"outputs":[],"stateMutability":"nonpayable"},{"type":"function","name":"withdrawLinkToken","inputs":[{"name":"_beneficiary","type":"address","internalType":"address"}],"outputs":[],"stateMutability":"nonpayable"},{"type":"function","name":"withdrawUsdcToken","inputs":[{"name":"_beneficiary","type":"address","internalType":"address"}],"outputs":[],"stateMutability":"nonpayable"},{"type":"event","name":"MessageSent","inputs":[{"name":"messageId","type":"bytes32","indexed":true,"internalType":"bytes32"},{"name":"destinationChainSelector","type":"uint64","indexed":true,"internalType":"uint64"},{"name":"receiver","type":"address","indexed":true,"internalType":"address"},{"name":"index","type":"uint8","indexed":false,"internalType":"uint8"},{"name":"token","type":"address","indexed":false,"internalType":"address"},{"name":"tokenAmount","type":"uint256","indexed":false,"internalType":"uint256"},{"name":"feeToken","type":"address","indexed":false,"internalType":"address"},{"name":"fees","type":"uint256","indexed":false,"internalType":"uint256"}],"anonymous":false},{"type":"event","name":"OwnershipTransferRequested","inputs":[{"name":"from","type":"address","indexed":true,"internalType":"address"},{"name":"to","type":"address","indexed":true,"internalType":"address"}],"anonymous":false},{"type":"event","name":"OwnershipTransferred","inputs":[{"name":"from","type":"address","indexed":true,"internalType":"address"},{"name":"to","type":"address","indexed":true,"internalType":"address"}],"anonymous":false},{"type":"error","name":"AmountIsZero","inputs":[]},{"type":"error","name":"InvalidDestinationChain","inputs":[]},{"type":"error","name":"InvalidGasLimit","inputs":[]},{"type":"error","name":"InvalidLinkToken","inputs":[]},{"type":"error","name":"InvalidReceiverAddress","inputs":[]},{"type":"error","name":"InvalidRouter","inputs":[]},{"type":"error","name":"InvalidUsdcToken","inputs":[]},{"type":"error","name":"NoGasLimitOnDestinationChain","inputs":[{"name":"destinationChainSelector","type":"uint64","internalType":"uint64"}]},{"type":"error","name":"NoReceiverOnDestinationChain","inputs":[{"name":"destinationChainSelector","type":"uint64","internalType":"uint64"}]},{"type":"error","name":"NotEnoughBalance","inputs":[{"name":"currentBalance","type":"uint256","internalType":"uint256"},{"name":"calculatedFees","type":"uint256","internalType":"uint256"}]},{"type":"error","name":"NothingToWithdraw","inputs":[]}],"bytecode":{"object":"0x60e060405234801561001057600080fd5b5060405161163b38038061163b83398101604081905261002f9161020f565b33806000816100855760405162461bcd60e51b815260206004820152601860248201527f43616e6e6f7420736574206f776e657220746f207a65726f000000000000000060448201526064015b60405180910390fd5b600080546001600160a01b0319166001600160a01b03848116919091179091558116156100b5576100b58161014a565b5050506001600160a01b0383166100df5760405163466d7fef60e01b815260040160405180910390fd5b6001600160a01b03821661010657604051630899a9e360e41b815260040160405180910390fd5b6001600160a01b03811661012d5760405163b83a5cf760e01b815260040160405180910390fd5b6001600160a01b0392831660805290821660a0521660c052610252565b336001600160a01b038216036101a25760405162461bcd60e51b815260206004820152601760248201527f43616e6e6f74207472616e7366657220746f2073656c66000000000000000000604482015260640161007c565b600180546001600160a01b0319166001600160a01b0383811691821790925560008054604051929316917fed8889f560326eb138920d842192f0eb3dd22b4f139c87a2c57538e05bae12789190a350565b80516001600160a01b038116811461020a57600080fd5b919050565b60008060006060848603121561022457600080fd5b61022d846101f3565b925061023b602085016101f3565b9150610249604085016101f3565b90509250925092565b60805160a05160c05161135f6102dc600039600081816102dd0152818161070d0152818161081801528181610bfa0152610c9d0152600081816103bd015281816104e5015281816105740152818161065101528181610858015281816109bd0152610a6001526000818161045501528181610622015281816106d60152610792015261135f6000f3fe608060405234801561001057600080fd5b506004361061009e5760003560e01c80638da5cb5b116100665780638da5cb5b1461013a5780639c18c5701461014b578063c2d0c7691461015e578063f2fde38b14610171578063f3651fe61461018457600080fd5b8063203e2a65146100a357806321cc505a146100c95780633141d65c146100de57806365b4b203146100f157806379ba509714610132575b600080fd5b6100b66100b13660046110ab565b6101a4565b6040519081526020015b60405180910390f35b6100dc6100d736600461110d565b6108cb565b005b6100dc6100ec366004611140565b61099d565b61011a6100ff366004611162565b6002602052600090815260409020546001600160a01b031681565b6040516001600160a01b0390911681526020016100c0565b6100dc610a8b565b6000546001600160a01b031661011a565b6100dc610159366004611162565b610b35565b6100dc61016c366004611140565b610bda565b6100dc61017f366004611140565b610cc4565b6100b6610192366004611162565b60036020526000908152604090205481565b600083806001600160401b03166000036101d15760405163b86ac1ef60e01b815260040160405180910390fd5b6001600160401b0385166000908152600260205260409020546001600160a01b031680610221576040516367a1bf1d60e01b81526001600160401b03871660048201526024015b60405180910390fd5b836001600160401b031660000361024b576040516310eb483f60e21b815260040160405180910390fd5b6001600160401b038616600090815260036020526040812054908190036102905760405163b638ee9f60e01b81526001600160401b0388166004820152602401610218565b604080516001808252818301909252600091816020015b60408051808201909152600080825260208201528152602001906001900390816102a757905050905060405180604001604052807f00000000000000000000000000000000000000000000000000000000000000006001600160a01b03168152602001876001600160401b03168152508160008151811061032a5761032a61117d565b6020908102919091018101919091526040805160a0810182526001600160a01b0386811660c0808401919091528351808403909101815260e0830184528252825160ff8c1660248201526001600160401b038b16604480830191909152845180830390910181526064909101845280850180516001600160e01b0316632e79cfb560e01b179052828501528183018590527f0000000000000000000000000000000000000000000000000000000000000000166060820152815192830190915283825260009160808201906104369060408051915160248084019190915281518084039091018152604490920190526020810180516001600160e01b03166397a657c960e01b17905290565b90526040516320487ded60e01b81529091506000906001600160a01b037f000000000000000000000000000000000000000000000000000000000000000016906320487ded9061048c908d9086906004016111e3565b602060405180830381865afa1580156104a9573d6000803e3d6000fd5b505050506040513d601f19601f820116820180604052508101906104cd91906112bf565b6040516370a0823160e01b81523060048201529091507f00000000000000000000000000000000000000000000000000000000000000006001600160a01b0316906370a0823190602401602060405180830381865afa158015610534573d6000803e3d6000fd5b505050506040513d601f19601f8201168201806040525081019061055891906112bf565b81111561060b576040516370a0823160e01b81523060048201527f00000000000000000000000000000000000000000000000000000000000000006001600160a01b0316906370a0823190602401602060405180830381865afa1580156105c3573d6000803e3d6000fd5b505050506040513d601f19601f820116820180604052508101906105e791906112bf565b604051634787a10360e11b8152600481019190915260248101829052604401610218565b60405163095ea7b360e01b81526001600160a01b037f000000000000000000000000000000000000000000000000000000000000000081166004830152602482018390527f0000000000000000000000000000000000000000000000000000000000000000169063095ea7b3906044016020604051808303816000875af115801561069a573d6000803e3d6000fd5b505050506040513d601f19601f820116820180604052508101906106be91906112d8565b5060405163095ea7b360e01b81526001600160a01b037f0000000000000000000000000000000000000000000000000000000000000000811660048301526001600160401b038a1660248301527f0000000000000000000000000000000000000000000000000000000000000000169063095ea7b3906044016020604051808303816000875af1158015610756573d6000803e3d6000fd5b505050506040513d601f19601f8201168201806040525081019061077a91906112d8565b506040516396f4e9f960e01b81526001600160a01b037f000000000000000000000000000000000000000000000000000000000000000016906396f4e9f9906107c9908d9086906004016111e3565b6020604051808303816000875af11580156107e8573d6000803e3d6000fd5b505050506040513d601f19601f8201168201806040525081019061080c91906112bf565b6040805160ff8c1681527f00000000000000000000000000000000000000000000000000000000000000006001600160a01b0390811660208301526001600160401b038c8116838501527f000000000000000000000000000000000000000000000000000000000000000082166060840152608083018690529251939a50881692918d16918a917f8d234fb10e1e9a116da07ec49c78424de1965c1e1da32a08ac29746d4be2c01c919081900360a00190a45050505050509392505050565b6108d3610cd8565b82806001600160401b03166000036108fe5760405163b86ac1ef60e01b815260040160405180910390fd5b8260000361091f576040516304c5ed9760e51b815260040160405180910390fd5b6001600160401b03841660009081526003602052604090208390556001600160a01b0382166109615760405163502ffa3f60e11b815260040160405180910390fd5b506001600160401b0392909216600090815260026020526040902080546001600160a01b0319166001600160a01b039093169290921790915550565b6109a5610cd8565b6040516370a0823160e01b81523060048201526000907f00000000000000000000000000000000000000000000000000000000000000006001600160a01b0316906370a0823190602401602060405180830381865afa158015610a0c573d6000803e3d6000fd5b505050506040513d601f19601f82011682018060405250810190610a3091906112bf565b905080600003610a5357604051630686827b60e51b815260040160405180910390fd5b610a876001600160a01b037f0000000000000000000000000000000000000000000000000000000000000000168383610d2d565b5050565b6001546001600160a01b03163314610ade5760405162461bcd60e51b815260206004820152601660248201527526bab9ba10313290383937b837b9b2b21037bbb732b960511b6044820152606401610218565b60008054336001600160a01b0319808316821784556001805490911690556040516001600160a01b0390921692909183917f8be0079c531659141344cd1fd0a4f28419497f9722a3daafe3b4186f6b6457e091a350565b610b3d610cd8565b80806001600160401b0316600003610b685760405163b86ac1ef60e01b815260040160405180910390fd5b6001600160401b0382166000908152600260205260409020546001600160a01b0316610bb2576040516367a1bf1d60e01b81526001600160401b0383166004820152602401610218565b506001600160401b0316600090815260026020526040902080546001600160a01b0319169055565b610be2610cd8565b6040516370a0823160e01b81523060048201526000907f00000000000000000000000000000000000000000000000000000000000000006001600160a01b0316906370a0823190602401602060405180830381865afa158015610c49573d6000803e3d6000fd5b505050506040513d601f19601f82011682018060405250810190610c6d91906112bf565b905080600003610c9057604051630686827b60e51b815260040160405180910390fd5b610a876001600160a01b037f0000000000000000000000000000000000000000000000000000000000000000168383610d2d565b610ccc610cd8565b610cd581610d84565b50565b6000546001600160a01b03163314610d2b5760405162461bcd60e51b815260206004820152601660248201527527b7363c9031b0b63630b1363290313c9037bbb732b960511b6044820152606401610218565b565b604080516001600160a01b038416602482015260448082018490528251808303909101815260649091019091526020810180516001600160e01b031663a9059cbb60e01b179052610d7f908490610e2d565b505050565b336001600160a01b03821603610ddc5760405162461bcd60e51b815260206004820152601760248201527f43616e6e6f74207472616e7366657220746f2073656c660000000000000000006044820152606401610218565b600180546001600160a01b0319166001600160a01b0383811691821790925560008054604051929316917fed8889f560326eb138920d842192f0eb3dd22b4f139c87a2c57538e05bae12789190a350565b6000610e82826040518060400160405280602081526020017f5361666545524332303a206c6f772d6c6576656c2063616c6c206661696c6564815250856001600160a01b0316610eff9092919063ffffffff16565b805190915015610d7f5780806020019051810190610ea091906112d8565b610d7f5760405162461bcd60e51b815260206004820152602a60248201527f5361666545524332303a204552433230206f7065726174696f6e20646964206e6044820152691bdd081cdd58d8d9595960b21b6064820152608401610218565b6060610f0e8484600085610f16565b949350505050565b606082471015610f775760405162461bcd60e51b815260206004820152602660248201527f416464726573733a20696e73756666696369656e742062616c616e636520666f6044820152651c8818d85b1b60d21b6064820152608401610218565b600080866001600160a01b03168587604051610f9391906112fa565b60006040518083038185875af1925050503d8060008114610fd0576040519150601f19603f3d011682016040523d82523d6000602084013e610fd5565b606091505b5091509150610fe687838387610ff1565b979650505050505050565b60608315611060578251600003611059576001600160a01b0385163b6110595760405162461bcd60e51b815260206004820152601d60248201527f416464726573733a2063616c6c20746f206e6f6e2d636f6e74726163740000006044820152606401610218565b5081610f0e565b610f0e83838151156110755781518083602001fd5b8060405162461bcd60e51b81526004016102189190611316565b80356001600160401b03811681146110a657600080fd5b919050565b6000806000606084860312156110c057600080fd5b6110c98461108f565b9250602084013560ff811681146110df57600080fd5b91506110ed6040850161108f565b90509250925092565b80356001600160a01b03811681146110a657600080fd5b60008060006060848603121561112257600080fd5b61112b8461108f565b9250602084013591506110ed604085016110f6565b60006020828403121561115257600080fd5b61115b826110f6565b9392505050565b60006020828403121561117457600080fd5b61115b8261108f565b634e487b7160e01b600052603260045260246000fd5b60005b838110156111ae578181015183820152602001611196565b50506000910152565b600081518084526111cf816020860160208601611193565b601f01601f19169290920160200192915050565b600060406001600160401b03851683526020604081850152845160a0604086015261121160e08601826111b7565b905081860151603f198087840301606088015261122e83836111b7565b6040890151888203830160808a01528051808352908601945060009350908501905b8084101561128257845180516001600160a01b0316835286015186830152938501936001939093019290860190611250565b5060608901516001600160a01b031660a08901526080890151888203830160c08a015295506112b181876111b7565b9a9950505050505050505050565b6000602082840312156112d157600080fd5b5051919050565b6000602082840312156112ea57600080fd5b8151801515811461115b57600080fd5b6000825161130c818460208701611193565b9190910192915050565b60208152600061115b60208301846111b756fea264697066735822122022f3e7f01e745be7ec1eedc8858c65493250047f4cb4e922a3279d21ef67053564736f6c63430008190033","linkReferences":{}},"methodIdentifiers":{"acceptOwnership()":"79ba5097","deleteReceiverForDestinationChain(uint64)":"9c18c570","owner()":"8da5cb5b","s_gasLimits(uint64)":"f3651fe6","s_receivers(uint64)":"65b4b203","sendMessagePayLINK(uint64,uint8,uint64)":"203e2a65","setGasLimitAndRecieverForDestinationChain(uint64,uint256,address)":"21cc505a","transferOwnership(address)":"f2fde38b","withdrawLinkToken(address)":"3141d65c","withdrawUsdcToken(address)":"c2d0c769"},"id":44}