{"abi":[{"type":"constructor","inputs":[{"name":"_router","type":"address","internalType":"address"},{"name":"_link","type":"address","internalType":"address"},{"name":"_usdcToken","type":"address","internalType":"address"}],"stateMutability":"nonpayable"},{"type":"function","name":"acceptOwnership","inputs":[],"outputs":[],"stateMutability":"nonpayable"},{"type":"function","name":"deleteReceiverForDestinationChain","inputs":[{"name":"_destinationChainSelector","type":"uint64","internalType":"uint64"}],"outputs":[],"stateMutability":"nonpayable"},{"type":"function","name":"owner","inputs":[],"outputs":[{"name":"","type":"address","internalType":"address"}],"stateMutability":"view"},{"type":"function","name":"s_gasLimits","inputs":[{"name":"","type":"uint64","internalType":"uint64"}],"outputs":[{"name":"","type":"uint256","internalType":"uint256"}],"stateMutability":"view"},{"type":"function","name":"s_receivers","inputs":[{"name":"","type":"uint64","internalType":"uint64"}],"outputs":[{"name":"","type":"address","internalType":"address"}],"stateMutability":"view"},{"type":"function","name":"sendMessagePayLINK","inputs":[{"name":"_destinationChainSelector","type":"uint64","internalType":"uint64"},{"name":"_beneficiary","type":"address","internalType":"address"},{"name":"_amount","type":"uint64","internalType":"uint64"}],"outputs":[{"name":"messageId","type":"bytes32","internalType":"bytes32"}],"stateMutability":"nonpayable"},{"type":"function","name":"setGasLimitAndRecieverForDestinationChain","inputs":[{"name":"_destinationChainSelector","type":"uint64","internalType":"uint64"},{"name":"_gasLimit","type":"uint256","internalType":"uint256"},{"name":"_receiver","type":"address","internalType":"address"}],"outputs":[],"stateMutability":"nonpayable"},{"type":"function","name":"transferOwnership","inputs":[{"name":"to","type":"address","internalType":"address"}],"outputs":[],"stateMutability":"nonpayable"},{"type":"function","name":"withdrawLinkToken","inputs":[{"name":"_beneficiary","type":"address","internalType":"address"}],"outputs":[],"stateMutability":"nonpayable"},{"type":"function","name":"withdrawUsdcToken","inputs":[{"name":"_beneficiary","type":"address","internalType":"address"}],"outputs":[],"stateMutability":"nonpayable"},{"type":"event","name":"MessageSent","inputs":[{"name":"messageId","type":"bytes32","indexed":true,"internalType":"bytes32"},{"name":"destinationChainSelector","type":"uint64","indexed":true,"internalType":"uint64"},{"name":"receiver","type":"address","indexed":true,"internalType":"address"},{"name":"beneficiary","type":"address","indexed":false,"internalType":"address"},{"name":"token","type":"address","indexed":false,"internalType":"address"},{"name":"tokenAmount","type":"uint256","indexed":false,"internalType":"uint256"},{"name":"feeToken","type":"address","indexed":false,"internalType":"address"},{"name":"fees","type":"uint256","indexed":false,"internalType":"uint256"}],"anonymous":false},{"type":"event","name":"OwnershipTransferRequested","inputs":[{"name":"from","type":"address","indexed":true,"internalType":"address"},{"name":"to","type":"address","indexed":true,"internalType":"address"}],"anonymous":false},{"type":"event","name":"OwnershipTransferred","inputs":[{"name":"from","type":"address","indexed":true,"internalType":"address"},{"name":"to","type":"address","indexed":true,"internalType":"address"}],"anonymous":false},{"type":"error","name":"AmountIsZero","inputs":[]},{"type":"error","name":"InvalidDestinationChain","inputs":[]},{"type":"error","name":"InvalidGasLimit","inputs":[]},{"type":"error","name":"InvalidLinkToken","inputs":[]},{"type":"error","name":"InvalidReceiverAddress","inputs":[]},{"type":"error","name":"InvalidRouter","inputs":[]},{"type":"error","name":"InvalidUsdcToken","inputs":[]},{"type":"error","name":"NoGasLimitOnDestinationChain","inputs":[{"name":"destinationChainSelector","type":"uint64","internalType":"uint64"}]},{"type":"error","name":"NoReceiverOnDestinationChain","inputs":[{"name":"destinationChainSelector","type":"uint64","internalType":"uint64"}]},{"type":"error","name":"NotEnoughBalance","inputs":[{"name":"currentBalance","type":"uint256","internalType":"uint256"},{"name":"calculatedFees","type":"uint256","internalType":"uint256"}]},{"type":"error","name":"NothingToWithdraw","inputs":[]}],"bytecode":{"object":"0x60e060405234801561001057600080fd5b5060405161163838038061163883398101604081905261002f9161020f565b33806000816100855760405162461bcd60e51b815260206004820152601860248201527f43616e6e6f7420736574206f776e657220746f207a65726f000000000000000060448201526064015b60405180910390fd5b600080546001600160a01b0319166001600160a01b03848116919091179091558116156100b5576100b58161014a565b5050506001600160a01b0383166100df5760405163466d7fef60e01b815260040160405180910390fd5b6001600160a01b03821661010657604051630899a9e360e41b815260040160405180910390fd5b6001600160a01b03811661012d5760405163b83a5cf760e01b815260040160405180910390fd5b6001600160a01b0392831660805290821660a0521660c052610252565b336001600160a01b038216036101a25760405162461bcd60e51b815260206004820152601760248201527f43616e6e6f74207472616e7366657220746f2073656c66000000000000000000604482015260640161007c565b600180546001600160a01b0319166001600160a01b0383811691821790925560008054604051929316917fed8889f560326eb138920d842192f0eb3dd22b4f139c87a2c57538e05bae12789190a350565b80516001600160a01b038116811461020a57600080fd5b919050565b60008060006060848603121561022457600080fd5b61022d846101f3565b925061023b602085016101f3565b9150610249604085016101f3565b90509250925092565b60805160a05160c05161135c6102dc600039600081816104d80152818161057b015281816106f201528181610b210152610c3301526000818161029601528181610339015281816107d1015281816108f90152818161098801528181610a650152610c6a01526000818161086901528181610a3601528181610aea0152610ba6015261135c6000f3fe608060405234801561001057600080fd5b506004361061009e5760003560e01c80639c18c570116100665780639c18c5701461012a578063c2d0c7691461013d578063f2fde38b14610150578063f3651fe614610163578063f78b95a51461019157600080fd5b806321cc505a146100a35780633141d65c146100b857806365b4b203146100cb57806379ba5097146101115780638da5cb5b14610119575b600080fd5b6100b66100b13660046110c7565b6101a4565b005b6100b66100c6366004611103565b610276565b6100f46100d9366004611125565b6002602052600090815260409020546001600160a01b031681565b6040516001600160a01b0390911681526020015b60405180910390f35b6100b6610364565b6000546001600160a01b03166100f4565b6100b6610138366004611125565b610413565b6100b661014b366004611103565b6104b8565b6100b661015e366004611103565b6105a2565b610183610171366004611125565b60036020526000908152604090205481565b604051908152602001610108565b61018361019f366004611140565b6105b6565b6101ac610cdd565b82806001600160401b03166000036101d75760405163b86ac1ef60e01b815260040160405180910390fd5b826000036101f8576040516304c5ed9760e51b815260040160405180910390fd5b6001600160401b03841660009081526003602052604090208390556001600160a01b03821661023a5760405163502ffa3f60e11b815260040160405180910390fd5b506001600160401b0392909216600090815260026020526040902080546001600160a01b0319166001600160a01b039093169290921790915550565b61027e610cdd565b6040516370a0823160e01b81523060048201526000907f00000000000000000000000000000000000000000000000000000000000000006001600160a01b0316906370a0823190602401602060405180830381865afa1580156102e5573d6000803e3d6000fd5b505050506040513d601f19601f82011682018060405250810190610309919061117a565b90508060000361032c57604051630686827b60e51b815260040160405180910390fd5b6103606001600160a01b037f0000000000000000000000000000000000000000000000000000000000000000168383610d32565b5050565b6001546001600160a01b031633146103bc5760405162461bcd60e51b815260206004820152601660248201527526bab9ba10313290383937b837b9b2b21037bbb732b960511b60448201526064015b60405180910390fd5b60008054336001600160a01b0319808316821784556001805490911690556040516001600160a01b0390921692909183917f8be0079c531659141344cd1fd0a4f28419497f9722a3daafe3b4186f6b6457e091a350565b61041b610cdd565b80806001600160401b03166000036104465760405163b86ac1ef60e01b815260040160405180910390fd5b6001600160401b0382166000908152600260205260409020546001600160a01b0316610490576040516367a1bf1d60e01b81526001600160401b03831660048201526024016103b3565b506001600160401b0316600090815260026020526040902080546001600160a01b0319169055565b6104c0610cdd565b6040516370a0823160e01b81523060048201526000907f00000000000000000000000000000000000000000000000000000000000000006001600160a01b0316906370a0823190602401602060405180830381865afa158015610527573d6000803e3d6000fd5b505050506040513d601f19601f8201168201806040525081019061054b919061117a565b90508060000361056e57604051630686827b60e51b815260040160405180910390fd5b6103606001600160a01b037f0000000000000000000000000000000000000000000000000000000000000000168383610d32565b6105aa610cdd565b6105b381610d89565b50565b60006105c0610cdd565b83806001600160401b03166000036105eb5760405163b86ac1ef60e01b815260040160405180910390fd5b6001600160401b0385166000908152600260205260409020546001600160a01b031680610636576040516367a1bf1d60e01b81526001600160401b03871660048201526024016103b3565b836001600160401b0316600003610660576040516310eb483f60e21b815260040160405180910390fd5b6001600160401b038616600090815260036020526040812054908190036106a55760405163b638ee9f60e01b81526001600160401b03881660048201526024016103b3565b604080516001808252818301909252600091816020015b60408051808201909152600080825260208201528152602001906001900390816106bc57905050905060405180604001604052807f00000000000000000000000000000000000000000000000000000000000000006001600160a01b03168152602001876001600160401b03168152508160008151811061073f5761073f611193565b6020908102919091018101919091526040805160a0810182526001600160a01b0386811660c0808401919091528351808403909101815260e083018452825282518b821660248201526001600160401b038b16604480830191909152845180830390910181526064909101845280850180516001600160e01b0316632aa8ba8360e21b179052828501528183018590527f00000000000000000000000000000000000000000000000000000000000000001660608201528151928301909152838252600091608082019061084a9060408051915160248084019190915281518084039091018152604490920190526020810180516001600160e01b03166397a657c960e01b17905290565b90526040516320487ded60e01b81529091506000906001600160a01b037f000000000000000000000000000000000000000000000000000000000000000016906320487ded906108a0908d9086906004016111f9565b602060405180830381865afa1580156108bd573d6000803e3d6000fd5b505050506040513d601f19601f820116820180604052508101906108e1919061117a565b6040516370a0823160e01b81523060048201529091507f00000000000000000000000000000000000000000000000000000000000000006001600160a01b0316906370a0823190602401602060405180830381865afa158015610948573d6000803e3d6000fd5b505050506040513d601f19601f8201168201806040525081019061096c919061117a565b811115610a1f576040516370a0823160e01b81523060048201527f00000000000000000000000000000000000000000000000000000000000000006001600160a01b0316906370a0823190602401602060405180830381865afa1580156109d7573d6000803e3d6000fd5b505050506040513d601f19601f820116820180604052508101906109fb919061117a565b604051634787a10360e11b81526004810191909152602481018290526044016103b3565b60405163095ea7b360e01b81526001600160a01b037f000000000000000000000000000000000000000000000000000000000000000081166004830152602482018390527f0000000000000000000000000000000000000000000000000000000000000000169063095ea7b3906044016020604051808303816000875af1158015610aae573d6000803e3d6000fd5b505050506040513d601f19601f82011682018060405250810190610ad291906112d5565b5060405163095ea7b360e01b81526001600160a01b037f0000000000000000000000000000000000000000000000000000000000000000811660048301526001600160401b038a1660248301527f0000000000000000000000000000000000000000000000000000000000000000169063095ea7b3906044016020604051808303816000875af1158015610b6a573d6000803e3d6000fd5b505050506040513d601f19601f82011682018060405250810190610b8e91906112d5565b506040516396f4e9f960e01b81526001600160a01b037f000000000000000000000000000000000000000000000000000000000000000016906396f4e9f990610bdd908d9086906004016111f9565b6020604051808303816000875af1158015610bfc573d6000803e3d6000fd5b505050506040513d601f19601f82011682018060405250810190610c20919061117a565b604080516001600160a01b038c811682527f0000000000000000000000000000000000000000000000000000000000000000811660208301526001600160401b038c8116838501527f000000000000000000000000000000000000000000000000000000000000000082166060840152608083018690529251939a50881692918d16918a917f80f8e2b9197752b9e33afaa4f92703ac7efbbf247cddcc732b1b555ff1dea27b919081900360a00190a45050505050509392505050565b6000546001600160a01b03163314610d305760405162461bcd60e51b815260206004820152601660248201527527b7363c9031b0b63630b1363290313c9037bbb732b960511b60448201526064016103b3565b565b604080516001600160a01b038416602482015260448082018490528251808303909101815260649091019091526020810180516001600160e01b031663a9059cbb60e01b179052610d84908490610e32565b505050565b336001600160a01b03821603610de15760405162461bcd60e51b815260206004820152601760248201527f43616e6e6f74207472616e7366657220746f2073656c6600000000000000000060448201526064016103b3565b600180546001600160a01b0319166001600160a01b0383811691821790925560008054604051929316917fed8889f560326eb138920d842192f0eb3dd22b4f139c87a2c57538e05bae12789190a350565b6000610e87826040518060400160405280602081526020017f5361666545524332303a206c6f772d6c6576656c2063616c6c206661696c6564815250856001600160a01b0316610f049092919063ffffffff16565b805190915015610d845780806020019051810190610ea591906112d5565b610d845760405162461bcd60e51b815260206004820152602a60248201527f5361666545524332303a204552433230206f7065726174696f6e20646964206e6044820152691bdd081cdd58d8d9595960b21b60648201526084016103b3565b6060610f138484600085610f1b565b949350505050565b606082471015610f7c5760405162461bcd60e51b815260206004820152602660248201527f416464726573733a20696e73756666696369656e742062616c616e636520666f6044820152651c8818d85b1b60d21b60648201526084016103b3565b600080866001600160a01b03168587604051610f9891906112f7565b60006040518083038185875af1925050503d8060008114610fd5576040519150601f19603f3d011682016040523d82523d6000602084013e610fda565b606091505b5091509150610feb87838387610ff6565b979650505050505050565b6060831561106557825160000361105e576001600160a01b0385163b61105e5760405162461bcd60e51b815260206004820152601d60248201527f416464726573733a2063616c6c20746f206e6f6e2d636f6e747261637400000060448201526064016103b3565b5081610f13565b610f13838381511561107a5781518083602001fd5b8060405162461bcd60e51b81526004016103b39190611313565b80356001600160401b03811681146110ab57600080fd5b919050565b80356001600160a01b03811681146110ab57600080fd5b6000806000606084860312156110dc57600080fd5b6110e584611094565b9250602084013591506110fa604085016110b0565b90509250925092565b60006020828403121561111557600080fd5b61111e826110b0565b9392505050565b60006020828403121561113757600080fd5b61111e82611094565b60008060006060848603121561115557600080fd5b61115e84611094565b925061116c602085016110b0565b91506110fa60408501611094565b60006020828403121561118c57600080fd5b5051919050565b634e487b7160e01b600052603260045260246000fd5b60005b838110156111c45781810151838201526020016111ac565b50506000910152565b600081518084526111e58160208601602086016111a9565b601f01601f19169290920160200192915050565b600060406001600160401b03851683526020604081850152845160a0604086015261122760e08601826111cd565b905081860151603f198087840301606088015261124483836111cd565b6040890151888203830160808a01528051808352908601945060009350908501905b8084101561129857845180516001600160a01b0316835286015186830152938501936001939093019290860190611266565b5060608901516001600160a01b031660a08901526080890151888203830160c08a015295506112c781876111cd565b9a9950505050505050505050565b6000602082840312156112e757600080fd5b8151801515811461111e57600080fd5b600082516113098184602087016111a9565b9190910192915050565b60208152600061111e60208301846111cd56fea26469706673582212201242b6b42b86e159c469cb6b963336a4fddc9284d702ca94844d380752ed7f5264736f6c63430008190033","linkReferences":{}},"methodIdentifiers":{"acceptOwnership()":"79ba5097","deleteReceiverForDestinationChain(uint64)":"9c18c570","owner()":"8da5cb5b","s_gasLimits(uint64)":"f3651fe6","s_receivers(uint64)":"65b4b203","sendMessagePayLINK(uint64,address,uint64)":"f78b95a5","setGasLimitAndRecieverForDestinationChain(uint64,uint256,address)":"21cc505a","transferOwnership(address)":"f2fde38b","withdrawLinkToken(address)":"3141d65c","withdrawUsdcToken(address)":"c2d0c769"},"id":41}