{"abi":[{"type":"constructor","inputs":[{"name":"_router","type":"address","internalType":"address"},{"name":"_link","type":"address","internalType":"address"},{"name":"_usdcToken","type":"address","internalType":"address"}],"stateMutability":"nonpayable"},{"type":"function","name":"acceptOwnership","inputs":[],"outputs":[],"stateMutability":"nonpayable"},{"type":"function","name":"deleteReceiverForDestinationChain","inputs":[{"name":"_destinationChainSelector","type":"uint64","internalType":"uint64"}],"outputs":[],"stateMutability":"nonpayable"},{"type":"function","name":"owner","inputs":[],"outputs":[{"name":"","type":"address","internalType":"address"}],"stateMutability":"view"},{"type":"function","name":"s_gasLimits","inputs":[{"name":"","type":"uint64","internalType":"uint64"}],"outputs":[{"name":"","type":"uint256","internalType":"uint256"}],"stateMutability":"view"},{"type":"function","name":"s_receivers","inputs":[{"name":"","type":"uint64","internalType":"uint64"}],"outputs":[{"name":"","type":"address","internalType":"address"}],"stateMutability":"view"},{"type":"function","name":"sendMessagePayLINK","inputs":[{"name":"_destinationChainSelector","type":"uint64","internalType":"uint64"},{"name":"_beneficiary","type":"address","internalType":"address"},{"name":"_amount","type":"uint256","internalType":"uint256"},{"name":"_index","type":"uint256","internalType":"uint256"}],"outputs":[{"name":"messageId","type":"bytes32","internalType":"bytes32"}],"stateMutability":"nonpayable"},{"type":"function","name":"setGasLimitForDestinationChain","inputs":[{"name":"_destinationChainSelector","type":"uint64","internalType":"uint64"},{"name":"_gasLimit","type":"uint256","internalType":"uint256"}],"outputs":[],"stateMutability":"nonpayable"},{"type":"function","name":"setReceiverForDestinationChain","inputs":[{"name":"_destinationChainSelector","type":"uint64","internalType":"uint64"},{"name":"_receiver","type":"address","internalType":"address"}],"outputs":[],"stateMutability":"nonpayable"},{"type":"function","name":"transferOwnership","inputs":[{"name":"to","type":"address","internalType":"address"}],"outputs":[],"stateMutability":"nonpayable"},{"type":"function","name":"withdrawLinkToken","inputs":[{"name":"_beneficiary","type":"address","internalType":"address"}],"outputs":[],"stateMutability":"nonpayable"},{"type":"function","name":"withdrawUsdcToken","inputs":[{"name":"_beneficiary","type":"address","internalType":"address"}],"outputs":[],"stateMutability":"nonpayable"},{"type":"event","name":"MessageSent","inputs":[{"name":"messageId","type":"bytes32","indexed":true,"internalType":"bytes32"},{"name":"destinationChainSelector","type":"uint64","indexed":true,"internalType":"uint64"},{"name":"receiver","type":"address","indexed":true,"internalType":"address"},{"name":"beneficiary","type":"address","indexed":false,"internalType":"address"},{"name":"token","type":"address","indexed":false,"internalType":"address"},{"name":"tokenAmount","type":"uint256","indexed":false,"internalType":"uint256"},{"name":"feeToken","type":"address","indexed":false,"internalType":"address"},{"name":"fees","type":"uint256","indexed":false,"internalType":"uint256"}],"anonymous":false},{"type":"event","name":"OwnershipTransferRequested","inputs":[{"name":"from","type":"address","indexed":true,"internalType":"address"},{"name":"to","type":"address","indexed":true,"internalType":"address"}],"anonymous":false},{"type":"event","name":"OwnershipTransferred","inputs":[{"name":"from","type":"address","indexed":true,"internalType":"address"},{"name":"to","type":"address","indexed":true,"internalType":"address"}],"anonymous":false},{"type":"error","name":"AmountIsZero","inputs":[]},{"type":"error","name":"InvalidDestinationChain","inputs":[]},{"type":"error","name":"InvalidGasLimit","inputs":[]},{"type":"error","name":"InvalidLinkToken","inputs":[]},{"type":"error","name":"InvalidReceiverAddress","inputs":[]},{"type":"error","name":"InvalidRouter","inputs":[]},{"type":"error","name":"InvalidUsdcToken","inputs":[]},{"type":"error","name":"NoGasLimitOnDestinationChain","inputs":[{"name":"destinationChainSelector","type":"uint64","internalType":"uint64"}]},{"type":"error","name":"NoReceiverOnDestinationChain","inputs":[{"name":"destinationChainSelector","type":"uint64","internalType":"uint64"}]},{"type":"error","name":"NotEnoughBalance","inputs":[{"name":"currentBalance","type":"uint256","internalType":"uint256"},{"name":"calculatedFees","type":"uint256","internalType":"uint256"}]},{"type":"error","name":"NothingToWithdraw","inputs":[]}],"bytecode":{"object":"0x60e06040523480156200001157600080fd5b50604051620016a8380380620016a883398101604081905262000034916200021f565b33806000816200008b5760405162461bcd60e51b815260206004820152601860248201527f43616e6e6f7420736574206f776e657220746f207a65726f000000000000000060448201526064015b60405180910390fd5b600080546001600160a01b0319166001600160a01b0384811691909117909155811615620000be57620000be8162000157565b5050506001600160a01b038316620000e95760405163466d7fef60e01b815260040160405180910390fd5b6001600160a01b0382166200011157604051630899a9e360e41b815260040160405180910390fd5b6001600160a01b038116620001395760405163b83a5cf760e01b815260040160405180910390fd5b6001600160a01b0392831660805290821660a0521660c05262000269565b336001600160a01b03821603620001b15760405162461bcd60e51b815260206004820152601760248201527f43616e6e6f74207472616e7366657220746f2073656c66000000000000000000604482015260640162000082565b600180546001600160a01b0319166001600160a01b0383811691821790925560008054604051929316917fed8889f560326eb138920d842192f0eb3dd22b4f139c87a2c57538e05bae12789190a350565b80516001600160a01b03811681146200021a57600080fd5b919050565b6000806000606084860312156200023557600080fd5b620002408462000202565b9250620002506020850162000202565b9150620002606040850162000202565b90509250925092565b60805160a05160c0516113b4620002f4600039600081816104ed0152818161090701528181610a1901528181610c310152610cd40152600081816101e201528181610285015281816105bf015281816106e701528181610776015281816108530152610a4701526000818161065701528181610824015281816108d8015261098c01526113b46000f3fe608060405234801561001057600080fd5b50600436106100a95760003560e01c806379ba50971161007157806379ba5097146101505780638da5cb5b146101585780639c18c57014610169578063c2d0c7691461017c578063f2fde38b1461018f578063f3651fe6146101a257600080fd5b80633141d65c146100ae5780633f3b7a6f146100c35780635dc2594e146100d657806365b4b203146100e95780637361d6611461012f575b600080fd5b6100c16100bc3660046110e2565b6101c2565b005b6100c16100d136600461111b565b6102b0565b6100c16100e436600461114e565b610344565b6101126100f7366004611178565b6002602052600090815260409020546001600160a01b031681565b6040516001600160a01b0390911681526020015b60405180910390f35b61014261013d366004611193565b6103b5565b604051908152602001610126565b6100c1610ac2565b6000546001600160a01b0316610112565b6100c1610177366004611178565b610b6c565b6100c161018a3660046110e2565b610c11565b6100c161019d3660046110e2565b610cfb565b6101426101b0366004611178565b60036020526000908152604090205481565b6101ca610d0f565b6040516370a0823160e01b81523060048201526000907f00000000000000000000000000000000000000000000000000000000000000006001600160a01b0316906370a0823190602401602060405180830381865afa158015610231573d6000803e3d6000fd5b505050506040513d601f19601f8201168201806040525081019061025591906111d5565b90508060000361027857604051630686827b60e51b815260040160405180910390fd5b6102ac6001600160a01b037f0000000000000000000000000000000000000000000000000000000000000000168383610d64565b5050565b6102b8610d0f565b81806001600160401b03166000036102e35760405163b86ac1ef60e01b815260040160405180910390fd5b6001600160a01b03821661030a5760405163502ffa3f60e11b815260040160405180910390fd5b506001600160401b0391909116600090815260026020526040902080546001600160a01b0319166001600160a01b03909216919091179055565b61034c610d0f565b81806001600160401b03166000036103775760405163b86ac1ef60e01b815260040160405180910390fd5b81600003610398576040516304c5ed9760e51b815260040160405180910390fd5b506001600160401b03909116600090815260036020526040902055565b60006103bf610d0f565b84806001600160401b03166000036103ea5760405163b86ac1ef60e01b815260040160405180910390fd5b6001600160401b0386166000908152600260205260409020546001600160a01b03168061043a576040516367a1bf1d60e01b81526001600160401b03881660048201526024015b60405180910390fd5b8460000361045b576040516310eb483f60e21b815260040160405180910390fd5b6001600160401b038716600090815260036020526040812054908190036104a05760405163b638ee9f60e01b81526001600160401b0389166004820152602401610431565b604080516001808252818301909252600091816020015b60408051808201909152600080825260208201528152602001906001900390816104b757905050905060405180604001604052807f00000000000000000000000000000000000000000000000000000000000000006001600160a01b031681526020018881525081600081518110610531576105316111ee565b6020908102919091018101919091526040805160a0810182526001600160a01b0386811660c0808401919091528351808403909101815260e083018452825282518c82166024820152604481018b905260648082018d9052845180830390910181526084909101845280850180516001600160e01b0316631e1e7e5960e31b179052828501528183018590527f0000000000000000000000000000000000000000000000000000000000000000166060820152815192830190915283825260009160808201906106389060408051915160248084019190915281518084039091018152604490920190526020810180516001600160e01b03166397a657c960e01b17905290565b90526040516320487ded60e01b81529091506000906001600160a01b037f000000000000000000000000000000000000000000000000000000000000000016906320487ded9061068e908e908690600401611254565b602060405180830381865afa1580156106ab573d6000803e3d6000fd5b505050506040513d601f19601f820116820180604052508101906106cf91906111d5565b6040516370a0823160e01b81523060048201529091507f00000000000000000000000000000000000000000000000000000000000000006001600160a01b0316906370a0823190602401602060405180830381865afa158015610736573d6000803e3d6000fd5b505050506040513d601f19601f8201168201806040525081019061075a91906111d5565b81111561080d576040516370a0823160e01b81523060048201527f00000000000000000000000000000000000000000000000000000000000000006001600160a01b0316906370a0823190602401602060405180830381865afa1580156107c5573d6000803e3d6000fd5b505050506040513d601f19601f820116820180604052508101906107e991906111d5565b604051634787a10360e11b8152600481019190915260248101829052604401610431565b60405163095ea7b360e01b81526001600160a01b037f000000000000000000000000000000000000000000000000000000000000000081166004830152602482018390527f0000000000000000000000000000000000000000000000000000000000000000169063095ea7b3906044016020604051808303816000875af115801561089c573d6000803e3d6000fd5b505050506040513d601f19601f820116820180604052508101906108c0919061132d565b5060405163095ea7b360e01b81526001600160a01b037f000000000000000000000000000000000000000000000000000000000000000081166004830152602482018b90527f0000000000000000000000000000000000000000000000000000000000000000169063095ea7b3906044016020604051808303816000875af1158015610950573d6000803e3d6000fd5b505050506040513d601f19601f82011682018060405250810190610974919061132d565b506040516396f4e9f960e01b81526001600160a01b037f000000000000000000000000000000000000000000000000000000000000000016906396f4e9f9906109c3908e908690600401611254565b6020604051808303816000875af11580156109e2573d6000803e3d6000fd5b505050506040513d601f19601f82011682018060405250810190610a0691906111d5565b604080516001600160a01b038d811682527f0000000000000000000000000000000000000000000000000000000000000000811660208301529181018c90527f000000000000000000000000000000000000000000000000000000000000000082166060820152608081018490529198508616906001600160401b038d169089907f80f8e2b9197752b9e33afaa4f92703ac7efbbf247cddcc732b1b555ff1dea27b9060a00160405180910390a4505050505050949350505050565b6001546001600160a01b03163314610b155760405162461bcd60e51b815260206004820152601660248201527526bab9ba10313290383937b837b9b2b21037bbb732b960511b6044820152606401610431565b60008054336001600160a01b0319808316821784556001805490911690556040516001600160a01b0390921692909183917f8be0079c531659141344cd1fd0a4f28419497f9722a3daafe3b4186f6b6457e091a350565b610b74610d0f565b80806001600160401b0316600003610b9f5760405163b86ac1ef60e01b815260040160405180910390fd5b6001600160401b0382166000908152600260205260409020546001600160a01b0316610be9576040516367a1bf1d60e01b81526001600160401b0383166004820152602401610431565b506001600160401b0316600090815260026020526040902080546001600160a01b0319169055565b610c19610d0f565b6040516370a0823160e01b81523060048201526000907f00000000000000000000000000000000000000000000000000000000000000006001600160a01b0316906370a0823190602401602060405180830381865afa158015610c80573d6000803e3d6000fd5b505050506040513d601f19601f82011682018060405250810190610ca491906111d5565b905080600003610cc757604051630686827b60e51b815260040160405180910390fd5b6102ac6001600160a01b037f0000000000000000000000000000000000000000000000000000000000000000168383610d64565b610d03610d0f565b610d0c81610dbb565b50565b6000546001600160a01b03163314610d625760405162461bcd60e51b815260206004820152601660248201527527b7363c9031b0b63630b1363290313c9037bbb732b960511b6044820152606401610431565b565b604080516001600160a01b038416602482015260448082018490528251808303909101815260649091019091526020810180516001600160e01b031663a9059cbb60e01b179052610db6908490610e64565b505050565b336001600160a01b03821603610e135760405162461bcd60e51b815260206004820152601760248201527f43616e6e6f74207472616e7366657220746f2073656c660000000000000000006044820152606401610431565b600180546001600160a01b0319166001600160a01b0383811691821790925560008054604051929316917fed8889f560326eb138920d842192f0eb3dd22b4f139c87a2c57538e05bae12789190a350565b6000610eb9826040518060400160405280602081526020017f5361666545524332303a206c6f772d6c6576656c2063616c6c206661696c6564815250856001600160a01b0316610f369092919063ffffffff16565b805190915015610db65780806020019051810190610ed7919061132d565b610db65760405162461bcd60e51b815260206004820152602a60248201527f5361666545524332303a204552433230206f7065726174696f6e20646964206e6044820152691bdd081cdd58d8d9595960b21b6064820152608401610431565b6060610f458484600085610f4d565b949350505050565b606082471015610fae5760405162461bcd60e51b815260206004820152602660248201527f416464726573733a20696e73756666696369656e742062616c616e636520666f6044820152651c8818d85b1b60d21b6064820152608401610431565b600080866001600160a01b03168587604051610fca919061134f565b60006040518083038185875af1925050503d8060008114611007576040519150601f19603f3d011682016040523d82523d6000602084013e61100c565b606091505b509150915061101d87838387611028565b979650505050505050565b60608315611097578251600003611090576001600160a01b0385163b6110905760405162461bcd60e51b815260206004820152601d60248201527f416464726573733a2063616c6c20746f206e6f6e2d636f6e74726163740000006044820152606401610431565b5081610f45565b610f4583838151156110ac5781518083602001fd5b8060405162461bcd60e51b8152600401610431919061136b565b80356001600160a01b03811681146110dd57600080fd5b919050565b6000602082840312156110f457600080fd5b6110fd826110c6565b9392505050565b80356001600160401b03811681146110dd57600080fd5b6000806040838503121561112e57600080fd5b61113783611104565b9150611145602084016110c6565b90509250929050565b6000806040838503121561116157600080fd5b61116a83611104565b946020939093013593505050565b60006020828403121561118a57600080fd5b6110fd82611104565b600080600080608085870312156111a957600080fd5b6111b285611104565b93506111c0602086016110c6565b93969395505050506040820135916060013590565b6000602082840312156111e757600080fd5b5051919050565b634e487b7160e01b600052603260045260246000fd5b60005b8381101561121f578181015183820152602001611207565b50506000910152565b60008151808452611240816020860160208601611204565b601f01601f19169290920160200192915050565b600060406001600160401b038516835260208181850152845160a08386015261128060e0860182611228565b905081860151603f198087840301606088015261129d8383611228565b88860151888203830160808a01528051808352908601945060009350908501905b808410156112f057845180516001600160a01b03168352860151868301529385019360019390930192908601906112be565b5060608901516001600160a01b031660a08901526080890151888203830160c08a0152955061131f8187611228565b9a9950505050505050505050565b60006020828403121561133f57600080fd5b815180151581146110fd57600080fd5b60008251611361818460208701611204565b9190910192915050565b6020815260006110fd602083018461122856fea2646970667358221220122b7ea659fab843af6b987a73a094150aae828b391925763e437afd7c8347c864736f6c63430008130033","linkReferences":{}},"methodIdentifiers":{"acceptOwnership()":"79ba5097","deleteReceiverForDestinationChain(uint64)":"9c18c570","owner()":"8da5cb5b","s_gasLimits(uint64)":"f3651fe6","s_receivers(uint64)":"65b4b203","sendMessagePayLINK(uint64,address,uint256,uint256)":"7361d661","setGasLimitForDestinationChain(uint64,uint256)":"5dc2594e","setReceiverForDestinationChain(uint64,address)":"3f3b7a6f","transferOwnership(address)":"f2fde38b","withdrawLinkToken(address)":"3141d65c","withdrawUsdcToken(address)":"c2d0c769"},"id":43}