{"abi":[{"type":"constructor","inputs":[{"name":"_router","type":"address","internalType":"address"},{"name":"_usdcToken","type":"address","internalType":"address"},{"name":"_controller","type":"address","internalType":"address"}],"stateMutability":"nonpayable"},{"type":"function","name":"acceptOwnership","inputs":[],"outputs":[],"stateMutability":"nonpayable"},{"type":"function","name":"ccipReceive","inputs":[{"name":"any2EvmMessage","type":"tuple","internalType":"struct Client.Any2EVMMessage","components":[{"name":"messageId","type":"bytes32","internalType":"bytes32"},{"name":"sourceChainSelector","type":"uint64","internalType":"uint64"},{"name":"sender","type":"bytes","internalType":"bytes"},{"name":"data","type":"bytes","internalType":"bytes"},{"name":"destTokenAmounts","type":"tuple[]","internalType":"struct Client.EVMTokenAmount[]","components":[{"name":"token","type":"address","internalType":"address"},{"name":"amount","type":"uint256","internalType":"uint256"}]}]}],"outputs":[],"stateMutability":"nonpayable"},{"type":"function","name":"deleteSenderForSourceChain","inputs":[{"name":"_sourceChainSelector","type":"uint64","internalType":"uint64"}],"outputs":[],"stateMutability":"nonpayable"},{"type":"function","name":"getFailedMessages","inputs":[{"name":"offset","type":"uint256","internalType":"uint256"},{"name":"limit","type":"uint256","internalType":"uint256"}],"outputs":[{"name":"","type":"tuple[]","internalType":"struct Receiver.FailedMessage[]","components":[{"name":"messageId","type":"bytes32","internalType":"bytes32"},{"name":"errorCode","type":"uint8","internalType":"enum Receiver.ErrorCode"}]}],"stateMutability":"view"},{"type":"function","name":"getRouter","inputs":[],"outputs":[{"name":"","type":"address","internalType":"address"}],"stateMutability":"view"},{"type":"function","name":"owner","inputs":[],"outputs":[{"name":"","type":"address","internalType":"address"}],"stateMutability":"view"},{"type":"function","name":"processMessage","inputs":[{"name":"any2EvmMessage","type":"tuple","internalType":"struct Client.Any2EVMMessage","components":[{"name":"messageId","type":"bytes32","internalType":"bytes32"},{"name":"sourceChainSelector","type":"uint64","internalType":"uint64"},{"name":"sender","type":"bytes","internalType":"bytes"},{"name":"data","type":"bytes","internalType":"bytes"},{"name":"destTokenAmounts","type":"tuple[]","internalType":"struct Client.EVMTokenAmount[]","components":[{"name":"token","type":"address","internalType":"address"},{"name":"amount","type":"uint256","internalType":"uint256"}]}]}],"outputs":[],"stateMutability":"nonpayable"},{"type":"function","name":"retryFailedMessage","inputs":[{"name":"messageId","type":"bytes32","internalType":"bytes32"},{"name":"beneficiary","type":"address","internalType":"address"}],"outputs":[],"stateMutability":"nonpayable"},{"type":"function","name":"s_messageContents","inputs":[{"name":"","type":"bytes32","internalType":"bytes32"}],"outputs":[{"name":"messageId","type":"bytes32","internalType":"bytes32"},{"name":"sourceChainSelector","type":"uint64","internalType":"uint64"},{"name":"sender","type":"bytes","internalType":"bytes"},{"name":"data","type":"bytes","internalType":"bytes"}],"stateMutability":"view"},{"type":"function","name":"s_senders","inputs":[{"name":"","type":"uint64","internalType":"uint64"}],"outputs":[{"name":"","type":"address","internalType":"address"}],"stateMutability":"view"},{"type":"function","name":"setSenderForSourceChain","inputs":[{"name":"_sourceChainSelector","type":"uint64","internalType":"uint64"},{"name":"_sender","type":"address","internalType":"address"}],"outputs":[],"stateMutability":"nonpayable"},{"type":"function","name":"supportsInterface","inputs":[{"name":"interfaceId","type":"bytes4","internalType":"bytes4"}],"outputs":[{"name":"","type":"bool","internalType":"bool"}],"stateMutability":"pure"},{"type":"function","name":"transferOwnership","inputs":[{"name":"to","type":"address","internalType":"address"}],"outputs":[],"stateMutability":"nonpayable"},{"type":"function","name":"transferTokenToProject","inputs":[{"name":"project","type":"address","internalType":"address"},{"name":"_amount","type":"uint256","internalType":"uint256"}],"outputs":[],"stateMutability":"nonpayable"},{"type":"event","name":"MessageFailed","inputs":[{"name":"messageId","type":"bytes32","indexed":true,"internalType":"bytes32"},{"name":"reason","type":"bytes","indexed":false,"internalType":"bytes"}],"anonymous":false},{"type":"event","name":"MessageReceived","inputs":[{"name":"messageId","type":"bytes32","indexed":true,"internalType":"bytes32"},{"name":"sourceChainSelector","type":"uint64","indexed":true,"internalType":"uint64"},{"name":"sender","type":"address","indexed":true,"internalType":"address"},{"name":"data","type":"bytes","indexed":false,"internalType":"bytes"},{"name":"token","type":"address","indexed":false,"internalType":"address"},{"name":"tokenAmount","type":"uint256","indexed":false,"internalType":"uint256"}],"anonymous":false},{"type":"event","name":"MessageRecovered","inputs":[{"name":"messageId","type":"bytes32","indexed":true,"internalType":"bytes32"}],"anonymous":false},{"type":"event","name":"OwnershipTransferRequested","inputs":[{"name":"from","type":"address","indexed":true,"internalType":"address"},{"name":"to","type":"address","indexed":true,"internalType":"address"}],"anonymous":false},{"type":"event","name":"OwnershipTransferred","inputs":[{"name":"from","type":"address","indexed":true,"internalType":"address"},{"name":"to","type":"address","indexed":true,"internalType":"address"}],"anonymous":false},{"type":"error","name":"CallToProjectFailed","inputs":[]},{"type":"error","name":"FailedToFundProject","inputs":[]},{"type":"error","name":"InvalidController","inputs":[]},{"type":"error","name":"InvalidRouter","inputs":[{"name":"router","type":"address","internalType":"address"}]},{"type":"error","name":"InvalidSenderAddress","inputs":[]},{"type":"error","name":"InvalidSourceChain","inputs":[]},{"type":"error","name":"InvalidUsdcToken","inputs":[]},{"type":"error","name":"MessageNotFailed","inputs":[{"name":"messageId","type":"bytes32","internalType":"bytes32"}]},{"type":"error","name":"NoProjectAddressFound","inputs":[]},{"type":"error","name":"NoReturnDataExpected","inputs":[]},{"type":"error","name":"NoSenderOnSourceChain","inputs":[{"name":"sourceChainSelector","type":"uint64","internalType":"uint64"}]},{"type":"error","name":"OnlySelf","inputs":[]},{"type":"error","name":"WrongReceivedToken","inputs":[{"name":"usdcToken","type":"address","internalType":"address"},{"name":"receivedToken","type":"address","internalType":"address"}]},{"type":"error","name":"WrongSenderForSourceChain","inputs":[{"name":"sourceChainSelector","type":"uint64","internalType":"uint64"}]}],"bytecode":{"object":"0x60e060405234801561001057600080fd5b506040516127f33803806127f383398101604081905261002f916105d5565b33806000856001600160a01b038116610063576040516335fdcccd60e21b8152600060048201526024015b60405180910390fd5b6001600160a01b0390811660805282166100bf5760405162461bcd60e51b815260206004820152601860248201527f43616e6e6f7420736574206f776e657220746f207a65726f0000000000000000604482015260640161005a565b600080546001600160a01b0319166001600160a01b03848116919091179091558116156100ef576100ef8161016e565b5050506001600160a01b0382166101195760405163b83a5cf760e01b815260040160405180910390fd5b6001600160a01b038116610140576040516336abb4df60e11b815260040160405180910390fd5b60c080516001600160a01b03908116909152821660a08190526101669082600019610217565b5050506106cd565b336001600160a01b038216036101c65760405162461bcd60e51b815260206004820152601760248201527f43616e6e6f74207472616e7366657220746f2073656c66000000000000000000604482015260640161005a565b600180546001600160a01b0319166001600160a01b0383811691821790925560008054604051929316917fed8889f560326eb138920d842192f0eb3dd22b4f139c87a2c57538e05bae12789190a350565b8015806102915750604051636eb1769f60e11b81523060048201526001600160a01b03838116602483015284169063dd62ed3e90604401602060405180830381865afa15801561026b573d6000803e3d6000fd5b505050506040513d601f19601f8201168201806040525081019061028f9190610618565b155b6103035760405162461bcd60e51b815260206004820152603660248201527f5361666545524332303a20617070726f76652066726f6d206e6f6e2d7a65726f60448201527f20746f206e6f6e2d7a65726f20616c6c6f77616e636500000000000000000000606482015260840161005a565b604080516001600160a01b038416602482015260448082018490528251808303909101815260649091019091526020810180516001600160e01b0390811663095ea7b360e01b1790915261035991859161035e16565b505050565b6040805180820190915260208082527f5361666545524332303a206c6f772d6c6576656c2063616c6c206661696c6564908201526000906103ab906001600160a01b038516908490610428565b80519091501561035957808060200190518101906103c99190610631565b6103595760405162461bcd60e51b815260206004820152602a60248201527f5361666545524332303a204552433230206f7065726174696f6e20646964206e6044820152691bdd081cdd58d8d9595960b21b606482015260840161005a565b6060610437848460008561043f565b949350505050565b6060824710156104a05760405162461bcd60e51b815260206004820152602660248201527f416464726573733a20696e73756666696369656e742062616c616e636520666f6044820152651c8818d85b1b60d21b606482015260840161005a565b600080866001600160a01b031685876040516104bc919061067e565b60006040518083038185875af1925050503d80600081146104f9576040519150601f19603f3d011682016040523d82523d6000602084013e6104fe565b606091505b5090925090506105108783838761051b565b979650505050505050565b6060831561058a578251600003610583576001600160a01b0385163b6105835760405162461bcd60e51b815260206004820152601d60248201527f416464726573733a2063616c6c20746f206e6f6e2d636f6e7472616374000000604482015260640161005a565b5081610437565b610437838381511561059f5781518083602001fd5b8060405162461bcd60e51b815260040161005a919061069a565b80516001600160a01b03811681146105d057600080fd5b919050565b6000806000606084860312156105ea57600080fd5b6105f3846105b9565b9250610601602085016105b9565b915061060f604085016105b9565b90509250925092565b60006020828403121561062a57600080fd5b5051919050565b60006020828403121561064357600080fd5b8151801515811461065357600080fd5b9392505050565b60005b8381101561067557818101518382015260200161065d565b50506000910152565b6000825161069081846020870161065a565b9190910192915050565b60208152600082518060208401526106b981604085016020870161065a565b601f01601f19169190910160400192915050565b60805160a05160c0516120db6107186000396000610df1015260008181610a6501528181610cea01528181610d450152610ea50152600081816101bb01526105fc01526120db6000f3fe608060405234801561001057600080fd5b50600436106100ea5760003560e01c8063b0f479a11161008c578063d1e889ae11610066578063d1e889ae14610215578063ded394a314610228578063e62aa19f1461023b578063f2fde38b1461024e57600080fd5b8063b0f479a1146101b9578063cf6730f8146101df578063d0d1fc3d146101f257600080fd5b806379ba5097116100c857806379ba50971461016d57806385572ffb146101755780638d9d89fe146101885780638da5cb5b146101a857600080fd5b806301ffc9a7146100ef578063369f7f66146101175780633b6efe141461012c575b600080fd5b6101026100fd3660046115ba565b610261565b60405190151581526020015b60405180910390f35b61012a6101253660046115f9565b610298565b005b61015561013a36600461164e565b6003602052600090815260409020546001600160a01b031681565b6040516001600160a01b03909116815260200161010e565b61012a610547565b61012a61018336600461166b565b6105f1565b61019b6101963660046116a5565b6107bf565b60405161010e91906116dd565b6000546001600160a01b0316610155565b7f0000000000000000000000000000000000000000000000000000000000000000610155565b61012a6101ed36600461166b565b6108e4565b61020561020036600461174a565b610915565b60405161010e94939291906117b3565b61012a6102233660046117ed565b610a58565b61012a610236366004611819565b610a90565b61012a61024936600461164e565b610b24565b61012a61025c366004611847565b610bc9565b60006001600160e01b031982166385572ffb60e01b148061029257506001600160e01b031982166301ffc9a760e01b145b92915050565b6102a0610bda565b60016102ad600584610c2f565b146102d3576040516305b73c1360e51b8152600481018390526024015b60405180910390fd5b6102e38260005b60059190610c42565b506000828152600460209081526040808320815160a0810183528154815260018201546001600160401b031693810193909352600281018054919284019161032a90611864565b80601f016020809104026020016040519081016040528092919081815260200182805461035690611864565b80156103a35780601f10610378576101008083540402835291602001916103a3565b820191906000526020600020905b81548152906001019060200180831161038657829003601f168201915b505050505081526020016003820180546103bc90611864565b80601f01602080910402602001604051908101604052809291908181526020018280546103e890611864565b80156104355780601f1061040a57610100808354040283529160200191610435565b820191906000526020600020905b81548152906001019060200180831161041857829003601f168201915b5050505050815260200160048201805480602002602001604051908101604052809291908181526020016000905b828210156104ab576000848152602090819020604080518082019091526002850290910180546001600160a01b03168252600190810154828401529083529092019101610463565b505050508152505090506105178282608001516000815181106104d0576104d061189e565b60200260200101516020015183608001516000815181106104f3576104f361189e565b6020026020010151600001516001600160a01b0316610c579092919063ffffffff16565b60405183907fef3bf8c64bc480286c4f3503b870ceb23e648d2d902e31fb7bb46680da6de8ad90600090a2505050565b6001546001600160a01b0316331461059a5760405162461bcd60e51b815260206004820152601660248201527526bab9ba10313290383937b837b9b2b21037bbb732b960511b60448201526064016102ca565b60008054336001600160a01b0319808316821784556001805490911690556040516001600160a01b0390921692909183917f8be0079c531659141344cd1fd0a4f28419497f9722a3daafe3b4186f6b6457e091a350565b336001600160a01b037f0000000000000000000000000000000000000000000000000000000000000000161461063c576040516335fdcccd60e21b81523360048201526024016102ca565b60036000610650604084016020850161164e565b6001600160401b0316815260208101919091526040908101600020546001600160a01b031690610682908301836118b4565b81019061068f9190611847565b6001600160a01b0316146106d2576106ad604082016020830161164e565b604051631d56640b60e21b81526001600160401b0390911660048201526024016102ca565b6040516319ece61f60e31b8152309063cf6730f8906106f59084906004016119bb565b600060405180830381600087803b15801561070f57600080fd5b505af1925050508015610720575060015b6107bc573d80801561074e576040519150601f19603f3d011682016040523d82523d6000602084013e610753565b606091505b50610760823560016102da565b5081356000908152600460205260409020829061077d8282611cc0565b50506040518235907f55bc02a9ef6f146737edeeb425738006f67f077e7138de3bf84a15bde1a5b56f906107b2908490611d89565b60405180910390a2505b50565b606060006107cd6005610cbf565b90506000816107dc8587611d9c565b116107e757836107f1565b6107f18583611daf565b90506000816001600160401b0381111561080d5761080d611a8c565b60405190808252806020026020018201604052801561085257816020015b604080518082019091526000808252602082015281526020019060019003908161082b5790505b50905060005b828110156108da57600080610878610870848b611d9c565b600590610cca565b91509150604051806040016040528083815260200182600181111561089f5761089f6116c7565b60018111156108b0576108b06116c7565b8152508484815181106108c5576108c561189e565b60209081029190910101525050600101610858565b5095945050505050565b3330146109045760405163029a949d60e31b815260040160405180910390fd5b6107bc61091082611f57565b610ce8565b60046020526000908152604090208054600182015460028301805492936001600160401b039092169261094790611864565b80601f016020809104026020016040519081016040528092919081815260200182805461097390611864565b80156109c05780601f10610995576101008083540402835291602001916109c0565b820191906000526020600020905b8154815290600101906020018083116109a357829003601f168201915b5050505050908060030180546109d590611864565b80601f0160208091040260200160405190810160405280929190818152602001828054610a0190611864565b8015610a4e5780601f10610a2357610100808354040283529160200191610a4e565b820191906000526020600020905b815481529060010190602001808311610a3157829003601f168201915b5050505050905084565b610a8c6001600160a01b037f0000000000000000000000000000000000000000000000000000000000000000168383610c57565b5050565b610a98610bda565b81806001600160401b0316600003610ac357604051639284b19760e01b815260040160405180910390fd5b6001600160a01b038216610aea57604051630658a73f60e01b815260040160405180910390fd5b506001600160401b0391909116600090815260036020526040902080546001600160a01b0319166001600160a01b03909216919091179055565b610b2c610bda565b80806001600160401b0316600003610b5757604051639284b19760e01b815260040160405180910390fd5b6001600160401b0382166000908152600360205260409020546001600160a01b0316610ba15760405163274893c960e01b81526001600160401b03831660048201526024016102ca565b506001600160401b0316600090815260036020526040902080546001600160a01b0319169055565b610bd1610bda565b6107bc81611020565b6000546001600160a01b03163314610c2d5760405162461bcd60e51b815260206004820152601660248201527527b7363c9031b0b63630b1363290313c9037bbb732b960511b60448201526064016102ca565b565b6000610c3b83836110c9565b9392505050565b6000610c4f848484611139565b949350505050565b6040516001600160a01b038316602482015260448101829052610cba90849063a9059cbb60e01b906064015b60408051601f198184030181529190526020810180516001600160e01b03166001600160e01b031990931692909217909152611156565b505050565b600061029282611228565b6000808080610cd98686611233565b909450925050505b9250929050565b7f00000000000000000000000000000000000000000000000000000000000000006001600160a01b03168160800151600081518110610d2957610d2961189e565b6020026020010151600001516001600160a01b031614610db3577f00000000000000000000000000000000000000000000000000000000000000008160800151600081518110610d7b57610d7b61189e565b60209081029190910101515160405163db8c22ef60e01b81526001600160a01b039283166004820152911660248201526044016102ca565b60008160600151806020019051810190610dcd9190612003565b604051631e1e7e5960e31b8152600481018290529091506000906001600160a01b037f0000000000000000000000000000000000000000000000000000000000000000169063f0f3f2c890602401602060405180830381865afa158015610e38573d6000803e3d6000fd5b505050506040513d601f19601f82011682018060405250810190610e5c919061201c565b600280546001600160a01b0319166001600160a01b03831617905560808401518051919250610edc91839190600090610e9757610e9761189e565b6020026020010151602001517f00000000000000000000000000000000000000000000000000000000000000006001600160a01b031661125e9092919063ffffffff16565b600254608084015180516001600160a01b0390921691637392a5739190600090610f0857610f0861189e565b6020026020010151602001516040518263ffffffff1660e01b8152600401610f3291815260200190565b600060405180830381600087803b158015610f4c57600080fd5b505af1158015610f60573d6000803e3d6000fd5b505050508260400151806020019051810190610f7c919061201c565b6001600160a01b031683602001516001600160401b031684600001517fefd22b16d02120210ec8687e3528d040d94b6509ca1a54ecc33b9e6790abfe2486606001518760800151600081518110610fd557610fd561189e565b6020026020010151600001518860800151600081518110610ff857610ff861189e565b60200260200101516020015160405161101393929190612039565b60405180910390a4505050565b336001600160a01b038216036110785760405162461bcd60e51b815260206004820152601760248201527f43616e6e6f74207472616e7366657220746f2073656c6600000000000000000060448201526064016102ca565b600180546001600160a01b0319166001600160a01b0383811691821790925560008054604051929316917fed8889f560326eb138920d842192f0eb3dd22b4f139c87a2c57538e05bae12789190a350565b6000818152600283016020526040812054801515806110ed57506110ed8484611373565b610c3b5760405162461bcd60e51b815260206004820152601e60248201527f456e756d657261626c654d61703a206e6f6e6578697374656e74206b6579000060448201526064016102ca565b60008281526002840160205260408120829055610c4f848461137f565b60006111ab826040518060400160405280602081526020017f5361666545524332303a206c6f772d6c6576656c2063616c6c206661696c6564815250856001600160a01b031661138b9092919063ffffffff16565b805190915015610cba57808060200190518101906111c99190612067565b610cba5760405162461bcd60e51b815260206004820152602a60248201527f5361666545524332303a204552433230206f7065726174696f6e20646964206e6044820152691bdd081cdd58d8d9595960b21b60648201526084016102ca565b60006102928261139a565b6000808061124185856113a4565b600081815260029690960160205260409095205494959350505050565b8015806112d85750604051636eb1769f60e11b81523060048201526001600160a01b03838116602483015284169063dd62ed3e90604401602060405180830381865afa1580156112b2573d6000803e3d6000fd5b505050506040513d601f19601f820116820180604052508101906112d69190612003565b155b6113435760405162461bcd60e51b815260206004820152603660248201527f5361666545524332303a20617070726f76652066726f6d206e6f6e2d7a65726f60448201527520746f206e6f6e2d7a65726f20616c6c6f77616e636560501b60648201526084016102ca565b6040516001600160a01b038316602482015260448101829052610cba90849063095ea7b360e01b90606401610c83565b6000610c3b83836113b0565b6000610c3b83836113c8565b6060610c4f8484600085611417565b6000610292825490565b6000610c3b83836114f2565b60008181526001830160205260408120541515610c3b565b600081815260018301602052604081205461140f57508154600181810184556000848152602080822090930184905584548482528286019093526040902091909155610292565b506000610292565b6060824710156114785760405162461bcd60e51b815260206004820152602660248201527f416464726573733a20696e73756666696369656e742062616c616e636520666f6044820152651c8818d85b1b60d21b60648201526084016102ca565b600080866001600160a01b031685876040516114949190612089565b60006040518083038185875af1925050503d80600081146114d1576040519150601f19603f3d011682016040523d82523d6000602084013e6114d6565b606091505b50915091506114e78783838761151c565b979650505050505050565b60008260000182815481106115095761150961189e565b9060005260206000200154905092915050565b6060831561158b578251600003611584576001600160a01b0385163b6115845760405162461bcd60e51b815260206004820152601d60248201527f416464726573733a2063616c6c20746f206e6f6e2d636f6e747261637400000060448201526064016102ca565b5081610c4f565b610c4f83838151156115a05781518083602001fd5b8060405162461bcd60e51b81526004016102ca9190611d89565b6000602082840312156115cc57600080fd5b81356001600160e01b031981168114610c3b57600080fd5b6001600160a01b03811681146107bc57600080fd5b6000806040838503121561160c57600080fd5b82359150602083013561161e816115e4565b809150509250929050565b6001600160401b03811681146107bc57600080fd5b803561164981611629565b919050565b60006020828403121561166057600080fd5b8135610c3b81611629565b60006020828403121561167d57600080fd5b81356001600160401b0381111561169357600080fd5b820160a08185031215610c3b57600080fd5b600080604083850312156116b857600080fd5b50508035926020909101359150565b634e487b7160e01b600052602160045260246000fd5b60208082528251828201819052600091906040908185019086840185805b8381101561173c578251805186528701516002811061172857634e487b7160e01b83526021600452602483fd5b8588015293850193918601916001016116fb565b509298975050505050505050565b60006020828403121561175c57600080fd5b5035919050565b60005b8381101561177e578181015183820152602001611766565b50506000910152565b6000815180845261179f816020860160208601611763565b601f01601f19169290920160200192915050565b8481526001600160401b03841660208201526080604082015260006117db6080830185611787565b82810360608401526114e78185611787565b6000806040838503121561180057600080fd5b823561180b816115e4565b946020939093013593505050565b6000806040838503121561182c57600080fd5b823561183781611629565b9150602083013561161e816115e4565b60006020828403121561185957600080fd5b8135610c3b816115e4565b600181811c9082168061187857607f821691505b60208210810361189857634e487b7160e01b600052602260045260246000fd5b50919050565b634e487b7160e01b600052603260045260246000fd5b6000808335601e198436030181126118cb57600080fd5b8301803591506001600160401b038211156118e557600080fd5b602001915036819003821315610ce157600080fd5b6000808335601e1984360301811261191157600080fd5b83016020810192503590506001600160401b0381111561193057600080fd5b803603821315610ce157600080fd5b81835281816020850137506000828201602090810191909152601f909101601f19169091010190565b8183526000602080850194508260005b858110156119b057813561198b816115e4565b6001600160a01b03168752818301358388015260409687019690910190600101611978565b509495945050505050565b6020815281356020820152600060208301356119d681611629565b6001600160401b0380821660408501526119f360408601866118fa565b925060a06060860152611a0a60c08601848361193f565b925050611a1a60608601866118fa565b601f1980878603016080880152611a3285838561193f565b945060808801359250601e19883603018312611a4d57600080fd5b60209288019283019235915083821115611a6657600080fd5b8160061b3603831315611a7857600080fd5b8685030160a08701526114e7848284611968565b634e487b7160e01b600052604160045260246000fd5b601f821115610cba576000816000526020600020601f850160051c81016020861015611acb5750805b601f850160051c820191505b81811015611aea57828155600101611ad7565b505050505050565b6001600160401b03831115611b0957611b09611a8c565b611b1d83611b178354611864565b83611aa2565b6000601f841160018114611b515760008515611b395750838201355b600019600387901b1c1916600186901b178355611bab565b600083815260209020601f19861690835b82811015611b825786850135825560209485019460019092019101611b62565b5086821015611b9f5760001960f88860031b161c19848701351681555b505060018560011b0183555b5050505050565b634e487b7160e01b600052601160045260246000fd5b8135611bd3816115e4565b81546001600160a01b0319166001600160a01b03919091161781556020919091013560019190910155565b68010000000000000000831115611c1757611c17611a8c565b805483825580841015611c8b5760016001600160ff1b038281168314611c3f57611c3f611bb2565b8086168614611c5057611c50611bb2565b5060008360005260206000208360011b81018760011b820191505b80821015611c86578282558284830155600282019150611c6b565b505050505b5060008181526020812083915b85811015611aea57611caa8383611bc8565b6040929092019160029190910190600101611c98565b81358155600181016020830135611cd681611629565b6001600160401b038082166001600160401b0319845416178355611cfd60408601866118b4565b93509150611d0f838360028701611af2565b611d1c60608601866118b4565b93509150611d2e838360038701611af2565b60808501359250601e19853603018312611d4757600080fd5b918401918235915080821115611d5c57600080fd5b506020820191508060061b3603821315611d7557600080fd5b611d83818360048601611bfe565b50505050565b602081526000610c3b6020830184611787565b8082018082111561029257610292611bb2565b8181038181111561029257610292611bb2565b604080519081016001600160401b0381118282101715611de457611de4611a8c565b60405290565b60405160a081016001600160401b0381118282101715611de457611de4611a8c565b604051601f8201601f191681016001600160401b0381118282101715611e3457611e34611a8c565b604052919050565b600082601f830112611e4d57600080fd5b81356001600160401b03811115611e6657611e66611a8c565b611e79601f8201601f1916602001611e0c565b818152846020838601011115611e8e57600080fd5b816020850160208301376000918101602001919091529392505050565b600082601f830112611ebc57600080fd5b813560206001600160401b03821115611ed757611ed7611a8c565b611ee5818360051b01611e0c565b82815260069290921b84018101918181019086841115611f0457600080fd5b8286015b84811015611f4c5760408189031215611f215760008081fd5b611f29611dc2565b8135611f34816115e4565b81528185013585820152835291830191604001611f08565b509695505050505050565b600060a08236031215611f6957600080fd5b611f71611dea565b82358152611f816020840161163e565b602082015260408301356001600160401b0380821115611fa057600080fd5b611fac36838701611e3c565b60408401526060850135915080821115611fc557600080fd5b611fd136838701611e3c565b60608401526080850135915080821115611fea57600080fd5b50611ff736828601611eab565b60808301525092915050565b60006020828403121561201557600080fd5b5051919050565b60006020828403121561202e57600080fd5b8151610c3b816115e4565b60608152600061204c6060830186611787565b6001600160a01b039490941660208301525060400152919050565b60006020828403121561207957600080fd5b81518015158114610c3b57600080fd5b6000825161209b818460208701611763565b919091019291505056fea26469706673582212206464f9d1f9d5c325ea2e331279879e780b9571383c5b6d3d3524cd1444723bec64736f6c63430008190033","linkReferences":{}},"methodIdentifiers":{"acceptOwnership()":"79ba5097","ccipReceive((bytes32,uint64,bytes,bytes,(address,uint256)[]))":"85572ffb","deleteSenderForSourceChain(uint64)":"e62aa19f","getFailedMessages(uint256,uint256)":"8d9d89fe","getRouter()":"b0f479a1","owner()":"8da5cb5b","processMessage((bytes32,uint64,bytes,bytes,(address,uint256)[]))":"cf6730f8","retryFailedMessage(bytes32,address)":"369f7f66","s_messageContents(bytes32)":"d0d1fc3d","s_senders(uint64)":"3b6efe14","setSenderForSourceChain(uint64,address)":"ded394a3","supportsInterface(bytes4)":"01ffc9a7","transferOwnership(address)":"f2fde38b","transferTokenToProject(address,uint256)":"d1e889ae"},"id":43}