{"abi":[{"type":"constructor","inputs":[{"name":"_router","type":"address","internalType":"address"},{"name":"_usdcToken","type":"address","internalType":"address"}],"stateMutability":"nonpayable"},{"type":"function","name":"acceptOwnership","inputs":[],"outputs":[],"stateMutability":"nonpayable"},{"type":"function","name":"ccipReceive","inputs":[{"name":"any2EvmMessage","type":"tuple","internalType":"struct Client.Any2EVMMessage","components":[{"name":"messageId","type":"bytes32","internalType":"bytes32"},{"name":"sourceChainSelector","type":"uint64","internalType":"uint64"},{"name":"sender","type":"bytes","internalType":"bytes"},{"name":"data","type":"bytes","internalType":"bytes"},{"name":"destTokenAmounts","type":"tuple[]","internalType":"struct Client.EVMTokenAmount[]","components":[{"name":"token","type":"address","internalType":"address"},{"name":"amount","type":"uint256","internalType":"uint256"}]}]}],"outputs":[],"stateMutability":"nonpayable"},{"type":"function","name":"deleteSenderForSourceChain","inputs":[{"name":"_sourceChainSelector","type":"uint64","internalType":"uint64"}],"outputs":[],"stateMutability":"nonpayable"},{"type":"function","name":"getFailedMessages","inputs":[{"name":"offset","type":"uint256","internalType":"uint256"},{"name":"limit","type":"uint256","internalType":"uint256"}],"outputs":[{"name":"","type":"tuple[]","internalType":"struct Receiver.FailedMessage[]","components":[{"name":"messageId","type":"bytes32","internalType":"bytes32"},{"name":"errorCode","type":"uint8","internalType":"enum Receiver.ErrorCode"}]}],"stateMutability":"view"},{"type":"function","name":"getRouter","inputs":[],"outputs":[{"name":"","type":"address","internalType":"address"}],"stateMutability":"view"},{"type":"function","name":"owner","inputs":[],"outputs":[{"name":"","type":"address","internalType":"address"}],"stateMutability":"view"},{"type":"function","name":"processMessage","inputs":[{"name":"any2EvmMessage","type":"tuple","internalType":"struct Client.Any2EVMMessage","components":[{"name":"messageId","type":"bytes32","internalType":"bytes32"},{"name":"sourceChainSelector","type":"uint64","internalType":"uint64"},{"name":"sender","type":"bytes","internalType":"bytes"},{"name":"data","type":"bytes","internalType":"bytes"},{"name":"destTokenAmounts","type":"tuple[]","internalType":"struct Client.EVMTokenAmount[]","components":[{"name":"token","type":"address","internalType":"address"},{"name":"amount","type":"uint256","internalType":"uint256"}]}]}],"outputs":[],"stateMutability":"nonpayable"},{"type":"function","name":"retryFailedMessage","inputs":[{"name":"messageId","type":"bytes32","internalType":"bytes32"},{"name":"beneficiary","type":"address","internalType":"address"}],"outputs":[],"stateMutability":"nonpayable"},{"type":"function","name":"s_messageContents","inputs":[{"name":"","type":"bytes32","internalType":"bytes32"}],"outputs":[{"name":"messageId","type":"bytes32","internalType":"bytes32"},{"name":"sourceChainSelector","type":"uint64","internalType":"uint64"},{"name":"sender","type":"bytes","internalType":"bytes"},{"name":"data","type":"bytes","internalType":"bytes"}],"stateMutability":"view"},{"type":"function","name":"s_senders","inputs":[{"name":"","type":"uint64","internalType":"uint64"}],"outputs":[{"name":"","type":"address","internalType":"address"}],"stateMutability":"view"},{"type":"function","name":"setSenderForSourceChain","inputs":[{"name":"_sourceChainSelector","type":"uint64","internalType":"uint64"},{"name":"_sender","type":"address","internalType":"address"},{"name":"gofundme","type":"address","internalType":"address"}],"outputs":[],"stateMutability":"nonpayable"},{"type":"function","name":"supportsInterface","inputs":[{"name":"interfaceId","type":"bytes4","internalType":"bytes4"}],"outputs":[{"name":"","type":"bool","internalType":"bool"}],"stateMutability":"pure"},{"type":"function","name":"transferOwnership","inputs":[{"name":"to","type":"address","internalType":"address"}],"outputs":[],"stateMutability":"nonpayable"},{"type":"event","name":"MessageFailed","inputs":[{"name":"messageId","type":"bytes32","indexed":true,"internalType":"bytes32"},{"name":"reason","type":"bytes","indexed":false,"internalType":"bytes"}],"anonymous":false},{"type":"event","name":"MessageReceived","inputs":[{"name":"messageId","type":"bytes32","indexed":true,"internalType":"bytes32"},{"name":"sourceChainSelector","type":"uint64","indexed":true,"internalType":"uint64"},{"name":"sender","type":"address","indexed":true,"internalType":"address"},{"name":"data","type":"bytes","indexed":false,"internalType":"bytes"},{"name":"token","type":"address","indexed":false,"internalType":"address"},{"name":"tokenAmount","type":"uint256","indexed":false,"internalType":"uint256"}],"anonymous":false},{"type":"event","name":"MessageRecovered","inputs":[{"name":"messageId","type":"bytes32","indexed":true,"internalType":"bytes32"}],"anonymous":false},{"type":"event","name":"OwnershipTransferRequested","inputs":[{"name":"from","type":"address","indexed":true,"internalType":"address"},{"name":"to","type":"address","indexed":true,"internalType":"address"}],"anonymous":false},{"type":"event","name":"OwnershipTransferred","inputs":[{"name":"from","type":"address","indexed":true,"internalType":"address"},{"name":"to","type":"address","indexed":true,"internalType":"address"}],"anonymous":false},{"type":"error","name":"CallToProjectFailed","inputs":[]},{"type":"error","name":"FailedToFundProject","inputs":[]},{"type":"error","name":"InvalidController","inputs":[]},{"type":"error","name":"InvalidRouter","inputs":[{"name":"router","type":"address","internalType":"address"}]},{"type":"error","name":"InvalidSenderAddress","inputs":[]},{"type":"error","name":"InvalidSourceChain","inputs":[]},{"type":"error","name":"InvalidUsdcToken","inputs":[]},{"type":"error","name":"MessageNotFailed","inputs":[{"name":"messageId","type":"bytes32","internalType":"bytes32"}]},{"type":"error","name":"NoProjectAddressFound","inputs":[]},{"type":"error","name":"NoReturnDataExpected","inputs":[]},{"type":"error","name":"NoSenderOnSourceChain","inputs":[{"name":"sourceChainSelector","type":"uint64","internalType":"uint64"}]},{"type":"error","name":"OnlySelf","inputs":[]},{"type":"error","name":"WrongReceivedToken","inputs":[{"name":"usdcToken","type":"address","internalType":"address"},{"name":"receivedToken","type":"address","internalType":"address"}]},{"type":"error","name":"WrongSenderForSourceChain","inputs":[{"name":"sourceChainSelector","type":"uint64","internalType":"uint64"}]}],"bytecode":{"object":"0x60c060405234801561001057600080fd5b506040516121f43803806121f483398101604081905261002f916101f0565b33806000846001600160a01b038116610063576040516335fdcccd60e21b8152600060048201526024015b60405180910390fd5b6001600160a01b0390811660805282166100bf5760405162461bcd60e51b815260206004820152601860248201527f43616e6e6f7420736574206f776e657220746f207a65726f0000000000000000604482015260640161005a565b600080546001600160a01b0319166001600160a01b03848116919091179091558116156100ef576100ef8161012b565b5050506001600160a01b0381166101195760405163b83a5cf760e01b815260040160405180910390fd5b6001600160a01b031660a05250610223565b336001600160a01b038216036101835760405162461bcd60e51b815260206004820152601760248201527f43616e6e6f74207472616e7366657220746f2073656c66000000000000000000604482015260640161005a565b600180546001600160a01b0319166001600160a01b0383811691821790925560008054604051929316917fed8889f560326eb138920d842192f0eb3dd22b4f139c87a2c57538e05bae12789190a350565b80516001600160a01b03811681146101eb57600080fd5b919050565b6000806040838503121561020357600080fd5b61020c836101d4565b915061021a602084016101d4565b90509250929050565b60805160a051611f9761025d60003960008181610acc01528181610cc10152610d1c0152600081816101a001526105ce0152611f976000f3fe608060405234801561001057600080fd5b50600436106100cf5760003560e01c80638da5cb5b1161008c578063d0d1fc3d11610066578063d0d1fc3d146101d7578063e04f2a3a146101fa578063e62aa19f1461020d578063f2fde38b1461022057600080fd5b80638da5cb5b1461018d578063b0f479a11461019e578063cf6730f8146101c457600080fd5b806301ffc9a7146100d4578063369f7f66146100fc5780633b6efe141461011157806379ba50971461015257806385572ffb1461015a5780638d9d89fe1461016d575b600080fd5b6100e76100e236600461148b565b610233565b60405190151581526020015b60405180910390f35b61010f61010a3660046114ca565b61026a565b005b61013a61011f36600461151f565b6003602052600090815260409020546001600160a01b031681565b6040516001600160a01b0390911681526020016100f3565b61010f610519565b61010f61016836600461153c565b6105c3565b61018061017b366004611576565b610791565b6040516100f391906115ae565b6000546001600160a01b031661013a565b7f000000000000000000000000000000000000000000000000000000000000000061013a565b61010f6101d236600461153c565b6108b6565b6101ea6101e536600461161b565b6108e7565b6040516100f39493929190611684565b61010f6102083660046116be565b610a2a565b61010f61021b36600461151f565b610afb565b61010f61022e366004611709565b610ba0565b60006001600160e01b031982166385572ffb60e01b148061026457506001600160e01b031982166301ffc9a760e01b145b92915050565b610272610bb1565b600161027f600584610c06565b146102a5576040516305b73c1360e51b8152600481018390526024015b60405180910390fd5b6102b58260005b60059190610c19565b506000828152600460209081526040808320815160a0810183528154815260018201546001600160401b03169381019390935260028101805491928401916102fc90611726565b80601f016020809104026020016040519081016040528092919081815260200182805461032890611726565b80156103755780601f1061034a57610100808354040283529160200191610375565b820191906000526020600020905b81548152906001019060200180831161035857829003601f168201915b5050505050815260200160038201805461038e90611726565b80601f01602080910402602001604051908101604052809291908181526020018280546103ba90611726565b80156104075780601f106103dc57610100808354040283529160200191610407565b820191906000526020600020905b8154815290600101906020018083116103ea57829003601f168201915b5050505050815260200160048201805480602002602001604051908101604052809291908181526020016000905b8282101561047d576000848152602090819020604080518082019091526002850290910180546001600160a01b03168252600190810154828401529083529092019101610435565b505050508152505090506104e98282608001516000815181106104a2576104a2611760565b60200260200101516020015183608001516000815181106104c5576104c5611760565b6020026020010151600001516001600160a01b0316610c2e9092919063ffffffff16565b60405183907fef3bf8c64bc480286c4f3503b870ceb23e648d2d902e31fb7bb46680da6de8ad90600090a2505050565b6001546001600160a01b0316331461056c5760405162461bcd60e51b815260206004820152601660248201527526bab9ba10313290383937b837b9b2b21037bbb732b960511b604482015260640161029c565b60008054336001600160a01b0319808316821784556001805490911690556040516001600160a01b0390921692909183917f8be0079c531659141344cd1fd0a4f28419497f9722a3daafe3b4186f6b6457e091a350565b336001600160a01b037f0000000000000000000000000000000000000000000000000000000000000000161461060e576040516335fdcccd60e21b815233600482015260240161029c565b60036000610622604084016020850161151f565b6001600160401b0316815260208101919091526040908101600020546001600160a01b03169061065490830183611776565b8101906106619190611709565b6001600160a01b0316146106a45761067f604082016020830161151f565b604051631d56640b60e21b81526001600160401b03909116600482015260240161029c565b6040516319ece61f60e31b8152309063cf6730f8906106c790849060040161187d565b600060405180830381600087803b1580156106e157600080fd5b505af19250505080156106f2575060015b61078e573d808015610720576040519150601f19603f3d011682016040523d82523d6000602084013e610725565b606091505b50610732823560016102ac565b5081356000908152600460205260409020829061074f8282611b82565b50506040518235907f55bc02a9ef6f146737edeeb425738006f67f077e7138de3bf84a15bde1a5b56f90610784908490611c45565b60405180910390a2505b50565b6060600061079f6005610c96565b90506000816107ae8587611c58565b116107b957836107c3565b6107c38583611c6b565b90506000816001600160401b038111156107df576107df61194e565b60405190808252806020026020018201604052801561082457816020015b60408051808201909152600080825260208201528152602001906001900390816107fd5790505b50905060005b828110156108ac5760008061084a610842848b611c58565b600590610ca1565b91509150604051806040016040528083815260200182600181111561087157610871611598565b600181111561088257610882611598565b81525084848151811061089757610897611760565b6020908102919091010152505060010161082a565b5095945050505050565b3330146108d65760405163029a949d60e31b815260040160405180910390fd5b61078e6108e282611e13565b610cbf565b60046020526000908152604090208054600182015460028301805492936001600160401b039092169261091990611726565b80601f016020809104026020016040519081016040528092919081815260200182805461094590611726565b80156109925780601f1061096757610100808354040283529160200191610992565b820191906000526020600020905b81548152906001019060200180831161097557829003601f168201915b5050505050908060030180546109a790611726565b80601f01602080910402602001604051908101604052809291908181526020018280546109d390611726565b8015610a205780601f106109f557610100808354040283529160200191610a20565b820191906000526020600020905b815481529060010190602001808311610a0357829003601f168201915b5050505050905084565b610a32610bb1565b82806001600160401b0316600003610a5d57604051639284b19760e01b815260040160405180910390fd5b6001600160a01b038316610a8457604051630658a73f60e01b815260040160405180910390fd5b6001600160401b038416600090815260036020526040902080546001600160a01b038086166001600160a01b03199283161790925560028054858416921682179055610af5917f00000000000000000000000000000000000000000000000000000000000000001690600019610ef1565b50505050565b610b03610bb1565b80806001600160401b0316600003610b2e57604051639284b19760e01b815260040160405180910390fd5b6001600160401b0382166000908152600360205260409020546001600160a01b0316610b785760405163274893c960e01b81526001600160401b038316600482015260240161029c565b506001600160401b0316600090815260036020526040902080546001600160a01b0319169055565b610ba8610bb1565b61078e81611006565b6000546001600160a01b03163314610c045760405162461bcd60e51b815260206004820152601660248201527527b7363c9031b0b63630b1363290313c9037bbb732b960511b604482015260640161029c565b565b6000610c1283836110af565b9392505050565b6000610c2684848461111f565b949350505050565b6040516001600160a01b038316602482015260448101829052610c9190849063a9059cbb60e01b906064015b60408051601f198184030181529190526020810180516001600160e01b03166001600160e01b03199093169290921790915261113c565b505050565b60006102648261120e565b6000808080610cb08686611219565b909450925050505b9250929050565b7f00000000000000000000000000000000000000000000000000000000000000006001600160a01b03168160800151600081518110610d0057610d00611760565b6020026020010151600001516001600160a01b031614610d8a577f00000000000000000000000000000000000000000000000000000000000000008160800151600081518110610d5257610d52611760565b60209081029190910101515160405163db8c22ef60e01b81526001600160a01b0392831660048201529116602482015260440161029c565b600254606082015160405160009283926001600160a01b0390911691610db09190611ebf565b6000604051808303816000865af19150503d8060008114610ded576040519150601f19603f3d011682016040523d82523d6000602084013e610df2565b606091505b509150915081610e155760405163257bb36160e01b815260040160405180910390fd5b805115610e35576040516339c236dd60e11b815260040160405180910390fd5b8260400151806020019051810190610e4d9190611edb565b6001600160a01b031683602001516001600160401b031684600001517fefd22b16d02120210ec8687e3528d040d94b6509ca1a54ecc33b9e6790abfe2486606001518760800151600081518110610ea657610ea6611760565b6020026020010151600001518860800151600081518110610ec957610ec9611760565b602002602001015160200151604051610ee493929190611ef8565b60405180910390a4505050565b801580610f6b5750604051636eb1769f60e11b81523060048201526001600160a01b03838116602483015284169063dd62ed3e90604401602060405180830381865afa158015610f45573d6000803e3d6000fd5b505050506040513d601f19601f82011682018060405250810190610f699190611f26565b155b610fd65760405162461bcd60e51b815260206004820152603660248201527f5361666545524332303a20617070726f76652066726f6d206e6f6e2d7a65726f60448201527520746f206e6f6e2d7a65726f20616c6c6f77616e636560501b606482015260840161029c565b6040516001600160a01b038316602482015260448101829052610c9190849063095ea7b360e01b90606401610c5a565b336001600160a01b0382160361105e5760405162461bcd60e51b815260206004820152601760248201527f43616e6e6f74207472616e7366657220746f2073656c66000000000000000000604482015260640161029c565b600180546001600160a01b0319166001600160a01b0383811691821790925560008054604051929316917fed8889f560326eb138920d842192f0eb3dd22b4f139c87a2c57538e05bae12789190a350565b6000818152600283016020526040812054801515806110d357506110d38484611244565b610c125760405162461bcd60e51b815260206004820152601e60248201527f456e756d657261626c654d61703a206e6f6e6578697374656e74206b65790000604482015260640161029c565b60008281526002840160205260408120829055610c268484611250565b6000611191826040518060400160405280602081526020017f5361666545524332303a206c6f772d6c6576656c2063616c6c206661696c6564815250856001600160a01b031661125c9092919063ffffffff16565b805190915015610c9157808060200190518101906111af9190611f3f565b610c915760405162461bcd60e51b815260206004820152602a60248201527f5361666545524332303a204552433230206f7065726174696f6e20646964206e6044820152691bdd081cdd58d8d9595960b21b606482015260840161029c565b60006102648261126b565b600080806112278585611275565b600081815260029690960160205260409095205494959350505050565b6000610c128383611281565b6000610c128383611299565b6060610c2684846000856112e8565b6000610264825490565b6000610c1283836113c3565b60008181526001830160205260408120541515610c12565b60008181526001830160205260408120546112e057508154600181810184556000848152602080822090930184905584548482528286019093526040902091909155610264565b506000610264565b6060824710156113495760405162461bcd60e51b815260206004820152602660248201527f416464726573733a20696e73756666696369656e742062616c616e636520666f6044820152651c8818d85b1b60d21b606482015260840161029c565b600080866001600160a01b031685876040516113659190611ebf565b60006040518083038185875af1925050503d80600081146113a2576040519150601f19603f3d011682016040523d82523d6000602084013e6113a7565b606091505b50915091506113b8878383876113ed565b979650505050505050565b60008260000182815481106113da576113da611760565b9060005260206000200154905092915050565b6060831561145c578251600003611455576001600160a01b0385163b6114555760405162461bcd60e51b815260206004820152601d60248201527f416464726573733a2063616c6c20746f206e6f6e2d636f6e7472616374000000604482015260640161029c565b5081610c26565b610c2683838151156114715781518083602001fd5b8060405162461bcd60e51b815260040161029c9190611c45565b60006020828403121561149d57600080fd5b81356001600160e01b031981168114610c1257600080fd5b6001600160a01b038116811461078e57600080fd5b600080604083850312156114dd57600080fd5b8235915060208301356114ef816114b5565b809150509250929050565b6001600160401b038116811461078e57600080fd5b803561151a816114fa565b919050565b60006020828403121561153157600080fd5b8135610c12816114fa565b60006020828403121561154e57600080fd5b81356001600160401b0381111561156457600080fd5b820160a08185031215610c1257600080fd5b6000806040838503121561158957600080fd5b50508035926020909101359150565b634e487b7160e01b600052602160045260246000fd5b60208082528251828201819052600091906040908185019086840185805b8381101561160d57825180518652870151600281106115f957634e487b7160e01b83526021600452602483fd5b8588015293850193918601916001016115cc565b509298975050505050505050565b60006020828403121561162d57600080fd5b5035919050565b60005b8381101561164f578181015183820152602001611637565b50506000910152565b60008151808452611670816020860160208601611634565b601f01601f19169290920160200192915050565b8481526001600160401b03841660208201526080604082015260006116ac6080830185611658565b82810360608401526113b88185611658565b6000806000606084860312156116d357600080fd5b83356116de816114fa565b925060208401356116ee816114b5565b915060408401356116fe816114b5565b809150509250925092565b60006020828403121561171b57600080fd5b8135610c12816114b5565b600181811c9082168061173a57607f821691505b60208210810361175a57634e487b7160e01b600052602260045260246000fd5b50919050565b634e487b7160e01b600052603260045260246000fd5b6000808335601e1984360301811261178d57600080fd5b8301803591506001600160401b038211156117a757600080fd5b602001915036819003821315610cb857600080fd5b6000808335601e198436030181126117d357600080fd5b83016020810192503590506001600160401b038111156117f257600080fd5b803603821315610cb857600080fd5b81835281816020850137506000828201602090810191909152601f909101601f19169091010190565b8183526000602080850194508260005b8581101561187257813561184d816114b5565b6001600160a01b0316875281830135838801526040968701969091019060010161183a565b509495945050505050565b602081528135602082015260006020830135611898816114fa565b6001600160401b0380821660408501526118b560408601866117bc565b925060a060608601526118cc60c086018483611801565b9250506118dc60608601866117bc565b601f19808786030160808801526118f4858385611801565b945060808801359250601e1988360301831261190f57600080fd5b6020928801928301923591508382111561192857600080fd5b8160061b360383131561193a57600080fd5b8685030160a08701526113b884828461182a565b634e487b7160e01b600052604160045260246000fd5b601f821115610c91576000816000526020600020601f850160051c8101602086101561198d5750805b601f850160051c820191505b818110156119ac57828155600101611999565b505050505050565b6001600160401b038311156119cb576119cb61194e565b6119df836119d98354611726565b83611964565b6000601f841160018114611a1357600085156119fb5750838201355b600019600387901b1c1916600186901b178355611a6d565b600083815260209020601f19861690835b82811015611a445786850135825560209485019460019092019101611a24565b5086821015611a615760001960f88860031b161c19848701351681555b505060018560011b0183555b5050505050565b634e487b7160e01b600052601160045260246000fd5b8135611a95816114b5565b81546001600160a01b0319166001600160a01b03919091161781556020919091013560019190910155565b68010000000000000000831115611ad957611ad961194e565b805483825580841015611b4d5760016001600160ff1b038281168314611b0157611b01611a74565b8086168614611b1257611b12611a74565b5060008360005260206000208360011b81018760011b820191505b80821015611b48578282558284830155600282019150611b2d565b505050505b5060008181526020812083915b858110156119ac57611b6c8383611a8a565b6040929092019160029190910190600101611b5a565b81358155600181016020830135611b98816114fa565b6001600160401b038082166001600160401b0319845416178355611bbf6040860186611776565b93509150611bd18383600287016119b4565b611bde6060860186611776565b93509150611bf08383600387016119b4565b60808501359250601e19853603018312611c0957600080fd5b918401918235915080821115611c1e57600080fd5b506020820191508060061b3603821315611c3757600080fd5b610af5818360048601611ac0565b602081526000610c126020830184611658565b8082018082111561026457610264611a74565b8181038181111561026457610264611a74565b604080519081016001600160401b0381118282101715611ca057611ca061194e565b60405290565b60405160a081016001600160401b0381118282101715611ca057611ca061194e565b604051601f8201601f191681016001600160401b0381118282101715611cf057611cf061194e565b604052919050565b600082601f830112611d0957600080fd5b81356001600160401b03811115611d2257611d2261194e565b611d35601f8201601f1916602001611cc8565b818152846020838601011115611d4a57600080fd5b816020850160208301376000918101602001919091529392505050565b600082601f830112611d7857600080fd5b813560206001600160401b03821115611d9357611d9361194e565b611da1818360051b01611cc8565b82815260069290921b84018101918181019086841115611dc057600080fd5b8286015b84811015611e085760408189031215611ddd5760008081fd5b611de5611c7e565b8135611df0816114b5565b81528185013585820152835291830191604001611dc4565b509695505050505050565b600060a08236031215611e2557600080fd5b611e2d611ca6565b82358152611e3d6020840161150f565b602082015260408301356001600160401b0380821115611e5c57600080fd5b611e6836838701611cf8565b60408401526060850135915080821115611e8157600080fd5b611e8d36838701611cf8565b60608401526080850135915080821115611ea657600080fd5b50611eb336828601611d67565b60808301525092915050565b60008251611ed1818460208701611634565b9190910192915050565b600060208284031215611eed57600080fd5b8151610c12816114b5565b606081526000611f0b6060830186611658565b6001600160a01b039490941660208301525060400152919050565b600060208284031215611f3857600080fd5b5051919050565b600060208284031215611f5157600080fd5b81518015158114610c1257600080fdfea26469706673582212208769f6eae689d327cbed1417e01aa1d1a5d55807b0c7365b238b7f81d88222a564736f6c63430008190033","linkReferences":{}},"methodIdentifiers":{"acceptOwnership()":"79ba5097","ccipReceive((bytes32,uint64,bytes,bytes,(address,uint256)[]))":"85572ffb","deleteSenderForSourceChain(uint64)":"e62aa19f","getFailedMessages(uint256,uint256)":"8d9d89fe","getRouter()":"b0f479a1","owner()":"8da5cb5b","processMessage((bytes32,uint64,bytes,bytes,(address,uint256)[]))":"cf6730f8","retryFailedMessage(bytes32,address)":"369f7f66","s_messageContents(bytes32)":"d0d1fc3d","s_senders(uint64)":"3b6efe14","setSenderForSourceChain(uint64,address,address)":"e04f2a3a","supportsInterface(bytes4)":"01ffc9a7","transferOwnership(address)":"f2fde38b"},"id":40}