{"abi":[{"type":"constructor","inputs":[{"name":"_router","type":"address","internalType":"address"},{"name":"_usdcToken","type":"address","internalType":"address"}],"stateMutability":"nonpayable"},{"type":"function","name":"acceptOwnership","inputs":[],"outputs":[],"stateMutability":"nonpayable"},{"type":"function","name":"ccipReceive","inputs":[{"name":"any2EvmMessage","type":"tuple","internalType":"struct Client.Any2EVMMessage","components":[{"name":"messageId","type":"bytes32","internalType":"bytes32"},{"name":"sourceChainSelector","type":"uint64","internalType":"uint64"},{"name":"sender","type":"bytes","internalType":"bytes"},{"name":"data","type":"bytes","internalType":"bytes"},{"name":"destTokenAmounts","type":"tuple[]","internalType":"struct Client.EVMTokenAmount[]","components":[{"name":"token","type":"address","internalType":"address"},{"name":"amount","type":"uint256","internalType":"uint256"}]}]}],"outputs":[],"stateMutability":"nonpayable"},{"type":"function","name":"deleteSenderForSourceChain","inputs":[{"name":"_sourceChainSelector","type":"uint64","internalType":"uint64"}],"outputs":[],"stateMutability":"nonpayable"},{"type":"function","name":"getFailedMessages","inputs":[{"name":"offset","type":"uint256","internalType":"uint256"},{"name":"limit","type":"uint256","internalType":"uint256"}],"outputs":[{"name":"","type":"tuple[]","internalType":"struct Receiver.FailedMessage[]","components":[{"name":"messageId","type":"bytes32","internalType":"bytes32"},{"name":"errorCode","type":"uint8","internalType":"enum Receiver.ErrorCode"}]}],"stateMutability":"view"},{"type":"function","name":"getRouter","inputs":[],"outputs":[{"name":"","type":"address","internalType":"address"}],"stateMutability":"view"},{"type":"function","name":"owner","inputs":[],"outputs":[{"name":"","type":"address","internalType":"address"}],"stateMutability":"view"},{"type":"function","name":"processMessage","inputs":[{"name":"any2EvmMessage","type":"tuple","internalType":"struct Client.Any2EVMMessage","components":[{"name":"messageId","type":"bytes32","internalType":"bytes32"},{"name":"sourceChainSelector","type":"uint64","internalType":"uint64"},{"name":"sender","type":"bytes","internalType":"bytes"},{"name":"data","type":"bytes","internalType":"bytes"},{"name":"destTokenAmounts","type":"tuple[]","internalType":"struct Client.EVMTokenAmount[]","components":[{"name":"token","type":"address","internalType":"address"},{"name":"amount","type":"uint256","internalType":"uint256"}]}]}],"outputs":[],"stateMutability":"nonpayable"},{"type":"function","name":"retryFailedMessage","inputs":[{"name":"messageId","type":"bytes32","internalType":"bytes32"},{"name":"beneficiary","type":"address","internalType":"address"}],"outputs":[],"stateMutability":"nonpayable"},{"type":"function","name":"s_messageContents","inputs":[{"name":"","type":"bytes32","internalType":"bytes32"}],"outputs":[{"name":"messageId","type":"bytes32","internalType":"bytes32"},{"name":"sourceChainSelector","type":"uint64","internalType":"uint64"},{"name":"sender","type":"bytes","internalType":"bytes"},{"name":"data","type":"bytes","internalType":"bytes"}],"stateMutability":"view"},{"type":"function","name":"s_senders","inputs":[{"name":"","type":"uint64","internalType":"uint64"}],"outputs":[{"name":"","type":"address","internalType":"address"}],"stateMutability":"view"},{"type":"function","name":"setProjectContract","inputs":[{"name":"gofundme","type":"address","internalType":"address"}],"outputs":[],"stateMutability":"nonpayable"},{"type":"function","name":"setSenderForSourceChain","inputs":[{"name":"_sourceChainSelector","type":"uint64","internalType":"uint64"},{"name":"_sender","type":"address","internalType":"address"}],"outputs":[],"stateMutability":"nonpayable"},{"type":"function","name":"supportsInterface","inputs":[{"name":"interfaceId","type":"bytes4","internalType":"bytes4"}],"outputs":[{"name":"","type":"bool","internalType":"bool"}],"stateMutability":"pure"},{"type":"function","name":"transferOwnership","inputs":[{"name":"to","type":"address","internalType":"address"}],"outputs":[],"stateMutability":"nonpayable"},{"type":"event","name":"MessageFailed","inputs":[{"name":"messageId","type":"bytes32","indexed":true,"internalType":"bytes32"},{"name":"reason","type":"bytes","indexed":false,"internalType":"bytes"}],"anonymous":false},{"type":"event","name":"MessageReceived","inputs":[{"name":"messageId","type":"bytes32","indexed":true,"internalType":"bytes32"},{"name":"sourceChainSelector","type":"uint64","indexed":true,"internalType":"uint64"},{"name":"sender","type":"address","indexed":true,"internalType":"address"},{"name":"data","type":"bytes","indexed":false,"internalType":"bytes"},{"name":"token","type":"address","indexed":false,"internalType":"address"},{"name":"tokenAmount","type":"uint256","indexed":false,"internalType":"uint256"}],"anonymous":false},{"type":"event","name":"MessageRecovered","inputs":[{"name":"messageId","type":"bytes32","indexed":true,"internalType":"bytes32"}],"anonymous":false},{"type":"event","name":"OwnershipTransferRequested","inputs":[{"name":"from","type":"address","indexed":true,"internalType":"address"},{"name":"to","type":"address","indexed":true,"internalType":"address"}],"anonymous":false},{"type":"event","name":"OwnershipTransferred","inputs":[{"name":"from","type":"address","indexed":true,"internalType":"address"},{"name":"to","type":"address","indexed":true,"internalType":"address"}],"anonymous":false},{"type":"error","name":"CallToProjectFailed","inputs":[]},{"type":"error","name":"FailedToFundProject","inputs":[]},{"type":"error","name":"InvalidController","inputs":[]},{"type":"error","name":"InvalidRouter","inputs":[{"name":"router","type":"address","internalType":"address"}]},{"type":"error","name":"InvalidSenderAddress","inputs":[]},{"type":"error","name":"InvalidSourceChain","inputs":[]},{"type":"error","name":"InvalidUsdcToken","inputs":[]},{"type":"error","name":"MessageNotFailed","inputs":[{"name":"messageId","type":"bytes32","internalType":"bytes32"}]},{"type":"error","name":"NoProjectAddressFound","inputs":[]},{"type":"error","name":"NoReturnDataExpected","inputs":[]},{"type":"error","name":"NoSenderOnSourceChain","inputs":[{"name":"sourceChainSelector","type":"uint64","internalType":"uint64"}]},{"type":"error","name":"OnlySelf","inputs":[]},{"type":"error","name":"WrongReceivedToken","inputs":[{"name":"usdcToken","type":"address","internalType":"address"},{"name":"receivedToken","type":"address","internalType":"address"}]},{"type":"error","name":"WrongSenderForSourceChain","inputs":[{"name":"sourceChainSelector","type":"uint64","internalType":"uint64"}]}],"bytecode":{"object":"0x60c060405234801561001057600080fd5b5060405161221e38038061221e83398101604081905261002f916101f0565b33806000846001600160a01b038116610063576040516335fdcccd60e21b8152600060048201526024015b60405180910390fd5b6001600160a01b0390811660805282166100bf5760405162461bcd60e51b815260206004820152601860248201527f43616e6e6f7420736574206f776e657220746f207a65726f0000000000000000604482015260640161005a565b600080546001600160a01b0319166001600160a01b03848116919091179091558116156100ef576100ef8161012b565b5050506001600160a01b0381166101195760405163b83a5cf760e01b815260040160405180910390fd5b6001600160a01b031660a05250610223565b336001600160a01b038216036101835760405162461bcd60e51b815260206004820152601760248201527f43616e6e6f74207472616e7366657220746f2073656c66000000000000000000604482015260640161005a565b600180546001600160a01b0319166001600160a01b0383811691821790925560008054604051929316917fed8889f560326eb138920d842192f0eb3dd22b4f139c87a2c57538e05bae12789190a350565b80516001600160a01b03811681146101eb57600080fd5b919050565b6000806040838503121561020357600080fd5b61020c836101d4565b915061021a602084016101d4565b90509250929050565b60805160a051611fc161025d600039600081816102bd01528181610e170152610e720152600081816101ce015261064d0152611fc16000f3fe608060405234801561001057600080fd5b50600436106100ea5760003560e01c80638da5cb5b1161008c578063d0d1fc3d11610066578063d0d1fc3d14610205578063ded394a314610228578063e62aa19f1461023b578063f2fde38b1461024e57600080fd5b80638da5cb5b146101bb578063b0f479a1146101cc578063cf6730f8146101f257600080fd5b80633b6efe14116100c85780633b6efe141461013f57806379ba50971461018057806385572ffb146101885780638d9d89fe1461019b57600080fd5b806301ffc9a7146100ef57806304e393a414610117578063369f7f661461012c575b600080fd5b6101026100fd3660046114cc565b610261565b60405190151581526020015b60405180910390f35b61012a61012536600461150b565b610298565b005b61012a61013a366004611528565b6102e9565b61016861014d36600461157d565b6003602052600090815260409020546001600160a01b031681565b6040516001600160a01b03909116815260200161010e565b61012a610598565b61012a61019636600461159a565b610642565b6101ae6101a93660046115d4565b61080f565b60405161010e919061160c565b6000546001600160a01b0316610168565b7f0000000000000000000000000000000000000000000000000000000000000000610168565b61012a61020036600461159a565b610934565b610218610213366004611679565b610965565b60405161010e94939291906116e2565b61012a61023636600461171c565b610aa8565b61012a61024936600461157d565b610b3c565b61012a61025c36600461150b565b610be1565b60006001600160e01b031982166385572ffb60e01b148061029257506001600160e01b031982166301ffc9a760e01b145b92915050565b600280546001600160a01b0319166001600160a01b038381169182179092556102e6917f00000000000000000000000000000000000000000000000000000000000000001690600019610bf2565b50565b6102f1610d3f565b60016102fe600584610d94565b14610324576040516305b73c1360e51b8152600481018390526024015b60405180910390fd5b6103348260005b60059190610da7565b506000828152600460209081526040808320815160a0810183528154815260018201546001600160401b031693810193909352600281018054919284019161037b9061174a565b80601f01602080910402602001604051908101604052809291908181526020018280546103a79061174a565b80156103f45780601f106103c9576101008083540402835291602001916103f4565b820191906000526020600020905b8154815290600101906020018083116103d757829003601f168201915b5050505050815260200160038201805461040d9061174a565b80601f01602080910402602001604051908101604052809291908181526020018280546104399061174a565b80156104865780601f1061045b57610100808354040283529160200191610486565b820191906000526020600020905b81548152906001019060200180831161046957829003601f168201915b5050505050815260200160048201805480602002602001604051908101604052809291908181526020016000905b828210156104fc576000848152602090819020604080518082019091526002850290910180546001600160a01b031682526001908101548284015290835290920191016104b4565b5050505081525050905061056882826080015160008151811061052157610521611784565b602002602001015160200151836080015160008151811061054457610544611784565b6020026020010151600001516001600160a01b0316610dbc9092919063ffffffff16565b60405183907fef3bf8c64bc480286c4f3503b870ceb23e648d2d902e31fb7bb46680da6de8ad90600090a2505050565b6001546001600160a01b031633146105eb5760405162461bcd60e51b815260206004820152601660248201527526bab9ba10313290383937b837b9b2b21037bbb732b960511b604482015260640161031b565b60008054336001600160a01b0319808316821784556001805490911690556040516001600160a01b0390921692909183917f8be0079c531659141344cd1fd0a4f28419497f9722a3daafe3b4186f6b6457e091a350565b336001600160a01b037f0000000000000000000000000000000000000000000000000000000000000000161461068d576040516335fdcccd60e21b815233600482015260240161031b565b600360006106a1604084016020850161157d565b6001600160401b0316815260208101919091526040908101600020546001600160a01b0316906106d39083018361179a565b8101906106e0919061150b565b6001600160a01b031614610723576106fe604082016020830161157d565b604051631d56640b60e21b81526001600160401b03909116600482015260240161031b565b6040516319ece61f60e31b8152309063cf6730f8906107469084906004016118a1565b600060405180830381600087803b15801561076057600080fd5b505af1925050508015610771575060015b6102e6573d80801561079f576040519150601f19603f3d011682016040523d82523d6000602084013e6107a4565b606091505b506107b18235600161032b565b508135600090815260046020526040902082906107ce8282611ba6565b50506040518235907f55bc02a9ef6f146737edeeb425738006f67f077e7138de3bf84a15bde1a5b56f90610803908490611c6f565b60405180910390a25050565b6060600061081d6005610dec565b905060008161082c8587611c82565b116108375783610841565b6108418583611c95565b90506000816001600160401b0381111561085d5761085d611972565b6040519080825280602002602001820160405280156108a257816020015b604080518082019091526000808252602082015281526020019060019003908161087b5790505b50905060005b8281101561092a576000806108c86108c0848b611c82565b600590610df7565b9150915060405180604001604052808381526020018260018111156108ef576108ef6115f6565b6001811115610900576109006115f6565b81525084848151811061091557610915611784565b602090810291909101015250506001016108a8565b5095945050505050565b3330146109545760405163029a949d60e31b815260040160405180910390fd5b6102e661096082611e3d565b610e15565b60046020526000908152604090208054600182015460028301805492936001600160401b03909216926109979061174a565b80601f01602080910402602001604051908101604052809291908181526020018280546109c39061174a565b8015610a105780601f106109e557610100808354040283529160200191610a10565b820191906000526020600020905b8154815290600101906020018083116109f357829003601f168201915b505050505090806003018054610a259061174a565b80601f0160208091040260200160405190810160405280929190818152602001828054610a519061174a565b8015610a9e5780601f10610a7357610100808354040283529160200191610a9e565b820191906000526020600020905b815481529060010190602001808311610a8157829003601f168201915b5050505050905084565b610ab0610d3f565b81806001600160401b0316600003610adb57604051639284b19760e01b815260040160405180910390fd5b6001600160a01b038216610b0257604051630658a73f60e01b815260040160405180910390fd5b506001600160401b0391909116600090815260036020526040902080546001600160a01b0319166001600160a01b03909216919091179055565b610b44610d3f565b80806001600160401b0316600003610b6f57604051639284b19760e01b815260040160405180910390fd5b6001600160401b0382166000908152600360205260409020546001600160a01b0316610bb95760405163274893c960e01b81526001600160401b038316600482015260240161031b565b506001600160401b0316600090815260036020526040902080546001600160a01b0319169055565b610be9610d3f565b6102e681611047565b801580610c6c5750604051636eb1769f60e11b81523060048201526001600160a01b03838116602483015284169063dd62ed3e90604401602060405180830381865afa158015610c46573d6000803e3d6000fd5b505050506040513d601f19601f82011682018060405250810190610c6a9190611ee9565b155b610cd75760405162461bcd60e51b815260206004820152603660248201527f5361666545524332303a20617070726f76652066726f6d206e6f6e2d7a65726f60448201527520746f206e6f6e2d7a65726f20616c6c6f77616e636560501b606482015260840161031b565b6040516001600160a01b038316602482015260448101829052610d3a90849063095ea7b360e01b906064015b60408051601f198184030181529190526020810180516001600160e01b03166001600160e01b0319909316929092179091526110f0565b505050565b6000546001600160a01b03163314610d925760405162461bcd60e51b815260206004820152601660248201527527b7363c9031b0b63630b1363290313c9037bbb732b960511b604482015260640161031b565b565b6000610da083836111c2565b9392505050565b6000610db4848484611232565b949350505050565b6040516001600160a01b038316602482015260448101829052610d3a90849063a9059cbb60e01b90606401610d03565b60006102928261124f565b6000808080610e06868661125a565b909450925050505b9250929050565b7f00000000000000000000000000000000000000000000000000000000000000006001600160a01b03168160800151600081518110610e5657610e56611784565b6020026020010151600001516001600160a01b031614610ee0577f00000000000000000000000000000000000000000000000000000000000000008160800151600081518110610ea857610ea8611784565b60209081029190910101515160405163db8c22ef60e01b81526001600160a01b0392831660048201529116602482015260440161031b565b600254606082015160405160009283926001600160a01b0390911691610f069190611f02565b6000604051808303816000865af19150503d8060008114610f43576040519150601f19603f3d011682016040523d82523d6000602084013e610f48565b606091505b509150915081610f6b5760405163257bb36160e01b815260040160405180910390fd5b805115610f8b576040516339c236dd60e11b815260040160405180910390fd5b8260400151806020019051810190610fa39190611f1e565b6001600160a01b031683602001516001600160401b031684600001517fefd22b16d02120210ec8687e3528d040d94b6509ca1a54ecc33b9e6790abfe2486606001518760800151600081518110610ffc57610ffc611784565b602002602001015160000151886080015160008151811061101f5761101f611784565b60200260200101516020015160405161103a93929190611f3b565b60405180910390a4505050565b336001600160a01b0382160361109f5760405162461bcd60e51b815260206004820152601760248201527f43616e6e6f74207472616e7366657220746f2073656c66000000000000000000604482015260640161031b565b600180546001600160a01b0319166001600160a01b0383811691821790925560008054604051929316917fed8889f560326eb138920d842192f0eb3dd22b4f139c87a2c57538e05bae12789190a350565b6000611145826040518060400160405280602081526020017f5361666545524332303a206c6f772d6c6576656c2063616c6c206661696c6564815250856001600160a01b03166112859092919063ffffffff16565b805190915015610d3a57808060200190518101906111639190611f69565b610d3a5760405162461bcd60e51b815260206004820152602a60248201527f5361666545524332303a204552433230206f7065726174696f6e20646964206e6044820152691bdd081cdd58d8d9595960b21b606482015260840161031b565b6000818152600283016020526040812054801515806111e657506111e68484611294565b610da05760405162461bcd60e51b815260206004820152601e60248201527f456e756d657261626c654d61703a206e6f6e6578697374656e74206b65790000604482015260640161031b565b60008281526002840160205260408120829055610db484846112a0565b6000610292826112ac565b6000808061126885856112b6565b600081815260029690960160205260409095205494959350505050565b6060610db484846000856112c2565b6000610da0838361139d565b6000610da083836113b5565b6000610292825490565b6000610da08383611404565b6060824710156113235760405162461bcd60e51b815260206004820152602660248201527f416464726573733a20696e73756666696369656e742062616c616e636520666f6044820152651c8818d85b1b60d21b606482015260840161031b565b600080866001600160a01b0316858760405161133f9190611f02565b60006040518083038185875af1925050503d806000811461137c576040519150601f19603f3d011682016040523d82523d6000602084013e611381565b606091505b50915091506113928783838761142e565b979650505050505050565b60008181526001830160205260408120541515610da0565b60008181526001830160205260408120546113fc57508154600181810184556000848152602080822090930184905584548482528286019093526040902091909155610292565b506000610292565b600082600001828154811061141b5761141b611784565b9060005260206000200154905092915050565b6060831561149d578251600003611496576001600160a01b0385163b6114965760405162461bcd60e51b815260206004820152601d60248201527f416464726573733a2063616c6c20746f206e6f6e2d636f6e7472616374000000604482015260640161031b565b5081610db4565b610db483838151156114b25781518083602001fd5b8060405162461bcd60e51b815260040161031b9190611c6f565b6000602082840312156114de57600080fd5b81356001600160e01b031981168114610da057600080fd5b6001600160a01b03811681146102e657600080fd5b60006020828403121561151d57600080fd5b8135610da0816114f6565b6000806040838503121561153b57600080fd5b82359150602083013561154d816114f6565b809150509250929050565b6001600160401b03811681146102e657600080fd5b803561157881611558565b919050565b60006020828403121561158f57600080fd5b8135610da081611558565b6000602082840312156115ac57600080fd5b81356001600160401b038111156115c257600080fd5b820160a08185031215610da057600080fd5b600080604083850312156115e757600080fd5b50508035926020909101359150565b634e487b7160e01b600052602160045260246000fd5b60208082528251828201819052600091906040908185019086840185805b8381101561166b578251805186528701516002811061165757634e487b7160e01b83526021600452602483fd5b85880152938501939186019160010161162a565b509298975050505050505050565b60006020828403121561168b57600080fd5b5035919050565b60005b838110156116ad578181015183820152602001611695565b50506000910152565b600081518084526116ce816020860160208601611692565b601f01601f19169290920160200192915050565b8481526001600160401b038416602082015260806040820152600061170a60808301856116b6565b828103606084015261139281856116b6565b6000806040838503121561172f57600080fd5b823561173a81611558565b9150602083013561154d816114f6565b600181811c9082168061175e57607f821691505b60208210810361177e57634e487b7160e01b600052602260045260246000fd5b50919050565b634e487b7160e01b600052603260045260246000fd5b6000808335601e198436030181126117b157600080fd5b8301803591506001600160401b038211156117cb57600080fd5b602001915036819003821315610e0e57600080fd5b6000808335601e198436030181126117f757600080fd5b83016020810192503590506001600160401b0381111561181657600080fd5b803603821315610e0e57600080fd5b81835281816020850137506000828201602090810191909152601f909101601f19169091010190565b8183526000602080850194508260005b85811015611896578135611871816114f6565b6001600160a01b0316875281830135838801526040968701969091019060010161185e565b509495945050505050565b6020815281356020820152600060208301356118bc81611558565b6001600160401b0380821660408501526118d960408601866117e0565b925060a060608601526118f060c086018483611825565b92505061190060608601866117e0565b601f1980878603016080880152611918858385611825565b945060808801359250601e1988360301831261193357600080fd5b6020928801928301923591508382111561194c57600080fd5b8160061b360383131561195e57600080fd5b8685030160a087015261139284828461184e565b634e487b7160e01b600052604160045260246000fd5b601f821115610d3a576000816000526020600020601f850160051c810160208610156119b15750805b601f850160051c820191505b818110156119d0578281556001016119bd565b505050505050565b6001600160401b038311156119ef576119ef611972565b611a03836119fd835461174a565b83611988565b6000601f841160018114611a375760008515611a1f5750838201355b600019600387901b1c1916600186901b178355611a91565b600083815260209020601f19861690835b82811015611a685786850135825560209485019460019092019101611a48565b5086821015611a855760001960f88860031b161c19848701351681555b505060018560011b0183555b5050505050565b634e487b7160e01b600052601160045260246000fd5b8135611ab9816114f6565b81546001600160a01b0319166001600160a01b03919091161781556020919091013560019190910155565b68010000000000000000831115611afd57611afd611972565b805483825580841015611b715760016001600160ff1b038281168314611b2557611b25611a98565b8086168614611b3657611b36611a98565b5060008360005260206000208360011b81018760011b820191505b80821015611b6c578282558284830155600282019150611b51565b505050505b5060008181526020812083915b858110156119d057611b908383611aae565b6040929092019160029190910190600101611b7e565b81358155600181016020830135611bbc81611558565b6001600160401b038082166001600160401b0319845416178355611be3604086018661179a565b93509150611bf58383600287016119d8565b611c02606086018661179a565b93509150611c148383600387016119d8565b60808501359250601e19853603018312611c2d57600080fd5b918401918235915080821115611c4257600080fd5b506020820191508060061b3603821315611c5b57600080fd5b611c69818360048601611ae4565b50505050565b602081526000610da060208301846116b6565b8082018082111561029257610292611a98565b8181038181111561029257610292611a98565b604080519081016001600160401b0381118282101715611cca57611cca611972565b60405290565b60405160a081016001600160401b0381118282101715611cca57611cca611972565b604051601f8201601f191681016001600160401b0381118282101715611d1a57611d1a611972565b604052919050565b600082601f830112611d3357600080fd5b81356001600160401b03811115611d4c57611d4c611972565b611d5f601f8201601f1916602001611cf2565b818152846020838601011115611d7457600080fd5b816020850160208301376000918101602001919091529392505050565b600082601f830112611da257600080fd5b813560206001600160401b03821115611dbd57611dbd611972565b611dcb818360051b01611cf2565b82815260069290921b84018101918181019086841115611dea57600080fd5b8286015b84811015611e325760408189031215611e075760008081fd5b611e0f611ca8565b8135611e1a816114f6565b81528185013585820152835291830191604001611dee565b509695505050505050565b600060a08236031215611e4f57600080fd5b611e57611cd0565b82358152611e676020840161156d565b602082015260408301356001600160401b0380821115611e8657600080fd5b611e9236838701611d22565b60408401526060850135915080821115611eab57600080fd5b611eb736838701611d22565b60608401526080850135915080821115611ed057600080fd5b50611edd36828601611d91565b60808301525092915050565b600060208284031215611efb57600080fd5b5051919050565b60008251611f14818460208701611692565b9190910192915050565b600060208284031215611f3057600080fd5b8151610da0816114f6565b606081526000611f4e60608301866116b6565b6001600160a01b039490941660208301525060400152919050565b600060208284031215611f7b57600080fd5b81518015158114610da057600080fdfea2646970667358221220bb5401e77c8fef25b2db5ac08b0954576ff2ead31760cd6a7c0fa001e7487cf564736f6c63430008190033","linkReferences":{}},"methodIdentifiers":{"acceptOwnership()":"79ba5097","ccipReceive((bytes32,uint64,bytes,bytes,(address,uint256)[]))":"85572ffb","deleteSenderForSourceChain(uint64)":"e62aa19f","getFailedMessages(uint256,uint256)":"8d9d89fe","getRouter()":"b0f479a1","owner()":"8da5cb5b","processMessage((bytes32,uint64,bytes,bytes,(address,uint256)[]))":"cf6730f8","retryFailedMessage(bytes32,address)":"369f7f66","s_messageContents(bytes32)":"d0d1fc3d","s_senders(uint64)":"3b6efe14","setProjectContract(address)":"04e393a4","setSenderForSourceChain(uint64,address)":"ded394a3","supportsInterface(bytes4)":"01ffc9a7","transferOwnership(address)":"f2fde38b"},"id":45}