{"abi":[{"type":"constructor","inputs":[{"name":"_router","type":"address","internalType":"address"},{"name":"_usdcToken","type":"address","internalType":"address"},{"name":"_controller","type":"address","internalType":"address"}],"stateMutability":"nonpayable"},{"type":"function","name":"acceptOwnership","inputs":[],"outputs":[],"stateMutability":"nonpayable"},{"type":"function","name":"ccipReceive","inputs":[{"name":"any2EvmMessage","type":"tuple","internalType":"struct Client.Any2EVMMessage","components":[{"name":"messageId","type":"bytes32","internalType":"bytes32"},{"name":"sourceChainSelector","type":"uint64","internalType":"uint64"},{"name":"sender","type":"bytes","internalType":"bytes"},{"name":"data","type":"bytes","internalType":"bytes"},{"name":"destTokenAmounts","type":"tuple[]","internalType":"struct Client.EVMTokenAmount[]","components":[{"name":"token","type":"address","internalType":"address"},{"name":"amount","type":"uint256","internalType":"uint256"}]}]}],"outputs":[],"stateMutability":"nonpayable"},{"type":"function","name":"deleteSenderForSourceChain","inputs":[{"name":"_sourceChainSelector","type":"uint64","internalType":"uint64"}],"outputs":[],"stateMutability":"nonpayable"},{"type":"function","name":"getFailedMessages","inputs":[{"name":"offset","type":"uint256","internalType":"uint256"},{"name":"limit","type":"uint256","internalType":"uint256"}],"outputs":[{"name":"","type":"tuple[]","internalType":"struct Receiver.FailedMessage[]","components":[{"name":"messageId","type":"bytes32","internalType":"bytes32"},{"name":"errorCode","type":"uint8","internalType":"enum Receiver.ErrorCode"}]}],"stateMutability":"view"},{"type":"function","name":"getRouter","inputs":[],"outputs":[{"name":"","type":"address","internalType":"address"}],"stateMutability":"view"},{"type":"function","name":"owner","inputs":[],"outputs":[{"name":"","type":"address","internalType":"address"}],"stateMutability":"view"},{"type":"function","name":"processMessage","inputs":[{"name":"any2EvmMessage","type":"tuple","internalType":"struct Client.Any2EVMMessage","components":[{"name":"messageId","type":"bytes32","internalType":"bytes32"},{"name":"sourceChainSelector","type":"uint64","internalType":"uint64"},{"name":"sender","type":"bytes","internalType":"bytes"},{"name":"data","type":"bytes","internalType":"bytes"},{"name":"destTokenAmounts","type":"tuple[]","internalType":"struct Client.EVMTokenAmount[]","components":[{"name":"token","type":"address","internalType":"address"},{"name":"amount","type":"uint256","internalType":"uint256"}]}]}],"outputs":[],"stateMutability":"nonpayable"},{"type":"function","name":"retryFailedMessage","inputs":[{"name":"messageId","type":"bytes32","internalType":"bytes32"},{"name":"beneficiary","type":"address","internalType":"address"}],"outputs":[],"stateMutability":"nonpayable"},{"type":"function","name":"s_messageContents","inputs":[{"name":"","type":"bytes32","internalType":"bytes32"}],"outputs":[{"name":"messageId","type":"bytes32","internalType":"bytes32"},{"name":"sourceChainSelector","type":"uint64","internalType":"uint64"},{"name":"sender","type":"bytes","internalType":"bytes"},{"name":"data","type":"bytes","internalType":"bytes"}],"stateMutability":"view"},{"type":"function","name":"s_senders","inputs":[{"name":"","type":"uint64","internalType":"uint64"}],"outputs":[{"name":"","type":"address","internalType":"address"}],"stateMutability":"view"},{"type":"function","name":"setSenderForSourceChain","inputs":[{"name":"_sourceChainSelector","type":"uint64","internalType":"uint64"},{"name":"_sender","type":"address","internalType":"address"}],"outputs":[],"stateMutability":"nonpayable"},{"type":"function","name":"supportsInterface","inputs":[{"name":"interfaceId","type":"bytes4","internalType":"bytes4"}],"outputs":[{"name":"","type":"bool","internalType":"bool"}],"stateMutability":"pure"},{"type":"function","name":"transferOwnership","inputs":[{"name":"to","type":"address","internalType":"address"}],"outputs":[],"stateMutability":"nonpayable"},{"type":"event","name":"MessageFailed","inputs":[{"name":"messageId","type":"bytes32","indexed":true,"internalType":"bytes32"},{"name":"reason","type":"bytes","indexed":false,"internalType":"bytes"}],"anonymous":false},{"type":"event","name":"MessageReceived","inputs":[{"name":"messageId","type":"bytes32","indexed":true,"internalType":"bytes32"},{"name":"sourceChainSelector","type":"uint64","indexed":true,"internalType":"uint64"},{"name":"sender","type":"address","indexed":true,"internalType":"address"},{"name":"data","type":"bytes","indexed":false,"internalType":"bytes"},{"name":"token","type":"address","indexed":false,"internalType":"address"},{"name":"tokenAmount","type":"uint256","indexed":false,"internalType":"uint256"}],"anonymous":false},{"type":"event","name":"MessageRecovered","inputs":[{"name":"messageId","type":"bytes32","indexed":true,"internalType":"bytes32"}],"anonymous":false},{"type":"event","name":"OwnershipTransferRequested","inputs":[{"name":"from","type":"address","indexed":true,"internalType":"address"},{"name":"to","type":"address","indexed":true,"internalType":"address"}],"anonymous":false},{"type":"event","name":"OwnershipTransferred","inputs":[{"name":"from","type":"address","indexed":true,"internalType":"address"},{"name":"to","type":"address","indexed":true,"internalType":"address"}],"anonymous":false},{"type":"error","name":"CallToProjectFailed","inputs":[]},{"type":"error","name":"FailedToFundProject","inputs":[]},{"type":"error","name":"InvalidController","inputs":[]},{"type":"error","name":"InvalidRouter","inputs":[{"name":"router","type":"address","internalType":"address"}]},{"type":"error","name":"InvalidSenderAddress","inputs":[]},{"type":"error","name":"InvalidSourceChain","inputs":[]},{"type":"error","name":"InvalidUsdcToken","inputs":[]},{"type":"error","name":"MessageNotFailed","inputs":[{"name":"messageId","type":"bytes32","internalType":"bytes32"}]},{"type":"error","name":"NoProjectAddressFound","inputs":[]},{"type":"error","name":"NoReturnDataExpected","inputs":[]},{"type":"error","name":"NoSenderOnSourceChain","inputs":[{"name":"sourceChainSelector","type":"uint64","internalType":"uint64"}]},{"type":"error","name":"OnlySelf","inputs":[]},{"type":"error","name":"WrongReceivedToken","inputs":[{"name":"usdcToken","type":"address","internalType":"address"},{"name":"receivedToken","type":"address","internalType":"address"}]},{"type":"error","name":"WrongSenderForSourceChain","inputs":[{"name":"sourceChainSelector","type":"uint64","internalType":"uint64"}]}],"bytecode":{"object":"0x60e060405234801561001057600080fd5b506040516120ba3803806120ba83398101604081905261002f9161021d565b33806000856001600160a01b038116610063576040516335fdcccd60e21b8152600060048201526024015b60405180910390fd5b6001600160a01b0390811660805282166100bf5760405162461bcd60e51b815260206004820152601860248201527f43616e6e6f7420736574206f776e657220746f207a65726f0000000000000000604482015260640161005a565b600080546001600160a01b0319166001600160a01b03848116919091179091558116156100ef576100ef81610158565b5050506001600160a01b0382166101195760405163b83a5cf760e01b815260040160405180910390fd5b6001600160a01b038116610140576040516336abb4df60e11b815260040160405180910390fd5b6001600160a01b0390811660c0521660a05250610260565b336001600160a01b038216036101b05760405162461bcd60e51b815260206004820152601760248201527f43616e6e6f74207472616e7366657220746f2073656c66000000000000000000604482015260640161005a565b600180546001600160a01b0319166001600160a01b0383811691821790925560008054604051929316917fed8889f560326eb138920d842192f0eb3dd22b4f139c87a2c57538e05bae12789190a350565b80516001600160a01b038116811461021857600080fd5b919050565b60008060006060848603121561023257600080fd5b61023b84610201565b925061024960208501610201565b915061025760408501610201565b90509250925092565b60805160a05160c051611e1d61029d6000396000610d41015260008181610c730152610cce0152600081816101a001526105ce0152611e1d6000f3fe608060405234801561001057600080fd5b50600436106100cf5760003560e01c80638da5cb5b1161008c578063d0d1fc3d11610066578063d0d1fc3d146101d7578063ded394a3146101fa578063e62aa19f1461020d578063f2fde38b1461022057600080fd5b80638da5cb5b1461018d578063b0f479a11461019e578063cf6730f8146101c457600080fd5b806301ffc9a7146100d4578063369f7f66146100fc5780633b6efe141461011157806379ba50971461015257806385572ffb1461015a5780638d9d89fe1461016d575b600080fd5b6100e76100e2366004611341565b610233565b60405190151581526020015b60405180910390f35b61010f61010a366004611380565b61026a565b005b61013a61011f3660046113d5565b6002602052600090815260409020546001600160a01b031681565b6040516001600160a01b0390911681526020016100f3565b61010f610519565b61010f6101683660046113f2565b6105c3565b61018061017b36600461142c565b610791565b6040516100f39190611464565b6000546001600160a01b031661013a565b7f000000000000000000000000000000000000000000000000000000000000000061013a565b61010f6101d23660046113f2565b6108b6565b6101ea6101e53660046114d1565b6108e7565b6040516100f3949392919061153a565b61010f610208366004611574565b610a2a565b61010f61021b3660046113d5565b610abe565b61010f61022e3660046115a2565b610b63565b60006001600160e01b031982166385572ffb60e01b148061026457506001600160e01b031982166301ffc9a760e01b145b92915050565b610272610b74565b600161027f600484610bc9565b146102a5576040516305b73c1360e51b8152600481018390526024015b60405180910390fd5b6102b58260005b60049190610bdc565b506000828152600360209081526040808320815160a0810183528154815260018201546001600160401b03169381019390935260028101805491928401916102fc906115bf565b80601f0160208091040260200160405190810160405280929190818152602001828054610328906115bf565b80156103755780601f1061034a57610100808354040283529160200191610375565b820191906000526020600020905b81548152906001019060200180831161035857829003601f168201915b5050505050815260200160038201805461038e906115bf565b80601f01602080910402602001604051908101604052809291908181526020018280546103ba906115bf565b80156104075780601f106103dc57610100808354040283529160200191610407565b820191906000526020600020905b8154815290600101906020018083116103ea57829003601f168201915b5050505050815260200160048201805480602002602001604051908101604052809291908181526020016000905b8282101561047d576000848152602090819020604080518082019091526002850290910180546001600160a01b03168252600190810154828401529083529092019101610435565b505050508152505090506104e98282608001516000815181106104a2576104a26115f9565b60200260200101516020015183608001516000815181106104c5576104c56115f9565b6020026020010151600001516001600160a01b0316610bf19092919063ffffffff16565b60405183907fef3bf8c64bc480286c4f3503b870ceb23e648d2d902e31fb7bb46680da6de8ad90600090a2505050565b6001546001600160a01b0316331461056c5760405162461bcd60e51b815260206004820152601660248201527526bab9ba10313290383937b837b9b2b21037bbb732b960511b604482015260640161029c565b60008054336001600160a01b0319808316821784556001805490911690556040516001600160a01b0390921692909183917f8be0079c531659141344cd1fd0a4f28419497f9722a3daafe3b4186f6b6457e091a350565b336001600160a01b037f0000000000000000000000000000000000000000000000000000000000000000161461060e576040516335fdcccd60e21b815233600482015260240161029c565b6002600061062260408401602085016113d5565b6001600160401b0316815260208101919091526040908101600020546001600160a01b0316906106549083018361160f565b81019061066191906115a2565b6001600160a01b0316146106a45761067f60408201602083016113d5565b604051631d56640b60e21b81526001600160401b03909116600482015260240161029c565b6040516319ece61f60e31b8152309063cf6730f8906106c7908490600401611716565b600060405180830381600087803b1580156106e157600080fd5b505af19250505080156106f2575060015b61078e573d808015610720576040519150601f19603f3d011682016040523d82523d6000602084013e610725565b606091505b50610732823560016102ac565b5081356000908152600360205260409020829061074f8282611a1b565b50506040518235907f55bc02a9ef6f146737edeeb425738006f67f077e7138de3bf84a15bde1a5b56f90610784908490611ae4565b60405180910390a2505b50565b6060600061079f6004610c48565b90506000816107ae8587611af7565b116107b957836107c3565b6107c38583611b0a565b90506000816001600160401b038111156107df576107df6117e7565b60405190808252806020026020018201604052801561082457816020015b60408051808201909152600080825260208201528152602001906001900390816107fd5790505b50905060005b828110156108ac5760008061084a610842848b611af7565b600490610c53565b9150915060405180604001604052808381526020018260018111156108715761087161144e565b60018111156108825761088261144e565b815250848481518110610897576108976115f9565b6020908102919091010152505060010161082a565b5095945050505050565b3330146108d65760405163029a949d60e31b815260040160405180910390fd5b61078e6108e282611cb2565b610c71565b60036020526000908152604090208054600182015460028301805492936001600160401b0390921692610919906115bf565b80601f0160208091040260200160405190810160405280929190818152602001828054610945906115bf565b80156109925780601f1061096757610100808354040283529160200191610992565b820191906000526020600020905b81548152906001019060200180831161097557829003601f168201915b5050505050908060030180546109a7906115bf565b80601f01602080910402602001604051908101604052809291908181526020018280546109d3906115bf565b8015610a205780601f106109f557610100808354040283529160200191610a20565b820191906000526020600020905b815481529060010190602001808311610a0357829003601f168201915b5050505050905084565b610a32610b74565b81806001600160401b0316600003610a5d57604051639284b19760e01b815260040160405180910390fd5b6001600160a01b038216610a8457604051630658a73f60e01b815260040160405180910390fd5b506001600160401b0391909116600090815260026020526040902080546001600160a01b0319166001600160a01b03909216919091179055565b610ac6610b74565b80806001600160401b0316600003610af157604051639284b19760e01b815260040160405180910390fd5b6001600160401b0382166000908152600260205260409020546001600160a01b0316610b3b5760405163274893c960e01b81526001600160401b038316600482015260240161029c565b506001600160401b0316600090815260026020526040902080546001600160a01b0319169055565b610b6b610b74565b61078e81610ebc565b6000546001600160a01b03163314610bc75760405162461bcd60e51b815260206004820152601660248201527527b7363c9031b0b63630b1363290313c9037bbb732b960511b604482015260640161029c565b565b6000610bd58383610f65565b9392505050565b6000610be9848484610fd5565b949350505050565b604080516001600160a01b038416602482015260448082018490528251808303909101815260649091019091526020810180516001600160e01b031663a9059cbb60e01b179052610c43908490610ff2565b505050565b6000610264826110c4565b6000808080610c6286866110cf565b909450925050505b9250929050565b7f00000000000000000000000000000000000000000000000000000000000000006001600160a01b03168160800151600081518110610cb257610cb26115f9565b6020026020010151600001516001600160a01b031614610d3c577f00000000000000000000000000000000000000000000000000000000000000008160800151600081518110610d0457610d046115f9565b60209081029190910101515160405163db8c22ef60e01b81526001600160a01b0392831660048201529116602482015260440161029c565b6000807f00000000000000000000000000000000000000000000000000000000000000006001600160a01b03168360600151604051610d7b9190611d5e565b6000604051808303816000865af19150503d8060008114610db8576040519150601f19603f3d011682016040523d82523d6000602084013e610dbd565b606091505b509150915081610de05760405163257bb36160e01b815260040160405180910390fd5b805115610e00576040516339c236dd60e11b815260040160405180910390fd5b8260400151806020019051810190610e189190611d7a565b6001600160a01b031683602001516001600160401b031684600001517fefd22b16d02120210ec8687e3528d040d94b6509ca1a54ecc33b9e6790abfe2486606001518760800151600081518110610e7157610e716115f9565b6020026020010151600001518860800151600081518110610e9457610e946115f9565b602002602001015160200151604051610eaf93929190611d97565b60405180910390a4505050565b336001600160a01b03821603610f145760405162461bcd60e51b815260206004820152601760248201527f43616e6e6f74207472616e7366657220746f2073656c66000000000000000000604482015260640161029c565b600180546001600160a01b0319166001600160a01b0383811691821790925560008054604051929316917fed8889f560326eb138920d842192f0eb3dd22b4f139c87a2c57538e05bae12789190a350565b600081815260028301602052604081205480151580610f895750610f8984846110fa565b610bd55760405162461bcd60e51b815260206004820152601e60248201527f456e756d657261626c654d61703a206e6f6e6578697374656e74206b65790000604482015260640161029c565b60008281526002840160205260408120829055610be98484611106565b6000611047826040518060400160405280602081526020017f5361666545524332303a206c6f772d6c6576656c2063616c6c206661696c6564815250856001600160a01b03166111129092919063ffffffff16565b805190915015610c4357808060200190518101906110659190611dc5565b610c435760405162461bcd60e51b815260206004820152602a60248201527f5361666545524332303a204552433230206f7065726174696f6e20646964206e6044820152691bdd081cdd58d8d9595960b21b606482015260840161029c565b600061026482611121565b600080806110dd858561112b565b600081815260029690960160205260409095205494959350505050565b6000610bd58383611137565b6000610bd5838361114f565b6060610be9848460008561119e565b6000610264825490565b6000610bd58383611279565b60008181526001830160205260408120541515610bd5565b600081815260018301602052604081205461119657508154600181810184556000848152602080822090930184905584548482528286019093526040902091909155610264565b506000610264565b6060824710156111ff5760405162461bcd60e51b815260206004820152602660248201527f416464726573733a20696e73756666696369656e742062616c616e636520666f6044820152651c8818d85b1b60d21b606482015260840161029c565b600080866001600160a01b0316858760405161121b9190611d5e565b60006040518083038185875af1925050503d8060008114611258576040519150601f19603f3d011682016040523d82523d6000602084013e61125d565b606091505b509150915061126e878383876112a3565b979650505050505050565b6000826000018281548110611290576112906115f9565b9060005260206000200154905092915050565b6060831561131257825160000361130b576001600160a01b0385163b61130b5760405162461bcd60e51b815260206004820152601d60248201527f416464726573733a2063616c6c20746f206e6f6e2d636f6e7472616374000000604482015260640161029c565b5081610be9565b610be983838151156113275781518083602001fd5b8060405162461bcd60e51b815260040161029c9190611ae4565b60006020828403121561135357600080fd5b81356001600160e01b031981168114610bd557600080fd5b6001600160a01b038116811461078e57600080fd5b6000806040838503121561139357600080fd5b8235915060208301356113a58161136b565b809150509250929050565b6001600160401b038116811461078e57600080fd5b80356113d0816113b0565b919050565b6000602082840312156113e757600080fd5b8135610bd5816113b0565b60006020828403121561140457600080fd5b81356001600160401b0381111561141a57600080fd5b820160a08185031215610bd557600080fd5b6000806040838503121561143f57600080fd5b50508035926020909101359150565b634e487b7160e01b600052602160045260246000fd5b60208082528251828201819052600091906040908185019086840185805b838110156114c357825180518652870151600281106114af57634e487b7160e01b83526021600452602483fd5b858801529385019391860191600101611482565b509298975050505050505050565b6000602082840312156114e357600080fd5b5035919050565b60005b838110156115055781810151838201526020016114ed565b50506000910152565b600081518084526115268160208601602086016114ea565b601f01601f19169290920160200192915050565b8481526001600160401b0384166020820152608060408201526000611562608083018561150e565b828103606084015261126e818561150e565b6000806040838503121561158757600080fd5b8235611592816113b0565b915060208301356113a58161136b565b6000602082840312156115b457600080fd5b8135610bd58161136b565b600181811c908216806115d357607f821691505b6020821081036115f357634e487b7160e01b600052602260045260246000fd5b50919050565b634e487b7160e01b600052603260045260246000fd5b6000808335601e1984360301811261162657600080fd5b8301803591506001600160401b0382111561164057600080fd5b602001915036819003821315610c6a57600080fd5b6000808335601e1984360301811261166c57600080fd5b83016020810192503590506001600160401b0381111561168b57600080fd5b803603821315610c6a57600080fd5b81835281816020850137506000828201602090810191909152601f909101601f19169091010190565b8183526000602080850194508260005b8581101561170b5781356116e68161136b565b6001600160a01b031687528183013583880152604096870196909101906001016116d3565b509495945050505050565b602081528135602082015260006020830135611731816113b0565b6001600160401b03808216604085015261174e6040860186611655565b925060a0606086015261176560c08601848361169a565b9250506117756060860186611655565b601f198087860301608088015261178d85838561169a565b945060808801359250601e198836030183126117a857600080fd5b602092880192830192359150838211156117c157600080fd5b8160061b36038313156117d357600080fd5b8685030160a087015261126e8482846116c3565b634e487b7160e01b600052604160045260246000fd5b601f821115610c43576000816000526020600020601f850160051c810160208610156118265750805b601f850160051c820191505b8181101561184557828155600101611832565b505050505050565b6001600160401b03831115611864576118646117e7565b6118788361187283546115bf565b836117fd565b6000601f8411600181146118ac57600085156118945750838201355b600019600387901b1c1916600186901b178355611906565b600083815260209020601f19861690835b828110156118dd57868501358255602094850194600190920191016118bd565b50868210156118fa5760001960f88860031b161c19848701351681555b505060018560011b0183555b5050505050565b634e487b7160e01b600052601160045260246000fd5b813561192e8161136b565b81546001600160a01b0319166001600160a01b03919091161781556020919091013560019190910155565b68010000000000000000831115611972576119726117e7565b8054838255808410156119e65760016001600160ff1b03828116831461199a5761199a61190d565b80861686146119ab576119ab61190d565b5060008360005260206000208360011b81018760011b820191505b808210156119e15782825582848301556002820191506119c6565b505050505b5060008181526020812083915b8581101561184557611a058383611923565b60409290920191600291909101906001016119f3565b81358155600181016020830135611a31816113b0565b6001600160401b038082166001600160401b0319845416178355611a58604086018661160f565b93509150611a6a83836002870161184d565b611a77606086018661160f565b93509150611a8983836003870161184d565b60808501359250601e19853603018312611aa257600080fd5b918401918235915080821115611ab757600080fd5b506020820191508060061b3603821315611ad057600080fd5b611ade818360048601611959565b50505050565b602081526000610bd5602083018461150e565b808201808211156102645761026461190d565b818103818111156102645761026461190d565b604080519081016001600160401b0381118282101715611b3f57611b3f6117e7565b60405290565b60405160a081016001600160401b0381118282101715611b3f57611b3f6117e7565b604051601f8201601f191681016001600160401b0381118282101715611b8f57611b8f6117e7565b604052919050565b600082601f830112611ba857600080fd5b81356001600160401b03811115611bc157611bc16117e7565b611bd4601f8201601f1916602001611b67565b818152846020838601011115611be957600080fd5b816020850160208301376000918101602001919091529392505050565b600082601f830112611c1757600080fd5b813560206001600160401b03821115611c3257611c326117e7565b611c40818360051b01611b67565b82815260069290921b84018101918181019086841115611c5f57600080fd5b8286015b84811015611ca75760408189031215611c7c5760008081fd5b611c84611b1d565b8135611c8f8161136b565b81528185013585820152835291830191604001611c63565b509695505050505050565b600060a08236031215611cc457600080fd5b611ccc611b45565b82358152611cdc602084016113c5565b602082015260408301356001600160401b0380821115611cfb57600080fd5b611d0736838701611b97565b60408401526060850135915080821115611d2057600080fd5b611d2c36838701611b97565b60608401526080850135915080821115611d4557600080fd5b50611d5236828601611c06565b60808301525092915050565b60008251611d708184602087016114ea565b9190910192915050565b600060208284031215611d8c57600080fd5b8151610bd58161136b565b606081526000611daa606083018661150e565b6001600160a01b039490941660208301525060400152919050565b600060208284031215611dd757600080fd5b81518015158114610bd557600080fdfea2646970667358221220ac6c3d563e8973f3fff803a31db9944a1d342a4c058d1fed209500c50d3ea34364736f6c63430008190033","linkReferences":{}},"methodIdentifiers":{"acceptOwnership()":"79ba5097","ccipReceive((bytes32,uint64,bytes,bytes,(address,uint256)[]))":"85572ffb","deleteSenderForSourceChain(uint64)":"e62aa19f","getFailedMessages(uint256,uint256)":"8d9d89fe","getRouter()":"b0f479a1","owner()":"8da5cb5b","processMessage((bytes32,uint64,bytes,bytes,(address,uint256)[]))":"cf6730f8","retryFailedMessage(bytes32,address)":"369f7f66","s_messageContents(bytes32)":"d0d1fc3d","s_senders(uint64)":"3b6efe14","setSenderForSourceChain(uint64,address)":"ded394a3","supportsInterface(bytes4)":"01ffc9a7","transferOwnership(address)":"f2fde38b"},"id":46}