{"abi":[{"type":"function","name":"SELECTOR1","inputs":[],"outputs":[{"name":"","type":"uint256","internalType":"uint256"}],"stateMutability":"view"},{"type":"function","name":"SELECTOR2","inputs":[],"outputs":[{"name":"","type":"uint256","internalType":"uint256"}],"stateMutability":"view"},{"type":"function","name":"SELECTOR3","inputs":[],"outputs":[{"name":"","type":"uint256","internalType":"uint256"}],"stateMutability":"view"},{"type":"function","name":"SELECTOR4","inputs":[],"outputs":[{"name":"","type":"uint256","internalType":"uint256"}],"stateMutability":"view"},{"type":"function","name":"SELECTOR5","inputs":[],"outputs":[{"name":"","type":"uint256","internalType":"uint256"}],"stateMutability":"view"},{"type":"function","name":"SELECTOR6","inputs":[],"outputs":[{"name":"","type":"uint256","internalType":"uint256"}],"stateMutability":"view"},{"type":"function","name":"SELECTOR7","inputs":[],"outputs":[{"name":"","type":"uint256","internalType":"uint256"}],"stateMutability":"view"},{"type":"function","name":"getSelectors","inputs":[],"outputs":[{"name":"","type":"uint256[]","internalType":"uint256[]"}],"stateMutability":"pure"}],"bytecode":{"object":"0x6102fc610039600b82828239805160001a607314602c57634e487b7160e01b600052600060045260246000fd5b30600052607381538281f3fe73000000000000000000000000000000000000000030146080604052600436106100925760003560e01c8063aef34b1011610065578063aef34b10146100ec578063c0da6688146100fb578063cd65bfe91461010a578063d586f4fc1461011957600080fd5b80631e26cdd814610097578063402e3570146100b95780634b503f0b146100c85780637ad3fade146100dd575b600080fd5b6100a667304611b6affba76a81565b6040519081526020015b60405180910390f35b6100a667ccf0a31a221f3c9b81565b6100d0610128565b6040516100b0919061026c565b6100a667b8159170038f96fb81565b6100a6678f90b8876dee653881565b6100a667de41ba4fc9d91ad981565b6100a66748810ec3e431431f81565b6100a667e1f4423f1bf587cd81565b6040805160078082526101008201909252606091600091906020820160e08036833701905050905067ccf0a31a221f3c9b8160008151811061016c5761016c6102b0565b60200260200101818152505067b8159170038f96fb81600181518110610194576101946102b0565b60200260200101818152505067de41ba4fc9d91ad9816002815181106101bc576101bc6102b0565b60200260200101818152505067304611b6affba76a816003815181106101e4576101e46102b0565b602002602001018181525050678f90b8876dee65388160048151811061020c5761020c6102b0565b6020026020010181815250506748810ec3e431431f81600581518110610234576102346102b0565b60200260200101818152505067e1f4423f1bf587cd8160068151811061025c5761025c6102b0565b6020908102919091010152919050565b6020808252825182820181905260009190848201906040850190845b818110156102a457835183529284019291840191600101610288565b50909695505050505050565b634e487b7160e01b600052603260045260246000fdfea264697066735822122049f897bfa1ad8112286852f2ee10362dbe02598f0cd0a306b393bf568910e7a764736f6c63430008190033","linkReferences":{}},"methodIdentifiers":{"SELECTOR1()":"402e3570","SELECTOR2()":"7ad3fade","SELECTOR3()":"c0da6688","SELECTOR4()":"1e26cdd8","SELECTOR5()":"aef34b10","SELECTOR6()":"cd65bfe9","SELECTOR7()":"d586f4fc","getSelectors()":"4b503f0b"},"id":40}