{"abi":[{"type":"function","name":"ARBITRUM","inputs":[],"outputs":[{"name":"","type":"uint32","internalType":"uint32"}],"stateMutability":"view"},{"type":"function","name":"AVALANCHE","inputs":[],"outputs":[{"name":"","type":"uint32","internalType":"uint32"}],"stateMutability":"view"},{"type":"function","name":"BASE","inputs":[],"outputs":[{"name":"","type":"uint32","internalType":"uint32"}],"stateMutability":"view"},{"type":"function","name":"BSC","inputs":[],"outputs":[{"name":"","type":"uint8","internalType":"uint8"}],"stateMutability":"view"},{"type":"function","name":"ETHEREUM","inputs":[],"outputs":[{"name":"","type":"uint8","internalType":"uint8"}],"stateMutability":"view"},{"type":"function","name":"OPTIMISM","inputs":[],"outputs":[{"name":"","type":"uint8","internalType":"uint8"}],"stateMutability":"view"},{"type":"function","name":"POLYGON","inputs":[],"outputs":[{"name":"","type":"uint8","internalType":"uint8"}],"stateMutability":"view"}],"bytecode":{"object":"0x610118610039600b82828239805160001a607314602c57634e487b7160e01b600052600060045260246000fd5b30600052607381538281f3fe7300000000000000000000000000000000000000003014608060405260043610607e5760003560e01c8063b01dc0d511605f578063b01dc0d51460c4578063c8744dd81460cc578063ec342ad01460d3578063f7cdf47c1460db57600080fd5b80633c130daf14608357806348a237841460a157806379dd40f91460a8575b600080fd5b608a600a81565b60405160ff90911681526020015b60405180910390f35b608a603881565b60b061a86a81565b60405163ffffffff90911681526020016098565b60b061a4b181565b608a608981565b60b061210581565b608a60018156fea26469706673582212208edf43ddf3466c72faec4e326f1925ff7cce0a9313402be02ce9f09d016f1ff764736f6c63430008190033","linkReferences":{}},"methodIdentifiers":{"ARBITRUM()":"b01dc0d5","AVALANCHE()":"79dd40f9","BASE()":"ec342ad0","BSC()":"48a23784","ETHEREUM()":"f7cdf47c","OPTIMISM()":"3c130daf","POLYGON()":"c8744dd8"},"id":44}