{"abi":[{"type":"function","name":"SELECTOR1","inputs":[],"outputs":[{"name":"","type":"uint256","internalType":"uint256"}],"stateMutability":"view"},{"type":"function","name":"SELECTOR2","inputs":[],"outputs":[{"name":"","type":"uint256","internalType":"uint256"}],"stateMutability":"view"},{"type":"function","name":"SELECTOR3","inputs":[],"outputs":[{"name":"","type":"uint256","internalType":"uint256"}],"stateMutability":"view"},{"type":"function","name":"SELECTOR4","inputs":[],"outputs":[{"name":"","type":"uint256","internalType":"uint256"}],"stateMutability":"view"},{"type":"function","name":"SELECTOR5","inputs":[],"outputs":[{"name":"","type":"uint256","internalType":"uint256"}],"stateMutability":"view"},{"type":"function","name":"SELECTOR6","inputs":[],"outputs":[{"name":"","type":"uint256","internalType":"uint256"}],"stateMutability":"view"},{"type":"function","name":"getSelectors","inputs":[],"outputs":[{"name":"","type":"uint256[]","internalType":"uint256[]"}],"stateMutability":"pure"},{"type":"function","name":"verifyChainSelector","inputs":[{"name":"_selector","type":"uint256","internalType":"uint256"}],"outputs":[{"name":"","type":"bool","internalType":"bool"}],"stateMutability":"pure"}],"bytecode":{"object":"0x610356610039600b82828239805160001a607314602c57634e487b7160e01b600052600060045260246000fd5b30600052607381538281f3fe73000000000000000000000000000000000000000030146080604052600436106100925760003560e01c8063aba83d8611610065578063aba83d86146100ec578063aef34b101461010f578063c0da66881461011e578063cd65bfe91461012d57600080fd5b80631e26cdd814610097578063402e3570146100b95780634b503f0b146100c85780637ad3fade146100dd575b600080fd5b6100a6678f90b8876dee653881565b6040519081526020015b60405180910390f35b6100a667ccf0a31a221f3c9b81565b6100d061013c565b6040516100b091906102ad565b6100a667de41ba4fc9d91ad981565b6100ff6100fa3660046102f1565b610258565b60405190151581526020016100b0565b6100a66748810ec3e431431f81565b6100a667304611b6affba76a81565b6100a667e1f4423f1bf587cd81565b6040805160078082526101008201909252606091600091906020820160e08036833701905050905067ccf0a31a221f3c9b816000815181106101805761018061030a565b60200260200101818152505067de41ba4fc9d91ad9816001815181106101a8576101a861030a565b60200260200101818152505067304611b6affba76a816002815181106101d0576101d061030a565b602002602001018181525050678f90b8876dee6538816003815181106101f8576101f861030a565b6020026020010181815250506748810ec3e431431f816004815181106102205761022061030a565b60200260200101818152505067e1f4423f1bf587cd816005815181106102485761024861030a565b6020908102919091010152919050565b60008061026361013c565b905060005b81518110156102a357838282815181106102845761028461030a565b60200260200101510361029b575060019392505050565b600101610268565b5060009392505050565b6020808252825182820181905260009190848201906040850190845b818110156102e5578351835292840192918401916001016102c9565b50909695505050505050565b60006020828403121561030357600080fd5b5035919050565b634e487b7160e01b600052603260045260246000fdfea26469706673582212202c5d37c28c5f6f26ab812cb01e6e533a983b0a93147a1f6c97acf4c688f07fdb64736f6c63430008190033","linkReferences":{}},"methodIdentifiers":{"SELECTOR1()":"402e3570","SELECTOR2()":"7ad3fade","SELECTOR3()":"c0da6688","SELECTOR4()":"1e26cdd8","SELECTOR5()":"aef34b10","SELECTOR6()":"cd65bfe9","getSelectors()":"4b503f0b","verifyChainSelector(uint256)":"aba83d86"},"id":47}