{"abi":[{"type":"function","name":"SELECTOR1","inputs":[],"outputs":[{"name":"","type":"uint256","internalType":"uint256"}],"stateMutability":"view"},{"type":"function","name":"SELECTOR2","inputs":[],"outputs":[{"name":"","type":"uint256","internalType":"uint256"}],"stateMutability":"view"},{"type":"function","name":"SELECTOR3","inputs":[],"outputs":[{"name":"","type":"uint256","internalType":"uint256"}],"stateMutability":"view"},{"type":"function","name":"SELECTOR4","inputs":[],"outputs":[{"name":"","type":"uint256","internalType":"uint256"}],"stateMutability":"view"},{"type":"function","name":"SELECTOR5","inputs":[],"outputs":[{"name":"","type":"uint256","internalType":"uint256"}],"stateMutability":"view"},{"type":"function","name":"SELECTOR6","inputs":[],"outputs":[{"name":"","type":"uint256","internalType":"uint256"}],"stateMutability":"view"},{"type":"function","name":"SELECTOR7","inputs":[],"outputs":[{"name":"","type":"uint256","internalType":"uint256"}],"stateMutability":"view"},{"type":"function","name":"getSelectors","inputs":[],"outputs":[{"name":"","type":"uint256[]","internalType":"uint256[]"}],"stateMutability":"pure"},{"type":"function","name":"verifyChainSelector","inputs":[{"name":"_selector","type":"uint256","internalType":"uint256"}],"outputs":[{"name":"","type":"bool","internalType":"bool"}],"stateMutability":"pure"}],"bytecode":{"object":"0x610398610039600b82828239805160001a607314602c57634e487b7160e01b600052600060045260246000fd5b30600052607381538281f3fe730000000000000000000000000000000000000000301460806040526004361061009d5760003560e01c8063aba83d8611610070578063aba83d86146100f7578063aef34b101461011a578063c0da668814610129578063cd65bfe914610138578063d586f4fc1461014757600080fd5b80631e26cdd8146100a2578063402e3570146100c45780634b503f0b146100d35780637ad3fade146100e8575b600080fd5b6100b167304611b6affba76a81565b6040519081526020015b60405180910390f35b6100b167ccf0a31a221f3c9b81565b6100db610156565b6040516100bb91906102ef565b6100b167b8159170038f96fb81565b61010a610105366004610333565b61029a565b60405190151581526020016100bb565b6100b1678f90b8876dee653881565b6100b167de41ba4fc9d91ad981565b6100b16748810ec3e431431f81565b6100b167e1f4423f1bf587cd81565b6040805160078082526101008201909252606091600091906020820160e08036833701905050905067ccf0a31a221f3c9b8160008151811061019a5761019a61034c565b60200260200101818152505067b8159170038f96fb816001815181106101c2576101c261034c565b60200260200101818152505067de41ba4fc9d91ad9816002815181106101ea576101ea61034c565b60200260200101818152505067304611b6affba76a816003815181106102125761021261034c565b602002602001018181525050678f90b8876dee65388160048151811061023a5761023a61034c565b6020026020010181815250506748810ec3e431431f816005815181106102625761026261034c565b60200260200101818152505067e1f4423f1bf587cd8160068151811061028a5761028a61034c565b6020908102919091010152919050565b6000806102a5610156565b905060005b81518110156102e557838282815181106102c6576102c661034c565b6020026020010151036102dd575060019392505050565b6001016102aa565b5060009392505050565b6020808252825182820181905260009190848201906040850190845b818110156103275783518352928401929184019160010161030b565b50909695505050505050565b60006020828403121561034557600080fd5b5035919050565b634e487b7160e01b600052603260045260246000fdfea2646970667358221220ec042f974743ae3c4f8ad31d5c154ba1677919903ef5e9d0cef9e9c3a4ea5f0664736f6c63430008190033","linkReferences":{}},"methodIdentifiers":{"SELECTOR1()":"402e3570","SELECTOR2()":"7ad3fade","SELECTOR3()":"c0da6688","SELECTOR4()":"1e26cdd8","SELECTOR5()":"aef34b10","SELECTOR6()":"cd65bfe9","SELECTOR7()":"d586f4fc","getSelectors()":"4b503f0b","verifyChainSelector(uint256)":"aba83d86"},"id":23}