{"abi":[{"type":"function","name":"ARBITRUM","inputs":[],"outputs":[{"name":"","type":"address","internalType":"address"}],"stateMutability":"view"},{"type":"function","name":"AVALANCHE","inputs":[],"outputs":[{"name":"","type":"address","internalType":"address"}],"stateMutability":"view"},{"type":"function","name":"BASE","inputs":[],"outputs":[{"name":"","type":"address","internalType":"address"}],"stateMutability":"view"},{"type":"function","name":"ETHEREUM","inputs":[],"outputs":[{"name":"","type":"address","internalType":"address"}],"stateMutability":"view"},{"type":"function","name":"OPTIMISM","inputs":[],"outputs":[{"name":"","type":"address","internalType":"address"}],"stateMutability":"view"},{"type":"function","name":"POLYGON","inputs":[],"outputs":[{"name":"","type":"address","internalType":"address"}],"stateMutability":"view"}],"bytecode":{"object":"0x610165610039600b82828239805160001a607314602c57634e487b7160e01b600052600060045260246000fd5b30600052607381538281f3fe730000000000000000000000000000000000000000301460806040526004361061006c5760003560e01c80633c130daf1461007157806379dd40f9146100a8578063b01dc0d5146100c3578063c8744dd8146100de578063ec342ad0146100f9578063f7cdf47c14610114575b600080fd5b61008c733206695cae29952f4b0c22a169725a865bc8ce0f81565b6040516001600160a01b03909116815260200160405180910390f35b61008c73f4c7e640eda248ef95972845a62bdc74237805db81565b61008c73141fa059441e0ca23ce184b6a78bafd2a517dde881565b61008c73849c5ed5a80f5b408dd4969b78c2c8fdf0565bfe81565b61008c73881e3a65b4d4a04dd529061dd0071cf975f58bcd81565b61008c7380226fc0ee2b096224eeac085bb9a8cba1146f7d8156fea26469706673582212206ef77c9d3f18d4444c55e5a680a5379e784aab7b640e670fda4ad154fbd62d8a64736f6c63430008190033","linkReferences":{}},"methodIdentifiers":{"ARBITRUM()":"b01dc0d5","AVALANCHE()":"79dd40f9","BASE()":"ec342ad0","ETHEREUM()":"f7cdf47c","OPTIMISM()":"3c130daf","POLYGON()":"c8744dd8"},"id":44}