{"abi":[{"type":"function","name":"ARBITRUM","inputs":[],"outputs":[{"name":"","type":"address","internalType":"address"}],"stateMutability":"view"},{"type":"function","name":"AVALANCHE","inputs":[],"outputs":[{"name":"","type":"address","internalType":"address"}],"stateMutability":"view"},{"type":"function","name":"BASE","inputs":[],"outputs":[{"name":"","type":"address","internalType":"address"}],"stateMutability":"view"},{"type":"function","name":"ETHEREUM","inputs":[],"outputs":[{"name":"","type":"address","internalType":"address"}],"stateMutability":"view"},{"type":"function","name":"OPTIMISM","inputs":[],"outputs":[{"name":"","type":"address","internalType":"address"}],"stateMutability":"view"},{"type":"function","name":"POLYGON","inputs":[],"outputs":[{"name":"","type":"address","internalType":"address"}],"stateMutability":"view"}],"bytecode":{"object":"0x610165610039600b82828239805160001a607314602c57634e487b7160e01b600052600060045260246000fd5b30600052607381538281f3fe730000000000000000000000000000000000000000301460806040526004361061006c5760003560e01c80633c130daf1461007157806379dd40f9146100a8578063b01dc0d5146100c3578063c8744dd8146100de578063ec342ad0146100f9578063f7cdf47c14610114575b600080fd5b61008c730b2c639c533813f4aa9d7837caf62653d097ff8581565b6040516001600160a01b03909116815260200160405180910390f35b61008c73b97ef9ef8734c71904d8002f8b6bc66dd9c48a6e81565b61008c73af88d065e77c8cc2239327c5edb3a432268e583181565b61008c733c499c542cef5e3811e1192ce70d8cc03d5c335981565b61008c73833589fcd6edb6e08f4c7c32d4f71b54bda0291381565b61008c73a0b86991c6218b36c1d19d4a2e9eb0ce3606eb488156fea2646970667358221220ca7d03b7fb761eb572ffbab1d3c1653f72dbe7a0f09ae11b75c766c77aca4eda64736f6c63430008190033","linkReferences":{}},"methodIdentifiers":{"ARBITRUM()":"b01dc0d5","AVALANCHE()":"79dd40f9","BASE()":"ec342ad0","ETHEREUM()":"f7cdf47c","OPTIMISM()":"3c130daf","POLYGON()":"c8744dd8"},"id":44}