{"abi":[{"type":"constructor","inputs":[],"stateMutability":"nonpayable"},{"type":"function","name":"createNewProject","inputs":[{"name":"_goalInUsd","type":"uint256","internalType":"uint256"},{"name":"_projectName","type":"string","internalType":"string"},{"name":"_linkTokenAddress","type":"address","internalType":"address"}],"outputs":[],"stateMutability":"nonpayable"},{"type":"function","name":"getProject","inputs":[{"name":"_index","type":"uint256","internalType":"uint256"}],"outputs":[{"name":"","type":"address","internalType":"contract GoFundMe"}],"stateMutability":"view"},{"type":"function","name":"getProjectList","inputs":[],"outputs":[{"name":"","type":"address[]","internalType":"contract GoFundMe[]"}],"stateMutability":"view"},{"type":"function","name":"goFundMeProjects","inputs":[{"name":"","type":"uint256","internalType":"uint256"}],"outputs":[{"name":"","type":"address","internalType":"contract GoFundMe"}],"stateMutability":"view"}],"bytecode":{"object":"0x6080604052348015600f57600080fd5b50610ff28061001f6000396000f3fe608060405234801561001057600080fd5b506004361061004c5760003560e01c80635880ef34146100515780639f5c1e081461006f578063e31235c61461009a578063f0f3f2c8146100af575b600080fd5b6100596100c2565b6040516100669190610229565b60405180910390f35b61008261007d366004610276565b610124565b6040516001600160a01b039091168152602001610066565b6100ad6100a83660046102c1565b61014e565b005b6100826100bd366004610276565b6101ed565b6060600080548060200260200160405190810160405280929190818152602001828054801561011a57602002820191906000526020600020905b81546001600160a01b031681526001909101906020018083116100fc575b5050505050905090565b6000818154811061013457600080fd5b6000918252602090912001546001600160a01b0316905081565b600083838360405161015f9061021c565b61016b9392919061038c565b604051809103906000f080158015610187573d6000803e3d6000fd5b5060008054600180820183558280527f290decd9548b62a8d60345a988386fc84ba6bc95484008f6362f93160ef3e56390910180546001600160a01b0319166001600160a01b0385161790558054929350906101e2836103f6565b919050555050505050565b60008082815481106102015761020161041d565b6000918252602090912001546001600160a01b031692915050565b610b898061043483390190565b6020808252825182820181905260009190848201906040850190845b8181101561026a5783516001600160a01b031683529284019291840191600101610245565b50909695505050505050565b60006020828403121561028857600080fd5b5035919050565b634e487b7160e01b600052604160045260246000fd5b80356001600160a01b03811681146102bc57600080fd5b919050565b6000806000606084860312156102d657600080fd5b83359250602084013567ffffffffffffffff808211156102f557600080fd5b818601915086601f83011261030957600080fd5b81358181111561031b5761031b61028f565b604051601f8201601f19908116603f011681019083821181831017156103435761034361028f565b8160405282815289602084870101111561035c57600080fd5b826020860160208301376000602084830101528096505050505050610383604085016102a5565b90509250925092565b8381526000602060606020840152845180606085015260005b818110156103c1578681018301518582016080015282016103a5565b5060008482016080908101919091526001600160a01b03959095166040850152601f01601f1916909201909201949350505050565b60006001820161041657634e487b7160e01b600052601160045260246000fd5b5060010190565b634e487b7160e01b600052603260045260246000fdfe60a060405234801561001057600080fd5b50604051610b89380380610b8983398101604081905261002f916100a9565b33608052600283905560016100448382610218565b50600080546001600160a01b039092166001600160a01b0319928316811790915560058054909216179055506102d79050565b634e487b7160e01b600052604160045260246000fd5b80516001600160a01b03811681146100a457600080fd5b919050565b6000806000606084860312156100be57600080fd5b8351602080860151919450906001600160401b03808211156100df57600080fd5b818701915087601f8301126100f357600080fd5b81518181111561010557610105610077565b604051601f8201601f19908116603f0116810190838211818310171561012d5761012d610077565b816040528281528a8684870101111561014557600080fd5b600093505b82841015610167578484018601518185018701529285019261014a565b60008684830101528097505050505050506101846040850161008d565b90509250925092565b600181811c908216806101a157607f821691505b6020821081036101c157634e487b7160e01b600052602260045260246000fd5b50919050565b601f821115610213576000816000526020600020601f850160051c810160208610156101f05750805b601f850160051c820191505b8181101561020f578281556001016101fc565b5050505b505050565b81516001600160401b0381111561023157610231610077565b6102458161023f845461018d565b846101c7565b602080601f83116001811461027a57600084156102625750858301515b600019600386901b1c1916600185901b17855561020f565b600085815260208120601f198616915b828110156102a95788860151825594840194600190910190840161028a565b50858210156102c75787850151600019600388901b60f8161c191681555b5050505050600190811b01905550565b6080516108906102f960003960008181610237015261028401526108906000f3fe6080604052600436106100c15760003560e01c806377b53ece1161007f578063ca1d209d11610059578063ca1d209d146101f2578063d7b4750c14610205578063dba6335f14610225578063dc0d3dff1461025957600080fd5b806377b53ece1461019a5780639a33e300146101ba578063ad7a672f146101dc57600080fd5b806213c58a146100c657806306434322146100ef57806312b58349146101215780633ccfd60b146101365780633e413bee1461014d5780635c6b932b1461016d575b600080fd5b3480156100d257600080fd5b506100dc60025481565b6040519081526020015b60405180910390f35b3480156100fb57600080fd5b506005546001600160a01b03165b6040516001600160a01b0390911681526020016100e6565b34801561012d57600080fd5b506003546100dc565b34801561014257600080fd5b5061014b610279565b005b34801561015957600080fd5b50600054610109906001600160a01b031681565b34801561017957600080fd5b506100dc610188366004610729565b60066020526000908152604090205481565b3480156101a657600080fd5b50600554610109906001600160a01b031681565b3480156101c657600080fd5b506101cf610403565b6040516100e69190610759565b3480156101e857600080fd5b506100dc60035481565b61014b6102003660046107a8565b610491565b34801561021157600080fd5b506101096102203660046107a8565b610655565b34801561023157600080fd5b506101097f000000000000000000000000000000000000000000000000000000000000000081565b34801561026557600080fd5b506101096102743660046107a8565b610685565b336001600160a01b037f000000000000000000000000000000000000000000000000000000000000000016146102c2576040516330cd747160e01b815260040160405180910390fd5b600254600354101561030e5760405162461bcd60e51b815260206004820152601060248201526f11dbd85b081b9bdd081c995858da195960821b60448201526064015b60405180910390fd5b60005b60045481101561035b57600060048281548110610330576103306107c1565b60009182526020808320909101546001600160a01b0316825260069052604081205550600101610311565b506040805160008152602081019182905251610379916004916106af565b50604051600090339047908381818185875af1925050503d80600081146103bc576040519150601f19603f3d011682016040523d82523d6000602084013e6103c1565b606091505b50509050806104005760405162461bcd60e51b815260206004820152600b60248201526a10d85b1b0819985a5b195960aa1b6044820152606401610305565b50565b60018054610410906107d7565b80601f016020809104026020016040519081016040528092919081815260200182805461043c906107d7565b80156104895780601f1061045e57610100808354040283529160200191610489565b820191906000526020600020905b81548152906001019060200180831161046c57829003601f168201915b505050505081565b624c4b408110156104e45760405162461bcd60e51b815260206004820181905260248201527f796f75206e65656420746f2073656e64206d6f7265207468616e2035205553446044820152606401610305565b6000546040516323b872dd60e01b8152336004820152306024820152604481018390526001600160a01b03909116906323b872dd906064016020604051808303816000875af115801561053b573d6000803e3d6000fd5b505050506040513d601f19601f8201168201806040525081019061055f9190610811565b61059d5760405162461bcd60e51b815260206004820152600f60248201526e111bdb985d1a5bdb8819985a5b1959608a1b6044820152606401610305565b33600090815260066020526040812080548392906105bc908490610833565b9250508190555080600360008282546105d59190610833565b9091555050600480546001810182556000919091527f8a35acfbc15ff81a39ae7d344fd709f28e8600b4aa8c65c6b64bfe7fe36bd19b0180546001600160a01b031916339081179091556040518281527f54a5b8782470a0d2c022b3b9e5e729503ac5dbdfe053afeb4559f9297f7565a69060200160405180910390a250565b60006004828154811061066a5761066a6107c1565b6000918252602090912001546001600160a01b031692915050565b6004818154811061069557600080fd5b6000918252602090912001546001600160a01b0316905081565b828054828255906000526020600020908101928215610704579160200282015b8281111561070457825182546001600160a01b0319166001600160a01b039091161782556020909201916001909101906106cf565b50610710929150610714565b5090565b5b808211156107105760008155600101610715565b60006020828403121561073b57600080fd5b81356001600160a01b038116811461075257600080fd5b9392505050565b60006020808352835180602085015260005b818110156107875785810183015185820160400152820161076b565b506000604082860101526040601f19601f8301168501019250505092915050565b6000602082840312156107ba57600080fd5b5035919050565b634e487b7160e01b600052603260045260246000fd5b600181811c908216806107eb57607f821691505b60208210810361080b57634e487b7160e01b600052602260045260246000fd5b50919050565b60006020828403121561082357600080fd5b8151801515811461075257600080fd5b8082018082111561085457634e487b7160e01b600052601160045260246000fd5b9291505056fea26469706673582212209babaf800a5f85f81f679e8835b6eec4f23cda673551ab408b1c058b7090f96864736f6c63430008190033a2646970667358221220adee982abb62077e8e3c9ec108af2f2a172fcab2006389398db84904750d65b764736f6c63430008190033","linkReferences":{}},"methodIdentifiers":{"createNewProject(uint256,string,address)":"e31235c6","getProject(uint256)":"f0f3f2c8","getProjectList()":"5880ef34","goFundMeProjects(uint256)":"9f5c1e08"},"id":33}