{"abi":[{"type":"function","name":"createNewProject","inputs":[{"name":"_goalInUsd","type":"uint256","internalType":"uint256"},{"name":"_projectName","type":"string","internalType":"string"}],"outputs":[],"stateMutability":"nonpayable"},{"type":"function","name":"getProject","inputs":[{"name":"_index","type":"uint256","internalType":"uint256"}],"outputs":[{"name":"","type":"address","internalType":"contract GoFundMe"}],"stateMutability":"view"},{"type":"function","name":"getProjectList","inputs":[],"outputs":[{"name":"","type":"address[]","internalType":"contract GoFundMe[]"}],"stateMutability":"view"},{"type":"function","name":"goFundMeProjects","inputs":[{"name":"","type":"uint256","internalType":"uint256"}],"outputs":[{"name":"","type":"address","internalType":"contract GoFundMe"}],"stateMutability":"view"}],"bytecode":{"object":"0x6080604052348015600f57600080fd5b50612fdd8061001f6000396000f3fe608060405234801561001057600080fd5b506004361061004c5760003560e01c80631937a58c146100515780635880ef34146100665780639f5c1e0814610084578063f0f3f2c8146100af575b600080fd5b61006461005f3660046102af565b6100c2565b005b61006e6101d0565b60405161007b919061036a565b60405180910390f35b6100976100923660046103b7565b610232565b6040516001600160a01b03909116815260200161007b565b6100976100bd3660046103b7565b61025c565b60006040516100d09061028c565b604051809103906000f0801580156100ec573d6000803e3d6000fd5b50604051634e5a8fe560e01b81529091506001600160a01b03821690634e5a8fe59061011e90869086906004016103d0565b6020604051808303816000875af115801561013d573d6000803e3d6000fd5b505050506040513d601f19601f820116820180604052508101906101619190610427565b600080546001600160a01b03929092166001600160a01b0319928316811782556001805480820182559083527fb10e2d527612073b26eecdfd717e6a320cf44b4afac2b0732d9fcbe2b7fa0cf60180549093161790915560028054916101c683610457565b9190505550505050565b6060600180548060200260200160405190810160405280929190818152602001828054801561022857602002820191906000526020600020905b81546001600160a01b0316815260019091019060200180831161020a575b5050505050905090565b6001818154811061024257600080fd5b6000918252602090912001546001600160a01b0316905081565b6000600182815481106102715761027161047e565b6000918252602090912001546001600160a01b031692915050565b612b138061049583390190565b634e487b7160e01b600052604160045260246000fd5b600080604083850312156102c257600080fd5b82359150602083013567ffffffffffffffff808211156102e157600080fd5b818501915085601f8301126102f557600080fd5b81358181111561030757610307610299565b604051601f8201601f19908116603f0116810190838211818310171561032f5761032f610299565b8160405282815288602084870101111561034857600080fd5b8260208601602083013760006020848301015280955050505050509250929050565b6020808252825182820181905260009190848201906040850190845b818110156103ab5783516001600160a01b031683529284019291840191600101610386565b50909695505050505050565b6000602082840312156103c957600080fd5b5035919050565b8281526000602060406020840152835180604085015260005b81811015610405578581018301518582016060015282016103e9565b506000606082860101526060601f19601f830116850101925050509392505050565b60006020828403121561043957600080fd5b81516001600160a01b038116811461045057600080fd5b9392505050565b60006001820161047757634e487b7160e01b600052601160045260246000fd5b5060010190565b634e487b7160e01b600052603260045260246000fdfe6080604052600c805462ff00ff191662010001179055348015602057600080fd5b50612ae3806100306000396000f3fe608060405234801561001057600080fd5b50600436106100415760003560e01c80633b1379ef146100465780634e5a8fe514610063578063f8ccbf471461008e575b600080fd5b610050620f424081565b6040519081526020015b60405180910390f35b6100766100713660046102a7565b6100b1565b6040516001600160a01b03909116815260200161005a565b600c546100a19062010000900460ff1681565b604051901515815260200161005a565b6000806040516100c090610277565b604051809103906000f0801580156100dc573d6000803e3d6000fd5b5090507f885cb69240a935d632d79c317109709ecfa91a80626ff3989d68f67f5b1dd12d60001c6001600160a01b0316637fb5297f6040518163ffffffff1660e01b8152600401600060405180830381600087803b15801561013d57600080fd5b505af1158015610151573d6000803e3d6000fd5b505050506000816001600160a01b031663d7b657456040518163ffffffff1660e01b8152600401602060405180830381865afa158015610195573d6000803e3d6000fd5b505050506040513d601f19601f820116820180604052508101906101b99190610362565b905060008585836040516101cc90610284565b6101d893929190610392565b604051809103906000f0801580156101f4573d6000803e3d6000fd5b5090507f885cb69240a935d632d79c317109709ecfa91a80626ff3989d68f67f5b1dd12d60001c6001600160a01b03166376eadd366040518163ffffffff1660e01b8152600401600060405180830381600087803b15801561025557600080fd5b505af1158015610269573d6000803e3d6000fd5b509298975050505050505050565b61180a806103fd83390190565b610ea780611c0783390190565b634e487b7160e01b600052604160045260246000fd5b600080604083850312156102ba57600080fd5b82359150602083013567ffffffffffffffff808211156102d957600080fd5b818501915085601f8301126102ed57600080fd5b8135818111156102ff576102ff610291565b604051601f8201601f19908116603f0116810190838211818310171561032757610327610291565b8160405282815288602084870101111561034057600080fd5b8260208601602083013760006020848301015280955050505050509250929050565b60006020828403121561037457600080fd5b81516001600160a01b038116811461038b57600080fd5b9392505050565b8381526000602060606020840152845180606085015260005b818110156103c7578681018301518582016080015282016103ab565b5060008482016080908101919091526001600160a01b03959095166040850152601f01601f191690920190920194935050505056fe6080604052600c805462ff00ff19166201000117905534801561002157600080fd5b5062aa36a619460161008257604080516020808201835260009091528151908101909152731c7d4b196cb0c7b01d743fbc6116a902379c723881525b51600d80546001600160a01b0319166001600160a01b039092169190911790556101e4565b60001946016100bf5760408051602080820183526000909152815190810190915273a0b86991c6218b36c1d19d4a2e9eb0ce3606eb48815261005d565b61005d60408051602081019091526000815260006040516100df906101ac565b604051809103906000f0801580156100fb573d6000803e3d6000fd5b5090506001600160a01b0381166340c10f1973f39fd6e51aad88f6f4ce6ab8827279cfffb92266610130620f424060646101b9565b6040516001600160e01b031960e085901b1681526001600160a01b0390921660048301526024820152604401600060405180830381600087803b15801561017657600080fd5b505af115801561018a573d6000803e3d6000fd5b505060408051602081019091526001600160a01b039093168352509092915050565b6109c680610e4483390190565b80820281158282048414176101de57634e487b7160e01b600052601160045260246000fd5b92915050565b610c51806101f36000396000f3fe608060405234801561001057600080fd5b50600436106100575760003560e01c80632380f8531461005c57806344007e38146100a9578063d7b65745146100dd578063d8db218814610108578063f8ccbf4714610110575b600080fd5b60408051602080820183526000909152815190810190915273a0b86991c6218b36c1d19d4a2e9eb0ce3606eb4881525b60405190516001600160a01b031681526020015b60405180910390f35b604080516020808201835260009091528151908101909152731c7d4b196cb0c7b01d743fbc6116a902379c7238815261008c565b600d546100f0906001600160a01b031681565b6040516001600160a01b0390911681526020016100a0565b61008c610133565b600c546101239062010000900460ff1681565b60405190151581526020016100a0565b60408051602081019091526000815260006040516101509061021d565b604051809103906000f08015801561016c573d6000803e3d6000fd5b5090506001600160a01b0381166340c10f1973f39fd6e51aad88f6f4ce6ab8827279cfffb922666101a1620f4240606461022a565b6040516001600160e01b031960e085901b1681526001600160a01b0390921660048301526024820152604401600060405180830381600087803b1580156101e757600080fd5b505af11580156101fb573d6000803e3d6000fd5b505060408051602081019091526001600160a01b039093168352509092915050565b6109c68061025683390190565b808202811582820484141761024f57634e487b7160e01b600052601160045260246000fd5b9291505056fe608060405234801561001057600080fd5b506040518060400160405280600981526020016845524332304d6f636b60b81b815250604051806040016040528060048152602001634532304d60e01b815250816003908161005f9190610115565b50600461006c8282610115565b5050506101d4565b634e487b7160e01b600052604160045260246000fd5b600181811c9082168061009e57607f821691505b6020821081036100be57634e487b7160e01b600052602260045260246000fd5b50919050565b601f821115610110576000816000526020600020601f850160051c810160208610156100ed5750805b601f850160051c820191505b8181101561010c578281556001016100f9565b5050505b505050565b81516001600160401b0381111561012e5761012e610074565b6101428161013c845461008a565b846100c4565b602080601f831160018114610177576000841561015f5750858301515b600019600386901b1c1916600185901b17855561010c565b600085815260208120601f198616915b828110156101a657888601518255948401946001909101908401610187565b50858210156101c45787850151600019600388901b60f8161c191681555b5050505050600190811b01905550565b6107e3806101e36000396000f3fe608060405234801561001057600080fd5b50600436106100a95760003560e01c806340c10f191161007157806340c10f191461012357806370a082311461013857806395d89b41146101615780639dc29fac14610169578063a9059cbb1461017c578063dd62ed3e1461018f57600080fd5b806306fdde03146100ae578063095ea7b3146100cc57806318160ddd146100ef57806323b872dd14610101578063313ce56714610114575b600080fd5b6100b66101c8565b6040516100c3919061062c565b60405180910390f35b6100df6100da366004610697565b61025a565b60405190151581526020016100c3565b6002545b6040519081526020016100c3565b6100df61010f3660046106c1565b610274565b604051601281526020016100c3565b610136610131366004610697565b610298565b005b6100f36101463660046106fd565b6001600160a01b031660009081526020819052604090205490565b6100b66102a6565b610136610177366004610697565b6102b5565b6100df61018a366004610697565b6102bf565b6100f361019d36600461071f565b6001600160a01b03918216600090815260016020908152604080832093909416825291909152205490565b6060600380546101d790610752565b80601f016020809104026020016040519081016040528092919081815260200182805461020390610752565b80156102505780601f1061022557610100808354040283529160200191610250565b820191906000526020600020905b81548152906001019060200180831161023357829003601f168201915b5050505050905090565b6000336102688185856102cd565b60019150505b92915050565b6000336102828582856102df565b61028d858585610362565b506001949350505050565b6102a282826103c1565b5050565b6060600480546101d790610752565b6102a282826103f7565b600033610268818585610362565b6102da838383600161042d565b505050565b6001600160a01b03838116600090815260016020908152604080832093861683529290522054600019811461035c578181101561034d57604051637dc7a0d960e11b81526001600160a01b038416600482015260248101829052604481018390526064015b60405180910390fd5b61035c8484848403600061042d565b50505050565b6001600160a01b03831661038c57604051634b637e8f60e11b815260006004820152602401610344565b6001600160a01b0382166103b65760405163ec442f0560e01b815260006004820152602401610344565b6102da838383610502565b6001600160a01b0382166103eb5760405163ec442f0560e01b815260006004820152602401610344565b6102a260008383610502565b6001600160a01b03821661042157604051634b637e8f60e11b815260006004820152602401610344565b6102a282600083610502565b6001600160a01b0384166104575760405163e602df0560e01b815260006004820152602401610344565b6001600160a01b03831661048157604051634a1406b160e11b815260006004820152602401610344565b6001600160a01b038085166000908152600160209081526040808320938716835292905220829055801561035c57826001600160a01b0316846001600160a01b03167f8c5be1e5ebec7d5bd14f71427d1e84f3dd0314c0f7b2291e5b200ac8c7c3b925846040516104f491815260200190565b60405180910390a350505050565b6001600160a01b03831661052d578060026000828254610522919061078c565b9091555061059f9050565b6001600160a01b038316600090815260208190526040902054818110156105805760405163391434e360e21b81526001600160a01b03851660048201526024810182905260448101839052606401610344565b6001600160a01b03841660009081526020819052604090209082900390555b6001600160a01b0382166105bb576002805482900390556105da565b6001600160a01b03821660009081526020819052604090208054820190555b816001600160a01b0316836001600160a01b03167fddf252ad1be2c89b69c2b068fc378daa952ba7f163c4a11628f55a4df523b3ef8360405161061f91815260200190565b60405180910390a3505050565b60006020808352835180602085015260005b8181101561065a5785810183015185820160400152820161063e565b506000604082860101526040601f19601f8301168501019250505092915050565b80356001600160a01b038116811461069257600080fd5b919050565b600080604083850312156106aa57600080fd5b6106b38361067b565b946020939093013593505050565b6000806000606084860312156106d657600080fd5b6106df8461067b565b92506106ed6020850161067b565b9150604084013590509250925092565b60006020828403121561070f57600080fd5b6107188261067b565b9392505050565b6000806040838503121561073257600080fd5b61073b8361067b565b91506107496020840161067b565b90509250929050565b600181811c9082168061076657607f821691505b60208210810361078657634e487b7160e01b600052602260045260246000fd5b50919050565b8082018082111561026e57634e487b7160e01b600052601160045260246000fdfea2646970667358221220c5f1d73662f9e2700a1972c3930ca76f768ee01f640fa6cd71cd427f197efffa64736f6c63430008190033a2646970667358221220f7dd6764258fb0d83a8a7425200b25c0de55c45488067add2e586b8acbb39f4064736f6c63430008190033608060405234801561001057600080fd5b506040518060400160405280600981526020016845524332304d6f636b60b81b815250604051806040016040528060048152602001634532304d60e01b815250816003908161005f9190610115565b50600461006c8282610115565b5050506101d4565b634e487b7160e01b600052604160045260246000fd5b600181811c9082168061009e57607f821691505b6020821081036100be57634e487b7160e01b600052602260045260246000fd5b50919050565b601f821115610110576000816000526020600020601f850160051c810160208610156100ed5750805b601f850160051c820191505b8181101561010c578281556001016100f9565b5050505b505050565b81516001600160401b0381111561012e5761012e610074565b6101428161013c845461008a565b846100c4565b602080601f831160018114610177576000841561015f5750858301515b600019600386901b1c1916600185901b17855561010c565b600085815260208120601f198616915b828110156101a657888601518255948401946001909101908401610187565b50858210156101c45787850151600019600388901b60f8161c191681555b5050505050600190811b01905550565b6107e3806101e36000396000f3fe608060405234801561001057600080fd5b50600436106100a95760003560e01c806340c10f191161007157806340c10f191461012357806370a082311461013857806395d89b41146101615780639dc29fac14610169578063a9059cbb1461017c578063dd62ed3e1461018f57600080fd5b806306fdde03146100ae578063095ea7b3146100cc57806318160ddd146100ef57806323b872dd14610101578063313ce56714610114575b600080fd5b6100b66101c8565b6040516100c3919061062c565b60405180910390f35b6100df6100da366004610697565b61025a565b60405190151581526020016100c3565b6002545b6040519081526020016100c3565b6100df61010f3660046106c1565b610274565b604051601281526020016100c3565b610136610131366004610697565b610298565b005b6100f36101463660046106fd565b6001600160a01b031660009081526020819052604090205490565b6100b66102a6565b610136610177366004610697565b6102b5565b6100df61018a366004610697565b6102bf565b6100f361019d36600461071f565b6001600160a01b03918216600090815260016020908152604080832093909416825291909152205490565b6060600380546101d790610752565b80601f016020809104026020016040519081016040528092919081815260200182805461020390610752565b80156102505780601f1061022557610100808354040283529160200191610250565b820191906000526020600020905b81548152906001019060200180831161023357829003601f168201915b5050505050905090565b6000336102688185856102cd565b60019150505b92915050565b6000336102828582856102df565b61028d858585610362565b506001949350505050565b6102a282826103c1565b5050565b6060600480546101d790610752565b6102a282826103f7565b600033610268818585610362565b6102da838383600161042d565b505050565b6001600160a01b03838116600090815260016020908152604080832093861683529290522054600019811461035c578181101561034d57604051637dc7a0d960e11b81526001600160a01b038416600482015260248101829052604481018390526064015b60405180910390fd5b61035c8484848403600061042d565b50505050565b6001600160a01b03831661038c57604051634b637e8f60e11b815260006004820152602401610344565b6001600160a01b0382166103b65760405163ec442f0560e01b815260006004820152602401610344565b6102da838383610502565b6001600160a01b0382166103eb5760405163ec442f0560e01b815260006004820152602401610344565b6102a260008383610502565b6001600160a01b03821661042157604051634b637e8f60e11b815260006004820152602401610344565b6102a282600083610502565b6001600160a01b0384166104575760405163e602df0560e01b815260006004820152602401610344565b6001600160a01b03831661048157604051634a1406b160e11b815260006004820152602401610344565b6001600160a01b038085166000908152600160209081526040808320938716835292905220829055801561035c57826001600160a01b0316846001600160a01b03167f8c5be1e5ebec7d5bd14f71427d1e84f3dd0314c0f7b2291e5b200ac8c7c3b925846040516104f491815260200190565b60405180910390a350505050565b6001600160a01b03831661052d578060026000828254610522919061078c565b9091555061059f9050565b6001600160a01b038316600090815260208190526040902054818110156105805760405163391434e360e21b81526001600160a01b03851660048201526024810182905260448101839052606401610344565b6001600160a01b03841660009081526020819052604090209082900390555b6001600160a01b0382166105bb576002805482900390556105da565b6001600160a01b03821660009081526020819052604090208054820190555b816001600160a01b0316836001600160a01b03167fddf252ad1be2c89b69c2b068fc378daa952ba7f163c4a11628f55a4df523b3ef8360405161061f91815260200190565b60405180910390a3505050565b60006020808352835180602085015260005b8181101561065a5785810183015185820160400152820161063e565b506000604082860101526040601f19601f8301168501019250505092915050565b80356001600160a01b038116811461069257600080fd5b919050565b600080604083850312156106aa57600080fd5b6106b38361067b565b946020939093013593505050565b6000806000606084860312156106d657600080fd5b6106df8461067b565b92506106ed6020850161067b565b9150604084013590509250925092565b60006020828403121561070f57600080fd5b6107188261067b565b9392505050565b6000806040838503121561073257600080fd5b61073b8361067b565b91506107496020840161067b565b90509250929050565b600181811c9082168061076657607f821691505b60208210810361078657634e487b7160e01b600052602260045260246000fd5b50919050565b8082018082111561026e57634e487b7160e01b600052601160045260246000fdfea2646970667358221220c5f1d73662f9e2700a1972c3930ca76f768ee01f640fa6cd71cd427f197efffa64736f6c6343000819003360a0604052600c805462ff00ff19166201000117905534801561002157600080fd5b50604051610ea7380380610ea7833981016040819052610040916100d6565b33608052610051620f4240846101ba565b600e55600d6100608382610270565b50600c80546301000000600160b81b03191663010000006001600160a01b0393909316928302179055601180546001600160a01b03191690911790555061032f9050565b634e487b7160e01b600052604160045260246000fd5b80516001600160a01b03811681146100d157600080fd5b919050565b6000806000606084860312156100eb57600080fd5b8351602080860151919450906001600160401b038082111561010c57600080fd5b818701915087601f83011261012057600080fd5b815181811115610132576101326100a4565b604051601f8201601f19908116603f0116810190838211818310171561015a5761015a6100a4565b816040528281528a8684870101111561017257600080fd5b600093505b828410156101945784840186015181850187015292850192610177565b60008684830101528097505050505050506101b1604085016100ba565b90509250925092565b80820281158282048414176101df57634e487b7160e01b600052601160045260246000fd5b92915050565b600181811c908216806101f957607f821691505b60208210810361021957634e487b7160e01b600052602260045260246000fd5b50919050565b601f82111561026b576000816000526020600020601f850160051c810160208610156102485750805b601f850160051c820191505b8181101561026757828155600101610254565b5050505b505050565b81516001600160401b03811115610289576102896100a4565b61029d8161029784546101e5565b8461021f565b602080601f8311600181146102d257600084156102ba5750858301515b600019600386901b1c1916600185901b178555610267565b600085815260208120601f198616915b82811015610301578886015182559484019460019091019084016102e2565b508582101561031f5787850151600019600388901b60f8161c191681555b5050505050600190811b01905550565b608051610b41610366600039600081816101cc015281816102390152818161032f0152818161044701526104dd0152610b416000f3fe608060405234801561001057600080fd5b50600436106101155760003560e01c8063893d20e8116100a2578063d7b4750c11610071578063d7b4750c14610221578063dba6335f14610234578063dc0d3dff1461025b578063f74237f61461026e578063f8ccbf471461028157600080fd5b8063893d20e8146101ca5780639a33e300146101f0578063ad7a672f14610205578063ca1d209d1461020e57600080fd5b80633ccfd60b116100e95780633ccfd60b1461016b5780633e413bee146101755780635c6b932b1461018f57806377b53ece146101af57806381158fe3146101c257600080fd5b806213c58a1461011a578063064343221461013657806312b583491461015b57806329f5633f14610163575b600080fd5b610123600e5481565b6040519081526020015b60405180910390f35b6011546001600160a01b03165b6040516001600160a01b03909116815260200161012d565b600f54610123565b6101236102a4565b610173610324565b005b600c5461014390630100000090046001600160a01b031681565b61012361019d3660046109a2565b60126020526000908152604090205481565b601154610143906001600160a01b031681565b610123610536565b7f0000000000000000000000000000000000000000000000000000000000000000610143565b6101f861056e565b60405161012d91906109d2565b610123600f5481565b61017361021c366004610a21565b6105fc565b61014361022f366004610a21565b610785565b6101437f000000000000000000000000000000000000000000000000000000000000000081565b610143610269366004610a21565b6107b5565b61017361027c366004610a21565b6107df565b600c546102949062010000900460ff1681565b604051901515815260200161012d565b600c54604051636eb1769f60e11b8152336004820152306024820152600091630100000090046001600160a01b03169063dd62ed3e906044015b602060405180830381865afa1580156102fb573d6000803e3d6000fd5b505050506040513d601f19601f8201168201806040525081019061031f9190610a3a565b905090565b336001600160a01b037f0000000000000000000000000000000000000000000000000000000000000000161461036d576040516330cd747160e01b815260040160405180910390fd5b600e54600f5410156103b95760405162461bcd60e51b815260206004820152601060248201526f11dbd85b081b9bdd081c995858da195960821b60448201526064015b60405180910390fd5b600c546040516370a0823160e01b8152306004820152600091630100000090046001600160a01b0316906370a0823190602401602060405180830381865afa158015610409573d6000803e3d6000fd5b505050506040513d601f19601f8201168201806040525081019061042d9190610a3a565b600c5460405163a9059cbb60e01b81526001600160a01b037f0000000000000000000000000000000000000000000000000000000000000000811660048301526024820184905292935063010000009091049091169063a9059cbb906044016020604051808303816000875af11580156104ab573d6000803e3d6000fd5b505050506040513d601f19601f820116820180604052508101906104cf9190610a53565b506000600f556040518181527f00000000000000000000000000000000000000000000000000000000000000006001600160a01b0316907feaff4b37086828766ad3268786972c0cd24259d4c87a80f9d3963a3c3d999b0d9060200160405180910390a250565b600c546040516370a0823160e01b8152336004820152600091630100000090046001600160a01b0316906370a08231906024016102de565b600d805461057b90610a75565b80601f01602080910402602001604051908101604052809291908181526020018280546105a790610a75565b80156105f45780601f106105c9576101008083540402835291602001916105f4565b820191906000526020600020905b8154815290600101906020018083116105d757829003601f168201915b505050505081565b600061060b620f424083610ac5565b600c546040516323b872dd60e01b815233600482015230602482015260448101839052919250630100000090046001600160a01b0316906323b872dd906064016020604051808303816000875af115801561066a573d6000803e3d6000fd5b505050506040513d601f19601f8201168201806040525081019061068e9190610a53565b6106cc5760405162461bcd60e51b815260206004820152600f60248201526e151c985b9cd9995c8819985a5b1959608a1b60448201526064016103b0565b33600090815260126020526040812080548392906106eb908490610ae2565b9250508190555080600f60008282546107049190610ae2565b9091555050601080546001810182556000919091527f1b6847dc741a1b0cd08d278845f9d819d87b734759afb55fe2de5cb82a9ae6720180546001600160a01b031916339081179091556040518281527f54a5b8782470a0d2c022b3b9e5e729503ac5dbdfe053afeb4559f9297f7565a69060200160405180910390a25050565b60006010828154811061079a5761079a610af5565b6000918252602090912001546001600160a01b031692915050565b601081815481106107c557600080fd5b6000918252602090912001546001600160a01b0316905081565b6107ec620f424082610ac5565b600c546040516370a0823160e01b815233600482015263010000009091046001600160a01b0316906370a0823190602401602060405180830381865afa15801561083a573d6000803e3d6000fd5b505050506040513d601f19601f8201168201806040525081019061085e9190610a3a565b101561087d57604051631036b5ad60e31b815260040160405180910390fd5b61088a620f424082610ac5565b600c54604051636eb1769f60e11b815233600482015230602482015263010000009091046001600160a01b03169063dd62ed3e90604401602060405180830381865afa1580156108de573d6000803e3d6000fd5b505050506040513d601f19601f820116820180604052508101906109029190610a3a565b101561099f57600c54630100000090046001600160a01b031663095ea7b33061092e620f424085610ac5565b6040516001600160e01b031960e085901b1681526001600160a01b03909216600483015260248201526044016020604051808303816000875af1158015610979573d6000803e3d6000fd5b505050506040513d601f19601f8201168201806040525081019061099d9190610a53565b505b50565b6000602082840312156109b457600080fd5b81356001600160a01b03811681146109cb57600080fd5b9392505050565b60006020808352835180602085015260005b81811015610a00578581018301518582016040015282016109e4565b506000604082860101526040601f19601f8301168501019250505092915050565b600060208284031215610a3357600080fd5b5035919050565b600060208284031215610a4c57600080fd5b5051919050565b600060208284031215610a6557600080fd5b815180151581146109cb57600080fd5b600181811c90821680610a8957607f821691505b602082108103610aa957634e487b7160e01b600052602260045260246000fd5b50919050565b634e487b7160e01b600052601160045260246000fd5b8082028115828204841417610adc57610adc610aaf565b92915050565b80820180821115610adc57610adc610aaf565b634e487b7160e01b600052603260045260246000fdfea264697066735822122031a172defe724ce5c4cc01a96f16f1780d8e373e255c530ee559c9b1bd630a9064736f6c63430008190033a2646970667358221220e47a76d04f0a056aa6a16e1a6c32e503f0ef74bbb0341caba96c8eb8f4c12b2164736f6c63430008190033a2646970667358221220727190c9ae5de0824b6eadecc93fc3fe13e6c017d6edd3056a53604909d20bb364736f6c63430008190033","linkReferences":{}},"methodIdentifiers":{"createNewProject(uint256,string)":"1937a58c","getProject(uint256)":"f0f3f2c8","getProjectList()":"5880ef34","goFundMeProjects(uint256)":"9f5c1e08"},"id":32}