{"abi":[{"type":"function","name":"ARBITRUM","inputs":[],"outputs":[{"name":"","type":"uint32","internalType":"uint32"}],"stateMutability":"view"},{"type":"function","name":"AVALANCHE","inputs":[],"outputs":[{"name":"","type":"uint32","internalType":"uint32"}],"stateMutability":"view"},{"type":"function","name":"BASE","inputs":[],"outputs":[{"name":"","type":"uint32","internalType":"uint32"}],"stateMutability":"view"},{"type":"function","name":"BSC","inputs":[],"outputs":[{"name":"","type":"uint8","internalType":"uint8"}],"stateMutability":"view"},{"type":"function","name":"ETHEREUM","inputs":[],"outputs":[{"name":"","type":"uint64","internalType":"uint64"}],"stateMutability":"view"},{"type":"function","name":"OPTIMISM","inputs":[],"outputs":[{"name":"","type":"uint64","internalType":"uint64"}],"stateMutability":"view"},{"type":"function","name":"POLYGON","inputs":[],"outputs":[{"name":"","type":"uint32","internalType":"uint32"}],"stateMutability":"view"}],"bytecode":{"object":"0x61014a61003a600b82828239805160001a60731461002d57634e487b7160e01b600052600060045260246000fd5b30600052607381538281f3fe73000000000000000000000000000000000000000030146080604052600436106100875760003560e01c8063b01dc0d511610065578063b01dc0d5146100ec578063c8744dd8146100f6578063ec342ad014610100578063f7cdf47c1461010a57600080fd5b80633c130daf1461008c57806348a23784146100b457806379dd40f9146100ce575b600080fd5b61009662aa37dc81565b60405167ffffffffffffffff90911681526020015b60405180910390f35b6100bc606181565b60405160ff90911681526020016100ab565b6100d761a86981565b60405163ffffffff90911681526020016100ab565b6100d762066eee81565b6100d76201388281565b6100d762014a3481565b61009662aa36a78156fea2646970667358221220287cf99c6659a1d14a547085c9f0643e0c0cf72d1b017dd6a0d362cff69979cd64736f6c63430008130033","linkReferences":{}},"methodIdentifiers":{"ARBITRUM()":"b01dc0d5","AVALANCHE()":"79dd40f9","BASE()":"ec342ad0","BSC()":"48a23784","ETHEREUM()":"f7cdf47c","OPTIMISM()":"3c130daf","POLYGON()":"c8744dd8"},"id":44}