{"abi":[{"type":"function","name":"SELECTOR1","inputs":[],"outputs":[{"name":"","type":"uint256","internalType":"uint256"}],"stateMutability":"view"},{"type":"function","name":"SELECTOR2","inputs":[],"outputs":[{"name":"","type":"uint256","internalType":"uint256"}],"stateMutability":"view"},{"type":"function","name":"SELECTOR3","inputs":[],"outputs":[{"name":"","type":"uint256","internalType":"uint256"}],"stateMutability":"view"},{"type":"function","name":"SELECTOR4","inputs":[],"outputs":[{"name":"","type":"uint256","internalType":"uint256"}],"stateMutability":"view"},{"type":"function","name":"SELECTOR5","inputs":[],"outputs":[{"name":"","type":"uint256","internalType":"uint256"}],"stateMutability":"view"},{"type":"function","name":"SELECTOR6","inputs":[],"outputs":[{"name":"","type":"uint256","internalType":"uint256"}],"stateMutability":"view"},{"type":"function","name":"getSelectors","inputs":[],"outputs":[{"name":"","type":"uint256[]","internalType":"uint256[]"}],"stateMutability":"pure"},{"type":"function","name":"verifyChainSelector","inputs":[{"name":"_selector","type":"uint256","internalType":"uint256"}],"outputs":[{"name":"","type":"bool","internalType":"bool"}],"stateMutability":"pure"}],"bytecode":{"object":"0x61038761003a600b82828239805160001a60731461002d57634e487b7160e01b600052600060045260246000fd5b30600052607381538281f3fe73000000000000000000000000000000000000000030146080604052600436106100925760003560e01c8063aba83d8611610065578063aba83d86146100ec578063aef34b101461010f578063c0da66881461011e578063cd65bfe91461012d57600080fd5b80631e26cdd814610097578063402e3570146100b95780634b503f0b146100c85780637ad3fade146100dd575b600080fd5b6100a6678f90b8876dee653881565b6040519081526020015b60405180910390f35b6100a667ccf0a31a221f3c9b81565b6100d061013c565b6040516100b091906102b7565b6100a667de41ba4fc9d91ad981565b6100ff6100fa3660046102fb565b610258565b60405190151581526020016100b0565b6100a66748810ec3e431431f81565b6100a667304611b6affba76a81565b6100a667e1f4423f1bf587cd81565b6040805160078082526101008201909252606091600091906020820160e08036833701905050905067ccf0a31a221f3c9b8160008151811061018057610180610314565b60200260200101818152505067de41ba4fc9d91ad9816001815181106101a8576101a8610314565b60200260200101818152505067304611b6affba76a816002815181106101d0576101d0610314565b602002602001018181525050678f90b8876dee6538816003815181106101f8576101f8610314565b6020026020010181815250506748810ec3e431431f8160048151811061022057610220610314565b60200260200101818152505067e1f4423f1bf587cd8160058151811061024857610248610314565b6020908102919091010152919050565b60008061026361013c565b905060005b81518110156102ad578382828151811061028457610284610314565b60200260200101510361029b575060019392505050565b806102a58161032a565b915050610268565b5060009392505050565b6020808252825182820181905260009190848201906040850190845b818110156102ef578351835292840192918401916001016102d3565b50909695505050505050565b60006020828403121561030d57600080fd5b5035919050565b634e487b7160e01b600052603260045260246000fd5b60006001820161034a57634e487b7160e01b600052601160045260246000fd5b506001019056fea26469706673582212206dade71e35c346b6982534ad3032c304b178be601676150c80b301774be6d82364736f6c63430008130033","linkReferences":{}},"methodIdentifiers":{"SELECTOR1()":"402e3570","SELECTOR2()":"7ad3fade","SELECTOR3()":"c0da6688","SELECTOR4()":"1e26cdd8","SELECTOR5()":"aef34b10","SELECTOR6()":"cd65bfe9","getSelectors()":"4b503f0b","verifyChainSelector(uint256)":"aba83d86"},"id":44}