{"abi":[{"type":"constructor","inputs":[{"name":"_router","type":"address","internalType":"address"},{"name":"_link","type":"address","internalType":"address"},{"name":"_usdcToken","type":"address","internalType":"address"}],"stateMutability":"nonpayable"},{"type":"function","name":"acceptOwnership","inputs":[],"outputs":[],"stateMutability":"nonpayable"},{"type":"function","name":"deleteReceiverForDestinationChain","inputs":[{"name":"_destinationChainSelector","type":"uint64","internalType":"uint64"}],"outputs":[],"stateMutability":"nonpayable"},{"type":"function","name":"owner","inputs":[],"outputs":[{"name":"","type":"address","internalType":"address"}],"stateMutability":"view"},{"type":"function","name":"s_gasLimits","inputs":[{"name":"","type":"uint64","internalType":"uint64"}],"outputs":[{"name":"","type":"uint256","internalType":"uint256"}],"stateMutability":"view"},{"type":"function","name":"s_receivers","inputs":[{"name":"","type":"uint64","internalType":"uint64"}],"outputs":[{"name":"","type":"address","internalType":"address"}],"stateMutability":"view"},{"type":"function","name":"sendMessagePayLINK","inputs":[{"name":"_destinationChainSelector","type":"uint64","internalType":"uint64"},{"name":"_ProjectIndex","type":"uint256","internalType":"uint256"},{"name":"_amount","type":"uint256","internalType":"uint256"}],"outputs":[{"name":"messageId","type":"bytes32","internalType":"bytes32"}],"stateMutability":"nonpayable"},{"type":"function","name":"setGasLimitAndRecieverForDestinationChain","inputs":[{"name":"_destinationChainSelector","type":"uint64","internalType":"uint64"},{"name":"_gasLimit","type":"uint256","internalType":"uint256"},{"name":"_receiver","type":"address","internalType":"address"}],"outputs":[],"stateMutability":"nonpayable"},{"type":"function","name":"transferOwnership","inputs":[{"name":"to","type":"address","internalType":"address"}],"outputs":[],"stateMutability":"nonpayable"},{"type":"function","name":"withdrawLinkToken","inputs":[{"name":"_beneficiary","type":"address","internalType":"address"}],"outputs":[],"stateMutability":"nonpayable"},{"type":"function","name":"withdrawUsdcToken","inputs":[{"name":"_beneficiary","type":"address","internalType":"address"}],"outputs":[],"stateMutability":"nonpayable"},{"type":"event","name":"MessageSent","inputs":[{"name":"messageId","type":"bytes32","indexed":true,"internalType":"bytes32"},{"name":"destinationChainSelector","type":"uint64","indexed":true,"internalType":"uint64"},{"name":"receiver","type":"address","indexed":true,"internalType":"address"},{"name":"ProjectIndex","type":"uint256","indexed":false,"internalType":"uint256"},{"name":"token","type":"address","indexed":false,"internalType":"address"},{"name":"tokenAmount","type":"uint256","indexed":false,"internalType":"uint256"},{"name":"feeToken","type":"address","indexed":false,"internalType":"address"},{"name":"fees","type":"uint256","indexed":false,"internalType":"uint256"}],"anonymous":false},{"type":"event","name":"OwnershipTransferRequested","inputs":[{"name":"from","type":"address","indexed":true,"internalType":"address"},{"name":"to","type":"address","indexed":true,"internalType":"address"}],"anonymous":false},{"type":"event","name":"OwnershipTransferred","inputs":[{"name":"from","type":"address","indexed":true,"internalType":"address"},{"name":"to","type":"address","indexed":true,"internalType":"address"}],"anonymous":false},{"type":"error","name":"AmountIsZero","inputs":[]},{"type":"error","name":"InvalidDestinationChain","inputs":[]},{"type":"error","name":"InvalidGasLimit","inputs":[]},{"type":"error","name":"InvalidLinkToken","inputs":[]},{"type":"error","name":"InvalidReceiverAddress","inputs":[]},{"type":"error","name":"InvalidRouter","inputs":[]},{"type":"error","name":"InvalidUsdcToken","inputs":[]},{"type":"error","name":"NoGasLimitOnDestinationChain","inputs":[{"name":"destinationChainSelector","type":"uint64","internalType":"uint64"}]},{"type":"error","name":"NoReceiverOnDestinationChain","inputs":[{"name":"destinationChainSelector","type":"uint64","internalType":"uint64"}]},{"type":"error","name":"NotEnoughBalance","inputs":[{"name":"currentBalance","type":"uint256","internalType":"uint256"},{"name":"calculatedFees","type":"uint256","internalType":"uint256"}]},{"type":"error","name":"NothingToWithdraw","inputs":[]}],"bytecode":{"object":"0x60e060405234801561001057600080fd5b506040516115f53803806115f583398101604081905261002f9161020f565b33806000816100855760405162461bcd60e51b815260206004820152601860248201527f43616e6e6f7420736574206f776e657220746f207a65726f000000000000000060448201526064015b60405180910390fd5b600080546001600160a01b0319166001600160a01b03848116919091179091558116156100b5576100b58161014a565b5050506001600160a01b0383166100df5760405163466d7fef60e01b815260040160405180910390fd5b6001600160a01b03821661010657604051630899a9e360e41b815260040160405180910390fd5b6001600160a01b03811661012d5760405163b83a5cf760e01b815260040160405180910390fd5b6001600160a01b0392831660805290821660a0521660c052610252565b336001600160a01b038216036101a25760405162461bcd60e51b815260206004820152601760248201527f43616e6e6f74207472616e7366657220746f2073656c66000000000000000000604482015260640161007c565b600180546001600160a01b0319166001600160a01b0383811691821790925560008054604051929316917fed8889f560326eb138920d842192f0eb3dd22b4f139c87a2c57538e05bae12789190a350565b80516001600160a01b038116811461020a57600080fd5b919050565b60008060006060848603121561022457600080fd5b61022d846101f3565b925061023b602085016101f3565b9150610249604085016101f3565b90509250925092565b60805160a05160c0516113196102dc600039600081816104d80152818161057b015281816106cd01528181610ad50152610be5015260008181610296015281816103390152818161078a015281816108b50152818161094401528181610a210152610c13015260008181610825015281816109f201528181610aa60152610b5a01526113196000f3fe608060405234801561001057600080fd5b506004361061009e5760003560e01c80639c18c570116100665780639c18c5701461012a578063c2d0c7691461013d578063c4a2d00f14610150578063f2fde38b14610171578063f3651fe61461018457600080fd5b806321cc505a146100a35780633141d65c146100b857806365b4b203146100cb57806379ba5097146101115780638da5cb5b14610119575b600080fd5b6100b66100b136600461108b565b6101a4565b005b6100b66100c63660046110c7565b610276565b6100f46100d93660046110e9565b6002602052600090815260409020546001600160a01b031681565b6040516001600160a01b0390911681526020015b60405180910390f35b6100b6610364565b6000546001600160a01b03166100f4565b6100b66101383660046110e9565b610413565b6100b661014b3660046110c7565b6104b8565b61016361015e366004611104565b6105a2565b604051908152602001610108565b6100b661017f3660046110c7565b610c8d565b6101636101923660046110e9565b60036020526000908152604090205481565b6101ac610ca1565b82806001600160401b03166000036101d75760405163b86ac1ef60e01b815260040160405180910390fd5b826000036101f8576040516304c5ed9760e51b815260040160405180910390fd5b6001600160401b03841660009081526003602052604090208390556001600160a01b03821661023a5760405163502ffa3f60e11b815260040160405180910390fd5b506001600160401b0392909216600090815260026020526040902080546001600160a01b0319166001600160a01b039093169290921790915550565b61027e610ca1565b6040516370a0823160e01b81523060048201526000907f00000000000000000000000000000000000000000000000000000000000000006001600160a01b0316906370a0823190602401602060405180830381865afa1580156102e5573d6000803e3d6000fd5b505050506040513d601f19601f820116820180604052508101906103099190611137565b90508060000361032c57604051630686827b60e51b815260040160405180910390fd5b6103606001600160a01b037f0000000000000000000000000000000000000000000000000000000000000000168383610cf6565b5050565b6001546001600160a01b031633146103bc5760405162461bcd60e51b815260206004820152601660248201527526bab9ba10313290383937b837b9b2b21037bbb732b960511b60448201526064015b60405180910390fd5b60008054336001600160a01b0319808316821784556001805490911690556040516001600160a01b0390921692909183917f8be0079c531659141344cd1fd0a4f28419497f9722a3daafe3b4186f6b6457e091a350565b61041b610ca1565b80806001600160401b03166000036104465760405163b86ac1ef60e01b815260040160405180910390fd5b6001600160401b0382166000908152600260205260409020546001600160a01b0316610490576040516367a1bf1d60e01b81526001600160401b03831660048201526024016103b3565b506001600160401b0316600090815260026020526040902080546001600160a01b0319169055565b6104c0610ca1565b6040516370a0823160e01b81523060048201526000907f00000000000000000000000000000000000000000000000000000000000000006001600160a01b0316906370a0823190602401602060405180830381865afa158015610527573d6000803e3d6000fd5b505050506040513d601f19601f8201168201806040525081019061054b9190611137565b90508060000361056e57604051630686827b60e51b815260040160405180910390fd5b6103606001600160a01b037f0000000000000000000000000000000000000000000000000000000000000000168383610cf6565b600083806001600160401b03166000036105cf5760405163b86ac1ef60e01b815260040160405180910390fd5b6001600160401b0385166000908152600260205260409020546001600160a01b03168061061a576040516367a1bf1d60e01b81526001600160401b03871660048201526024016103b3565b8360000361063b576040516310eb483f60e21b815260040160405180910390fd5b6001600160401b038616600090815260036020526040812054908190036106805760405163b638ee9f60e01b81526001600160401b03881660048201526024016103b3565b604080516001808252818301909252600091816020015b604080518082019091526000808252602082015281526020019060019003908161069757905050905060405180604001604052807f00000000000000000000000000000000000000000000000000000000000000006001600160a01b03168152602001878152508160008151811061071157610711611150565b60209081029190910101526040805160a081019091526001600160a01b03841660c08201526000908060e081016040516020818303038152906040528152602001898960405160200161076e929190918252602082015260400190565b60405160208183030381529060405281526020018381526020017f00000000000000000000000000000000000000000000000000000000000000006001600160a01b0316815260200161080660405180602001604052808781525060408051915160248084019190915281518084039091018152604490920190526020810180516001600160e01b03166397a657c960e01b17905290565b90526040516320487ded60e01b81529091506000906001600160a01b037f000000000000000000000000000000000000000000000000000000000000000016906320487ded9061085c908d9086906004016111b6565b602060405180830381865afa158015610879573d6000803e3d6000fd5b505050506040513d601f19601f8201168201806040525081019061089d9190611137565b6040516370a0823160e01b81523060048201529091507f00000000000000000000000000000000000000000000000000000000000000006001600160a01b0316906370a0823190602401602060405180830381865afa158015610904573d6000803e3d6000fd5b505050506040513d601f19601f820116820180604052508101906109289190611137565b8111156109db576040516370a0823160e01b81523060048201527f00000000000000000000000000000000000000000000000000000000000000006001600160a01b0316906370a0823190602401602060405180830381865afa158015610993573d6000803e3d6000fd5b505050506040513d601f19601f820116820180604052508101906109b79190611137565b604051634787a10360e11b81526004810191909152602481018290526044016103b3565b60405163095ea7b360e01b81526001600160a01b037f000000000000000000000000000000000000000000000000000000000000000081166004830152602482018390527f0000000000000000000000000000000000000000000000000000000000000000169063095ea7b3906044016020604051808303816000875af1158015610a6a573d6000803e3d6000fd5b505050506040513d601f19601f82011682018060405250810190610a8e9190611292565b5060405163095ea7b360e01b81526001600160a01b037f000000000000000000000000000000000000000000000000000000000000000081166004830152602482018a90527f0000000000000000000000000000000000000000000000000000000000000000169063095ea7b3906044016020604051808303816000875af1158015610b1e573d6000803e3d6000fd5b505050506040513d601f19601f82011682018060405250810190610b429190611292565b506040516396f4e9f960e01b81526001600160a01b037f000000000000000000000000000000000000000000000000000000000000000016906396f4e9f990610b91908d9086906004016111b6565b6020604051808303816000875af1158015610bb0573d6000803e3d6000fd5b505050506040513d601f19601f82011682018060405250810190610bd49190611137565b604080518b81526001600160a01b037f0000000000000000000000000000000000000000000000000000000000000000811660208301529181018b90527f000000000000000000000000000000000000000000000000000000000000000082166060820152608081018490529198508616906001600160401b038c169089907fb157373a30362a27f9b582cffd9482513df507d9274dd62e44ee88dbe08158f79060a00160405180910390a45050505050509392505050565b610c95610ca1565b610c9e81610d4d565b50565b6000546001600160a01b03163314610cf45760405162461bcd60e51b815260206004820152601660248201527527b7363c9031b0b63630b1363290313c9037bbb732b960511b60448201526064016103b3565b565b604080516001600160a01b038416602482015260448082018490528251808303909101815260649091019091526020810180516001600160e01b031663a9059cbb60e01b179052610d48908490610df6565b505050565b336001600160a01b03821603610da55760405162461bcd60e51b815260206004820152601760248201527f43616e6e6f74207472616e7366657220746f2073656c6600000000000000000060448201526064016103b3565b600180546001600160a01b0319166001600160a01b0383811691821790925560008054604051929316917fed8889f560326eb138920d842192f0eb3dd22b4f139c87a2c57538e05bae12789190a350565b6000610e4b826040518060400160405280602081526020017f5361666545524332303a206c6f772d6c6576656c2063616c6c206661696c6564815250856001600160a01b0316610ec89092919063ffffffff16565b805190915015610d485780806020019051810190610e699190611292565b610d485760405162461bcd60e51b815260206004820152602a60248201527f5361666545524332303a204552433230206f7065726174696f6e20646964206e6044820152691bdd081cdd58d8d9595960b21b60648201526084016103b3565b6060610ed78484600085610edf565b949350505050565b606082471015610f405760405162461bcd60e51b815260206004820152602660248201527f416464726573733a20696e73756666696369656e742062616c616e636520666f6044820152651c8818d85b1b60d21b60648201526084016103b3565b600080866001600160a01b03168587604051610f5c91906112b4565b60006040518083038185875af1925050503d8060008114610f99576040519150601f19603f3d011682016040523d82523d6000602084013e610f9e565b606091505b5091509150610faf87838387610fba565b979650505050505050565b60608315611029578251600003611022576001600160a01b0385163b6110225760405162461bcd60e51b815260206004820152601d60248201527f416464726573733a2063616c6c20746f206e6f6e2d636f6e747261637400000060448201526064016103b3565b5081610ed7565b610ed7838381511561103e5781518083602001fd5b8060405162461bcd60e51b81526004016103b391906112d0565b80356001600160401b038116811461106f57600080fd5b919050565b80356001600160a01b038116811461106f57600080fd5b6000806000606084860312156110a057600080fd5b6110a984611058565b9250602084013591506110be60408501611074565b90509250925092565b6000602082840312156110d957600080fd5b6110e282611074565b9392505050565b6000602082840312156110fb57600080fd5b6110e282611058565b60008060006060848603121561111957600080fd5b61112284611058565b95602085013595506040909401359392505050565b60006020828403121561114957600080fd5b5051919050565b634e487b7160e01b600052603260045260246000fd5b60005b83811015611181578181015183820152602001611169565b50506000910152565b600081518084526111a2816020860160208601611166565b601f01601f19169290920160200192915050565b600060406001600160401b03851683526020604081850152845160a060408601526111e460e086018261118a565b905081860151603f1980878403016060880152611201838361118a565b6040890151888203830160808a01528051808352908601945060009350908501905b8084101561125557845180516001600160a01b0316835286015186830152938501936001939093019290860190611223565b5060608901516001600160a01b031660a08901526080890151888203830160c08a01529550611284818761118a565b9a9950505050505050505050565b6000602082840312156112a457600080fd5b815180151581146110e257600080fd5b600082516112c6818460208701611166565b9190910192915050565b6020815260006110e2602083018461118a56fea2646970667358221220091afd4ef9a7d72bd1a7044e607909a62c7ee989b9efcf49adc75d98bff396d364736f6c63430008190033","linkReferences":{}},"methodIdentifiers":{"acceptOwnership()":"79ba5097","deleteReceiverForDestinationChain(uint64)":"9c18c570","owner()":"8da5cb5b","s_gasLimits(uint64)":"f3651fe6","s_receivers(uint64)":"65b4b203","sendMessagePayLINK(uint64,uint256,uint256)":"c4a2d00f","setGasLimitAndRecieverForDestinationChain(uint64,uint256,address)":"21cc505a","transferOwnership(address)":"f2fde38b","withdrawLinkToken(address)":"3141d65c","withdrawUsdcToken(address)":"c2d0c769"},"id":52}