{
  "abi": [
    {
      "type": "constructor",
      "inputs": [],
      "stateMutability": "nonpayable"
    },
    {
      "type": "function",
      "name": "fund",
      "inputs": [
        {
          "name": "_amount",
          "type": "uint256",
          "internalType": "uint256"
        }
      ],
      "outputs": [],
      "stateMutability": "payable"
    },
    {
      "type": "function",
      "name": "funders",
      "inputs": [
        {
          "name": "",
          "type": "uint256",
          "internalType": "uint256"
        }
      ],
      "outputs": [
        {
          "name": "",
          "type": "address",
          "internalType": "address"
        }
      ],
      "stateMutability": "view"
    },
    {
      "type": "function",
      "name": "goalInUsd",
      "inputs": [],
      "outputs": [
        {
          "name": "",
          "type": "uint256",
          "internalType": "uint256"
        }
      ],
      "stateMutability": "view"
    },
    {
      "type": "function",
      "name": "i_owner",
      "inputs": [],
      "outputs": [
        {
          "name": "",
          "type": "address",
          "internalType": "address"
        }
      ],
      "stateMutability": "view"
    },
    {
      "type": "function",
      "name": "m_donations",
      "inputs": [
        {
          "name": "",
          "type": "address",
          "internalType": "address"
        }
      ],
      "outputs": [
        {
          "name": "",
          "type": "uint256",
          "internalType": "uint256"
        }
      ],
      "stateMutability": "view"
    },
    {
      "type": "function",
      "name": "projectName",
      "inputs": [],
      "outputs": [
        {
          "name": "",
          "type": "string",
          "internalType": "string"
        }
      ],
      "stateMutability": "view"
    },
    {
      "type": "function",
      "name": "totalBalance",
      "inputs": [],
      "outputs": [
        {
          "name": "",
          "type": "uint256",
          "internalType": "uint256"
        }
      ],
      "stateMutability": "view"
    },
    {
      "type": "function",
      "name": "usdc",
      "inputs": [],
      "outputs": [
        {
          "name": "",
          "type": "address",
          "internalType": "contract IERC20"
        }
      ],
      "stateMutability": "view"
    },
    {
      "type": "function",
      "name": "usdcTokenAddress",
      "inputs": [],
      "outputs": [
        {
          "name": "",
          "type": "address",
          "internalType": "address"
        }
      ],
      "stateMutability": "view"
    },
    {
      "type": "function",
      "name": "withdraw",
      "inputs": [],
      "outputs": [],
      "stateMutability": "nonpayable"
    },
    {
      "type": "event",
      "name": "FundReceived",
      "inputs": [
        {
          "name": "funder",
          "type": "address",
          "indexed": true,
          "internalType": "address"
        },
        {
          "name": "amount",
          "type": "uint256",
          "indexed": false,
          "internalType": "uint256"
        }
      ],
      "anonymous": false
    },
    {
      "type": "event",
      "name": "FundsWithdrawn",
      "inputs": [
        {
          "name": "owner",
          "type": "address",
          "indexed": true,
          "internalType": "address"
        },
        {
          "name": "amount",
          "type": "uint256",
          "indexed": false,
          "internalType": "uint256"
        }
      ],
      "anonymous": false
    },
    {
      "type": "error",
      "name": "NotOwner",
      "inputs": []
    }
  ],
  "bytecode": {
    "object": "0x60a060405234801561001057600080fd5b5033608052625b8d8060025560408051808201909152601d81527f48656c70206d6520746f206275792061206e657720636f6d7075746572000000602082015260019061005d908261012a565b50600080546001600160a01b031916731c7d4b196cb0c7b01d743fbc6116a902379c72381790556101e9565b634e487b7160e01b600052604160045260246000fd5b600181811c908216806100b357607f821691505b6020821081036100d357634e487b7160e01b600052602260045260246000fd5b50919050565b601f821115610125576000816000526020600020601f850160051c810160208610156101025750805b601f850160051c820191505b818110156101215782815560010161010e565b5050505b505050565b81516001600160401b0381111561014357610143610089565b61015781610151845461009f565b846100d9565b602080601f83116001811461018c57600084156101745750858301515b600019600386901b1c1916600185901b178555610121565b600085815260208120601f198616915b828110156101bb5788860151825594840194600190910190840161019c565b50858210156101d95787850151600019600388901b60f8161c191681555b5050505050600190811b01905550565b6080516107e061020b600039600081816101b7015261020401526107e06000f3fe6080604052600436106100905760003560e01c80639a33e300116100595780639a33e3001461015a578063ad7a672f1461017c578063ca1d209d14610192578063dba6335f146101a5578063dc0d3dff146101d957600080fd5b806213c58a146100955780633ccfd60b146100be5780633e413bee146100d55780635c6b932b1461010d57806377b53ece1461013a575b600080fd5b3480156100a157600080fd5b506100ab60025481565b6040519081526020015b60405180910390f35b3480156100ca57600080fd5b506100d36101f9565b005b3480156100e157600080fd5b506000546100f5906001600160a01b031681565b6040516001600160a01b0390911681526020016100b5565b34801561011957600080fd5b506100ab610128366004610679565b60066020526000908152604090205481565b34801561014657600080fd5b506005546100f5906001600160a01b031681565b34801561016657600080fd5b5061016f610383565b6040516100b591906106a9565b34801561018857600080fd5b506100ab60035481565b6100d36101a03660046106f8565b610411565b3480156101b157600080fd5b506100f57f000000000000000000000000000000000000000000000000000000000000000081565b3480156101e557600080fd5b506100f56101f43660046106f8565b6105d5565b336001600160a01b037f00000000000000000000000000000000000000000000000000000000000000001614610242576040516330cd747160e01b815260040160405180910390fd5b600254600354101561028e5760405162461bcd60e51b815260206004820152601060248201526f11dbd85b081b9bdd081c995858da195960821b60448201526064015b60405180910390fd5b60005b6004548110156102db576000600482815481106102b0576102b0610711565b60009182526020808320909101546001600160a01b0316825260069052604081205550600101610291565b5060408051600081526020810191829052516102f9916004916105ff565b50604051600090339047908381818185875af1925050503d806000811461033c576040519150601f19603f3d011682016040523d82523d6000602084013e610341565b606091505b50509050806103805760405162461bcd60e51b815260206004820152600b60248201526a10d85b1b0819985a5b195960aa1b6044820152606401610285565b50565b6001805461039090610727565b80601f01602080910402602001604051908101604052809291908181526020018280546103bc90610727565b80156104095780601f106103de57610100808354040283529160200191610409565b820191906000526020600020905b8154815290600101906020018083116103ec57829003601f168201915b505050505081565b624c4b408110156104645760405162461bcd60e51b815260206004820181905260248201527f796f75206e65656420746f2073656e64206d6f7265207468616e2035205553446044820152606401610285565b6000546040516323b872dd60e01b8152336004820152306024820152604481018390526001600160a01b03909116906323b872dd906064016020604051808303816000875af11580156104bb573d6000803e3d6000fd5b505050506040513d601f19601f820116820180604052508101906104df9190610761565b61051d5760405162461bcd60e51b815260206004820152600f60248201526e111bdb985d1a5bdb8819985a5b1959608a1b6044820152606401610285565b336000908152600660205260408120805483929061053c908490610783565b9250508190555080600360008282546105559190610783565b9091555050600480546001810182556000919091527f8a35acfbc15ff81a39ae7d344fd709f28e8600b4aa8c65c6b64bfe7fe36bd19b0180546001600160a01b031916339081179091556040518281527f54a5b8782470a0d2c022b3b9e5e729503ac5dbdfe053afeb4559f9297f7565a69060200160405180910390a250565b600481815481106105e557600080fd5b6000918252602090912001546001600160a01b0316905081565b828054828255906000526020600020908101928215610654579160200282015b8281111561065457825182546001600160a01b0319166001600160a01b0390911617825560209092019160019091019061061f565b50610660929150610664565b5090565b5b808211156106605760008155600101610665565b60006020828403121561068b57600080fd5b81356001600160a01b03811681146106a257600080fd5b9392505050565b60006020808352835180602085015260005b818110156106d7578581018301518582016040015282016106bb565b506000604082860101526040601f19601f8301168501019250505092915050565b60006020828403121561070a57600080fd5b5035919050565b634e487b7160e01b600052603260045260246000fd5b600181811c9082168061073b57607f821691505b60208210810361075b57634e487b7160e01b600052602260045260246000fd5b50919050565b60006020828403121561077357600080fd5b815180151581146106a257600080fd5b808201808211156107a457634e487b7160e01b600052601160045260246000fd5b9291505056fea2646970667358221220948a7c289e0daefcac1e8c5acb29c6ea8d9f78acb9b3b6b632dca9db157d467964736f6c63430008190033",
    "linkReferences": {}
  },
  "methodIdentifiers": {
    "fund(uint256)": "ca1d209d",
    "funders(uint256)": "dc0d3dff",
    "goalInUsd()": "0013c58a",
    "i_owner()": "dba6335f",
    "m_donations(address)": "5c6b932b",
    "projectName()": "9a33e300",
    "totalBalance()": "ad7a672f",
    "usdc()": "3e413bee",
    "usdcTokenAddress()": "77b53ece",
    "withdraw()": "3ccfd60b"
  },
  "id": 2
}