{"abi":[{"type":"function","name":"AVALANCE","inputs":[],"outputs":[{"name":"","type":"uint64","internalType":"uint64"}],"stateMutability":"view"},{"type":"function","name":"SEPOLIA","inputs":[],"outputs":[{"name":"","type":"uint64","internalType":"uint64"}],"stateMutability":"view"}],"bytecode":{"object":"0x60b1610039600b82828239805160001a60731461002c57634e487b7160e01b600052600060045260246000fd5b30600052607381538281f3fe7300000000000000000000000000000000000000003014608060405260043610603d5760003560e01c806302bbb9e6146042578063d50d91d814606d575b600080fd5b605067de41ba4fc9d91ad981565b60405167ffffffffffffffff909116815260200160405180910390f35b605067ccf0a31a221f3c9b8156fea264697066735822122026f1022ee95b439f31b3c10a9d0516f3408527d16b3d741671c8c2908a51a4ac64736f6c63430008130033","linkReferences":{}},"methodIdentifiers":{"AVALANCE()":"d50d91d8","SEPOLIA()":"02bbb9e6"},"id":39}