{"abi":[{"type":"function","name":"AVALANCE_FUJI","inputs":[],"outputs":[{"name":"","type":"address","internalType":"address"}],"stateMutability":"view"},{"type":"function","name":"SEPOLIA","inputs":[],"outputs":[{"name":"","type":"address","internalType":"address"}],"stateMutability":"view"}],"bytecode":{"object":"0x60c8610039600b82828239805160001a60731461002c57634e487b7160e01b600052600060045260246000fd5b30600052607381538281f3fe7300000000000000000000000000000000000000003014608060405260043610603d5760003560e01c806302bbb9e6146042578063a9666528146078575b600080fd5b605c73779877a7b0d9e8603169ddbd7836e478b462478981565b6040516001600160a01b03909116815260200160405180910390f35b605c730b9d5d9136855f6fec3c0993fee6e9ce8a2978468156fea264697066735822122000460fa90ad25c2369d6f0132df7ef669520521271823fe70b72681255624ebe64736f6c63430008130033","linkReferences":{}},"methodIdentifiers":{"AVALANCE_FUJI()":"a9666528","SEPOLIA()":"02bbb9e6"},"id":39}