{"abi":[{"type":"function","name":"AVALANCE_FUJI","inputs":[],"outputs":[{"name":"","type":"uint32","internalType":"uint32"}],"stateMutability":"view"},{"type":"function","name":"AVALANCE_MAINNET","inputs":[],"outputs":[{"name":"","type":"uint32","internalType":"uint32"}],"stateMutability":"view"},{"type":"function","name":"ETH_MAINNET","inputs":[],"outputs":[{"name":"","type":"uint32","internalType":"uint32"}],"stateMutability":"view"},{"type":"function","name":"SEPOLIA","inputs":[],"outputs":[{"name":"","type":"uint32","internalType":"uint32"}],"stateMutability":"view"}],"bytecode":{"object":"0x60c5610039600b82828239805160001a60731461002c57634e487b7160e01b600052600060045260246000fd5b30600052607381538281f3fe730000000000000000000000000000000000000000301460806040526004361060515760003560e01c806302bbb9e61460565780631d40867e1460785780635dc6bf5114607f578063a9666528146087575b600080fd5b605f62aa36a781565b60405163ffffffff909116815260200160405180910390f35b605f600181565b605f61a86a81565b605f61a8698156fea264697066735822122071c8a1206658a159a8f8348c455bfa025400e01df9c00b1b80f142465c065ccd64736f6c63430008130033","linkReferences":{}},"methodIdentifiers":{"AVALANCE_FUJI()":"a9666528","AVALANCE_MAINNET()":"5dc6bf51","ETH_MAINNET()":"1d40867e","SEPOLIA()":"02bbb9e6"},"id":39}