{"abi":[{"type":"function","name":"AVALANCE_FUJI","inputs":[],"outputs":[{"name":"","type":"address","internalType":"address"}],"stateMutability":"view"},{"type":"function","name":"SEPOLIA","inputs":[],"outputs":[{"name":"","type":"address","internalType":"address"}],"stateMutability":"view"}],"bytecode":{"object":"0x60c8610039600b82828239805160001a60731461002c57634e487b7160e01b600052600060045260246000fd5b30600052607381538281f3fe7300000000000000000000000000000000000000003014608060405260043610603d5760003560e01c806302bbb9e6146042578063a9666528146078575b600080fd5b605c730bf3de8c5d3e8a2b34d2beeb17abfcebaf363a5981565b6040516001600160a01b03909116815260200160405180910390f35b605c73f694e193200268f9a4868e4aa017a0118c9a81778156fea2646970667358221220ea6f843135a81500f37544f1429aa712d01672ea7029375464a674c5b03b6c5664736f6c63430008130033","linkReferences":{}},"methodIdentifiers":{"AVALANCE_FUJI()":"a9666528","SEPOLIA()":"02bbb9e6"},"id":39}