{"abi":[{"type":"constructor","inputs":[{"name":"_usdcTokenAddress","type":"address","internalType":"address"}],"stateMutability":"nonpayable"},{"type":"function","name":"createNewProject","inputs":[],"outputs":[],"stateMutability":"nonpayable"},{"type":"function","name":"crossChainDonation","inputs":[{"name":"_index","type":"uint256","internalType":"uint256"},{"name":"_amount","type":"uint256","internalType":"uint256"}],"outputs":[],"stateMutability":"nonpayable"},{"type":"function","name":"getProject","inputs":[{"name":"_index","type":"uint256","internalType":"uint256"}],"outputs":[{"name":"","type":"address","internalType":"contract GoFundMe"}],"stateMutability":"view"},{"type":"function","name":"getProjectList","inputs":[],"outputs":[{"name":"","type":"address[]","internalType":"contract GoFundMe[]"}],"stateMutability":"view"},{"type":"function","name":"goFundMeProjects","inputs":[{"name":"","type":"uint256","internalType":"uint256"}],"outputs":[{"name":"","type":"address","internalType":"contract GoFundMe"}],"stateMutability":"view"},{"type":"function","name":"projectCount","inputs":[],"outputs":[{"name":"","type":"uint256","internalType":"uint256"}],"stateMutability":"view"},{"type":"function","name":"usdc","inputs":[],"outputs":[{"name":"","type":"address","internalType":"contract ERC20"}],"stateMutability":"view"},{"type":"event","name":"ProjectCreated","inputs":[{"name":"_owner","type":"address","indexed":true,"internalType":"address"},{"name":"_project","type":"address","indexed":false,"internalType":"contract GoFundMe"}],"anonymous":false}],"bytecode":{"object":"0x60806040526000600355348015601457600080fd5b506040516137003803806137008339810160408190526031916055565b600280546001600160a01b0319166001600160a01b03929092169190911790556083565b600060208284031215606657600080fd5b81516001600160a01b0381168114607c57600080fd5b9392505050565b61366e806100926000396000f3fe608060405234801561001057600080fd5b506004361061007d5760003560e01c80635880ef341161005b5780635880ef34146100de5780639f5c1e08146100f3578063dff4b13f14610106578063f0f3f2c81461010e57600080fd5b80632e79cfb51461008257806336fbad26146100975780633e413bee146100b3575b600080fd5b61009561009036600461080e565b610121565b005b6100a060035481565b6040519081526020015b60405180910390f35b6002546100c6906001600160a01b031681565b6040516001600160a01b0390911681526020016100aa565b6100e66101a6565b6040516100aa9190610830565b6100c661010136600461087d565b610208565b610095610232565b6100c661011c36600461087d565b610398565b600061012c83610398565b600254909150610147906001600160a01b0316338385610414565b604051637392a57360e01b8152600481018390526001600160a01b03821690637392a57390602401600060405180830381600087803b15801561018957600080fd5b505af115801561019d573d6000803e3d6000fd5b50505050505050565b606060018054806020026020016040519081016040528092919081815260200182805480156101fe57602002820191906000526020600020905b81546001600160a01b031681526001909101906020018083116101e0575b5050505050905090565b6001818154811061021857600080fd5b6000918252602090912001546001600160a01b0316905081565b600060405161024090610801565b604051809103906000f08015801561025c573d6000803e3d6000fd5b5060405163148aedc160e21b81523360048201529091506001600160a01b0382169063522bb704906024016020604051808303816000875af11580156102a6573d6000803e3d6000fd5b505050506040513d601f19601f820116820180604052508101906102ca9190610896565b600080546001600160a01b03929092166001600160a01b0319928316811782556001805480820182559083527fb10e2d527612073b26eecdfd717e6a320cf44b4afac2b0732d9fcbe2b7fa0cf601805490931617909155600380549161032f836108c6565b9091555050600054600254610353916001600160a01b039182169116600019610485565b6000546040516001600160a01b03909116815233907f8cb1f5e0b7508307e592a641586f535256dba226b02388100691c6133f65e22e9060200160405180910390a250565b600060035482106103e65760405162461bcd60e51b8152602060048201526013602482015272496e646578206f7574206f6620626f756e647360681b60448201526064015b60405180910390fd5b600182815481106103f9576103f96108ed565b6000918252602090912001546001600160a01b031692915050565b6040516001600160a01b038085166024830152831660448201526064810182905261047f9085906323b872dd60e01b906084015b60408051601f198184030181529190526020810180516001600160e01b03166001600160e01b03199093169290921790915261059f565b50505050565b8015806104ff5750604051636eb1769f60e11b81523060048201526001600160a01b03838116602483015284169063dd62ed3e90604401602060405180830381865afa1580156104d9573d6000803e3d6000fd5b505050506040513d601f19601f820116820180604052508101906104fd9190610903565b155b61056a5760405162461bcd60e51b815260206004820152603660248201527f5361666545524332303a20617070726f76652066726f6d206e6f6e2d7a65726f60448201527520746f206e6f6e2d7a65726f20616c6c6f77616e636560501b60648201526084016103dd565b6040516001600160a01b03831660248201526044810182905261059a90849063095ea7b360e01b90606401610448565b505050565b60006105f4826040518060400160405280602081526020017f5361666545524332303a206c6f772d6c6576656c2063616c6c206661696c6564815250856001600160a01b03166106719092919063ffffffff16565b80519091501561059a5780806020019051810190610612919061091c565b61059a5760405162461bcd60e51b815260206004820152602a60248201527f5361666545524332303a204552433230206f7065726174696f6e20646964206e6044820152691bdd081cdd58d8d9595960b21b60648201526084016103dd565b60606106808484600085610688565b949350505050565b6060824710156106e95760405162461bcd60e51b815260206004820152602660248201527f416464726573733a20696e73756666696369656e742062616c616e636520666f6044820152651c8818d85b1b60d21b60648201526084016103dd565b600080866001600160a01b031685876040516107059190610962565b60006040518083038185875af1925050503d8060008114610742576040519150601f19603f3d011682016040523d82523d6000602084013e610747565b606091505b509150915061075887838387610763565b979650505050505050565b606083156107d25782516000036107cb576001600160a01b0385163b6107cb5760405162461bcd60e51b815260206004820152601d60248201527f416464726573733a2063616c6c20746f206e6f6e2d636f6e747261637400000060448201526064016103dd565b5081610680565b61068083838151156107e75781518083602001fd5b8060405162461bcd60e51b81526004016103dd919061097e565b612c87806109b283390190565b6000806040838503121561082157600080fd5b50508035926020909101359150565b6020808252825182820181905260009190848201906040850190845b818110156108715783516001600160a01b03168352928401929184019160010161084c565b50909695505050505050565b60006020828403121561088f57600080fd5b5035919050565b6000602082840312156108a857600080fd5b81516001600160a01b03811681146108bf57600080fd5b9392505050565b6000600182016108e657634e487b7160e01b600052601160045260246000fd5b5060010190565b634e487b7160e01b600052603260045260246000fd5b60006020828403121561091557600080fd5b5051919050565b60006020828403121561092e57600080fd5b815180151581146108bf57600080fd5b60005b83811015610959578181015183820152602001610941565b50506000910152565b6000825161097481846020870161093e565b9190910192915050565b602081526000825180602084015261099d81604085016020870161093e565b601f01601f1916919091016040019291505056fe6080604052600c805462ff00ff191662010001179055348015602057600080fd5b50612c57806100306000396000f3fe608060405234801561001057600080fd5b50600436106100365760003560e01c8063522bb7041461003b578063f8ccbf471461006b575b600080fd5b61004e6100493660046101a1565b61008e565b6040516001600160a01b0390911681526020015b60405180910390f35b600c5461007e9062010000900460ff1681565b6040519015158152602001610062565b60008060405161009d9061016f565b604051809103906000f0801580156100b9573d6000803e3d6000fd5b5090506000816001600160a01b031663d7b657456040518163ffffffff1660e01b8152600401602060405180830381865afa1580156100fc573d6000803e3d6000fd5b505050506040513d601f19601f8201168201806040525081019061012091906101c5565b9050600081856040516101329061017c565b6001600160a01b03928316815291166020820152604001604051809103906000f080158015610165573d6000803e3d6000fd5b5095945050505050565b611991806101e383390190565b6110ae80611b7483390190565b6001600160a01b038116811461019e57600080fd5b50565b6000602082840312156101b357600080fd5b81356101be81610189565b9392505050565b6000602082840312156101d757600080fd5b81516101be8161018956fe6080604052600c805462ff00ff19166201000117905534801561002157600080fd5b5062aa36a619460161008257604080516020808201835260009091528151908101909152731c7d4b196cb0c7b01d743fbc6116a902379c723881525b51600d80546001600160a01b0319166001600160a01b0390921691909117905561029e565b60001946016100bf5760408051602080820183526000909152815190810190915273a0b86991c6218b36c1d19d4a2e9eb0ce3606eb48815261005d565b60881946016100fc57604080516020808201835260009091528151908101909152733c499c542cef5e3811e1192ce70d8cc03d5c3359815261005d565b61a86819460161013a57604080516020808201835260009091528151908101909152735425890298aed601595a70ab815c96711a31bc65815261005d565b62013881194601610179576040805160208082018352600090915281519081019091527341e94eb019c0762f9bfcf9fb1e58725bfb0e7582815261005d565b61005d604080516020810190915260008152600060405161019990610266565b604051809103906000f0801580156101b5573d6000803e3d6000fd5b5090506001600160a01b0381166340c10f1973f39fd6e51aad88f6f4ce6ab8827279cfffb922666101ea620f42406064610273565b6040516001600160e01b031960e085901b1681526001600160a01b0390921660048301526024820152604401600060405180830381600087803b15801561023057600080fd5b505af1158015610244573d6000803e3d6000fd5b505060408051602081019091526001600160a01b039093168352509092915050565b6109c680610fcb83390190565b808202811582820484141761029857634e487b7160e01b600052601160045260246000fd5b92915050565b610d1e806102ad6000396000f3fe608060405234801561001057600080fd5b50600436106100885760003560e01c8063d7b657451161005b578063d7b6574514610176578063d8db2188146101a1578063ec4cf1ca146101a9578063f8ccbf47146101dd57600080fd5b80632380f8531461008d578063405f34cd146100da57806344007e381461010e578063d0c068a014610142575b600080fd5b60408051602080820183526000909152815190810190915273a0b86991c6218b36c1d19d4a2e9eb0ce3606eb4881525b60405190516001600160a01b031681526020015b60405180910390f35b604080516020808201835260009091528151908101909152735425890298aed601595a70ab815c96711a31bc6581526100bd565b604080516020808201835260009091528151908101909152731c7d4b196cb0c7b01d743fbc6116a902379c723881526100bd565b6040805160208082018352600090915281519081019091527341e94eb019c0762f9bfcf9fb1e58725bfb0e758281526100bd565b600d54610189906001600160a01b031681565b6040516001600160a01b0390911681526020016100d1565b6100bd610200565b604080516020808201835260009091528151908101909152733c499c542cef5e3811e1192ce70d8cc03d5c335981526100bd565b600c546101f09062010000900460ff1681565b60405190151581526020016100d1565b604080516020810190915260008152600060405161021d906102ea565b604051809103906000f080158015610239573d6000803e3d6000fd5b5090506001600160a01b0381166340c10f1973f39fd6e51aad88f6f4ce6ab8827279cfffb9226661026e620f424060646102f7565b6040516001600160e01b031960e085901b1681526001600160a01b0390921660048301526024820152604401600060405180830381600087803b1580156102b457600080fd5b505af11580156102c8573d6000803e3d6000fd5b505060408051602081019091526001600160a01b039093168352509092915050565b6109c68061032383390190565b808202811582820484141761031c57634e487b7160e01b600052601160045260246000fd5b9291505056fe608060405234801561001057600080fd5b506040518060400160405280600981526020016845524332304d6f636b60b81b815250604051806040016040528060048152602001634532304d60e01b815250816003908161005f9190610115565b50600461006c8282610115565b5050506101d4565b634e487b7160e01b600052604160045260246000fd5b600181811c9082168061009e57607f821691505b6020821081036100be57634e487b7160e01b600052602260045260246000fd5b50919050565b601f821115610110576000816000526020600020601f850160051c810160208610156100ed5750805b601f850160051c820191505b8181101561010c578281556001016100f9565b5050505b505050565b81516001600160401b0381111561012e5761012e610074565b6101428161013c845461008a565b846100c4565b602080601f831160018114610177576000841561015f5750858301515b600019600386901b1c1916600185901b17855561010c565b600085815260208120601f198616915b828110156101a657888601518255948401946001909101908401610187565b50858210156101c45787850151600019600388901b60f8161c191681555b5050505050600190811b01905550565b6107e3806101e36000396000f3fe608060405234801561001057600080fd5b50600436106100a95760003560e01c806340c10f191161007157806340c10f191461012357806370a082311461013857806395d89b41146101615780639dc29fac14610169578063a9059cbb1461017c578063dd62ed3e1461018f57600080fd5b806306fdde03146100ae578063095ea7b3146100cc57806318160ddd146100ef57806323b872dd14610101578063313ce56714610114575b600080fd5b6100b66101c8565b6040516100c3919061062c565b60405180910390f35b6100df6100da366004610697565b61025a565b60405190151581526020016100c3565b6002545b6040519081526020016100c3565b6100df61010f3660046106c1565b610274565b604051601281526020016100c3565b610136610131366004610697565b610298565b005b6100f36101463660046106fd565b6001600160a01b031660009081526020819052604090205490565b6100b66102a6565b610136610177366004610697565b6102b5565b6100df61018a366004610697565b6102bf565b6100f361019d36600461071f565b6001600160a01b03918216600090815260016020908152604080832093909416825291909152205490565b6060600380546101d790610752565b80601f016020809104026020016040519081016040528092919081815260200182805461020390610752565b80156102505780601f1061022557610100808354040283529160200191610250565b820191906000526020600020905b81548152906001019060200180831161023357829003601f168201915b5050505050905090565b6000336102688185856102cd565b60019150505b92915050565b6000336102828582856102df565b61028d858585610362565b506001949350505050565b6102a282826103c1565b5050565b6060600480546101d790610752565b6102a282826103f7565b600033610268818585610362565b6102da838383600161042d565b505050565b6001600160a01b03838116600090815260016020908152604080832093861683529290522054600019811461035c578181101561034d57604051637dc7a0d960e11b81526001600160a01b038416600482015260248101829052604481018390526064015b60405180910390fd5b61035c8484848403600061042d565b50505050565b6001600160a01b03831661038c57604051634b637e8f60e11b815260006004820152602401610344565b6001600160a01b0382166103b65760405163ec442f0560e01b815260006004820152602401610344565b6102da838383610502565b6001600160a01b0382166103eb5760405163ec442f0560e01b815260006004820152602401610344565b6102a260008383610502565b6001600160a01b03821661042157604051634b637e8f60e11b815260006004820152602401610344565b6102a282600083610502565b6001600160a01b0384166104575760405163e602df0560e01b815260006004820152602401610344565b6001600160a01b03831661048157604051634a1406b160e11b815260006004820152602401610344565b6001600160a01b038085166000908152600160209081526040808320938716835292905220829055801561035c57826001600160a01b0316846001600160a01b03167f8c5be1e5ebec7d5bd14f71427d1e84f3dd0314c0f7b2291e5b200ac8c7c3b925846040516104f491815260200190565b60405180910390a350505050565b6001600160a01b03831661052d578060026000828254610522919061078c565b9091555061059f9050565b6001600160a01b038316600090815260208190526040902054818110156105805760405163391434e360e21b81526001600160a01b03851660048201526024810182905260448101839052606401610344565b6001600160a01b03841660009081526020819052604090209082900390555b6001600160a01b0382166105bb576002805482900390556105da565b6001600160a01b03821660009081526020819052604090208054820190555b816001600160a01b0316836001600160a01b03167fddf252ad1be2c89b69c2b068fc378daa952ba7f163c4a11628f55a4df523b3ef8360405161061f91815260200190565b60405180910390a3505050565b60006020808352835180602085015260005b8181101561065a5785810183015185820160400152820161063e565b506000604082860101526040601f19601f8301168501019250505092915050565b80356001600160a01b038116811461069257600080fd5b919050565b600080604083850312156106aa57600080fd5b6106b38361067b565b946020939093013593505050565b6000806000606084860312156106d657600080fd5b6106df8461067b565b92506106ed6020850161067b565b9150604084013590509250925092565b60006020828403121561070f57600080fd5b6107188261067b565b9392505050565b6000806040838503121561073257600080fd5b61073b8361067b565b91506107496020840161067b565b90509250929050565b600181811c9082168061076657607f821691505b60208210810361078657634e487b7160e01b600052602260045260246000fd5b50919050565b8082018082111561026e57634e487b7160e01b600052601160045260246000fdfea264697066735822122040151e1e2dbfb1fa32be9d0004c5ce8859a46eb22f499d113218929f82a9c3f664736f6c63430008190033a2646970667358221220278cdea4125578e7311855e3d73e365e49fc6a05c38ebd0815cbc1aede09383764736f6c63430008190033608060405234801561001057600080fd5b506040518060400160405280600981526020016845524332304d6f636b60b81b815250604051806040016040528060048152602001634532304d60e01b815250816003908161005f9190610115565b50600461006c8282610115565b5050506101d4565b634e487b7160e01b600052604160045260246000fd5b600181811c9082168061009e57607f821691505b6020821081036100be57634e487b7160e01b600052602260045260246000fd5b50919050565b601f821115610110576000816000526020600020601f850160051c810160208610156100ed5750805b601f850160051c820191505b8181101561010c578281556001016100f9565b5050505b505050565b81516001600160401b0381111561012e5761012e610074565b6101428161013c845461008a565b846100c4565b602080601f831160018114610177576000841561015f5750858301515b600019600386901b1c1916600185901b17855561010c565b600085815260208120601f198616915b828110156101a657888601518255948401946001909101908401610187565b50858210156101c45787850151600019600388901b60f8161c191681555b5050505050600190811b01905550565b6107e3806101e36000396000f3fe608060405234801561001057600080fd5b50600436106100a95760003560e01c806340c10f191161007157806340c10f191461012357806370a082311461013857806395d89b41146101615780639dc29fac14610169578063a9059cbb1461017c578063dd62ed3e1461018f57600080fd5b806306fdde03146100ae578063095ea7b3146100cc57806318160ddd146100ef57806323b872dd14610101578063313ce56714610114575b600080fd5b6100b66101c8565b6040516100c3919061062c565b60405180910390f35b6100df6100da366004610697565b61025a565b60405190151581526020016100c3565b6002545b6040519081526020016100c3565b6100df61010f3660046106c1565b610274565b604051601281526020016100c3565b610136610131366004610697565b610298565b005b6100f36101463660046106fd565b6001600160a01b031660009081526020819052604090205490565b6100b66102a6565b610136610177366004610697565b6102b5565b6100df61018a366004610697565b6102bf565b6100f361019d36600461071f565b6001600160a01b03918216600090815260016020908152604080832093909416825291909152205490565b6060600380546101d790610752565b80601f016020809104026020016040519081016040528092919081815260200182805461020390610752565b80156102505780601f1061022557610100808354040283529160200191610250565b820191906000526020600020905b81548152906001019060200180831161023357829003601f168201915b5050505050905090565b6000336102688185856102cd565b60019150505b92915050565b6000336102828582856102df565b61028d858585610362565b506001949350505050565b6102a282826103c1565b5050565b6060600480546101d790610752565b6102a282826103f7565b600033610268818585610362565b6102da838383600161042d565b505050565b6001600160a01b03838116600090815260016020908152604080832093861683529290522054600019811461035c578181101561034d57604051637dc7a0d960e11b81526001600160a01b038416600482015260248101829052604481018390526064015b60405180910390fd5b61035c8484848403600061042d565b50505050565b6001600160a01b03831661038c57604051634b637e8f60e11b815260006004820152602401610344565b6001600160a01b0382166103b65760405163ec442f0560e01b815260006004820152602401610344565b6102da838383610502565b6001600160a01b0382166103eb5760405163ec442f0560e01b815260006004820152602401610344565b6102a260008383610502565b6001600160a01b03821661042157604051634b637e8f60e11b815260006004820152602401610344565b6102a282600083610502565b6001600160a01b0384166104575760405163e602df0560e01b815260006004820152602401610344565b6001600160a01b03831661048157604051634a1406b160e11b815260006004820152602401610344565b6001600160a01b038085166000908152600160209081526040808320938716835292905220829055801561035c57826001600160a01b0316846001600160a01b03167f8c5be1e5ebec7d5bd14f71427d1e84f3dd0314c0f7b2291e5b200ac8c7c3b925846040516104f491815260200190565b60405180910390a350505050565b6001600160a01b03831661052d578060026000828254610522919061078c565b9091555061059f9050565b6001600160a01b038316600090815260208190526040902054818110156105805760405163391434e360e21b81526001600160a01b03851660048201526024810182905260448101839052606401610344565b6001600160a01b03841660009081526020819052604090209082900390555b6001600160a01b0382166105bb576002805482900390556105da565b6001600160a01b03821660009081526020819052604090208054820190555b816001600160a01b0316836001600160a01b03167fddf252ad1be2c89b69c2b068fc378daa952ba7f163c4a11628f55a4df523b3ef8360405161061f91815260200190565b60405180910390a3505050565b60006020808352835180602085015260005b8181101561065a5785810183015185820160400152820161063e565b506000604082860101526040601f19601f8301168501019250505092915050565b80356001600160a01b038116811461069257600080fd5b919050565b600080604083850312156106aa57600080fd5b6106b38361067b565b946020939093013593505050565b6000806000606084860312156106d657600080fd5b6106df8461067b565b92506106ed6020850161067b565b9150604084013590509250925092565b60006020828403121561070f57600080fd5b6107188261067b565b9392505050565b6000806040838503121561073257600080fd5b61073b8361067b565b91506107496020840161067b565b90509250929050565b600181811c9082168061076657607f821691505b60208210810361078657634e487b7160e01b600052602260045260246000fd5b50919050565b8082018082111561026e57634e487b7160e01b600052601160045260246000fdfea264697066735822122040151e1e2dbfb1fa32be9d0004c5ce8859a46eb22f499d113218929f82a9c3f664736f6c6343000819003360a06040526005805461ffff60a01b1916905534801561001e57600080fd5b506040516110ae3803806110ae83398101604081905261003d916100b5565b6001600160a01b0380821660805282166100695760405162b30c8d60e31b815260040160405180910390fd5b50600080546001600160a01b039092166001600160a01b03199283168117909155600580549092161790556100e8565b80516001600160a01b03811681146100b057600080fd5b919050565b600080604083850312156100c857600080fd5b6100d183610099565b91506100df60208401610099565b90509250929050565b608051610f88610126600039600081816101d8015281816102580152818161031101528181610422015281816104c701526106cf0152610f886000f3fe608060405234801561001057600080fd5b50600436106101155760003560e01c806381158fe3116100a2578063ad7a672f11610071578063ad7a672f14610224578063ca1d209d1461022d578063d7b4750c14610240578063dba6335f14610253578063dc0d3dff1461027a57600080fd5b806381158fe3146101ce578063893d20e8146101d65780639a33e300146101fc578063ab7cc84d1461021157600080fd5b80633ccfd60b116100e95780633ccfd60b1461016b5780633e413bee146101755780635c6b932b146101885780637392a573146101a857806377b53ece146101bb57600080fd5b806213c58a1461011a578063064343221461013657806312b583491461015b57806329f5633f14610163575b600080fd5b61012360025481565b6040519081526020015b60405180910390f35b6005546001600160a01b03165b6040516001600160a01b03909116815260200161012d565b600354610123565b61012361028d565b610173610306565b005b600054610143906001600160a01b031681565b610123610196366004610bea565b60066020526000908152604090205481565b6101736101b6366004610c1a565b610522565b600554610143906001600160a01b031681565b610123610605565b7f0000000000000000000000000000000000000000000000000000000000000000610143565b610204610636565b60405161012d9190610c57565b61017361021f366004610ca0565b6106c4565b61012360035481565b61017361023b366004610c1a565b6107a6565b61014361024e366004610c1a565b6108c9565b6101437f000000000000000000000000000000000000000000000000000000000000000081565b610143610288366004610c1a565b6108f9565b60008054604051636eb1769f60e11b81523360048201523060248201526001600160a01b039091169063dd62ed3e906044015b602060405180830381865afa1580156102dd573d6000803e3d6000fd5b505050506040513d601f19601f820116820180604052508101906103019190610d55565b905090565b336001600160a01b037f0000000000000000000000000000000000000000000000000000000000000000161461034f576040516330cd747160e01b815260040160405180910390fd5b600254600354101561039b5760405162461bcd60e51b815260206004820152601060248201526f11dbd85b081b9bdd081c995858da195960821b60448201526064015b60405180910390fd5b600080546040516370a0823160e01b81523060048201526001600160a01b03909116906370a0823190602401602060405180830381865afa1580156103e4573d6000803e3d6000fd5b505050506040513d601f19601f820116820180604052508101906104089190610d55565b60005460405163a9059cbb60e01b81526001600160a01b037f0000000000000000000000000000000000000000000000000000000000000000811660048301526024820184905292935091169063a9059cbb906044016020604051808303816000875af115801561047d573d6000803e3d6000fd5b505050506040513d601f19601f820116820180604052508101906104a19190610d6e565b5060006003556005805460ff60a81b1916600160a81b1790556040516001600160a01b037f000000000000000000000000000000000000000000000000000000000000000016907feaff4b37086828766ad3268786972c0cd24259d4c87a80f9d3963a3c3d999b0d906105179084815260200190565b60405180910390a250565b6000610531620f424083610da6565b60005490915061054c906001600160a01b0316333084610923565b336000908152600660205260408120805483929061056b908490610dc3565b9250508190555080600360008282546105849190610dc3565b9091555050600480546001810182556000919091527f8a35acfbc15ff81a39ae7d344fd709f28e8600b4aa8c65c6b64bfe7fe36bd19b0180546001600160a01b031916339081179091556040518281527f54a5b8782470a0d2c022b3b9e5e729503ac5dbdfe053afeb4559f9297f7565a69060200160405180910390a25050565b600080546040516370a0823160e01b81523360048201526001600160a01b03909116906370a08231906024016102c0565b6001805461064390610dd6565b80601f016020809104026020016040519081016040528092919081815260200182805461066f90610dd6565b80156106bc5780601f10610691576101008083540402835291602001916106bc565b820191906000526020600020905b81548152906001019060200180831161069f57829003601f168201915b505050505081565b336001600160a01b037f0000000000000000000000000000000000000000000000000000000000000000161461070d576040516330cd747160e01b815260040160405180910390fd5b600554600160a01b900460ff16156107725760405162461bcd60e51b815260206004820152602260248201527f4e616d6520616e6420676f616c2068617320616c7265616479206265656e2073604482015261195d60f21b6064820152608401610392565b600161077e8382610e60565b5061078c620f424082610da6565b60025550506005805460ff60a01b1916600160a01b179055565b600554600160a81b900460ff16156108005760405162461bcd60e51b815260206004820152601b60248201527f50726f6a65637420697320616c726561647920636f6d706c65746500000000006044820152606401610392565b600061080f620f424083610da6565b6000546040516323b872dd60e01b8152336004820152306024820152604481018390529192506001600160a01b0316906323b872dd906064016020604051808303816000875af1158015610867573d6000803e3d6000fd5b505050506040513d601f19601f8201168201806040525081019061088b9190610d6e565b61054c5760405162461bcd60e51b815260206004820152600f60248201526e151c985b9cd9995c8819985a5b1959608a1b6044820152606401610392565b6000600482815481106108de576108de610f20565b6000918252602090912001546001600160a01b031692915050565b6004818154811061090957600080fd5b6000918252602090912001546001600160a01b0316905081565b604080516001600160a01b0385811660248301528416604482015260648082018490528251808303909101815260849091019091526020810180516001600160e01b03166323b872dd60e01b17905261097d908590610983565b50505050565b60006109d8826040518060400160405280602081526020017f5361666545524332303a206c6f772d6c6576656c2063616c6c206661696c6564815250856001600160a01b0316610a5a9092919063ffffffff16565b805190915015610a5557808060200190518101906109f69190610d6e565b610a555760405162461bcd60e51b815260206004820152602a60248201527f5361666545524332303a204552433230206f7065726174696f6e20646964206e6044820152691bdd081cdd58d8d9595960b21b6064820152608401610392565b505050565b6060610a698484600085610a71565b949350505050565b606082471015610ad25760405162461bcd60e51b815260206004820152602660248201527f416464726573733a20696e73756666696369656e742062616c616e636520666f6044820152651c8818d85b1b60d21b6064820152608401610392565b600080866001600160a01b03168587604051610aee9190610f36565b60006040518083038185875af1925050503d8060008114610b2b576040519150601f19603f3d011682016040523d82523d6000602084013e610b30565b606091505b5091509150610b4187838387610b4c565b979650505050505050565b60608315610bbb578251600003610bb4576001600160a01b0385163b610bb45760405162461bcd60e51b815260206004820152601d60248201527f416464726573733a2063616c6c20746f206e6f6e2d636f6e74726163740000006044820152606401610392565b5081610a69565b610a698383815115610bd05781518083602001fd5b8060405162461bcd60e51b81526004016103929190610c57565b600060208284031215610bfc57600080fd5b81356001600160a01b0381168114610c1357600080fd5b9392505050565b600060208284031215610c2c57600080fd5b5035919050565b60005b83811015610c4e578181015183820152602001610c36565b50506000910152565b6020815260008251806020840152610c76816040850160208701610c33565b601f01601f19169190910160400192915050565b634e487b7160e01b600052604160045260246000fd5b60008060408385031215610cb357600080fd5b823567ffffffffffffffff80821115610ccb57600080fd5b818501915085601f830112610cdf57600080fd5b813581811115610cf157610cf1610c8a565b604051601f8201601f19908116603f01168101908382118183101715610d1957610d19610c8a565b81604052828152886020848701011115610d3257600080fd5b826020860160208301376000602093820184015298969091013596505050505050565b600060208284031215610d6757600080fd5b5051919050565b600060208284031215610d8057600080fd5b81518015158114610c1357600080fd5b634e487b7160e01b600052601160045260246000fd5b8082028115828204841417610dbd57610dbd610d90565b92915050565b80820180821115610dbd57610dbd610d90565b600181811c90821680610dea57607f821691505b602082108103610e0a57634e487b7160e01b600052602260045260246000fd5b50919050565b601f821115610a55576000816000526020600020601f850160051c81016020861015610e395750805b601f850160051c820191505b81811015610e5857828155600101610e45565b505050505050565b815167ffffffffffffffff811115610e7a57610e7a610c8a565b610e8e81610e888454610dd6565b84610e10565b602080601f831160018114610ec35760008415610eab5750858301515b600019600386901b1c1916600185901b178555610e58565b600085815260208120601f198616915b82811015610ef257888601518255948401946001909101908401610ed3565b5085821015610f105787850151600019600388901b60f8161c191681555b5050505050600190811b01905550565b634e487b7160e01b600052603260045260246000fd5b60008251610f48818460208701610c33565b919091019291505056fea2646970667358221220f0d577917593e75cb9849181221df58610e68bad9d89fa4ef471bde999b0f7ff64736f6c63430008190033a26469706673582212201947e5cd09b8de678e529a4f21ed410d7741c8465159d1f992849de47273cc9464736f6c63430008190033a26469706673582212208a2c0b3d39866438b550155050767b182c9e06b523780da19536c0b8d7df174064736f6c63430008190033","linkReferences":{}},"methodIdentifiers":{"createNewProject()":"dff4b13f","crossChainDonation(uint256,uint256)":"2e79cfb5","getProject(uint256)":"f0f3f2c8","getProjectList()":"5880ef34","goFundMeProjects(uint256)":"9f5c1e08","projectCount()":"36fbad26","usdc()":"3e413bee"},"id":39}