{"abi":[{"type":"function","name":"createNewProject","inputs":[],"outputs":[],"stateMutability":"nonpayable"},{"type":"function","name":"getProject","inputs":[{"name":"_index","type":"uint256","internalType":"uint256"}],"outputs":[{"name":"","type":"address","internalType":"contract GoFundMe"}],"stateMutability":"view"},{"type":"function","name":"getProjectList","inputs":[],"outputs":[{"name":"","type":"address[]","internalType":"contract GoFundMe[]"}],"stateMutability":"view"},{"type":"function","name":"goFundMeProjects","inputs":[{"name":"","type":"uint256","internalType":"uint256"}],"outputs":[{"name":"","type":"address","internalType":"contract GoFundMe"}],"stateMutability":"view"},{"type":"function","name":"projectCount","inputs":[],"outputs":[{"name":"","type":"uint256","internalType":"uint256"}],"stateMutability":"view"},{"type":"event","name":"ProjectCreated","inputs":[{"name":"_owner","type":"address","indexed":true,"internalType":"address"},{"name":"_project","type":"address","indexed":false,"internalType":"contract GoFundMe"}],"anonymous":false}],"bytecode":{"object":"0x60806040526000600255348015601457600080fd5b50611737806100246000396000f3fe608060405234801561001057600080fd5b50600436106100575760003560e01c806336fbad261461005c5780635880ef34146100785780639f5c1e081461008d578063dff4b13f146100b8578063f0f3f2c8146100c2575b600080fd5b61006560025481565b6040519081526020015b60405180910390f35b6100806100d5565b60405161006f91906102e5565b6100a061009b366004610332565b610137565b6040516001600160a01b03909116815260200161006f565b6100c0610161565b005b6100a06100d0366004610332565b6102a8565b6060600180548060200260200160405190810160405280929190818152602001828054801561012d57602002820191906000526020600020905b81546001600160a01b0316815260019091019060200180831161010f575b5050505050905090565b6001818154811061014757600080fd5b6000918252602090912001546001600160a01b0316905081565b600060405161016f906102d8565b604051809103906000f08015801561018b573d6000803e3d6000fd5b5060405163148aedc160e21b81523360048201529091506001600160a01b0382169063522bb704906024016020604051808303816000875af11580156101d5573d6000803e3d6000fd5b505050506040513d601f19601f820116820180604052508101906101f9919061034b565b600080546001600160a01b03929092166001600160a01b0319928316811782556001805480820182559083527fb10e2d527612073b26eecdfd717e6a320cf44b4afac2b0732d9fcbe2b7fa0cf601805490931617909155600280549161025e8361037b565b90915550506000546040516001600160a01b03909116815233907f8cb1f5e0b7508307e592a641586f535256dba226b02388100691c6133f65e22e9060200160405180910390a250565b6000600182815481106102bd576102bd6103a2565b6000918252602090912001546001600160a01b031692915050565b611349806103b983390190565b6020808252825182820181905260009190848201906040850190845b818110156103265783516001600160a01b031683529284019291840191600101610301565b50909695505050505050565b60006020828403121561034457600080fd5b5035919050565b60006020828403121561035d57600080fd5b81516001600160a01b038116811461037457600080fd5b9392505050565b60006001820161039b57634e487b7160e01b600052601160045260246000fd5b5060010190565b634e487b7160e01b600052603260045260246000fdfe6080604052600c805462ff00ff191662010001179055348015602057600080fd5b50611319806100306000396000f3fe608060405234801561001057600080fd5b50600436106100365760003560e01c8063522bb7041461003b578063f8ccbf471461006b575b600080fd5b61004e6100493660046101a1565b61008e565b6040516001600160a01b0390911681526020015b60405180910390f35b600c5461007e9062010000900460ff1681565b6040519015158152602001610062565b60008060405161009d9061016f565b604051809103906000f0801580156100b9573d6000803e3d6000fd5b5090506000816001600160a01b031663d7b657456040518163ffffffff1660e01b8152600401602060405180830381865afa1580156100fc573d6000803e3d6000fd5b505050506040513d601f19601f8201168201806040525081019061012091906101c5565b9050600081856040516101329061017c565b6001600160a01b03928316815291166020820152604001604051809103906000f080158015610165573d6000803e3d6000fd5b5095945050505050565b6103ab806101e383390190565b610d568061058e83390190565b6001600160a01b038116811461019e57600080fd5b50565b6000602082840312156101b357600080fd5b81356101be81610189565b9392505050565b6000602082840312156101d757600080fd5b81516101be8161018956fe6080604052600c805462ff00ff19166201000117905534801561002157600080fd5b5062aa36a619460161008257604080516020808201835260009091528151908101909152731c7d4b196cb0c7b01d743fbc6116a902379c723881525b51600d80546001600160a01b0319166001600160a01b03909216919091179055610179565b60001946016100bf5760408051602080820183526000909152815190810190915273a0b86991c6218b36c1d19d4a2e9eb0ce3606eb48815261005d565b60881946016100fc57604080516020808201835260009091528151908101909152733c499c542cef5e3811e1192ce70d8cc03d5c3359815261005d565b61a86819460161013a57604080516020808201835260009091528151908101909152735425890298aed601595a70ab815c96711a31bc65815261005d565b62013881194601610179576040805160208082018352600090915281519081019091527341e94eb019c0762f9bfcf9fb1e58725bfb0e7582815261005d565b610223806101886000396000f3fe608060405234801561001057600080fd5b506004361061007d5760003560e01c8063d0c068a01161005b578063d0c068a014610137578063d7b657451461016b578063ec4cf1ca14610196578063f8ccbf47146101ca57600080fd5b80632380f85314610082578063405f34cd146100cf57806344007e3814610103575b600080fd5b60408051602080820183526000909152815190810190915273a0b86991c6218b36c1d19d4a2e9eb0ce3606eb4881525b60405190516001600160a01b031681526020015b60405180910390f35b604080516020808201835260009091528151908101909152735425890298aed601595a70ab815c96711a31bc6581526100b2565b604080516020808201835260009091528151908101909152731c7d4b196cb0c7b01d743fbc6116a902379c723881526100b2565b6040805160208082018352600090915281519081019091527341e94eb019c0762f9bfcf9fb1e58725bfb0e758281526100b2565b600d5461017e906001600160a01b031681565b6040516001600160a01b0390911681526020016100c6565b604080516020808201835260009091528151908101909152733c499c542cef5e3811e1192ce70d8cc03d5c335981526100b2565b600c546101dd9062010000900460ff1681565b60405190151581526020016100c656fea264697066735822122092f8d58e980cdbe08324bf3798589cf17611c78926a28693c893adc286a53de764736f6c6343000819003360a06040526005805461ffff60a01b1916905534801561001e57600080fd5b50604051610d56380380610d5683398101604081905261003d9161008f565b6001600160a01b0390811660805260008054929091166001600160a01b03199283168117909155600580549092161790556100c2565b80516001600160a01b038116811461008a57600080fd5b919050565b600080604083850312156100a257600080fd5b6100ab83610073565b91506100b960208401610073565b90509250929050565b608051610c56610100600039600081816101ba0152818161023a015281816102f301528181610404015281816104a901526105ce0152610c566000f3fe608060405234801561001057600080fd5b506004361061010a5760003560e01c806381158fe3116100a2578063ad7a672f11610071578063ad7a672f14610206578063ca1d209d1461020f578063d7b4750c14610222578063dba6335f14610235578063dc0d3dff1461025c57600080fd5b806381158fe3146101b0578063893d20e8146101b85780639a33e300146101de578063ab7cc84d146101f357600080fd5b80633ccfd60b116100de5780633ccfd60b146101605780633e413bee1461016a5780635c6b932b1461017d57806377b53ece1461019d57600080fd5b806213c58a1461010f578063064343221461012b57806312b583491461015057806329f5633f14610158575b600080fd5b61011860025481565b6040519081526020015b60405180910390f35b6005546001600160a01b03165b6040516001600160a01b039091168152602001610122565b600354610118565b61011861026f565b6101686102e8565b005b600054610138906001600160a01b031681565b61011861018b3660046108db565b60066020526000908152604090205481565b600554610138906001600160a01b031681565b610118610504565b7f0000000000000000000000000000000000000000000000000000000000000000610138565b6101e6610535565b604051610122919061090b565b610168610201366004610970565b6105c3565b61011860035481565b61016861021d366004610a25565b6106a5565b610138610230366004610a25565b610881565b6101387f000000000000000000000000000000000000000000000000000000000000000081565b61013861026a366004610a25565b6108b1565b60008054604051636eb1769f60e11b81523360048201523060248201526001600160a01b039091169063dd62ed3e906044015b602060405180830381865afa1580156102bf573d6000803e3d6000fd5b505050506040513d601f19601f820116820180604052508101906102e39190610a3e565b905090565b336001600160a01b037f00000000000000000000000000000000000000000000000000000000000000001614610331576040516330cd747160e01b815260040160405180910390fd5b600254600354101561037d5760405162461bcd60e51b815260206004820152601060248201526f11dbd85b081b9bdd081c995858da195960821b60448201526064015b60405180910390fd5b600080546040516370a0823160e01b81523060048201526001600160a01b03909116906370a0823190602401602060405180830381865afa1580156103c6573d6000803e3d6000fd5b505050506040513d601f19601f820116820180604052508101906103ea9190610a3e565b60005460405163a9059cbb60e01b81526001600160a01b037f0000000000000000000000000000000000000000000000000000000000000000811660048301526024820184905292935091169063a9059cbb906044016020604051808303816000875af115801561045f573d6000803e3d6000fd5b505050506040513d601f19601f820116820180604052508101906104839190610a57565b5060006003556005805460ff60a81b1916600160a81b1790556040516001600160a01b037f000000000000000000000000000000000000000000000000000000000000000016907feaff4b37086828766ad3268786972c0cd24259d4c87a80f9d3963a3c3d999b0d906104f99084815260200190565b60405180910390a250565b600080546040516370a0823160e01b81523360048201526001600160a01b03909116906370a08231906024016102a2565b6001805461054290610a79565b80601f016020809104026020016040519081016040528092919081815260200182805461056e90610a79565b80156105bb5780601f10610590576101008083540402835291602001916105bb565b820191906000526020600020905b81548152906001019060200180831161059e57829003601f168201915b505050505081565b336001600160a01b037f0000000000000000000000000000000000000000000000000000000000000000161461060c576040516330cd747160e01b815260040160405180910390fd5b600554600160a01b900460ff16156106715760405162461bcd60e51b815260206004820152602260248201527f4e616d6520616e6420676f616c2068617320616c7265616479206265656e2073604482015261195d60f21b6064820152608401610374565b600161067d8382610b04565b5061068b620f424082610bda565b60025550506005805460ff60a01b1916600160a01b179055565b600554600160a81b900460ff16156106ff5760405162461bcd60e51b815260206004820152601b60248201527f50726f6a65637420697320616c726561647920636f6d706c65746500000000006044820152606401610374565b600061070e620f424083610bda565b6000546040516323b872dd60e01b8152336004820152306024820152604481018390529192506001600160a01b0316906323b872dd906064016020604051808303816000875af1158015610766573d6000803e3d6000fd5b505050506040513d601f19601f8201168201806040525081019061078a9190610a57565b6107c85760405162461bcd60e51b815260206004820152600f60248201526e151c985b9cd9995c8819985a5b1959608a1b6044820152606401610374565b33600090815260066020526040812080548392906107e7908490610bf7565b9250508190555080600360008282546108009190610bf7565b9091555050600480546001810182556000919091527f8a35acfbc15ff81a39ae7d344fd709f28e8600b4aa8c65c6b64bfe7fe36bd19b0180546001600160a01b031916339081179091556040518281527f54a5b8782470a0d2c022b3b9e5e729503ac5dbdfe053afeb4559f9297f7565a69060200160405180910390a25050565b60006004828154811061089657610896610c0a565b6000918252602090912001546001600160a01b031692915050565b600481815481106108c157600080fd5b6000918252602090912001546001600160a01b0316905081565b6000602082840312156108ed57600080fd5b81356001600160a01b038116811461090457600080fd5b9392505050565b60006020808352835180602085015260005b818110156109395785810183015185820160400152820161091d565b506000604082860101526040601f19601f8301168501019250505092915050565b634e487b7160e01b600052604160045260246000fd5b6000806040838503121561098357600080fd5b823567ffffffffffffffff8082111561099b57600080fd5b818501915085601f8301126109af57600080fd5b8135818111156109c1576109c161095a565b604051601f8201601f19908116603f011681019083821181831017156109e9576109e961095a565b81604052828152886020848701011115610a0257600080fd5b826020860160208301376000602093820184015298969091013596505050505050565b600060208284031215610a3757600080fd5b5035919050565b600060208284031215610a5057600080fd5b5051919050565b600060208284031215610a6957600080fd5b8151801515811461090457600080fd5b600181811c90821680610a8d57607f821691505b602082108103610aad57634e487b7160e01b600052602260045260246000fd5b50919050565b601f821115610aff576000816000526020600020601f850160051c81016020861015610adc5750805b601f850160051c820191505b81811015610afb57828155600101610ae8565b5050505b505050565b815167ffffffffffffffff811115610b1e57610b1e61095a565b610b3281610b2c8454610a79565b84610ab3565b602080601f831160018114610b675760008415610b4f5750858301515b600019600386901b1c1916600185901b178555610afb565b600085815260208120601f198616915b82811015610b9657888601518255948401946001909101908401610b77565b5085821015610bb45787850151600019600388901b60f8161c191681555b5050505050600190811b01905550565b634e487b7160e01b600052601160045260246000fd5b8082028115828204841417610bf157610bf1610bc4565b92915050565b80820180821115610bf157610bf1610bc4565b634e487b7160e01b600052603260045260246000fdfea2646970667358221220eb63a49e7da36fffcf443d80c58229b67c3220ac6f0afc1382040b06519e663f64736f6c63430008190033a2646970667358221220432f0974eb3ba9020072be91e5eb3521d752b346a81abf6e66991149826b50ee64736f6c63430008190033a2646970667358221220f2a4ad166704cdd82b0d849235cf96e059daee528762ba73faa4d535be679b4964736f6c63430008190033","linkReferences":{}},"methodIdentifiers":{"createNewProject()":"dff4b13f","getProject(uint256)":"f0f3f2c8","getProjectList()":"5880ef34","goFundMeProjects(uint256)":"9f5c1e08","projectCount()":"36fbad26"},"id":22}