{"abi":[{"type":"function","name":"createNewProject","inputs":[],"outputs":[],"stateMutability":"nonpayable"},{"type":"function","name":"getProject","inputs":[{"name":"_index","type":"uint256","internalType":"uint256"}],"outputs":[{"name":"","type":"address","internalType":"contract GoFundMe"}],"stateMutability":"view"},{"type":"function","name":"getProjectList","inputs":[],"outputs":[{"name":"","type":"address[]","internalType":"contract GoFundMe[]"}],"stateMutability":"view"},{"type":"function","name":"goFundMeProjects","inputs":[{"name":"","type":"uint256","internalType":"uint256"}],"outputs":[{"name":"","type":"address","internalType":"contract GoFundMe"}],"stateMutability":"view"},{"type":"function","name":"projectCount","inputs":[],"outputs":[{"name":"","type":"uint256","internalType":"uint256"}],"stateMutability":"view"},{"type":"event","name":"ProjectCreated","inputs":[{"name":"_owner","type":"address","indexed":true,"internalType":"address"},{"name":"_project","type":"address","indexed":false,"internalType":"contract GoFundMe"}],"anonymous":false}],"bytecode":{"object":"0x60806040526000600255348015601457600080fd5b50612b9b806100246000396000f3fe608060405234801561001057600080fd5b50600436106100575760003560e01c806336fbad261461005c5780635880ef34146100785780639f5c1e081461008d578063dff4b13f146100b8578063f0f3f2c8146100c2575b600080fd5b61006560025481565b6040519081526020015b60405180910390f35b6100806100d5565b60405161006f91906102e5565b6100a061009b366004610332565b610137565b6040516001600160a01b03909116815260200161006f565b6100c0610161565b005b6100a06100d0366004610332565b6102a8565b6060600180548060200260200160405190810160405280929190818152602001828054801561012d57602002820191906000526020600020905b81546001600160a01b0316815260019091019060200180831161010f575b5050505050905090565b6001818154811061014757600080fd5b6000918252602090912001546001600160a01b0316905081565b600060405161016f906102d8565b604051809103906000f08015801561018b573d6000803e3d6000fd5b5060405163148aedc160e21b81523360048201529091506001600160a01b0382169063522bb704906024016020604051808303816000875af11580156101d5573d6000803e3d6000fd5b505050506040513d601f19601f820116820180604052508101906101f9919061034b565b600080546001600160a01b03929092166001600160a01b0319928316811782556001805480820182559083527fb10e2d527612073b26eecdfd717e6a320cf44b4afac2b0732d9fcbe2b7fa0cf601805490931617909155600280549161025e8361037b565b90915550506000546040516001600160a01b03909116815233907f8cb1f5e0b7508307e592a641586f535256dba226b02388100691c6133f65e22e9060200160405180910390a250565b6000600182815481106102bd576102bd6103a2565b6000918252602090912001546001600160a01b031692915050565b6127ad806103b983390190565b6020808252825182820181905260009190848201906040850190845b818110156103265783516001600160a01b031683529284019291840191600101610301565b50909695505050505050565b60006020828403121561034457600080fd5b5035919050565b60006020828403121561035d57600080fd5b81516001600160a01b038116811461037457600080fd5b9392505050565b60006001820161039b57634e487b7160e01b600052601160045260246000fd5b5060010190565b634e487b7160e01b600052603260045260246000fdfe6080604052600c805462ff00ff191662010001179055348015602057600080fd5b5061277d806100306000396000f3fe608060405234801561001057600080fd5b50600436106100365760003560e01c8063522bb7041461003b578063f8ccbf471461006b575b600080fd5b61004e6100493660046101a1565b61008e565b6040516001600160a01b0390911681526020015b60405180910390f35b600c5461007e9062010000900460ff1681565b6040519015158152602001610062565b60008060405161009d9061016f565b604051809103906000f0801580156100b9573d6000803e3d6000fd5b5090506000816001600160a01b031663d7b657456040518163ffffffff1660e01b8152600401602060405180830381865afa1580156100fc573d6000803e3d6000fd5b505050506040513d601f19601f8201168201806040525081019061012091906101c5565b9050600081856040516101329061017c565b6001600160a01b03928316815291166020820152604001604051809103906000f080158015610165573d6000803e3d6000fd5b5095945050505050565b611913806101e383390190565b610c5280611af683390190565b6001600160a01b038116811461019e57600080fd5b50565b6000602082840312156101b357600080fd5b81356101be81610189565b9392505050565b6000602082840312156101d757600080fd5b81516101be8161018956fe6080604052600c805462ff00ff19166201000117905534801561002157600080fd5b5062aa36a619460161008257604080516020808201835260009091528151908101909152731c7d4b196cb0c7b01d743fbc6116a902379c723881525b51600d80546001600160a01b0319166001600160a01b0390921691909117905561025f565b60001946016100bf5760408051602080820183526000909152815190810190915273a0b86991c6218b36c1d19d4a2e9eb0ce3606eb48815261005d565b60881946016100fc57604080516020808201835260009091528151908101909152733c499c542cef5e3811e1192ce70d8cc03d5c3359815261005d565b61a86819460161013a57604080516020808201835260009091528151908101909152735425890298aed601595a70ab815c96711a31bc65815261005d565b61005d604080516020810190915260008152600060405161015a90610227565b604051809103906000f080158015610176573d6000803e3d6000fd5b5090506001600160a01b0381166340c10f1973f39fd6e51aad88f6f4ce6ab8827279cfffb922666101ab620f42406064610234565b6040516001600160e01b031960e085901b1681526001600160a01b0390921660048301526024820152604401600060405180830381600087803b1580156101f157600080fd5b505af1158015610205573d6000803e3d6000fd5b505060408051602081019091526001600160a01b039093168352509092915050565b6109c680610f4d83390190565b808202811582820484141761025957634e487b7160e01b600052601160045260246000fd5b92915050565b610cdf8061026e6000396000f3fe608060405234801561001057600080fd5b506004361061007d5760003560e01c8063d7b657451161005b578063d7b6574514610137578063d8db218814610162578063ec4cf1ca1461016a578063f8ccbf471461019e57600080fd5b80632380f85314610082578063405f34cd146100cf57806344007e3814610103575b600080fd5b60408051602080820183526000909152815190810190915273a0b86991c6218b36c1d19d4a2e9eb0ce3606eb4881525b60405190516001600160a01b031681526020015b60405180910390f35b604080516020808201835260009091528151908101909152735425890298aed601595a70ab815c96711a31bc6581526100b2565b604080516020808201835260009091528151908101909152731c7d4b196cb0c7b01d743fbc6116a902379c723881526100b2565b600d5461014a906001600160a01b031681565b6040516001600160a01b0390911681526020016100c6565b6100b26101c1565b604080516020808201835260009091528151908101909152733c499c542cef5e3811e1192ce70d8cc03d5c335981526100b2565b600c546101b19062010000900460ff1681565b60405190151581526020016100c6565b60408051602081019091526000815260006040516101de906102ab565b604051809103906000f0801580156101fa573d6000803e3d6000fd5b5090506001600160a01b0381166340c10f1973f39fd6e51aad88f6f4ce6ab8827279cfffb9226661022f620f424060646102b8565b6040516001600160e01b031960e085901b1681526001600160a01b0390921660048301526024820152604401600060405180830381600087803b15801561027557600080fd5b505af1158015610289573d6000803e3d6000fd5b505060408051602081019091526001600160a01b039093168352509092915050565b6109c6806102e483390190565b80820281158282048414176102dd57634e487b7160e01b600052601160045260246000fd5b9291505056fe608060405234801561001057600080fd5b506040518060400160405280600981526020016845524332304d6f636b60b81b815250604051806040016040528060048152602001634532304d60e01b815250816003908161005f9190610115565b50600461006c8282610115565b5050506101d4565b634e487b7160e01b600052604160045260246000fd5b600181811c9082168061009e57607f821691505b6020821081036100be57634e487b7160e01b600052602260045260246000fd5b50919050565b601f821115610110576000816000526020600020601f850160051c810160208610156100ed5750805b601f850160051c820191505b8181101561010c578281556001016100f9565b5050505b505050565b81516001600160401b0381111561012e5761012e610074565b6101428161013c845461008a565b846100c4565b602080601f831160018114610177576000841561015f5750858301515b600019600386901b1c1916600185901b17855561010c565b600085815260208120601f198616915b828110156101a657888601518255948401946001909101908401610187565b50858210156101c45787850151600019600388901b60f8161c191681555b5050505050600190811b01905550565b6107e3806101e36000396000f3fe608060405234801561001057600080fd5b50600436106100a95760003560e01c806340c10f191161007157806340c10f191461012357806370a082311461013857806395d89b41146101615780639dc29fac14610169578063a9059cbb1461017c578063dd62ed3e1461018f57600080fd5b806306fdde03146100ae578063095ea7b3146100cc57806318160ddd146100ef57806323b872dd14610101578063313ce56714610114575b600080fd5b6100b66101c8565b6040516100c3919061062c565b60405180910390f35b6100df6100da366004610697565b61025a565b60405190151581526020016100c3565b6002545b6040519081526020016100c3565b6100df61010f3660046106c1565b610274565b604051601281526020016100c3565b610136610131366004610697565b610298565b005b6100f36101463660046106fd565b6001600160a01b031660009081526020819052604090205490565b6100b66102a6565b610136610177366004610697565b6102b5565b6100df61018a366004610697565b6102bf565b6100f361019d36600461071f565b6001600160a01b03918216600090815260016020908152604080832093909416825291909152205490565b6060600380546101d790610752565b80601f016020809104026020016040519081016040528092919081815260200182805461020390610752565b80156102505780601f1061022557610100808354040283529160200191610250565b820191906000526020600020905b81548152906001019060200180831161023357829003601f168201915b5050505050905090565b6000336102688185856102cd565b60019150505b92915050565b6000336102828582856102df565b61028d858585610362565b506001949350505050565b6102a282826103c1565b5050565b6060600480546101d790610752565b6102a282826103f7565b600033610268818585610362565b6102da838383600161042d565b505050565b6001600160a01b03838116600090815260016020908152604080832093861683529290522054600019811461035c578181101561034d57604051637dc7a0d960e11b81526001600160a01b038416600482015260248101829052604481018390526064015b60405180910390fd5b61035c8484848403600061042d565b50505050565b6001600160a01b03831661038c57604051634b637e8f60e11b815260006004820152602401610344565b6001600160a01b0382166103b65760405163ec442f0560e01b815260006004820152602401610344565b6102da838383610502565b6001600160a01b0382166103eb5760405163ec442f0560e01b815260006004820152602401610344565b6102a260008383610502565b6001600160a01b03821661042157604051634b637e8f60e11b815260006004820152602401610344565b6102a282600083610502565b6001600160a01b0384166104575760405163e602df0560e01b815260006004820152602401610344565b6001600160a01b03831661048157604051634a1406b160e11b815260006004820152602401610344565b6001600160a01b038085166000908152600160209081526040808320938716835292905220829055801561035c57826001600160a01b0316846001600160a01b03167f8c5be1e5ebec7d5bd14f71427d1e84f3dd0314c0f7b2291e5b200ac8c7c3b925846040516104f491815260200190565b60405180910390a350505050565b6001600160a01b03831661052d578060026000828254610522919061078c565b9091555061059f9050565b6001600160a01b038316600090815260208190526040902054818110156105805760405163391434e360e21b81526001600160a01b03851660048201526024810182905260448101839052606401610344565b6001600160a01b03841660009081526020819052604090209082900390555b6001600160a01b0382166105bb576002805482900390556105da565b6001600160a01b03821660009081526020819052604090208054820190555b816001600160a01b0316836001600160a01b03167fddf252ad1be2c89b69c2b068fc378daa952ba7f163c4a11628f55a4df523b3ef8360405161061f91815260200190565b60405180910390a3505050565b60006020808352835180602085015260005b8181101561065a5785810183015185820160400152820161063e565b506000604082860101526040601f19601f8301168501019250505092915050565b80356001600160a01b038116811461069257600080fd5b919050565b600080604083850312156106aa57600080fd5b6106b38361067b565b946020939093013593505050565b6000806000606084860312156106d657600080fd5b6106df8461067b565b92506106ed6020850161067b565b9150604084013590509250925092565b60006020828403121561070f57600080fd5b6107188261067b565b9392505050565b6000806040838503121561073257600080fd5b61073b8361067b565b91506107496020840161067b565b90509250929050565b600181811c9082168061076657607f821691505b60208210810361078657634e487b7160e01b600052602260045260246000fd5b50919050565b8082018082111561026e57634e487b7160e01b600052601160045260246000fdfea264697066735822122007de2f9ed8e7498d7da58345cbf9c14fbc80cbc5a57ee8680d4a17bdc445d51864736f6c63430008190033a26469706673582212203c9c55a4349bf0deb0f8f55e351676184605d4b3e90b5e59a4d30844764a58e264736f6c63430008190033608060405234801561001057600080fd5b506040518060400160405280600981526020016845524332304d6f636b60b81b815250604051806040016040528060048152602001634532304d60e01b815250816003908161005f9190610115565b50600461006c8282610115565b5050506101d4565b634e487b7160e01b600052604160045260246000fd5b600181811c9082168061009e57607f821691505b6020821081036100be57634e487b7160e01b600052602260045260246000fd5b50919050565b601f821115610110576000816000526020600020601f850160051c810160208610156100ed5750805b601f850160051c820191505b8181101561010c578281556001016100f9565b5050505b505050565b81516001600160401b0381111561012e5761012e610074565b6101428161013c845461008a565b846100c4565b602080601f831160018114610177576000841561015f5750858301515b600019600386901b1c1916600185901b17855561010c565b600085815260208120601f198616915b828110156101a657888601518255948401946001909101908401610187565b50858210156101c45787850151600019600388901b60f8161c191681555b5050505050600190811b01905550565b6107e3806101e36000396000f3fe608060405234801561001057600080fd5b50600436106100a95760003560e01c806340c10f191161007157806340c10f191461012357806370a082311461013857806395d89b41146101615780639dc29fac14610169578063a9059cbb1461017c578063dd62ed3e1461018f57600080fd5b806306fdde03146100ae578063095ea7b3146100cc57806318160ddd146100ef57806323b872dd14610101578063313ce56714610114575b600080fd5b6100b66101c8565b6040516100c3919061062c565b60405180910390f35b6100df6100da366004610697565b61025a565b60405190151581526020016100c3565b6002545b6040519081526020016100c3565b6100df61010f3660046106c1565b610274565b604051601281526020016100c3565b610136610131366004610697565b610298565b005b6100f36101463660046106fd565b6001600160a01b031660009081526020819052604090205490565b6100b66102a6565b610136610177366004610697565b6102b5565b6100df61018a366004610697565b6102bf565b6100f361019d36600461071f565b6001600160a01b03918216600090815260016020908152604080832093909416825291909152205490565b6060600380546101d790610752565b80601f016020809104026020016040519081016040528092919081815260200182805461020390610752565b80156102505780601f1061022557610100808354040283529160200191610250565b820191906000526020600020905b81548152906001019060200180831161023357829003601f168201915b5050505050905090565b6000336102688185856102cd565b60019150505b92915050565b6000336102828582856102df565b61028d858585610362565b506001949350505050565b6102a282826103c1565b5050565b6060600480546101d790610752565b6102a282826103f7565b600033610268818585610362565b6102da838383600161042d565b505050565b6001600160a01b03838116600090815260016020908152604080832093861683529290522054600019811461035c578181101561034d57604051637dc7a0d960e11b81526001600160a01b038416600482015260248101829052604481018390526064015b60405180910390fd5b61035c8484848403600061042d565b50505050565b6001600160a01b03831661038c57604051634b637e8f60e11b815260006004820152602401610344565b6001600160a01b0382166103b65760405163ec442f0560e01b815260006004820152602401610344565b6102da838383610502565b6001600160a01b0382166103eb5760405163ec442f0560e01b815260006004820152602401610344565b6102a260008383610502565b6001600160a01b03821661042157604051634b637e8f60e11b815260006004820152602401610344565b6102a282600083610502565b6001600160a01b0384166104575760405163e602df0560e01b815260006004820152602401610344565b6001600160a01b03831661048157604051634a1406b160e11b815260006004820152602401610344565b6001600160a01b038085166000908152600160209081526040808320938716835292905220829055801561035c57826001600160a01b0316846001600160a01b03167f8c5be1e5ebec7d5bd14f71427d1e84f3dd0314c0f7b2291e5b200ac8c7c3b925846040516104f491815260200190565b60405180910390a350505050565b6001600160a01b03831661052d578060026000828254610522919061078c565b9091555061059f9050565b6001600160a01b038316600090815260208190526040902054818110156105805760405163391434e360e21b81526001600160a01b03851660048201526024810182905260448101839052606401610344565b6001600160a01b03841660009081526020819052604090209082900390555b6001600160a01b0382166105bb576002805482900390556105da565b6001600160a01b03821660009081526020819052604090208054820190555b816001600160a01b0316836001600160a01b03167fddf252ad1be2c89b69c2b068fc378daa952ba7f163c4a11628f55a4df523b3ef8360405161061f91815260200190565b60405180910390a3505050565b60006020808352835180602085015260005b8181101561065a5785810183015185820160400152820161063e565b506000604082860101526040601f19601f8301168501019250505092915050565b80356001600160a01b038116811461069257600080fd5b919050565b600080604083850312156106aa57600080fd5b6106b38361067b565b946020939093013593505050565b6000806000606084860312156106d657600080fd5b6106df8461067b565b92506106ed6020850161067b565b9150604084013590509250925092565b60006020828403121561070f57600080fd5b6107188261067b565b9392505050565b6000806040838503121561073257600080fd5b61073b8361067b565b91506107496020840161067b565b90509250929050565b600181811c9082168061076657607f821691505b60208210810361078657634e487b7160e01b600052602260045260246000fd5b50919050565b8082018082111561026e57634e487b7160e01b600052601160045260246000fdfea264697066735822122007de2f9ed8e7498d7da58345cbf9c14fbc80cbc5a57ee8680d4a17bdc445d51864736f6c6343000819003360a0604052348015600f57600080fd5b50604051610c52380380610c52833981016040819052602c91607c565b6001600160a01b0390811660805260008054929091166001600160a01b031992831681179091556005805490921617905560aa565b80516001600160a01b0381168114607757600080fd5b919050565b60008060408385031215608e57600080fd5b6095836061565b915060a1602084016061565b90509250929050565b608051610b6a6100e8600039600081816101ba0152818161023a015281816102f3015281816104040152818161049101526105b40152610b6a6000f3fe608060405234801561001057600080fd5b506004361061010a5760003560e01c806381158fe3116100a2578063ad7a672f11610071578063ad7a672f14610206578063ca1d209d1461020f578063d7b4750c14610222578063dba6335f14610235578063dc0d3dff1461025c57600080fd5b806381158fe3146101b0578063893d20e8146101b85780639a33e300146101de578063ab7cc84d146101f357600080fd5b80633ccfd60b116100de5780633ccfd60b146101605780633e413bee1461016a5780635c6b932b1461017d57806377b53ece1461019d57600080fd5b806213c58a1461010f578063064343221461012b57806312b583491461015057806329f5633f14610158575b600080fd5b61011860025481565b6040519081526020015b60405180910390f35b6005546001600160a01b03165b6040516001600160a01b039091168152602001610122565b600354610118565b61011861026f565b6101686102e8565b005b600054610138906001600160a01b031681565b61011861018b3660046107ef565b60066020526000908152604090205481565b600554610138906001600160a01b031681565b6101186104ea565b7f0000000000000000000000000000000000000000000000000000000000000000610138565b6101e661051b565b604051610122919061081f565b610168610201366004610884565b6105a9565b61011860035481565b61016861021d366004610939565b610613565b610138610230366004610939565b610795565b6101387f000000000000000000000000000000000000000000000000000000000000000081565b61013861026a366004610939565b6107c5565b60008054604051636eb1769f60e11b81523360048201523060248201526001600160a01b039091169063dd62ed3e906044015b602060405180830381865afa1580156102bf573d6000803e3d6000fd5b505050506040513d601f19601f820116820180604052508101906102e39190610952565b905090565b336001600160a01b037f00000000000000000000000000000000000000000000000000000000000000001614610331576040516330cd747160e01b815260040160405180910390fd5b600254600354101561037d5760405162461bcd60e51b815260206004820152601060248201526f11dbd85b081b9bdd081c995858da195960821b60448201526064015b60405180910390fd5b600080546040516370a0823160e01b81523060048201526001600160a01b03909116906370a0823190602401602060405180830381865afa1580156103c6573d6000803e3d6000fd5b505050506040513d601f19601f820116820180604052508101906103ea9190610952565b60005460405163a9059cbb60e01b81526001600160a01b037f0000000000000000000000000000000000000000000000000000000000000000811660048301526024820184905292935091169063a9059cbb906044016020604051808303816000875af115801561045f573d6000803e3d6000fd5b505050506040513d601f19601f82011682018060405250810190610483919061096b565b5060006003556040518181527f00000000000000000000000000000000000000000000000000000000000000006001600160a01b0316907feaff4b37086828766ad3268786972c0cd24259d4c87a80f9d3963a3c3d999b0d9060200160405180910390a250565b600080546040516370a0823160e01b81523360048201526001600160a01b03909116906370a08231906024016102a2565b600180546105289061098d565b80601f01602080910402602001604051908101604052809291908181526020018280546105549061098d565b80156105a15780601f10610576576101008083540402835291602001916105a1565b820191906000526020600020905b81548152906001019060200180831161058457829003601f168201915b505050505081565b336001600160a01b037f000000000000000000000000000000000000000000000000000000000000000016146105f2576040516330cd747160e01b815260040160405180910390fd5b60016105fe8382610a18565b5061060c620f424082610aee565b6002555050565b6000610622620f424083610aee565b6000546040516323b872dd60e01b8152336004820152306024820152604481018390529192506001600160a01b0316906323b872dd906064016020604051808303816000875af115801561067a573d6000803e3d6000fd5b505050506040513d601f19601f8201168201806040525081019061069e919061096b565b6106dc5760405162461bcd60e51b815260206004820152600f60248201526e151c985b9cd9995c8819985a5b1959608a1b6044820152606401610374565b33600090815260066020526040812080548392906106fb908490610b0b565b9250508190555080600360008282546107149190610b0b565b9091555050600480546001810182556000919091527f8a35acfbc15ff81a39ae7d344fd709f28e8600b4aa8c65c6b64bfe7fe36bd19b0180546001600160a01b031916339081179091556040518281527f54a5b8782470a0d2c022b3b9e5e729503ac5dbdfe053afeb4559f9297f7565a69060200160405180910390a25050565b6000600482815481106107aa576107aa610b1e565b6000918252602090912001546001600160a01b031692915050565b600481815481106107d557600080fd5b6000918252602090912001546001600160a01b0316905081565b60006020828403121561080157600080fd5b81356001600160a01b038116811461081857600080fd5b9392505050565b60006020808352835180602085015260005b8181101561084d57858101830151858201604001528201610831565b506000604082860101526040601f19601f8301168501019250505092915050565b634e487b7160e01b600052604160045260246000fd5b6000806040838503121561089757600080fd5b823567ffffffffffffffff808211156108af57600080fd5b818501915085601f8301126108c357600080fd5b8135818111156108d5576108d561086e565b604051601f8201601f19908116603f011681019083821181831017156108fd576108fd61086e565b8160405282815288602084870101111561091657600080fd5b826020860160208301376000602093820184015298969091013596505050505050565b60006020828403121561094b57600080fd5b5035919050565b60006020828403121561096457600080fd5b5051919050565b60006020828403121561097d57600080fd5b8151801515811461081857600080fd5b600181811c908216806109a157607f821691505b6020821081036109c157634e487b7160e01b600052602260045260246000fd5b50919050565b601f821115610a13576000816000526020600020601f850160051c810160208610156109f05750805b601f850160051c820191505b81811015610a0f578281556001016109fc565b5050505b505050565b815167ffffffffffffffff811115610a3257610a3261086e565b610a4681610a40845461098d565b846109c7565b602080601f831160018114610a7b5760008415610a635750858301515b600019600386901b1c1916600185901b178555610a0f565b600085815260208120601f198616915b82811015610aaa57888601518255948401946001909101908401610a8b565b5085821015610ac85787850151600019600388901b60f8161c191681555b5050505050600190811b01905550565b634e487b7160e01b600052601160045260246000fd5b8082028115828204841417610b0557610b05610ad8565b92915050565b80820180821115610b0557610b05610ad8565b634e487b7160e01b600052603260045260246000fdfea2646970667358221220087c465ec32ec329d978f976237c3345779bb2e698587ecf7c9d74fad32c8a3664736f6c63430008190033a2646970667358221220d5f2113c70cab9b20d5e8e8f4465d6f090a41055f45e7a6fe8f2073987e6968764736f6c63430008190033a2646970667358221220da1f791d814447f3f49c6190646808217ac3896f39ffb52b0b0d672510f4f3be64736f6c63430008190033","linkReferences":{}},"methodIdentifiers":{"createNewProject()":"dff4b13f","getProject(uint256)":"f0f3f2c8","getProjectList()":"5880ef34","goFundMeProjects(uint256)":"9f5c1e08","projectCount()":"36fbad26"},"id":32}