{"abi":[{"type":"function","name":"createNewProject","inputs":[],"outputs":[],"stateMutability":"nonpayable"},{"type":"function","name":"crossChainDonation","inputs":[{"name":"_index","type":"uint256","internalType":"uint256"},{"name":"_amount","type":"uint256","internalType":"uint256"}],"outputs":[],"stateMutability":"nonpayable"},{"type":"function","name":"getProject","inputs":[{"name":"_index","type":"uint256","internalType":"uint256"}],"outputs":[{"name":"","type":"address","internalType":"contract GoFundMe"}],"stateMutability":"view"},{"type":"function","name":"getProjectList","inputs":[],"outputs":[{"name":"","type":"address[]","internalType":"contract GoFundMe[]"}],"stateMutability":"view"},{"type":"function","name":"goFundMeProjects","inputs":[{"name":"","type":"uint256","internalType":"uint256"}],"outputs":[{"name":"","type":"address","internalType":"contract GoFundMe"}],"stateMutability":"view"},{"type":"function","name":"projectCount","inputs":[],"outputs":[{"name":"","type":"uint256","internalType":"uint256"}],"stateMutability":"view"},{"type":"event","name":"ProjectCreated","inputs":[{"name":"_owner","type":"address","indexed":true,"internalType":"address"},{"name":"_project","type":"address","indexed":false,"internalType":"contract GoFundMe"}],"anonymous":false}],"bytecode":{"object":"0x60806040526000600255348015601457600080fd5b50611b3c806100246000396000f3fe608060405234801561001057600080fd5b50600436106100625760003560e01c80632e79cfb51461006757806336fbad261461007c5780635880ef34146100985780639f5c1e08146100ad578063dff4b13f146100d8578063f0f3f2c8146100e0575b600080fd5b61007a610075366004610370565b6100f3565b005b61008560025481565b6040519081526020015b60405180910390f35b6100a0610160565b60405161008f9190610392565b6100c06100bb3660046103df565b6101c2565b6040516001600160a01b03909116815260200161008f565b61007a6101ec565b6100c06100ee3660046103df565b610333565b60006100fe83610333565b604051637392a57360e01b8152600481018490529091506001600160a01b03821690637392a57390602401600060405180830381600087803b15801561014357600080fd5b505af1158015610157573d6000803e3d6000fd5b50505050505050565b606060018054806020026020016040519081016040528092919081815260200182805480156101b857602002820191906000526020600020905b81546001600160a01b0316815260019091019060200180831161019a575b5050505050905090565b600181815481106101d257600080fd5b6000918252602090912001546001600160a01b0316905081565b60006040516101fa90610363565b604051809103906000f080158015610216573d6000803e3d6000fd5b5060405163148aedc160e21b81523360048201529091506001600160a01b0382169063522bb704906024016020604051808303816000875af1158015610260573d6000803e3d6000fd5b505050506040513d601f19601f8201168201806040525081019061028491906103f8565b600080546001600160a01b03929092166001600160a01b0319928316811782556001805480820182559083527fb10e2d527612073b26eecdfd717e6a320cf44b4afac2b0732d9fcbe2b7fa0cf60180549093161790915560028054916102e983610428565b90915550506000546040516001600160a01b03909116815233907f8cb1f5e0b7508307e592a641586f535256dba226b02388100691c6133f65e22e9060200160405180910390a250565b6000600182815481106103485761034861044f565b6000918252602090912001546001600160a01b031692915050565b6116a18061046683390190565b6000806040838503121561038357600080fd5b50508035926020909101359150565b6020808252825182820181905260009190848201906040850190845b818110156103d35783516001600160a01b0316835292840192918401916001016103ae565b50909695505050505050565b6000602082840312156103f157600080fd5b5035919050565b60006020828403121561040a57600080fd5b81516001600160a01b038116811461042157600080fd5b9392505050565b60006001820161044857634e487b7160e01b600052601160045260246000fd5b5060010190565b634e487b7160e01b600052603260045260246000fdfe6080604052600c805462ff00ff191662010001179055348015602057600080fd5b50611671806100306000396000f3fe608060405234801561001057600080fd5b50600436106100365760003560e01c8063522bb7041461003b578063f8ccbf471461006b575b600080fd5b61004e6100493660046101a1565b61008e565b6040516001600160a01b0390911681526020015b60405180910390f35b600c5461007e9062010000900460ff1681565b6040519015158152602001610062565b60008060405161009d9061016f565b604051809103906000f0801580156100b9573d6000803e3d6000fd5b5090506000816001600160a01b031663d7b657456040518163ffffffff1660e01b8152600401602060405180830381865afa1580156100fc573d6000803e3d6000fd5b505050506040513d601f19601f8201168201806040525081019061012091906101c5565b9050600081856040516101329061017c565b6001600160a01b03928316815291166020820152604001604051809103906000f080158015610165573d6000803e3d6000fd5b5095945050505050565b6103ab806101e383390190565b6110ae8061058e83390190565b6001600160a01b038116811461019e57600080fd5b50565b6000602082840312156101b357600080fd5b81356101be81610189565b9392505050565b6000602082840312156101d757600080fd5b81516101be8161018956fe6080604052600c805462ff00ff19166201000117905534801561002157600080fd5b5062aa36a619460161008257604080516020808201835260009091528151908101909152731c7d4b196cb0c7b01d743fbc6116a902379c723881525b51600d80546001600160a01b0319166001600160a01b03909216919091179055610179565b60001946016100bf5760408051602080820183526000909152815190810190915273a0b86991c6218b36c1d19d4a2e9eb0ce3606eb48815261005d565b60881946016100fc57604080516020808201835260009091528151908101909152733c499c542cef5e3811e1192ce70d8cc03d5c3359815261005d565b61a86819460161013a57604080516020808201835260009091528151908101909152735425890298aed601595a70ab815c96711a31bc65815261005d565b62013881194601610179576040805160208082018352600090915281519081019091527341e94eb019c0762f9bfcf9fb1e58725bfb0e7582815261005d565b610223806101886000396000f3fe608060405234801561001057600080fd5b506004361061007d5760003560e01c8063d0c068a01161005b578063d0c068a014610137578063d7b657451461016b578063ec4cf1ca14610196578063f8ccbf47146101ca57600080fd5b80632380f85314610082578063405f34cd146100cf57806344007e3814610103575b600080fd5b60408051602080820183526000909152815190810190915273a0b86991c6218b36c1d19d4a2e9eb0ce3606eb4881525b60405190516001600160a01b031681526020015b60405180910390f35b604080516020808201835260009091528151908101909152735425890298aed601595a70ab815c96711a31bc6581526100b2565b604080516020808201835260009091528151908101909152731c7d4b196cb0c7b01d743fbc6116a902379c723881526100b2565b6040805160208082018352600090915281519081019091527341e94eb019c0762f9bfcf9fb1e58725bfb0e758281526100b2565b600d5461017e906001600160a01b031681565b6040516001600160a01b0390911681526020016100c6565b604080516020808201835260009091528151908101909152733c499c542cef5e3811e1192ce70d8cc03d5c335981526100b2565b600c546101dd9062010000900460ff1681565b60405190151581526020016100c656fea2646970667358221220055b32b5e4a3f5da0d491f1350182bf5b008681ed8b5d6d74455c246cd47769064736f6c6343000819003360a06040526005805461ffff60a01b1916905534801561001e57600080fd5b506040516110ae3803806110ae83398101604081905261003d916100b5565b6001600160a01b0380821660805282166100695760405162b30c8d60e31b815260040160405180910390fd5b50600080546001600160a01b039092166001600160a01b03199283168117909155600580549092161790556100e8565b80516001600160a01b03811681146100b057600080fd5b919050565b600080604083850312156100c857600080fd5b6100d183610099565b91506100df60208401610099565b90509250929050565b608051610f88610126600039600081816101d8015281816102580152818161031101528181610422015281816104c701526106cf0152610f886000f3fe608060405234801561001057600080fd5b50600436106101155760003560e01c806381158fe3116100a2578063ad7a672f11610071578063ad7a672f14610224578063ca1d209d1461022d578063d7b4750c14610240578063dba6335f14610253578063dc0d3dff1461027a57600080fd5b806381158fe3146101ce578063893d20e8146101d65780639a33e300146101fc578063ab7cc84d1461021157600080fd5b80633ccfd60b116100e95780633ccfd60b1461016b5780633e413bee146101755780635c6b932b146101885780637392a573146101a857806377b53ece146101bb57600080fd5b806213c58a1461011a578063064343221461013657806312b583491461015b57806329f5633f14610163575b600080fd5b61012360025481565b6040519081526020015b60405180910390f35b6005546001600160a01b03165b6040516001600160a01b03909116815260200161012d565b600354610123565b61012361028d565b610173610306565b005b600054610143906001600160a01b031681565b610123610196366004610bea565b60066020526000908152604090205481565b6101736101b6366004610c1a565b610522565b600554610143906001600160a01b031681565b610123610605565b7f0000000000000000000000000000000000000000000000000000000000000000610143565b610204610636565b60405161012d9190610c57565b61017361021f366004610ca0565b6106c4565b61012360035481565b61017361023b366004610c1a565b6107a6565b61014361024e366004610c1a565b6108c9565b6101437f000000000000000000000000000000000000000000000000000000000000000081565b610143610288366004610c1a565b6108f9565b60008054604051636eb1769f60e11b81523360048201523060248201526001600160a01b039091169063dd62ed3e906044015b602060405180830381865afa1580156102dd573d6000803e3d6000fd5b505050506040513d601f19601f820116820180604052508101906103019190610d55565b905090565b336001600160a01b037f0000000000000000000000000000000000000000000000000000000000000000161461034f576040516330cd747160e01b815260040160405180910390fd5b600254600354101561039b5760405162461bcd60e51b815260206004820152601060248201526f11dbd85b081b9bdd081c995858da195960821b60448201526064015b60405180910390fd5b600080546040516370a0823160e01b81523060048201526001600160a01b03909116906370a0823190602401602060405180830381865afa1580156103e4573d6000803e3d6000fd5b505050506040513d601f19601f820116820180604052508101906104089190610d55565b60005460405163a9059cbb60e01b81526001600160a01b037f0000000000000000000000000000000000000000000000000000000000000000811660048301526024820184905292935091169063a9059cbb906044016020604051808303816000875af115801561047d573d6000803e3d6000fd5b505050506040513d601f19601f820116820180604052508101906104a19190610d6e565b5060006003556005805460ff60a81b1916600160a81b1790556040516001600160a01b037f000000000000000000000000000000000000000000000000000000000000000016907feaff4b37086828766ad3268786972c0cd24259d4c87a80f9d3963a3c3d999b0d906105179084815260200190565b60405180910390a250565b6000610531620f424083610da6565b60005490915061054c906001600160a01b0316333084610923565b336000908152600660205260408120805483929061056b908490610dc3565b9250508190555080600360008282546105849190610dc3565b9091555050600480546001810182556000919091527f8a35acfbc15ff81a39ae7d344fd709f28e8600b4aa8c65c6b64bfe7fe36bd19b0180546001600160a01b031916339081179091556040518281527f54a5b8782470a0d2c022b3b9e5e729503ac5dbdfe053afeb4559f9297f7565a69060200160405180910390a25050565b600080546040516370a0823160e01b81523360048201526001600160a01b03909116906370a08231906024016102c0565b6001805461064390610dd6565b80601f016020809104026020016040519081016040528092919081815260200182805461066f90610dd6565b80156106bc5780601f10610691576101008083540402835291602001916106bc565b820191906000526020600020905b81548152906001019060200180831161069f57829003601f168201915b505050505081565b336001600160a01b037f0000000000000000000000000000000000000000000000000000000000000000161461070d576040516330cd747160e01b815260040160405180910390fd5b600554600160a01b900460ff16156107725760405162461bcd60e51b815260206004820152602260248201527f4e616d6520616e6420676f616c2068617320616c7265616479206265656e2073604482015261195d60f21b6064820152608401610392565b600161077e8382610e60565b5061078c620f424082610da6565b60025550506005805460ff60a01b1916600160a01b179055565b600554600160a81b900460ff16156108005760405162461bcd60e51b815260206004820152601b60248201527f50726f6a65637420697320616c726561647920636f6d706c65746500000000006044820152606401610392565b600061080f620f424083610da6565b6000546040516323b872dd60e01b8152336004820152306024820152604481018390529192506001600160a01b0316906323b872dd906064016020604051808303816000875af1158015610867573d6000803e3d6000fd5b505050506040513d601f19601f8201168201806040525081019061088b9190610d6e565b61054c5760405162461bcd60e51b815260206004820152600f60248201526e151c985b9cd9995c8819985a5b1959608a1b6044820152606401610392565b6000600482815481106108de576108de610f20565b6000918252602090912001546001600160a01b031692915050565b6004818154811061090957600080fd5b6000918252602090912001546001600160a01b0316905081565b604080516001600160a01b0385811660248301528416604482015260648082018490528251808303909101815260849091019091526020810180516001600160e01b03166323b872dd60e01b17905261097d908590610983565b50505050565b60006109d8826040518060400160405280602081526020017f5361666545524332303a206c6f772d6c6576656c2063616c6c206661696c6564815250856001600160a01b0316610a5a9092919063ffffffff16565b805190915015610a5557808060200190518101906109f69190610d6e565b610a555760405162461bcd60e51b815260206004820152602a60248201527f5361666545524332303a204552433230206f7065726174696f6e20646964206e6044820152691bdd081cdd58d8d9595960b21b6064820152608401610392565b505050565b6060610a698484600085610a71565b949350505050565b606082471015610ad25760405162461bcd60e51b815260206004820152602660248201527f416464726573733a20696e73756666696369656e742062616c616e636520666f6044820152651c8818d85b1b60d21b6064820152608401610392565b600080866001600160a01b03168587604051610aee9190610f36565b60006040518083038185875af1925050503d8060008114610b2b576040519150601f19603f3d011682016040523d82523d6000602084013e610b30565b606091505b5091509150610b4187838387610b4c565b979650505050505050565b60608315610bbb578251600003610bb4576001600160a01b0385163b610bb45760405162461bcd60e51b815260206004820152601d60248201527f416464726573733a2063616c6c20746f206e6f6e2d636f6e74726163740000006044820152606401610392565b5081610a69565b610a698383815115610bd05781518083602001fd5b8060405162461bcd60e51b81526004016103929190610c57565b600060208284031215610bfc57600080fd5b81356001600160a01b0381168114610c1357600080fd5b9392505050565b600060208284031215610c2c57600080fd5b5035919050565b60005b83811015610c4e578181015183820152602001610c36565b50506000910152565b6020815260008251806020840152610c76816040850160208701610c33565b601f01601f19169190910160400192915050565b634e487b7160e01b600052604160045260246000fd5b60008060408385031215610cb357600080fd5b823567ffffffffffffffff80821115610ccb57600080fd5b818501915085601f830112610cdf57600080fd5b813581811115610cf157610cf1610c8a565b604051601f8201601f19908116603f01168101908382118183101715610d1957610d19610c8a565b81604052828152886020848701011115610d3257600080fd5b826020860160208301376000602093820184015298969091013596505050505050565b600060208284031215610d6757600080fd5b5051919050565b600060208284031215610d8057600080fd5b81518015158114610c1357600080fd5b634e487b7160e01b600052601160045260246000fd5b8082028115828204841417610dbd57610dbd610d90565b92915050565b80820180821115610dbd57610dbd610d90565b600181811c90821680610dea57607f821691505b602082108103610e0a57634e487b7160e01b600052602260045260246000fd5b50919050565b601f821115610a55576000816000526020600020601f850160051c81016020861015610e395750805b601f850160051c820191505b81811015610e5857828155600101610e45565b505050505050565b815167ffffffffffffffff811115610e7a57610e7a610c8a565b610e8e81610e888454610dd6565b84610e10565b602080601f831160018114610ec35760008415610eab5750858301515b600019600386901b1c1916600185901b178555610e58565b600085815260208120601f198616915b82811015610ef257888601518255948401946001909101908401610ed3565b5085821015610f105787850151600019600388901b60f8161c191681555b5050505050600190811b01905550565b634e487b7160e01b600052603260045260246000fd5b60008251610f48818460208701610c33565b919091019291505056fea2646970667358221220aac2847d64cddd6b2f4355c64dadaf5a2f91431602de67d356977ab5aaec344864736f6c63430008190033a2646970667358221220078b3081a940dcf1f0baea3dba1c95dba6413c8c5c976ed3b67bb43f6b946ee464736f6c63430008190033a26469706673582212208b3e9998ce12b236251b3739b14ae8f8fd80402bcbade03259d20d31a1200d1664736f6c63430008190033","linkReferences":{}},"methodIdentifiers":{"createNewProject()":"dff4b13f","crossChainDonation(uint256,uint256)":"2e79cfb5","getProject(uint256)":"f0f3f2c8","getProjectList()":"5880ef34","goFundMeProjects(uint256)":"9f5c1e08","projectCount()":"36fbad26"},"id":34}