{"abi":[{"type":"constructor","inputs":[{"name":"_router","type":"address","internalType":"address"},{"name":"_usdcToken","type":"address","internalType":"address"}],"stateMutability":"nonpayable"},{"type":"function","name":"acceptOwnership","inputs":[],"outputs":[],"stateMutability":"nonpayable"},{"type":"function","name":"ccipReceive","inputs":[{"name":"any2EvmMessage","type":"tuple","internalType":"struct Client.Any2EVMMessage","components":[{"name":"messageId","type":"bytes32","internalType":"bytes32"},{"name":"sourceChainSelector","type":"uint64","internalType":"uint64"},{"name":"sender","type":"bytes","internalType":"bytes"},{"name":"data","type":"bytes","internalType":"bytes"},{"name":"destTokenAmounts","type":"tuple[]","internalType":"struct Client.EVMTokenAmount[]","components":[{"name":"token","type":"address","internalType":"address"},{"name":"amount","type":"uint256","internalType":"uint256"}]}]}],"outputs":[],"stateMutability":"nonpayable"},{"type":"function","name":"deleteSenderForSourceChain","inputs":[{"name":"_sourceChainSelector","type":"uint64","internalType":"uint64"}],"outputs":[],"stateMutability":"nonpayable"},{"type":"function","name":"getControllerAddress","inputs":[],"outputs":[{"name":"","type":"address","internalType":"contract ControllerGoFundMe"}],"stateMutability":"view"},{"type":"function","name":"getFailedMessages","inputs":[{"name":"offset","type":"uint256","internalType":"uint256"},{"name":"limit","type":"uint256","internalType":"uint256"}],"outputs":[{"name":"","type":"tuple[]","internalType":"struct Receiver.FailedMessage[]","components":[{"name":"messageId","type":"bytes32","internalType":"bytes32"},{"name":"errorCode","type":"uint8","internalType":"enum Receiver.ErrorCode"}]}],"stateMutability":"view"},{"type":"function","name":"getProjectTest","inputs":[{"name":"_index","type":"uint256","internalType":"uint256"}],"outputs":[{"name":"","type":"address","internalType":"contract GoFundMe"}],"stateMutability":"view"},{"type":"function","name":"getRouter","inputs":[],"outputs":[{"name":"","type":"address","internalType":"address"}],"stateMutability":"view"},{"type":"function","name":"owner","inputs":[],"outputs":[{"name":"","type":"address","internalType":"address"}],"stateMutability":"view"},{"type":"function","name":"processMessage","inputs":[{"name":"any2EvmMessage","type":"tuple","internalType":"struct Client.Any2EVMMessage","components":[{"name":"messageId","type":"bytes32","internalType":"bytes32"},{"name":"sourceChainSelector","type":"uint64","internalType":"uint64"},{"name":"sender","type":"bytes","internalType":"bytes"},{"name":"data","type":"bytes","internalType":"bytes"},{"name":"destTokenAmounts","type":"tuple[]","internalType":"struct Client.EVMTokenAmount[]","components":[{"name":"token","type":"address","internalType":"address"},{"name":"amount","type":"uint256","internalType":"uint256"}]}]}],"outputs":[],"stateMutability":"nonpayable"},{"type":"function","name":"retryFailedMessage","inputs":[{"name":"messageId","type":"bytes32","internalType":"bytes32"},{"name":"beneficiary","type":"address","internalType":"address"}],"outputs":[],"stateMutability":"nonpayable"},{"type":"function","name":"s_messageContents","inputs":[{"name":"","type":"bytes32","internalType":"bytes32"}],"outputs":[{"name":"messageId","type":"bytes32","internalType":"bytes32"},{"name":"sourceChainSelector","type":"uint64","internalType":"uint64"},{"name":"sender","type":"bytes","internalType":"bytes"},{"name":"data","type":"bytes","internalType":"bytes"}],"stateMutability":"view"},{"type":"function","name":"s_senders","inputs":[{"name":"","type":"uint64","internalType":"uint64"}],"outputs":[{"name":"","type":"address","internalType":"address"}],"stateMutability":"view"},{"type":"function","name":"setSenderForSourceChain","inputs":[{"name":"_sourceChainSelector","type":"uint64","internalType":"uint64"},{"name":"_sender","type":"address","internalType":"address"}],"outputs":[],"stateMutability":"nonpayable"},{"type":"function","name":"supportsInterface","inputs":[{"name":"interfaceId","type":"bytes4","internalType":"bytes4"}],"outputs":[{"name":"","type":"bool","internalType":"bool"}],"stateMutability":"pure"},{"type":"function","name":"transferOwnership","inputs":[{"name":"to","type":"address","internalType":"address"}],"outputs":[],"stateMutability":"nonpayable"},{"type":"function","name":"transferTokenToProject","inputs":[{"name":"project","type":"address","internalType":"address"},{"name":"_amount","type":"uint256","internalType":"uint256"}],"outputs":[],"stateMutability":"nonpayable"},{"type":"event","name":"MessageFailed","inputs":[{"name":"messageId","type":"bytes32","indexed":true,"internalType":"bytes32"},{"name":"reason","type":"bytes","indexed":false,"internalType":"bytes"}],"anonymous":false},{"type":"event","name":"MessageReceived","inputs":[{"name":"messageId","type":"bytes32","indexed":true,"internalType":"bytes32"},{"name":"sourceChainSelector","type":"uint64","indexed":true,"internalType":"uint64"},{"name":"sender","type":"address","indexed":true,"internalType":"address"},{"name":"data","type":"bytes","indexed":false,"internalType":"bytes"},{"name":"token","type":"address","indexed":false,"internalType":"address"},{"name":"tokenAmount","type":"uint256","indexed":false,"internalType":"uint256"}],"anonymous":false},{"type":"event","name":"MessageRecovered","inputs":[{"name":"messageId","type":"bytes32","indexed":true,"internalType":"bytes32"}],"anonymous":false},{"type":"event","name":"OwnershipTransferRequested","inputs":[{"name":"from","type":"address","indexed":true,"internalType":"address"},{"name":"to","type":"address","indexed":true,"internalType":"address"}],"anonymous":false},{"type":"event","name":"OwnershipTransferred","inputs":[{"name":"from","type":"address","indexed":true,"internalType":"address"},{"name":"to","type":"address","indexed":true,"internalType":"address"}],"anonymous":false},{"type":"error","name":"CallToProjectFailed","inputs":[]},{"type":"error","name":"FailedToFundProject","inputs":[]},{"type":"error","name":"InvalidController","inputs":[]},{"type":"error","name":"InvalidRouter","inputs":[{"name":"router","type":"address","internalType":"address"}]},{"type":"error","name":"InvalidSenderAddress","inputs":[]},{"type":"error","name":"InvalidSourceChain","inputs":[]},{"type":"error","name":"InvalidUsdcToken","inputs":[]},{"type":"error","name":"MessageNotFailed","inputs":[{"name":"messageId","type":"bytes32","internalType":"bytes32"}]},{"type":"error","name":"NoProjectAddressFound","inputs":[]},{"type":"error","name":"NoReturnDataExpected","inputs":[]},{"type":"error","name":"NoSenderOnSourceChain","inputs":[{"name":"sourceChainSelector","type":"uint64","internalType":"uint64"}]},{"type":"error","name":"OnlySelf","inputs":[]},{"type":"error","name":"WrongReceivedToken","inputs":[{"name":"usdcToken","type":"address","internalType":"address"},{"name":"receivedToken","type":"address","internalType":"address"}]},{"type":"error","name":"WrongSenderForSourceChain","inputs":[{"name":"sourceChainSelector","type":"uint64","internalType":"uint64"}]}],"bytecode":{"object":"0x60e060405234801561001057600080fd5b50604051615c9c380380615c9c83398101604081905261002f9161023d565b33806000846001600160a01b038116610063576040516335fdcccd60e21b8152600060048201526024015b60405180910390fd5b6001600160a01b0390811660805282166100bf5760405162461bcd60e51b815260206004820152601860248201527f43616e6e6f7420736574206f776e657220746f207a65726f0000000000000000604482015260640161005a565b600080546001600160a01b0319166001600160a01b03848116919091179091558116156100ef576100ef8161016b565b5050506001600160a01b0381166101195760405163b83a5cf760e01b815260040160405180910390fd5b8060405161012690610214565b6001600160a01b039091168152602001604051809103906000f080158015610152573d6000803e3d6000fd5b506001600160a01b0390811660c0521660a05250610270565b336001600160a01b038216036101c35760405162461bcd60e51b815260206004820152601760248201527f43616e6e6f74207472616e7366657220746f2073656c66000000000000000000604482015260640161005a565b600180546001600160a01b0319166001600160a01b0383811691821790925560008054604051929316917fed8889f560326eb138920d842192f0eb3dd22b4f139c87a2c57538e05bae12789190a350565b61386d8061242f83390190565b80516001600160a01b038116811461023857600080fd5b919050565b6000806040838503121561025057600080fd5b61025983610221565b915061026760208401610221565b90509250929050565b60805160a05160c0516121666102c96000396000818161020a015281816105b90152610ed1015260008181610b4901528181610dc701528181610e220152610f670152600081816101e401526106e001526121666000f3fe608060405234801561001057600080fd5b50600436106101005760003560e01c8063b0f479a111610097578063d1e889ae11610066578063d1e889ae14610264578063ded394a314610277578063e62aa19f1461028a578063f2fde38b1461029d57600080fd5b8063b0f479a1146101e2578063c57380a214610208578063cf6730f81461022e578063d0d1fc3d1461024157600080fd5b806379ba5097116100d357806379ba50971461019657806385572ffb1461019e5780638d9d89fe146101b15780638da5cb5b146101d157600080fd5b806301ffc9a714610105578063369f7f661461012d5780633b6efe14146101425780636502347214610183575b600080fd5b610118610113366004611621565b6102b0565b60405190151581526020015b60405180910390f35b61014061013b366004611660565b6102e7565b005b61016b6101503660046116b5565b6003602052600090815260409020546001600160a01b031681565b6040516001600160a01b039091168152602001610124565b61016b6101913660046116d2565b610596565b61014061062b565b6101406101ac3660046116eb565b6106d5565b6101c46101bf366004611725565b6108a3565b604051610124919061175d565b6000546001600160a01b031661016b565b7f000000000000000000000000000000000000000000000000000000000000000061016b565b7f000000000000000000000000000000000000000000000000000000000000000061016b565b61014061023c3660046116eb565b6109c8565b61025461024f3660046116d2565b6109f9565b604051610124949392919061181a565b610140610272366004611854565b610b3c565b610140610285366004611880565b610b74565b6101406102983660046116b5565b610c08565b6101406102ab3660046118ae565b610cad565b60006001600160e01b031982166385572ffb60e01b14806102e157506001600160e01b031982166301ffc9a760e01b145b92915050565b6102ef610cbe565b60016102fc600584610d13565b14610322576040516305b73c1360e51b8152600481018390526024015b60405180910390fd5b6103328260005b60059190610d1f565b506000828152600460209081526040808320815160a0810183528154815260018201546001600160401b0316938101939093526002810180549192840191610379906118cb565b80601f01602080910402602001604051908101604052809291908181526020018280546103a5906118cb565b80156103f25780601f106103c7576101008083540402835291602001916103f2565b820191906000526020600020905b8154815290600101906020018083116103d557829003601f168201915b5050505050815260200160038201805461040b906118cb565b80601f0160208091040260200160405190810160405280929190818152602001828054610437906118cb565b80156104845780601f1061045957610100808354040283529160200191610484565b820191906000526020600020905b81548152906001019060200180831161046757829003601f168201915b5050505050815260200160048201805480602002602001604051908101604052809291908181526020016000905b828210156104fa576000848152602090819020604080518082019091526002850290910180546001600160a01b031682526001908101548284015290835290920191016104b2565b5050505081525050905061056682826080015160008151811061051f5761051f611905565b602002602001015160200151836080015160008151811061054257610542611905565b6020026020010151600001516001600160a01b0316610d349092919063ffffffff16565b60405183907fef3bf8c64bc480286c4f3503b870ceb23e648d2d902e31fb7bb46680da6de8ad90600090a2505050565b604051631e1e7e5960e31b81526004810182905260009081906001600160a01b037f0000000000000000000000000000000000000000000000000000000000000000169063f0f3f2c890602401602060405180830381865afa158015610600573d6000803e3d6000fd5b505050506040513d601f19601f82011682018060405250810190610624919061191b565b9392505050565b6001546001600160a01b0316331461067e5760405162461bcd60e51b815260206004820152601660248201527526bab9ba10313290383937b837b9b2b21037bbb732b960511b6044820152606401610319565b60008054336001600160a01b0319808316821784556001805490911690556040516001600160a01b0390921692909183917f8be0079c531659141344cd1fd0a4f28419497f9722a3daafe3b4186f6b6457e091a350565b336001600160a01b037f00000000000000000000000000000000000000000000000000000000000000001614610720576040516335fdcccd60e21b8152336004820152602401610319565b6003600061073460408401602085016116b5565b6001600160401b0316815260208101919091526040908101600020546001600160a01b03169061076690830183611938565b81019061077391906118ae565b6001600160a01b0316146107b65761079160408201602083016116b5565b604051631d56640b60e21b81526001600160401b039091166004820152602401610319565b6040516319ece61f60e31b8152309063cf6730f8906107d9908490600401611a3f565b600060405180830381600087803b1580156107f357600080fd5b505af1925050508015610804575060015b6108a0573d808015610832576040519150601f19603f3d011682016040523d82523d6000602084013e610837565b606091505b5061084482356001610329565b508135600090815260046020526040902082906108618282611d44565b50506040518235907f55bc02a9ef6f146737edeeb425738006f67f077e7138de3bf84a15bde1a5b56f90610896908490611e0d565b60405180910390a2505b50565b606060006108b16005610d9c565b90506000816108c08587611e20565b116108cb57836108d5565b6108d58583611e33565b90506000816001600160401b038111156108f1576108f1611b10565b60405190808252806020026020018201604052801561093657816020015b604080518082019091526000808252602082015281526020019060019003908161090f5790505b50905060005b828110156109be5760008061095c610954848b611e20565b600590610da7565b91509150604051806040016040528083815260200182600181111561098357610983611747565b600181111561099457610994611747565b8152508484815181106109a9576109a9611905565b6020908102919091010152505060010161093c565b5095945050505050565b3330146109e85760405163029a949d60e31b815260040160405180910390fd5b6108a06109f482611fdb565b610dc5565b60046020526000908152604090208054600182015460028301805492936001600160401b0390921692610a2b906118cb565b80601f0160208091040260200160405190810160405280929190818152602001828054610a57906118cb565b8015610aa45780601f10610a7957610100808354040283529160200191610aa4565b820191906000526020600020905b815481529060010190602001808311610a8757829003601f168201915b505050505090806003018054610ab9906118cb565b80601f0160208091040260200160405190810160405280929190818152602001828054610ae5906118cb565b8015610b325780601f10610b0757610100808354040283529160200191610b32565b820191906000526020600020905b815481529060010190602001808311610b1557829003601f168201915b5050505050905084565b610b706001600160a01b037f0000000000000000000000000000000000000000000000000000000000000000168383610d34565b5050565b610b7c610cbe565b81806001600160401b0316600003610ba757604051639284b19760e01b815260040160405180910390fd5b6001600160a01b038216610bce57604051630658a73f60e01b815260040160405180910390fd5b506001600160401b0391909116600090815260036020526040902080546001600160a01b0319166001600160a01b03909216919091179055565b610c10610cbe565b80806001600160401b0316600003610c3b57604051639284b19760e01b815260040160405180910390fd5b6001600160401b0382166000908152600360205260409020546001600160a01b0316610c855760405163274893c960e01b81526001600160401b0383166004820152602401610319565b506001600160401b0316600090815260036020526040902080546001600160a01b0319169055565b610cb5610cbe565b6108a081611087565b6000546001600160a01b03163314610d115760405162461bcd60e51b815260206004820152601660248201527527b7363c9031b0b63630b1363290313c9037bbb732b960511b6044820152606401610319565b565b60006106248383611130565b6000610d2c8484846111a0565b949350505050565b6040516001600160a01b038316602482015260448101829052610d9790849063a9059cbb60e01b906064015b60408051601f198184030181529190526020810180516001600160e01b03166001600160e01b0319909316929092179091526111bd565b505050565b60006102e18261128f565b6000808080610db6868661129a565b909450925050505b9250929050565b7f00000000000000000000000000000000000000000000000000000000000000006001600160a01b03168160800151600081518110610e0657610e06611905565b6020026020010151600001516001600160a01b031614610e90577f00000000000000000000000000000000000000000000000000000000000000008160800151600081518110610e5857610e58611905565b60209081029190910101515160405163db8c22ef60e01b81526001600160a01b03928316600482015291166024820152604401610319565b6000808260600151806020019051810190610eab9190612087565b604051631e1e7e5960e31b81526004810183905291935091506000906001600160a01b037f0000000000000000000000000000000000000000000000000000000000000000169063f0f3f2c890602401602060405180830381865afa158015610f18573d6000803e3d6000fd5b505050506040513d601f19601f82011682018060405250810190610f3c919061191b565b9050610f9e818560800151600081518110610f5957610f59611905565b6020026020010151602001517f00000000000000000000000000000000000000000000000000000000000000006001600160a01b03166112c59092919063ffffffff16565b610fca818560800151600081518110610fb957610fb9611905565b602002602001015160200151610b3c565b8360400151806020019051810190610fe2919061191b565b6001600160a01b031684602001516001600160401b031685600001517fefd22b16d02120210ec8687e3528d040d94b6509ca1a54ecc33b9e6790abfe248760600151886080015160008151811061103b5761103b611905565b602002602001015160000151896080015160008151811061105e5761105e611905565b602002602001015160200151604051611079939291906120ab565b60405180910390a450505050565b336001600160a01b038216036110df5760405162461bcd60e51b815260206004820152601760248201527f43616e6e6f74207472616e7366657220746f2073656c660000000000000000006044820152606401610319565b600180546001600160a01b0319166001600160a01b0383811691821790925560008054604051929316917fed8889f560326eb138920d842192f0eb3dd22b4f139c87a2c57538e05bae12789190a350565b600081815260028301602052604081205480151580611154575061115484846113da565b6106245760405162461bcd60e51b815260206004820152601e60248201527f456e756d657261626c654d61703a206e6f6e6578697374656e74206b657900006044820152606401610319565b60008281526002840160205260408120829055610d2c84846113e6565b6000611212826040518060400160405280602081526020017f5361666545524332303a206c6f772d6c6576656c2063616c6c206661696c6564815250856001600160a01b03166113f29092919063ffffffff16565b805190915015610d97578080602001905181019061123091906120d9565b610d975760405162461bcd60e51b815260206004820152602a60248201527f5361666545524332303a204552433230206f7065726174696f6e20646964206e6044820152691bdd081cdd58d8d9595960b21b6064820152608401610319565b60006102e182611401565b600080806112a8858561140b565b600081815260029690960160205260409095205494959350505050565b80158061133f5750604051636eb1769f60e11b81523060048201526001600160a01b03838116602483015284169063dd62ed3e90604401602060405180830381865afa158015611319573d6000803e3d6000fd5b505050506040513d601f19601f8201168201806040525081019061133d91906120fb565b155b6113aa5760405162461bcd60e51b815260206004820152603660248201527f5361666545524332303a20617070726f76652066726f6d206e6f6e2d7a65726f60448201527520746f206e6f6e2d7a65726f20616c6c6f77616e636560501b6064820152608401610319565b6040516001600160a01b038316602482015260448101829052610d9790849063095ea7b360e01b90606401610d60565b60006106248383611417565b6000610624838361142f565b6060610d2c848460008561147e565b60006102e1825490565b60006106248383611559565b60008181526001830160205260408120541515610624565b6000818152600183016020526040812054611476575081546001818101845560008481526020808220909301849055845484825282860190935260409020919091556102e1565b5060006102e1565b6060824710156114df5760405162461bcd60e51b815260206004820152602660248201527f416464726573733a20696e73756666696369656e742062616c616e636520666f6044820152651c8818d85b1b60d21b6064820152608401610319565b600080866001600160a01b031685876040516114fb9190612114565b60006040518083038185875af1925050503d8060008114611538576040519150601f19603f3d011682016040523d82523d6000602084013e61153d565b606091505b509150915061154e87838387611583565b979650505050505050565b600082600001828154811061157057611570611905565b9060005260206000200154905092915050565b606083156115f25782516000036115eb576001600160a01b0385163b6115eb5760405162461bcd60e51b815260206004820152601d60248201527f416464726573733a2063616c6c20746f206e6f6e2d636f6e74726163740000006044820152606401610319565b5081610d2c565b610d2c83838151156116075781518083602001fd5b8060405162461bcd60e51b81526004016103199190611e0d565b60006020828403121561163357600080fd5b81356001600160e01b03198116811461062457600080fd5b6001600160a01b03811681146108a057600080fd5b6000806040838503121561167357600080fd5b8235915060208301356116858161164b565b809150509250929050565b6001600160401b03811681146108a057600080fd5b80356116b081611690565b919050565b6000602082840312156116c757600080fd5b813561062481611690565b6000602082840312156116e457600080fd5b5035919050565b6000602082840312156116fd57600080fd5b81356001600160401b0381111561171357600080fd5b820160a0818503121561062457600080fd5b6000806040838503121561173857600080fd5b50508035926020909101359150565b634e487b7160e01b600052602160045260246000fd5b60208082528251828201819052600091906040908185019086840185805b838110156117bc57825180518652870151600281106117a857634e487b7160e01b83526021600452602483fd5b85880152938501939186019160010161177b565b509298975050505050505050565b60005b838110156117e55781810151838201526020016117cd565b50506000910152565b600081518084526118068160208601602086016117ca565b601f01601f19169290920160200192915050565b8481526001600160401b038416602082015260806040820152600061184260808301856117ee565b828103606084015261154e81856117ee565b6000806040838503121561186757600080fd5b82356118728161164b565b946020939093013593505050565b6000806040838503121561189357600080fd5b823561189e81611690565b915060208301356116858161164b565b6000602082840312156118c057600080fd5b81356106248161164b565b600181811c908216806118df57607f821691505b6020821081036118ff57634e487b7160e01b600052602260045260246000fd5b50919050565b634e487b7160e01b600052603260045260246000fd5b60006020828403121561192d57600080fd5b81516106248161164b565b6000808335601e1984360301811261194f57600080fd5b8301803591506001600160401b0382111561196957600080fd5b602001915036819003821315610dbe57600080fd5b6000808335601e1984360301811261199557600080fd5b83016020810192503590506001600160401b038111156119b457600080fd5b803603821315610dbe57600080fd5b81835281816020850137506000828201602090810191909152601f909101601f19169091010190565b8183526000602080850194508260005b85811015611a34578135611a0f8161164b565b6001600160a01b031687528183013583880152604096870196909101906001016119fc565b509495945050505050565b602081528135602082015260006020830135611a5a81611690565b6001600160401b038082166040850152611a77604086018661197e565b925060a06060860152611a8e60c0860184836119c3565b925050611a9e606086018661197e565b601f1980878603016080880152611ab68583856119c3565b945060808801359250601e19883603018312611ad157600080fd5b60209288019283019235915083821115611aea57600080fd5b8160061b3603831315611afc57600080fd5b8685030160a087015261154e8482846119ec565b634e487b7160e01b600052604160045260246000fd5b601f821115610d97576000816000526020600020601f850160051c81016020861015611b4f5750805b601f850160051c820191505b81811015611b6e57828155600101611b5b565b505050505050565b6001600160401b03831115611b8d57611b8d611b10565b611ba183611b9b83546118cb565b83611b26565b6000601f841160018114611bd55760008515611bbd5750838201355b600019600387901b1c1916600186901b178355611c2f565b600083815260209020601f19861690835b82811015611c065786850135825560209485019460019092019101611be6565b5086821015611c235760001960f88860031b161c19848701351681555b505060018560011b0183555b5050505050565b634e487b7160e01b600052601160045260246000fd5b8135611c578161164b565b81546001600160a01b0319166001600160a01b03919091161781556020919091013560019190910155565b68010000000000000000831115611c9b57611c9b611b10565b805483825580841015611d0f5760016001600160ff1b038281168314611cc357611cc3611c36565b8086168614611cd457611cd4611c36565b5060008360005260206000208360011b81018760011b820191505b80821015611d0a578282558284830155600282019150611cef565b505050505b5060008181526020812083915b85811015611b6e57611d2e8383611c4c565b6040929092019160029190910190600101611d1c565b81358155600181016020830135611d5a81611690565b6001600160401b038082166001600160401b0319845416178355611d816040860186611938565b93509150611d93838360028701611b76565b611da06060860186611938565b93509150611db2838360038701611b76565b60808501359250601e19853603018312611dcb57600080fd5b918401918235915080821115611de057600080fd5b506020820191508060061b3603821315611df957600080fd5b611e07818360048601611c82565b50505050565b60208152600061062460208301846117ee565b808201808211156102e1576102e1611c36565b818103818111156102e1576102e1611c36565b604080519081016001600160401b0381118282101715611e6857611e68611b10565b60405290565b60405160a081016001600160401b0381118282101715611e6857611e68611b10565b604051601f8201601f191681016001600160401b0381118282101715611eb857611eb8611b10565b604052919050565b600082601f830112611ed157600080fd5b81356001600160401b03811115611eea57611eea611b10565b611efd601f8201601f1916602001611e90565b818152846020838601011115611f1257600080fd5b816020850160208301376000918101602001919091529392505050565b600082601f830112611f4057600080fd5b813560206001600160401b03821115611f5b57611f5b611b10565b611f69818360051b01611e90565b82815260069290921b84018101918181019086841115611f8857600080fd5b8286015b84811015611fd05760408189031215611fa55760008081fd5b611fad611e46565b8135611fb88161164b565b81528185013585820152835291830191604001611f8c565b509695505050505050565b600060a08236031215611fed57600080fd5b611ff5611e6e565b82358152612005602084016116a5565b602082015260408301356001600160401b038082111561202457600080fd5b61203036838701611ec0565b6040840152606085013591508082111561204957600080fd5b61205536838701611ec0565b6060840152608085013591508082111561206e57600080fd5b5061207b36828601611f2f565b60808301525092915050565b6000806040838503121561209a57600080fd5b505080516020909101519092909150565b6060815260006120be60608301866117ee565b6001600160a01b039490941660208301525060400152919050565b6000602082840312156120eb57600080fd5b8151801515811461062457600080fd5b60006020828403121561210d57600080fd5b5051919050565b600082516121268184602087016117ca565b919091019291505056fea2646970667358221220b05a9aa24fc2bd6532bb74ca3b9ea9625d1708028b4356be3dad4470a4a715f964736f6c6343000819003360806040526000600355348015601457600080fd5b5060405161386d38038061386d8339810160408190526031916055565b600280546001600160a01b0319166001600160a01b03929092169190911790556083565b600060208284031215606657600080fd5b81516001600160a01b0381168114607c57600080fd5b9392505050565b6137db806100926000396000f3fe608060405234801561001057600080fd5b50600436106100625760003560e01c806336fbad26146100675780633e413bee146100835780635880ef34146100ae5780639f5c1e08146100c3578063dff4b13f146100d6578063f0f3f2c8146100e0575b600080fd5b61007060035481565b6040519081526020015b60405180910390f35b600254610096906001600160a01b031681565b6040516001600160a01b03909116815260200161007a565b6100b66100f3565b60405161007a919061070c565b6100966100d1366004610759565b610155565b6100de61017f565b005b6100966100ee366004610759565b6102e5565b6060600180548060200260200160405190810160405280929190818152602001828054801561014b57602002820191906000526020600020905b81546001600160a01b0316815260019091019060200180831161012d575b5050505050905090565b6001818154811061016557600080fd5b6000918252602090912001546001600160a01b0316905081565b600060405161018d906106ff565b604051809103906000f0801580156101a9573d6000803e3d6000fd5b5060405163148aedc160e21b81523360048201529091506001600160a01b0382169063522bb704906024016020604051808303816000875af11580156101f3573d6000803e3d6000fd5b505050506040513d601f19601f820116820180604052508101906102179190610772565b600080546001600160a01b03929092166001600160a01b0319928316811782556001805480820182559083527fb10e2d527612073b26eecdfd717e6a320cf44b4afac2b0732d9fcbe2b7fa0cf601805490931617909155600380549161027c836107a2565b90915550506000546002546102a0916001600160a01b039182169116600019610361565b6000546040516001600160a01b03909116815233907f8cb1f5e0b7508307e592a641586f535256dba226b02388100691c6133f65e22e9060200160405180910390a250565b600060035482106103335760405162461bcd60e51b8152602060048201526013602482015272496e646578206f7574206f6620626f756e647360681b60448201526064015b60405180910390fd5b60018281548110610346576103466107c9565b6000918252602090912001546001600160a01b031692915050565b8015806103db5750604051636eb1769f60e11b81523060048201526001600160a01b03838116602483015284169063dd62ed3e90604401602060405180830381865afa1580156103b5573d6000803e3d6000fd5b505050506040513d601f19601f820116820180604052508101906103d991906107df565b155b6104465760405162461bcd60e51b815260206004820152603660248201527f5361666545524332303a20617070726f76652066726f6d206e6f6e2d7a65726f60448201527520746f206e6f6e2d7a65726f20616c6c6f77616e636560501b606482015260840161032a565b604080516001600160a01b038416602482015260448082018490528251808303909101815260649091019091526020810180516001600160e01b031663095ea7b360e01b17905261049890849061049d565b505050565b60006104f2826040518060400160405280602081526020017f5361666545524332303a206c6f772d6c6576656c2063616c6c206661696c6564815250856001600160a01b031661056f9092919063ffffffff16565b805190915015610498578080602001905181019061051091906107f8565b6104985760405162461bcd60e51b815260206004820152602a60248201527f5361666545524332303a204552433230206f7065726174696f6e20646964206e6044820152691bdd081cdd58d8d9595960b21b606482015260840161032a565b606061057e8484600085610586565b949350505050565b6060824710156105e75760405162461bcd60e51b815260206004820152602660248201527f416464726573733a20696e73756666696369656e742062616c616e636520666f6044820152651c8818d85b1b60d21b606482015260840161032a565b600080866001600160a01b03168587604051610603919061083e565b60006040518083038185875af1925050503d8060008114610640576040519150601f19603f3d011682016040523d82523d6000602084013e610645565b606091505b509150915061065687838387610661565b979650505050505050565b606083156106d05782516000036106c9576001600160a01b0385163b6106c95760405162461bcd60e51b815260206004820152601d60248201527f416464726573733a2063616c6c20746f206e6f6e2d636f6e7472616374000000604482015260640161032a565b508161057e565b61057e83838151156106e55781518083602001fd5b8060405162461bcd60e51b815260040161032a919061085a565b612f188061088e83390190565b6020808252825182820181905260009190848201906040850190845b8181101561074d5783516001600160a01b031683529284019291840191600101610728565b50909695505050505050565b60006020828403121561076b57600080fd5b5035919050565b60006020828403121561078457600080fd5b81516001600160a01b038116811461079b57600080fd5b9392505050565b6000600182016107c257634e487b7160e01b600052601160045260246000fd5b5060010190565b634e487b7160e01b600052603260045260246000fd5b6000602082840312156107f157600080fd5b5051919050565b60006020828403121561080a57600080fd5b8151801515811461079b57600080fd5b60005b8381101561083557818101518382015260200161081d565b50506000910152565b6000825161085081846020870161081a565b9190910192915050565b602081526000825180602084015261087981604085016020870161081a565b601f01601f1916919091016040019291505056fe6080604052600c805462ff00ff191662010001179055348015602057600080fd5b50612ee8806100306000396000f3fe608060405234801561001057600080fd5b50600436106100365760003560e01c8063522bb7041461003b578063f8ccbf471461006b575b600080fd5b61004e6100493660046101a1565b61008e565b6040516001600160a01b0390911681526020015b60405180910390f35b600c5461007e9062010000900460ff1681565b6040519015158152602001610062565b60008060405161009d9061016f565b604051809103906000f0801580156100b9573d6000803e3d6000fd5b5090506000816001600160a01b031663d7b657456040518163ffffffff1660e01b8152600401602060405180830381865afa1580156100fc573d6000803e3d6000fd5b505050506040513d601f19601f8201168201806040525081019061012091906101c5565b9050600081856040516101329061017c565b6001600160a01b03928316815291166020820152604001604051809103906000f080158015610165573d6000803e3d6000fd5b5095945050505050565b611991806101e383390190565b61133f80611b7483390190565b6001600160a01b038116811461019e57600080fd5b50565b6000602082840312156101b357600080fd5b81356101be81610189565b9392505050565b6000602082840312156101d757600080fd5b81516101be8161018956fe6080604052600c805462ff00ff19166201000117905534801561002157600080fd5b5062aa36a619460161008257604080516020808201835260009091528151908101909152731c7d4b196cb0c7b01d743fbc6116a902379c723881525b51600d80546001600160a01b0319166001600160a01b0390921691909117905561029e565b60001946016100bf5760408051602080820183526000909152815190810190915273a0b86991c6218b36c1d19d4a2e9eb0ce3606eb48815261005d565b60881946016100fc57604080516020808201835260009091528151908101909152733c499c542cef5e3811e1192ce70d8cc03d5c3359815261005d565b61a86819460161013a57604080516020808201835260009091528151908101909152735425890298aed601595a70ab815c96711a31bc65815261005d565b62013881194601610179576040805160208082018352600090915281519081019091527341e94eb019c0762f9bfcf9fb1e58725bfb0e7582815261005d565b61005d604080516020810190915260008152600060405161019990610266565b604051809103906000f0801580156101b5573d6000803e3d6000fd5b5090506001600160a01b0381166340c10f1973f39fd6e51aad88f6f4ce6ab8827279cfffb922666101ea620f42406064610273565b6040516001600160e01b031960e085901b1681526001600160a01b0390921660048301526024820152604401600060405180830381600087803b15801561023057600080fd5b505af1158015610244573d6000803e3d6000fd5b505060408051602081019091526001600160a01b039093168352509092915050565b6109c680610fcb83390190565b808202811582820484141761029857634e487b7160e01b600052601160045260246000fd5b92915050565b610d1e806102ad6000396000f3fe608060405234801561001057600080fd5b50600436106100885760003560e01c8063d7b657451161005b578063d7b6574514610176578063d8db2188146101a1578063ec4cf1ca146101a9578063f8ccbf47146101dd57600080fd5b80632380f8531461008d578063405f34cd146100da57806344007e381461010e578063d0c068a014610142575b600080fd5b60408051602080820183526000909152815190810190915273a0b86991c6218b36c1d19d4a2e9eb0ce3606eb4881525b60405190516001600160a01b031681526020015b60405180910390f35b604080516020808201835260009091528151908101909152735425890298aed601595a70ab815c96711a31bc6581526100bd565b604080516020808201835260009091528151908101909152731c7d4b196cb0c7b01d743fbc6116a902379c723881526100bd565b6040805160208082018352600090915281519081019091527341e94eb019c0762f9bfcf9fb1e58725bfb0e758281526100bd565b600d54610189906001600160a01b031681565b6040516001600160a01b0390911681526020016100d1565b6100bd610200565b604080516020808201835260009091528151908101909152733c499c542cef5e3811e1192ce70d8cc03d5c335981526100bd565b600c546101f09062010000900460ff1681565b60405190151581526020016100d1565b604080516020810190915260008152600060405161021d906102ea565b604051809103906000f080158015610239573d6000803e3d6000fd5b5090506001600160a01b0381166340c10f1973f39fd6e51aad88f6f4ce6ab8827279cfffb9226661026e620f424060646102f7565b6040516001600160e01b031960e085901b1681526001600160a01b0390921660048301526024820152604401600060405180830381600087803b1580156102b457600080fd5b505af11580156102c8573d6000803e3d6000fd5b505060408051602081019091526001600160a01b039093168352509092915050565b6109c68061032383390190565b808202811582820484141761031c57634e487b7160e01b600052601160045260246000fd5b9291505056fe608060405234801561001057600080fd5b506040518060400160405280600981526020016845524332304d6f636b60b81b815250604051806040016040528060048152602001634532304d60e01b815250816003908161005f9190610115565b50600461006c8282610115565b5050506101d4565b634e487b7160e01b600052604160045260246000fd5b600181811c9082168061009e57607f821691505b6020821081036100be57634e487b7160e01b600052602260045260246000fd5b50919050565b601f821115610110576000816000526020600020601f850160051c810160208610156100ed5750805b601f850160051c820191505b8181101561010c578281556001016100f9565b5050505b505050565b81516001600160401b0381111561012e5761012e610074565b6101428161013c845461008a565b846100c4565b602080601f831160018114610177576000841561015f5750858301515b600019600386901b1c1916600185901b17855561010c565b600085815260208120601f198616915b828110156101a657888601518255948401946001909101908401610187565b50858210156101c45787850151600019600388901b60f8161c191681555b5050505050600190811b01905550565b6107e3806101e36000396000f3fe608060405234801561001057600080fd5b50600436106100a95760003560e01c806340c10f191161007157806340c10f191461012357806370a082311461013857806395d89b41146101615780639dc29fac14610169578063a9059cbb1461017c578063dd62ed3e1461018f57600080fd5b806306fdde03146100ae578063095ea7b3146100cc57806318160ddd146100ef57806323b872dd14610101578063313ce56714610114575b600080fd5b6100b66101c8565b6040516100c3919061062c565b60405180910390f35b6100df6100da366004610697565b61025a565b60405190151581526020016100c3565b6002545b6040519081526020016100c3565b6100df61010f3660046106c1565b610274565b604051601281526020016100c3565b610136610131366004610697565b610298565b005b6100f36101463660046106fd565b6001600160a01b031660009081526020819052604090205490565b6100b66102a6565b610136610177366004610697565b6102b5565b6100df61018a366004610697565b6102bf565b6100f361019d36600461071f565b6001600160a01b03918216600090815260016020908152604080832093909416825291909152205490565b6060600380546101d790610752565b80601f016020809104026020016040519081016040528092919081815260200182805461020390610752565b80156102505780601f1061022557610100808354040283529160200191610250565b820191906000526020600020905b81548152906001019060200180831161023357829003601f168201915b5050505050905090565b6000336102688185856102cd565b60019150505b92915050565b6000336102828582856102df565b61028d858585610362565b506001949350505050565b6102a282826103c1565b5050565b6060600480546101d790610752565b6102a282826103f7565b600033610268818585610362565b6102da838383600161042d565b505050565b6001600160a01b03838116600090815260016020908152604080832093861683529290522054600019811461035c578181101561034d57604051637dc7a0d960e11b81526001600160a01b038416600482015260248101829052604481018390526064015b60405180910390fd5b61035c8484848403600061042d565b50505050565b6001600160a01b03831661038c57604051634b637e8f60e11b815260006004820152602401610344565b6001600160a01b0382166103b65760405163ec442f0560e01b815260006004820152602401610344565b6102da838383610502565b6001600160a01b0382166103eb5760405163ec442f0560e01b815260006004820152602401610344565b6102a260008383610502565b6001600160a01b03821661042157604051634b637e8f60e11b815260006004820152602401610344565b6102a282600083610502565b6001600160a01b0384166104575760405163e602df0560e01b815260006004820152602401610344565b6001600160a01b03831661048157604051634a1406b160e11b815260006004820152602401610344565b6001600160a01b038085166000908152600160209081526040808320938716835292905220829055801561035c57826001600160a01b0316846001600160a01b03167f8c5be1e5ebec7d5bd14f71427d1e84f3dd0314c0f7b2291e5b200ac8c7c3b925846040516104f491815260200190565b60405180910390a350505050565b6001600160a01b03831661052d578060026000828254610522919061078c565b9091555061059f9050565b6001600160a01b038316600090815260208190526040902054818110156105805760405163391434e360e21b81526001600160a01b03851660048201526024810182905260448101839052606401610344565b6001600160a01b03841660009081526020819052604090209082900390555b6001600160a01b0382166105bb576002805482900390556105da565b6001600160a01b03821660009081526020819052604090208054820190555b816001600160a01b0316836001600160a01b03167fddf252ad1be2c89b69c2b068fc378daa952ba7f163c4a11628f55a4df523b3ef8360405161061f91815260200190565b60405180910390a3505050565b60006020808352835180602085015260005b8181101561065a5785810183015185820160400152820161063e565b506000604082860101526040601f19601f8301168501019250505092915050565b80356001600160a01b038116811461069257600080fd5b919050565b600080604083850312156106aa57600080fd5b6106b38361067b565b946020939093013593505050565b6000806000606084860312156106d657600080fd5b6106df8461067b565b92506106ed6020850161067b565b9150604084013590509250925092565b60006020828403121561070f57600080fd5b6107188261067b565b9392505050565b6000806040838503121561073257600080fd5b61073b8361067b565b91506107496020840161067b565b90509250929050565b600181811c9082168061076657607f821691505b60208210810361078657634e487b7160e01b600052602260045260246000fd5b50919050565b8082018082111561026e57634e487b7160e01b600052601160045260246000fdfea264697066735822122040151e1e2dbfb1fa32be9d0004c5ce8859a46eb22f499d113218929f82a9c3f664736f6c63430008190033a2646970667358221220ac10452241b5b40e41dd24eecf80cbc2054e4546847aaacf906fab8e4871524864736f6c63430008190033608060405234801561001057600080fd5b506040518060400160405280600981526020016845524332304d6f636b60b81b815250604051806040016040528060048152602001634532304d60e01b815250816003908161005f9190610115565b50600461006c8282610115565b5050506101d4565b634e487b7160e01b600052604160045260246000fd5b600181811c9082168061009e57607f821691505b6020821081036100be57634e487b7160e01b600052602260045260246000fd5b50919050565b601f821115610110576000816000526020600020601f850160051c810160208610156100ed5750805b601f850160051c820191505b8181101561010c578281556001016100f9565b5050505b505050565b81516001600160401b0381111561012e5761012e610074565b6101428161013c845461008a565b846100c4565b602080601f831160018114610177576000841561015f5750858301515b600019600386901b1c1916600185901b17855561010c565b600085815260208120601f198616915b828110156101a657888601518255948401946001909101908401610187565b50858210156101c45787850151600019600388901b60f8161c191681555b5050505050600190811b01905550565b6107e3806101e36000396000f3fe608060405234801561001057600080fd5b50600436106100a95760003560e01c806340c10f191161007157806340c10f191461012357806370a082311461013857806395d89b41146101615780639dc29fac14610169578063a9059cbb1461017c578063dd62ed3e1461018f57600080fd5b806306fdde03146100ae578063095ea7b3146100cc57806318160ddd146100ef57806323b872dd14610101578063313ce56714610114575b600080fd5b6100b66101c8565b6040516100c3919061062c565b60405180910390f35b6100df6100da366004610697565b61025a565b60405190151581526020016100c3565b6002545b6040519081526020016100c3565b6100df61010f3660046106c1565b610274565b604051601281526020016100c3565b610136610131366004610697565b610298565b005b6100f36101463660046106fd565b6001600160a01b031660009081526020819052604090205490565b6100b66102a6565b610136610177366004610697565b6102b5565b6100df61018a366004610697565b6102bf565b6100f361019d36600461071f565b6001600160a01b03918216600090815260016020908152604080832093909416825291909152205490565b6060600380546101d790610752565b80601f016020809104026020016040519081016040528092919081815260200182805461020390610752565b80156102505780601f1061022557610100808354040283529160200191610250565b820191906000526020600020905b81548152906001019060200180831161023357829003601f168201915b5050505050905090565b6000336102688185856102cd565b60019150505b92915050565b6000336102828582856102df565b61028d858585610362565b506001949350505050565b6102a282826103c1565b5050565b6060600480546101d790610752565b6102a282826103f7565b600033610268818585610362565b6102da838383600161042d565b505050565b6001600160a01b03838116600090815260016020908152604080832093861683529290522054600019811461035c578181101561034d57604051637dc7a0d960e11b81526001600160a01b038416600482015260248101829052604481018390526064015b60405180910390fd5b61035c8484848403600061042d565b50505050565b6001600160a01b03831661038c57604051634b637e8f60e11b815260006004820152602401610344565b6001600160a01b0382166103b65760405163ec442f0560e01b815260006004820152602401610344565b6102da838383610502565b6001600160a01b0382166103eb5760405163ec442f0560e01b815260006004820152602401610344565b6102a260008383610502565b6001600160a01b03821661042157604051634b637e8f60e11b815260006004820152602401610344565b6102a282600083610502565b6001600160a01b0384166104575760405163e602df0560e01b815260006004820152602401610344565b6001600160a01b03831661048157604051634a1406b160e11b815260006004820152602401610344565b6001600160a01b038085166000908152600160209081526040808320938716835292905220829055801561035c57826001600160a01b0316846001600160a01b03167f8c5be1e5ebec7d5bd14f71427d1e84f3dd0314c0f7b2291e5b200ac8c7c3b925846040516104f491815260200190565b60405180910390a350505050565b6001600160a01b03831661052d578060026000828254610522919061078c565b9091555061059f9050565b6001600160a01b038316600090815260208190526040902054818110156105805760405163391434e360e21b81526001600160a01b03851660048201526024810182905260448101839052606401610344565b6001600160a01b03841660009081526020819052604090209082900390555b6001600160a01b0382166105bb576002805482900390556105da565b6001600160a01b03821660009081526020819052604090208054820190555b816001600160a01b0316836001600160a01b03167fddf252ad1be2c89b69c2b068fc378daa952ba7f163c4a11628f55a4df523b3ef8360405161061f91815260200190565b60405180910390a3505050565b60006020808352835180602085015260005b8181101561065a5785810183015185820160400152820161063e565b506000604082860101526040601f19601f8301168501019250505092915050565b80356001600160a01b038116811461069257600080fd5b919050565b600080604083850312156106aa57600080fd5b6106b38361067b565b946020939093013593505050565b6000806000606084860312156106d657600080fd5b6106df8461067b565b92506106ed6020850161067b565b9150604084013590509250925092565b60006020828403121561070f57600080fd5b6107188261067b565b9392505050565b6000806040838503121561073257600080fd5b61073b8361067b565b91506107496020840161067b565b90509250929050565b600181811c9082168061076657607f821691505b60208210810361078657634e487b7160e01b600052602260045260246000fd5b50919050565b8082018082111561026e57634e487b7160e01b600052601160045260246000fdfea264697066735822122040151e1e2dbfb1fa32be9d0004c5ce8859a46eb22f499d113218929f82a9c3f664736f6c6343000819003360a06040526005805461ffff60a01b1916905534801561001e57600080fd5b5060405161133f38038061133f83398101604081905261003d916100b5565b6001600160a01b0380821660805282166100695760405162b30c8d60e31b815260040160405180910390fd5b50600080546001600160a01b039092166001600160a01b03199283168117909155600580549092161790556100e8565b80516001600160a01b03811681146100b057600080fd5b919050565b600080604083850312156100c857600080fd5b6100d183610099565b91506100df60208401610099565b90509250929050565b60805161120461013b600039600081816101d70152818161025f01528181610349015281816104550152818161049f015281816105c4015281816106a6015281816107b801526107df01526112046000f3fe608060405234801561001057600080fd5b506004361061011f5760003560e01c806381158fe3116100ad578063c83bb1a611610071578063c83bb1a61461022c578063ca1d209d14610234578063d7b4750c14610247578063dba6335f1461025a578063dc0d3dff1461028157600080fd5b806381158fe3146101cd578063893d20e8146101d55780639a33e300146101fb578063ab7cc84d14610210578063ad7a672f1461022357600080fd5b806329f5633f116100f457806329f5633f146101755780633ccfd60b1461017d5780633e413bee146101875780635c6b932b1461019a57806377b53ece146101ba57600080fd5b806213c58a146101245780622772c214610140578063064343221461014857806312b583491461016d575b600080fd5b61012d60025481565b6040519081526020015b60405180910390f35b61012d610294565b6005546001600160a01b03165b6040516001600160a01b039091168152602001610137565b60035461012d565b61012d610307565b61018561033e565b005b600054610155906001600160a01b031681565b61012d6101a8366004610e66565b60066020526000908152604090205481565b600554610155906001600160a01b031681565b61012d6104fa565b7f0000000000000000000000000000000000000000000000000000000000000000610155565b61020361052b565b6040516101379190610eba565b61018561021e366004610f03565b6105b9565b61012d60035481565b61018561069b565b610185610242366004610fb8565b610838565b610155610255366004610fb8565b610a2d565b6101557f000000000000000000000000000000000000000000000000000000000000000081565b61015561028f366004610fb8565b610a5d565b600080546040516370a0823160e01b81523060048201526001600160a01b03909116906370a08231906024015b602060405180830381865afa1580156102de573d6000803e3d6000fd5b505050506040513d601f19601f820116820180604052508101906103029190610fd1565b905090565b60008054604051636eb1769f60e11b81523360048201523060248201526001600160a01b039091169063dd62ed3e906044016102c1565b336001600160a01b037f00000000000000000000000000000000000000000000000000000000000000001614610387576040516330cd747160e01b815260040160405180910390fd5b60025460035410156103d35760405162461bcd60e51b815260206004820152601060248201526f11dbd85b081b9bdd081c995858da195960821b60448201526064015b60405180910390fd5b600080546040516370a0823160e01b81523060048201526001600160a01b03909116906370a0823190602401602060405180830381865afa15801561041c573d6000803e3d6000fd5b505050506040513d601f19601f820116820180604052508101906104409190610fd1565b60005490915061047a906001600160a01b03167f000000000000000000000000000000000000000000000000000000000000000083610a87565b60006003556005805460ff60a81b1916600160a81b1790556040516001600160a01b037f000000000000000000000000000000000000000000000000000000000000000016907feaff4b37086828766ad3268786972c0cd24259d4c87a80f9d3963a3c3d999b0d906104ef9084815260200190565b60405180910390a250565b600080546040516370a0823160e01b81523360048201526001600160a01b03909116906370a08231906024016102c1565b6001805461053890610fea565b80601f016020809104026020016040519081016040528092919081815260200182805461056490610fea565b80156105b15780601f10610586576101008083540402835291602001916105b1565b820191906000526020600020905b81548152906001019060200180831161059457829003601f168201915b505050505081565b336001600160a01b037f00000000000000000000000000000000000000000000000000000000000000001614610602576040516330cd747160e01b815260040160405180910390fd5b600554600160a01b900460ff16156106675760405162461bcd60e51b815260206004820152602260248201527f4e616d6520616e6420676f616c2068617320616c7265616479206265656e2073604482015261195d60f21b60648201526084016103ca565b60016106738382611074565b50610681620f42408261114a565b60025550506005805460ff60a01b1916600160a01b179055565b336001600160a01b037f000000000000000000000000000000000000000000000000000000000000000016146106e4576040516330cd747160e01b815260040160405180910390fd5b6001600354106107365760405162461bcd60e51b815260206004820152601960248201527f546f74616c2062616c616e6365206973206e6f74207a65726f0000000000000060448201526064016103ca565b600080546040516370a0823160e01b81523060048201526001600160a01b03909116906370a0823190602401602060405180830381865afa15801561077f573d6000803e3d6000fd5b505050506040513d601f19601f820116820180604052508101906107a39190610fd1565b6000549091506107dd906001600160a01b03167f000000000000000000000000000000000000000000000000000000000000000083610a87565b7f00000000000000000000000000000000000000000000000000000000000000006001600160a01b03167feaff4b37086828766ad3268786972c0cd24259d4c87a80f9d3963a3c3d999b0d826040516104ef91815260200190565b600554600160a81b900460ff16156108925760405162461bcd60e51b815260206004820152601b60248201527f50726f6a65637420697320616c726561647920636f6d706c657465000000000060448201526064016103ca565b60006108a1620f42408361114a565b6000549091506108bb906001600160a01b03163083610aef565b6000546040516323b872dd60e01b8152336004820152306024820152604481018390526001600160a01b03909116906323b872dd906064016020604051808303816000875af1158015610912573d6000803e3d6000fd5b505050506040513d601f19601f820116820180604052508101906109369190611167565b6109745760405162461bcd60e51b815260206004820152600f60248201526e151c985b9cd9995c8819985a5b1959608a1b60448201526064016103ca565b3360009081526006602052604081208054839290610993908490611189565b9250508190555080600360008282546109ac9190611189565b9091555050600480546001810182556000919091527f8a35acfbc15ff81a39ae7d344fd709f28e8600b4aa8c65c6b64bfe7fe36bd19b0180546001600160a01b031916339081179091556040518281527f54a5b8782470a0d2c022b3b9e5e729503ac5dbdfe053afeb4559f9297f7565a69060200160405180910390a25050565b600060048281548110610a4257610a4261119c565b6000918252602090912001546001600160a01b031692915050565b60048181548110610a6d57600080fd5b6000918252602090912001546001600160a01b0316905081565b6040516001600160a01b038316602482015260448101829052610aea90849063a9059cbb60e01b906064015b60408051601f198184030181529190526020810180516001600160e01b03166001600160e01b031990931692909217909152610c04565b505050565b801580610b695750604051636eb1769f60e11b81523060048201526001600160a01b03838116602483015284169063dd62ed3e90604401602060405180830381865afa158015610b43573d6000803e3d6000fd5b505050506040513d601f19601f82011682018060405250810190610b679190610fd1565b155b610bd45760405162461bcd60e51b815260206004820152603660248201527f5361666545524332303a20617070726f76652066726f6d206e6f6e2d7a65726f60448201527520746f206e6f6e2d7a65726f20616c6c6f77616e636560501b60648201526084016103ca565b6040516001600160a01b038316602482015260448101829052610aea90849063095ea7b360e01b90606401610ab3565b6000610c59826040518060400160405280602081526020017f5361666545524332303a206c6f772d6c6576656c2063616c6c206661696c6564815250856001600160a01b0316610cd69092919063ffffffff16565b805190915015610aea5780806020019051810190610c779190611167565b610aea5760405162461bcd60e51b815260206004820152602a60248201527f5361666545524332303a204552433230206f7065726174696f6e20646964206e6044820152691bdd081cdd58d8d9595960b21b60648201526084016103ca565b6060610ce58484600085610ced565b949350505050565b606082471015610d4e5760405162461bcd60e51b815260206004820152602660248201527f416464726573733a20696e73756666696369656e742062616c616e636520666f6044820152651c8818d85b1b60d21b60648201526084016103ca565b600080866001600160a01b03168587604051610d6a91906111b2565b60006040518083038185875af1925050503d8060008114610da7576040519150601f19603f3d011682016040523d82523d6000602084013e610dac565b606091505b5091509150610dbd87838387610dc8565b979650505050505050565b60608315610e37578251600003610e30576001600160a01b0385163b610e305760405162461bcd60e51b815260206004820152601d60248201527f416464726573733a2063616c6c20746f206e6f6e2d636f6e747261637400000060448201526064016103ca565b5081610ce5565b610ce58383815115610e4c5781518083602001fd5b8060405162461bcd60e51b81526004016103ca9190610eba565b600060208284031215610e7857600080fd5b81356001600160a01b0381168114610e8f57600080fd5b9392505050565b60005b83811015610eb1578181015183820152602001610e99565b50506000910152565b6020815260008251806020840152610ed9816040850160208701610e96565b601f01601f19169190910160400192915050565b634e487b7160e01b600052604160045260246000fd5b60008060408385031215610f1657600080fd5b823567ffffffffffffffff80821115610f2e57600080fd5b818501915085601f830112610f4257600080fd5b813581811115610f5457610f54610eed565b604051601f8201601f19908116603f01168101908382118183101715610f7c57610f7c610eed565b81604052828152886020848701011115610f9557600080fd5b826020860160208301376000602093820184015298969091013596505050505050565b600060208284031215610fca57600080fd5b5035919050565b600060208284031215610fe357600080fd5b5051919050565b600181811c90821680610ffe57607f821691505b60208210810361101e57634e487b7160e01b600052602260045260246000fd5b50919050565b601f821115610aea576000816000526020600020601f850160051c8101602086101561104d5750805b601f850160051c820191505b8181101561106c57828155600101611059565b505050505050565b815167ffffffffffffffff81111561108e5761108e610eed565b6110a28161109c8454610fea565b84611024565b602080601f8311600181146110d757600084156110bf5750858301515b600019600386901b1c1916600185901b17855561106c565b600085815260208120601f198616915b82811015611106578886015182559484019460019091019084016110e7565b50858210156111245787850151600019600388901b60f8161c191681555b5050505050600190811b01905550565b634e487b7160e01b600052601160045260246000fd5b808202811582820484141761116157611161611134565b92915050565b60006020828403121561117957600080fd5b81518015158114610e8f57600080fd5b8082018082111561116157611161611134565b634e487b7160e01b600052603260045260246000fd5b600082516111c4818460208701610e96565b919091019291505056fea26469706673582212208515c84dd7dfdd1901e106542d387246bcc7593a1524db8e33c50583b16f8cc564736f6c63430008190033a26469706673582212209c3b4dfa513ac3a93da855a9c2c5ee99e2ece9f5fae67f1b00b3414651e26d7864736f6c63430008190033a2646970667358221220333dc9d36222d924850a3c7bff557aeac182b63007944a1bb4e793151d52a6e264736f6c63430008190033","linkReferences":{}},"methodIdentifiers":{"acceptOwnership()":"79ba5097","ccipReceive((bytes32,uint64,bytes,bytes,(address,uint256)[]))":"85572ffb","deleteSenderForSourceChain(uint64)":"e62aa19f","getControllerAddress()":"c57380a2","getFailedMessages(uint256,uint256)":"8d9d89fe","getProjectTest(uint256)":"65023472","getRouter()":"b0f479a1","owner()":"8da5cb5b","processMessage((bytes32,uint64,bytes,bytes,(address,uint256)[]))":"cf6730f8","retryFailedMessage(bytes32,address)":"369f7f66","s_messageContents(bytes32)":"d0d1fc3d","s_senders(uint64)":"3b6efe14","setSenderForSourceChain(uint64,address)":"ded394a3","supportsInterface(bytes4)":"01ffc9a7","transferOwnership(address)":"f2fde38b","transferTokenToProject(address,uint256)":"d1e889ae"},"id":51}