{"abi":[{"type":"constructor","inputs":[],"stateMutability":"nonpayable"},{"type":"function","name":"PredefinedAddress","inputs":[],"outputs":[{"name":"","type":"address","internalType":"address"}],"stateMutability":"view"},{"type":"function","name":"allowance","inputs":[{"name":"owner","type":"address","internalType":"address"},{"name":"spender","type":"address","internalType":"address"}],"outputs":[{"name":"","type":"uint256","internalType":"uint256"}],"stateMutability":"view"},{"type":"function","name":"approve","inputs":[{"name":"spender","type":"address","internalType":"address"},{"name":"value","type":"uint256","internalType":"uint256"}],"outputs":[{"name":"","type":"bool","internalType":"bool"}],"stateMutability":"nonpayable"},{"type":"function","name":"balanceOf","inputs":[{"name":"account","type":"address","internalType":"address"}],"outputs":[{"name":"","type":"uint256","internalType":"uint256"}],"stateMutability":"view"},{"type":"function","name":"burn","inputs":[{"name":"account","type":"address","internalType":"address"},{"name":"amount","type":"uint256","internalType":"uint256"}],"outputs":[],"stateMutability":"nonpayable"},{"type":"function","name":"decimals","inputs":[],"outputs":[{"name":"","type":"uint8","internalType":"uint8"}],"stateMutability":"view"},{"type":"function","name":"mint","inputs":[{"name":"account","type":"address","internalType":"address"},{"name":"amount","type":"uint256","internalType":"uint256"}],"outputs":[],"stateMutability":"nonpayable"},{"type":"function","name":"name","inputs":[],"outputs":[{"name":"","type":"string","internalType":"string"}],"stateMutability":"view"},{"type":"function","name":"symbol","inputs":[],"outputs":[{"name":"","type":"string","internalType":"string"}],"stateMutability":"view"},{"type":"function","name":"totalSupply","inputs":[],"outputs":[{"name":"","type":"uint256","internalType":"uint256"}],"stateMutability":"view"},{"type":"function","name":"transfer","inputs":[{"name":"to","type":"address","internalType":"address"},{"name":"value","type":"uint256","internalType":"uint256"}],"outputs":[{"name":"","type":"bool","internalType":"bool"}],"stateMutability":"nonpayable"},{"type":"function","name":"transferFrom","inputs":[{"name":"from","type":"address","internalType":"address"},{"name":"to","type":"address","internalType":"address"},{"name":"value","type":"uint256","internalType":"uint256"}],"outputs":[{"name":"","type":"bool","internalType":"bool"}],"stateMutability":"nonpayable"},{"type":"event","name":"Approval","inputs":[{"name":"owner","type":"address","indexed":true,"internalType":"address"},{"name":"spender","type":"address","indexed":true,"internalType":"address"},{"name":"value","type":"uint256","indexed":false,"internalType":"uint256"}],"anonymous":false},{"type":"event","name":"Transfer","inputs":[{"name":"from","type":"address","indexed":true,"internalType":"address"},{"name":"to","type":"address","indexed":true,"internalType":"address"},{"name":"value","type":"uint256","indexed":false,"internalType":"uint256"}],"anonymous":false},{"type":"error","name":"ERC20InsufficientAllowance","inputs":[{"name":"spender","type":"address","internalType":"address"},{"name":"allowance","type":"uint256","internalType":"uint256"},{"name":"needed","type":"uint256","internalType":"uint256"}]},{"type":"error","name":"ERC20InsufficientBalance","inputs":[{"name":"sender","type":"address","internalType":"address"},{"name":"balance","type":"uint256","internalType":"uint256"},{"name":"needed","type":"uint256","internalType":"uint256"}]},{"type":"error","name":"ERC20InvalidApprover","inputs":[{"name":"approver","type":"address","internalType":"address"}]},{"type":"error","name":"ERC20InvalidReceiver","inputs":[{"name":"receiver","type":"address","internalType":"address"}]},{"type":"error","name":"ERC20InvalidSender","inputs":[{"name":"sender","type":"address","internalType":"address"}]},{"type":"error","name":"ERC20InvalidSpender","inputs":[{"name":"spender","type":"address","internalType":"address"}]}],"bytecode":{"object":"0x6080604052600580546001600160a01b03191673f39fd6e51aad88f6f4ce6ab8827279cfffb9226617905534801561003657600080fd5b5060405180604001604052806008815260200167555344434d6f636b60c01b81525060405180604001604052806005815260200164555344434d60d81b815250816003908161008591906102c4565b50600461009282826102c4565b50506005546100b591506001600160a01b031669d3c21bcecceda10000006100ba565b6103aa565b6001600160a01b0382166100e95760405163ec442f0560e01b8152600060048201526024015b60405180910390fd5b6100f5600083836100f9565b5050565b6001600160a01b0383166101245780600260008282546101199190610383565b909155506101969050565b6001600160a01b038316600090815260208190526040902054818110156101775760405163391434e360e21b81526001600160a01b038516600482015260248101829052604481018390526064016100e0565b6001600160a01b03841660009081526020819052604090209082900390555b6001600160a01b0382166101b2576002805482900390556101d1565b6001600160a01b03821660009081526020819052604090208054820190555b816001600160a01b0316836001600160a01b03167fddf252ad1be2c89b69c2b068fc378daa952ba7f163c4a11628f55a4df523b3ef8360405161021691815260200190565b60405180910390a3505050565b634e487b7160e01b600052604160045260246000fd5b600181811c9082168061024d57607f821691505b60208210810361026d57634e487b7160e01b600052602260045260246000fd5b50919050565b601f8211156102bf576000816000526020600020601f850160051c8101602086101561029c5750805b601f850160051c820191505b818110156102bb578281556001016102a8565b5050505b505050565b81516001600160401b038111156102dd576102dd610223565b6102f1816102eb8454610239565b84610273565b602080601f831160018114610326576000841561030e5750858301515b600019600386901b1c1916600185901b1785556102bb565b600085815260208120601f198616915b8281101561035557888601518255948401946001909101908401610336565b50858210156103735787850151600019600388901b60f8161c191681555b5050505050600190811b01905550565b808201808211156103a457634e487b7160e01b600052601160045260246000fd5b92915050565b610819806103b96000396000f3fe608060405234801561001057600080fd5b50600436106100b45760003560e01c806370a082311161007157806370a0823114610143578063720701791461016c57806395d89b41146101975780639dc29fac1461019f578063a9059cbb146101b2578063dd62ed3e146101c557600080fd5b806306fdde03146100b9578063095ea7b3146100d757806318160ddd146100fa57806323b872dd1461010c578063313ce5671461011f57806340c10f191461012e575b600080fd5b6100c16101fe565b6040516100ce9190610662565b60405180910390f35b6100ea6100e53660046106cd565b610290565b60405190151581526020016100ce565b6002545b6040519081526020016100ce565b6100ea61011a3660046106f7565b6102aa565b604051601281526020016100ce565b61014161013c3660046106cd565b6102ce565b005b6100fe610151366004610733565b6001600160a01b031660009081526020819052604090205490565b60055461017f906001600160a01b031681565b6040516001600160a01b0390911681526020016100ce565b6100c16102dc565b6101416101ad3660046106cd565b6102eb565b6100ea6101c03660046106cd565b6102f5565b6100fe6101d3366004610755565b6001600160a01b03918216600090815260016020908152604080832093909416825291909152205490565b60606003805461020d90610788565b80601f016020809104026020016040519081016040528092919081815260200182805461023990610788565b80156102865780601f1061025b57610100808354040283529160200191610286565b820191906000526020600020905b81548152906001019060200180831161026957829003601f168201915b5050505050905090565b60003361029e818585610303565b60019150505b92915050565b6000336102b8858285610315565b6102c3858585610398565b506001949350505050565b6102d882826103f7565b5050565b60606004805461020d90610788565b6102d8828261042d565b60003361029e818585610398565b6103108383836001610463565b505050565b6001600160a01b038381166000908152600160209081526040808320938616835292905220546000198114610392578181101561038357604051637dc7a0d960e11b81526001600160a01b038416600482015260248101829052604481018390526064015b60405180910390fd5b61039284848484036000610463565b50505050565b6001600160a01b0383166103c257604051634b637e8f60e11b81526000600482015260240161037a565b6001600160a01b0382166103ec5760405163ec442f0560e01b81526000600482015260240161037a565b610310838383610538565b6001600160a01b0382166104215760405163ec442f0560e01b81526000600482015260240161037a565b6102d860008383610538565b6001600160a01b03821661045757604051634b637e8f60e11b81526000600482015260240161037a565b6102d882600083610538565b6001600160a01b03841661048d5760405163e602df0560e01b81526000600482015260240161037a565b6001600160a01b0383166104b757604051634a1406b160e11b81526000600482015260240161037a565b6001600160a01b038085166000908152600160209081526040808320938716835292905220829055801561039257826001600160a01b0316846001600160a01b03167f8c5be1e5ebec7d5bd14f71427d1e84f3dd0314c0f7b2291e5b200ac8c7c3b9258460405161052a91815260200190565b60405180910390a350505050565b6001600160a01b03831661056357806002600082825461055891906107c2565b909155506105d59050565b6001600160a01b038316600090815260208190526040902054818110156105b65760405163391434e360e21b81526001600160a01b0385166004820152602481018290526044810183905260640161037a565b6001600160a01b03841660009081526020819052604090209082900390555b6001600160a01b0382166105f157600280548290039055610610565b6001600160a01b03821660009081526020819052604090208054820190555b816001600160a01b0316836001600160a01b03167fddf252ad1be2c89b69c2b068fc378daa952ba7f163c4a11628f55a4df523b3ef8360405161065591815260200190565b60405180910390a3505050565b60006020808352835180602085015260005b8181101561069057858101830151858201604001528201610674565b506000604082860101526040601f19601f8301168501019250505092915050565b80356001600160a01b03811681146106c857600080fd5b919050565b600080604083850312156106e057600080fd5b6106e9836106b1565b946020939093013593505050565b60008060006060848603121561070c57600080fd5b610715846106b1565b9250610723602085016106b1565b9150604084013590509250925092565b60006020828403121561074557600080fd5b61074e826106b1565b9392505050565b6000806040838503121561076857600080fd5b610771836106b1565b915061077f602084016106b1565b90509250929050565b600181811c9082168061079c57607f821691505b6020821081036107bc57634e487b7160e01b600052602260045260246000fd5b50919050565b808201808211156102a457634e487b7160e01b600052601160045260246000fdfea2646970667358221220298bf6668d94fa1119d6492b237aeb849105804512e49bb793013b47ea780f7d64736f6c63430008190033","linkReferences":{}},"methodIdentifiers":{"PredefinedAddress()":"72070179","allowance(address,address)":"dd62ed3e","approve(address,uint256)":"095ea7b3","balanceOf(address)":"70a08231","burn(address,uint256)":"9dc29fac","decimals()":"313ce567","mint(address,uint256)":"40c10f19","name()":"06fdde03","symbol()":"95d89b41","totalSupply()":"18160ddd","transfer(address,uint256)":"a9059cbb","transferFrom(address,address,uint256)":"23b872dd"},"id":26}