{"abi":[{"type":"function","name":"ETH_USD_DECIMALS","inputs":[],"outputs":[{"name":"","type":"uint8","internalType":"uint8"}],"stateMutability":"view"},{"type":"function","name":"INITIAL_ETH_USD_PRICE","inputs":[],"outputs":[{"name":"","type":"int256","internalType":"int256"}],"stateMutability":"view"},{"type":"function","name":"MINIMUM_USD","inputs":[],"outputs":[{"name":"","type":"uint256","internalType":"uint256"}],"stateMutability":"view"},{"type":"function","name":"USD_DECIMALS","inputs":[],"outputs":[{"name":"","type":"uint256","internalType":"uint256"}],"stateMutability":"view"}],"bytecode":{"object":"0x60d4610038600b82828239805160001a607314602b57634e487b7160e01b600052600060045260246000fd5b30600052607381538281f3fe730000000000000000000000000000000000000000301460806040526004361060515760003560e01c80632f6ee6951460565780636b69a592146072578063c2db494d14607b578063f7c38d1e146086575b600080fd5b605f620f424081565b6040519081526020015b60405180910390f35b605f624c4b4081565b605f642e90edd00081565b608d600881565b60405160ff9091168152602001606956fea26469706673582212207e7052aa2fb3d553554bae7cce76c559ce9c12f669b175f0439ecf09e303ea5964736f6c63430008190033","linkReferences":{}},"methodIdentifiers":{"ETH_USD_DECIMALS()":"f7c38d1e","INITIAL_ETH_USD_PRICE()":"c2db494d","MINIMUM_USD()":"6b69a592","USD_DECIMALS()":"2f6ee695"},"id":34}