{"abi":[{"type":"function","name":"AVALANCHE_FUJI","inputs":[],"outputs":[{"name":"","type":"address","internalType":"address"}],"stateMutability":"view"},{"type":"function","name":"ETHEREUM","inputs":[],"outputs":[{"name":"","type":"address","internalType":"address"}],"stateMutability":"view"},{"type":"function","name":"POLYGON","inputs":[],"outputs":[{"name":"","type":"address","internalType":"address"}],"stateMutability":"view"},{"type":"function","name":"SEPOLIA","inputs":[],"outputs":[{"name":"","type":"address","internalType":"address"}],"stateMutability":"view"}],"bytecode":{"object":"0x610110610039600b82828239805160001a607314602c57634e487b7160e01b600052600060045260246000fd5b30600052607381538281f3fe730000000000000000000000000000000000000000301460806040526004361060515760003560e01c806302bbb9e6146056578063c8744dd814608c578063ebb0c75b1460a6578063f7cdf47c1460c0575b600080fd5b6070731c7d4b196cb0c7b01d743fbc6116a902379c723881565b6040516001600160a01b03909116815260200160405180910390f35b6070733c499c542cef5e3811e1192ce70d8cc03d5c335981565b6070735425890298aed601595a70ab815c96711a31bc6581565b607073a0b86991c6218b36c1d19d4a2e9eb0ce3606eb488156fea26469706673582212207634b9bf4f122c780ad7d6b107631608a04acec48e415be8987157d2b056266f64736f6c63430008190033","linkReferences":{}},"methodIdentifiers":{"AVALANCHE_FUJI()":"ebb0c75b","ETHEREUM()":"f7cdf47c","POLYGON()":"c8744dd8","SEPOLIA()":"02bbb9e6"},"id":34}