{"abi":[{"type":"function","name":"AVALANCHEFUJI","inputs":[],"outputs":[{"name":"","type":"uint32","internalType":"uint32"}],"stateMutability":"view"},{"type":"function","name":"ETHEREUM","inputs":[],"outputs":[{"name":"","type":"uint8","internalType":"uint8"}],"stateMutability":"view"},{"type":"function","name":"POLYGON","inputs":[],"outputs":[{"name":"","type":"uint32","internalType":"uint32"}],"stateMutability":"view"},{"type":"function","name":"SEPOLIA","inputs":[],"outputs":[{"name":"","type":"uint32","internalType":"uint32"}],"stateMutability":"view"}],"bytecode":{"object":"0x60d6610038600b82828239805160001a607314602b57634e487b7160e01b600052600060045260246000fd5b30600052607381538281f3fe730000000000000000000000000000000000000000301460806040526004361060515760003560e01c806302bbb9e6146056578063bc74cd6a146079578063c8744dd8146081578063f7cdf47c146088575b600080fd5b605f62aa36a781565b60405163ffffffff90911681526020015b60405180910390f35b605f61a86981565b605f608981565b608f600181565b60405160ff9091168152602001607056fea26469706673582212208973884b7a8f56840ea4f69b84cf0a080597ff98d8de1199652e4b0383f57c0a64736f6c63430008190033","linkReferences":{}},"methodIdentifiers":{"AVALANCHEFUJI()":"bc74cd6a","ETHEREUM()":"f7cdf47c","POLYGON()":"c8744dd8","SEPOLIA()":"02bbb9e6"},"id":34}