{"abi":[{"type":"function","name":"ETH_USD_DECIMALS","inputs":[],"outputs":[{"name":"","type":"uint8","internalType":"uint8"}],"stateMutability":"view"},{"type":"function","name":"INITIAL_ETH_USD_PRICE","inputs":[],"outputs":[{"name":"","type":"int256","internalType":"int256"}],"stateMutability":"view"},{"type":"function","name":"MINIMUM_USD","inputs":[],"outputs":[{"name":"","type":"uint256","internalType":"uint256"}],"stateMutability":"view"}],"bytecode":{"object":"0x60c16037600b82828239805160001a607314602a57634e487b7160e01b600052600060045260246000fd5b30600052607381538281f3fe730000000000000000000000000000000000000000301460806040526004361060475760003560e01c80636b69a59214604c578063c2db494d146068578063f7c38d1e146073575b600080fd5b6055624c4b4081565b6040519081526020015b60405180910390f35b6055642e90edd00081565b607a600881565b60405160ff9091168152602001605f56fea2646970667358221220052b33161e300bcce9dc6801e013769fb769eeb25333bf148459f32a3d3d652864736f6c63430008190033","linkReferences":{}},"methodIdentifiers":{"ETH_USD_DECIMALS()":"f7c38d1e","INITIAL_ETH_USD_PRICE()":"c2db494d","MINIMUM_USD()":"6b69a592"},"id":31}