{"abi":[{"type":"function","name":"AVALANCHEFUJI","inputs":[],"outputs":[{"name":"","type":"uint32","internalType":"uint32"}],"stateMutability":"view"},{"type":"function","name":"ETHEREUM","inputs":[],"outputs":[{"name":"","type":"uint8","internalType":"uint8"}],"stateMutability":"view"},{"type":"function","name":"SEPOLIA","inputs":[],"outputs":[{"name":"","type":"uint32","internalType":"uint32"}],"stateMutability":"view"}],"bytecode":{"object":"0x60c5610038600b82828239805160001a607314602b57634e487b7160e01b600052600060045260246000fd5b30600052607381538281f3fe730000000000000000000000000000000000000000301460806040526004361060475760003560e01c806302bbb9e614604c578063bc74cd6a14606f578063f7cdf47c146077575b600080fd5b605562aa36a781565b60405163ffffffff90911681526020015b60405180910390f35b605561a86981565b607e600181565b60405160ff9091168152602001606656fea264697066735822122064125b223fe32ee562bf47a2a1109ae91e91cf78c9e9f5607f9883c399698d3064736f6c63430008190033","linkReferences":{}},"methodIdentifiers":{"AVALANCHEFUJI()":"bc74cd6a","ETHEREUM()":"f7cdf47c","SEPOLIA()":"02bbb9e6"},"id":34}