{"abi":[{"type":"function","name":"ETHEREUM","inputs":[],"outputs":[{"name":"","type":"uint8","internalType":"uint8"}],"stateMutability":"view"},{"type":"function","name":"SEPOLIA","inputs":[],"outputs":[{"name":"","type":"uint32","internalType":"uint32"}],"stateMutability":"view"}],"bytecode":{"object":"0x60b36037600b82828239805160001a607314602a57634e487b7160e01b600052600060045260246000fd5b30600052607381538281f3fe7300000000000000000000000000000000000000003014608060405260043610603d5760003560e01c806302bbb9e6146042578063f7cdf47c146065575b600080fd5b604b62aa36a781565b60405163ffffffff90911681526020015b60405180910390f35b606c600181565b60405160ff9091168152602001605c56fea264697066735822122031b6a7591bd803056b353a18bf817a5d7cf3122afdab588a4efbed708436661b64736f6c63430008190033","linkReferences":{}},"methodIdentifiers":{"ETHEREUM()":"f7cdf47c","SEPOLIA()":"02bbb9e6"},"id":29}