{"abi":[{"type":"function","name":"ETHEREUM","inputs":[],"outputs":[{"name":"","type":"address","internalType":"address"}],"stateMutability":"view"},{"type":"function","name":"SEPOLIA","inputs":[],"outputs":[{"name":"","type":"address","internalType":"address"}],"stateMutability":"view"}],"bytecode":{"object":"0x60c8610038600b82828239805160001a607314602b57634e487b7160e01b600052600060045260246000fd5b30600052607381538281f3fe7300000000000000000000000000000000000000003014608060405260043610603d5760003560e01c806302bbb9e6146042578063f7cdf47c146078575b600080fd5b605c731c7d4b196cb0c7b01d743fbc6116a902379c723881565b6040516001600160a01b03909116815260200160405180910390f35b605c73a0b86991c6218b36c1d19d4a2e9eb0ce3606eb488156fea264697066735822122085c8b209215fb0695932ccc4d45b06318cba50d5a2d47b0ea8a3675519d40bd564736f6c63430008190033","linkReferences":{}},"methodIdentifiers":{"ETHEREUM()":"f7cdf47c","SEPOLIA()":"02bbb9e6"},"id":29}