{"abi":[{"type":"function","name":"ANVIL_CHAIN_ID","inputs":[],"outputs":[{"name":"","type":"uint8","internalType":"uint8"}],"stateMutability":"view"},{"type":"function","name":"ETH_USD_DECIMALS","inputs":[],"outputs":[{"name":"","type":"uint8","internalType":"uint8"}],"stateMutability":"view"},{"type":"function","name":"INITIAL_ETH_USD_PRICE","inputs":[],"outputs":[{"name":"","type":"int256","internalType":"int256"}],"stateMutability":"view"},{"type":"function","name":"MAINNET_CHAIN_ID","inputs":[],"outputs":[{"name":"","type":"uint8","internalType":"uint8"}],"stateMutability":"view"},{"type":"function","name":"MINIMUM_USD","inputs":[],"outputs":[{"name":"","type":"uint256","internalType":"uint256"}],"stateMutability":"view"},{"type":"function","name":"SEPOLIA_CHAIN_ID","inputs":[],"outputs":[{"name":"","type":"uint32","internalType":"uint32"}],"stateMutability":"view"}],"bytecode":{"object":"0x61010a610039600b82828239805160001a607314602c57634e487b7160e01b600052600060045260246000fd5b30600052607381538281f3fe730000000000000000000000000000000000000000301460806040526004361060655760003560e01c80634b534bdf14606a57806368c200571460885780636b69a59214608f5780639db1e6051460a5578063c2db494d1460c2578063f7c38d1e1460cd575b600080fd5b6071600281565b60405160ff90911681526020015b60405180910390f35b6071600181565b6098624c4b4081565b604051908152602001607f565b60ae62aa36a781565b60405163ffffffff9091168152602001607f565b6098642e90edd00081565b607160088156fea2646970667358221220db226fa31e19a940d615320a1cf5bc56eba3d32eb86d7dfe1086ca7e955fc8dd64736f6c63430008190033","linkReferences":{}},"methodIdentifiers":{"ANVIL_CHAIN_ID()":"4b534bdf","ETH_USD_DECIMALS()":"f7c38d1e","INITIAL_ETH_USD_PRICE()":"c2db494d","MAINNET_CHAIN_ID()":"68c20057","MINIMUM_USD()":"6b69a592","SEPOLIA_CHAIN_ID()":"9db1e605"},"id":30}