{"abi":[{"type":"function","name":"AVALANCHE_FUJI","inputs":[],"outputs":[{"name":"","type":"address","internalType":"address"}],"stateMutability":"view"},{"type":"function","name":"ETHEREUM","inputs":[],"outputs":[{"name":"","type":"address","internalType":"address"}],"stateMutability":"view"},{"type":"function","name":"POLYGON","inputs":[],"outputs":[{"name":"","type":"address","internalType":"address"}],"stateMutability":"view"},{"type":"function","name":"POLYGON_AMOY","inputs":[],"outputs":[{"name":"","type":"address","internalType":"address"}],"stateMutability":"view"},{"type":"function","name":"SEPOLIA","inputs":[],"outputs":[{"name":"","type":"address","internalType":"address"}],"stateMutability":"view"}],"bytecode":{"object":"0x610134610039600b82828239805160001a607314602c57634e487b7160e01b600052600060045260246000fd5b30600052607381538281f3fe7300000000000000000000000000000000000000003014608060405260043610605b5760003560e01c806302bbb9e614606057806339e95f1b146096578063c8744dd81460b0578063ebb0c75b1460ca578063f7cdf47c1460e4575b600080fd5b607a731c7d4b196cb0c7b01d743fbc6116a902379c723881565b6040516001600160a01b03909116815260200160405180910390f35b607a7341e94eb019c0762f9bfcf9fb1e58725bfb0e758281565b607a733c499c542cef5e3811e1192ce70d8cc03d5c335981565b607a735425890298aed601595a70ab815c96711a31bc6581565b607a73a0b86991c6218b36c1d19d4a2e9eb0ce3606eb488156fea2646970667358221220592f5f9031945055c6b444aa8db29efc4d554e0f661373c44552a9d55de8011964736f6c63430008190033","linkReferences":{}},"methodIdentifiers":{"AVALANCHE_FUJI()":"ebb0c75b","ETHEREUM()":"f7cdf47c","POLYGON()":"c8744dd8","POLYGON_AMOY()":"39e95f1b","SEPOLIA()":"02bbb9e6"},"id":54}